C51 COMPILER V5.50,  GSMBASE                                                               13/09/08  10:06:14  PAGE 1   


DOS C51 COMPILER V5.50, COMPILATION OF MODULE GSMBASE
OBJECT MODULE PLACED IN ..\MODULY\GSM_TM2\GSMBASE.OBJ
COMPILER INVOKED BY: C:\KEIL\C51_V5.5\BIN\C51.EXE ..\MODULY\GSM_TM2\GSMBASE.C51 CD DB

stmt level    source

   1          //******************************************************************************
   2          //
   3          //   GsmBase.c    GSM basic services (Teltonika TM2)
   4          //   Version 1.0  (c) VymOs
   5          //
   6          //******************************************************************************
   7          
   8          #include "..\inc\Gsm.h"
   9          #include "..\inc\System.h"   // SysDelay
  10          
  11          #ifndef GSM_COM2
  12             #include "..\inc\Com.h"
  13          #else
                 #include "..\inc\Com2sw.h"
              
                 #define ComFlushChars Com2FlushChars
                 #define ComRxChar     Com2RxChar
                 #define ComRxWait     Com2RxWait
                 #define ComTxChar     Com2TxChar
              #endif
  21          
  22          #include "..\inc\COM_util.h"
  23          
  24          // Preddefinovane retezce :
  25          
  26          static char code Ok[]          = "\r\nOK\r\n";          // ok reply
  27          static char code EchoOff[]     = "ATE0\r";              // echo off
  28          static char code ErrorMode[]   = "ATV1+CMEE=1\r";       // Extended error mode
  29          static char code TextMode[]    = "AT+CMGF=1\r";         // SMS text mode
  30          static char code SendParams1[] = "AT+CSMP=17,";         // SMS send parameters part 1 + <expiration>
  31          static char code SendParams2[] = ",0,0\r";              // SMS send parameters part 2
  32          
  33          
  34          #define TxString( s) ComFlushChars();ComTxString( s)    // pred vyslanim zrus Rx
  35          #define TO_REPLY          8                             // timeout odpovedi [100ms]
  36          #define TO_MEMORY_SWITCH 50                             // timeout pri prepnuti pameti [100ms]
  37          
  38          #ifdef GSM_DEBUG
  39             byte __xdata__ GsmErrno;
  40             #define TRACE( n)  GsmErrno = n;
  41          #else
                 #define TRACE( n)
              #endif
  44          
  45          //-----------------------------------------------------------------------------
  46          // Reset
  47          //-----------------------------------------------------------------------------
  48          
  49          TYesNo GsmReset( void)
  50          // Inicializace modemu
  51          {
  52   1         // Echo off :
  53   1         TxString( EchoOff);
  54   1         if( !ComRxWait( TO_REPLY)){         // cekani na odpoved
  55   2            TRACE( 1);
  56   2            return( NO);
  57   2         }
  58   1         if( !ComWaitChar( '\n')){           // pred OK
  59   2            TRACE( 2);
C51 COMPILER V5.50,  GSMBASE                                                               13/09/08  10:06:14  PAGE 2   

  60   2            return( NO);
  61   2         }
  62   1         if( !ComWaitChar( '\n')){           // za OK
  63   2            TRACE( 3);
  64   2            return( NO);
  65   2         }
  66   1         // Extended error mode :
  67   1         ComTxString( ErrorMode);
  68   1         if( !ComRxMatch( Ok, TO_REPLY)){
  69   2            TRACE( 4);
  70   2            return( NO);
  71   2         }
  72   1         // SMS mode :
  73   1         ComTxString( TextMode);
  74   1         if( !ComRxMatch( Ok, TO_REPLY)){
  75   2            TRACE( 5);
  76   2            return( NO);
  77   2         }
  78   1         // SMS Expiration :
  79   1         TxString( SendParams1);
  80   1         ComTxDec( SMS_EXPIRATION);
  81   1         TxString( SendParams2);
  82   1         if( !ComRxMatch( Ok, TO_REPLY)){
  83   2            TRACE( 6);
  84   2            return( NO);
  85   2         }
  86   1         // Predpoklada se, ze GSM modul je jiz spravne nastaven na pamet v SIM karte
  87   1         TRACE( 0);
  88   1         return( YES);
  89   1      } // GsmReset
  90          
  91          //******************************************************************************
  92          // Registrace
  93          //******************************************************************************
  94          
  95          static char code Registered[] = "AT+CREG?\r";           // Registration
  96          static char code RegHeader[]  = "\r\n+CREG: ";          // Header of registration
  97          
  98          
  99          TYesNo GsmRegistered( void)
 100          // Vraci YES, je-li modem registrovan v siti
 101          {
 102   1      byte Value;
 103   1      
 104   1         TxString( Registered);
 105   1         if( !ComRxMatch( RegHeader, TO_REPLY)){
 106   2            TRACE( 1);
 107   2            return( NO);
 108   2         }
 109   1         if( !ComWaitChar( ',')){            // preskoc pole <n>
 110   2            TRACE( 2);
 111   2            return( NO);
 112   2         }
 113   1      #ifdef GSM_TM2_OLD
                 if( !ComRxChar( &Value)){           // Tm2 stara verze - mezera navic
                    TRACE( 3);
                    return( NO);
                 }
              #endif
 119   1         Value = ComRxDec();                 // pole <stat>
 120   1         if( Value == 1 || Value == 5){
 121   2            TRACE( 0);
 122   2            return( YES);                    // registered or roaming
 123   2         }
 124   1         TRACE( 4);
 125   1         return( NO);
C51 COMPILER V5.50,  GSMBASE                                                               13/09/08  10:06:14  PAGE 3   

 126   1      } // GsmRegistered
 127          
 128          #ifdef GSM_OPERATOR
              //******************************************************************************
              // Operator
              //******************************************************************************
              
              static char code Operator[]   = "AT+COPS?\r";           // Get operator
              static char code OperHeader[] = "\r\n+COPS: ";          // operator header
              
              TYesNo GsmOperator( char xdata *Name)
              // Vrati retezec s nazvem operatora,
              // POZOR delka <Name> musi byt min SMS_MAX_OPERATOR+1
              {
                 TxString( Operator);
                 if( !ComRxMatch( OperHeader, TO_REPLY)){
                    TRACE( 1);
                    return( NO);
                 }
                 if( !ComWaitChar( ',')){            // preskoc pole <mode>
                    TRACE( 2);
                    return( NO);
                 }
                 if( !ComWaitChar( ',')){            // preskoc pole <format>
                    TRACE( 3);
                    return( NO);
                 }
                 if( !ComRxString( Name, SMS_MAX_OPERATOR)){
                    TRACE( 4);
                    return( NO);
                 }
                 TRACE( 0);
                 return( YES);
              } // GsmOperator
              
              #endif // GSM_OPERATOR
 162          
 163          #ifdef GSM_SIGNAL_STRENGTH
              //******************************************************************************
              // Sila signalu
              //******************************************************************************
              
              static char code Rssi[]       = "AT+CSQ\r";             // Get Received Signal Strength
              static char code RssiHeader[] = "\r\n+CSQ: ";           // Signal strength header
              
              byte GsmSignalStrength( void)
              // Vrati relativni silu signalu 0..31 nebo 99 nejde-li zjistit
              {
              byte Value;
              
                 TxString( Rssi);
                 if( !ComRxMatch( RssiHeader, TO_REPLY)){
                    TRACE( 1);
                    return( 99);
                 }
                 Value = ComRxDec();                 // relativni sila
                 TRACE( 0);
                 return( Value);
              } // GsmSignalStrength
              
              #endif // GSM_SIGNAL_STREGTH
 187          
 188          #ifdef GSM_SMS_MEMORY
              //-----------------------------------------------------------------------------
              // Set SMS Memory
              //-----------------------------------------------------------------------------
C51 COMPILER V5.50,  GSMBASE                                                               13/09/08  10:06:14  PAGE 4   

              
              static char code MemoryPhone[] = "AT+CPMS=\"MT\",\"MT\",\"MT\"\r";  // SMS data in the internal memory
              static char code MemorySim[]   = "AT+CPMS=\"SM\",\"SM\",\"SM\"\r";  // SMS data in the SIM memory
              static char code MemoryHeader[]= "\r\n+CPMS: ";         // Header of memory settings
              
              TYesNo SmsMemory( byte Location)
              // Nastaveni pameti SMS. <Location> viz TSmsMemory
              {
                 switch( Location){
                    case SMS_SIM_MEMORY :
                       TxString( MemorySim);
                       break;
                    case SMS_PHONE_MEMORY :
                       TxString( MemoryPhone);
                       break;
                    default :
                       TRACE( 5);
                       return( NO);
                 }
                 if( !ComRxMatch( MemoryHeader, TO_MEMORY_SWITCH)){ // prepnuti trva az nekolik sekund
                    TRACE( 1);
                    return( NO);
                 }
                 if( !ComWaitChar( '\r')){            // preskoc na konec radku
                    TRACE( 2);
                    return( NO);
                 }
                 if( !ComWaitChar( '\n')){
                    TRACE( 3);
                    return( NO);
                 }
                 if( !ComRxMatch( Ok, TO_REPLY)){    // OK
                    TRACE( 4);
                    return( NO);
                 }
                 TRACE( 0);
                 return( YES);
              } // SmsMemory
              
              #endif // GSM_SMS_MEMORY
C51 COMPILER V5.50,  GSMBASE                                                               13/09/08  10:06:14  PAGE 5   

ASSEMBLY LISTING OF GENERATED OBJECT CODE


             ; FUNCTION GsmReset (BEGIN)
                                           ; SOURCE LINE # 49
                                           ; SOURCE LINE # 51
                                           ; SOURCE LINE # 53
0000 120000  E     LCALL   ComFlushChars
0003 7E00    R     MOV     R6,#HIGH EchoOff
0005 7F00    R     MOV     R7,#LOW EchoOff
0007 120000  E     LCALL   _ComTxString
                                           ; SOURCE LINE # 54
000A 7F08          MOV     R7,#08H
000C 120000  E     LCALL   _ComRxWait
000F 4008          JC      ?C0001
                                           ; SOURCE LINE # 55
0011 900000  R     MOV     DPTR,#GsmErrno
0014 7401          MOV     A,#01H
0016 F0            MOVX    @DPTR,A
                                           ; SOURCE LINE # 56
0017 C3            CLR     C
0018 22            RET     
                                           ; SOURCE LINE # 57
0019         ?C0001:
                                           ; SOURCE LINE # 58
0019 7F0A          MOV     R7,#0AH
001B 120000  E     LCALL   _ComWaitChar
001E 4008          JC      ?C0003
                                           ; SOURCE LINE # 59
0020 900000  R     MOV     DPTR,#GsmErrno
0023 7402          MOV     A,#02H
0025 F0            MOVX    @DPTR,A
                                           ; SOURCE LINE # 60
0026 C3            CLR     C
0027 22            RET     
                                           ; SOURCE LINE # 61
0028         ?C0003:
                                           ; SOURCE LINE # 62
0028 7F0A          MOV     R7,#0AH
002A 120000  E     LCALL   _ComWaitChar
002D 4008          JC      ?C0004
                                           ; SOURCE LINE # 63
002F 900000  R     MOV     DPTR,#GsmErrno
0032 7403          MOV     A,#03H
0034 F0            MOVX    @DPTR,A
                                           ; SOURCE LINE # 64
0035 C3            CLR     C
0036 22            RET     
                                           ; SOURCE LINE # 65
0037         ?C0004:
                                           ; SOURCE LINE # 67
0037 7E00    R     MOV     R6,#HIGH ErrorMode
0039 7F00    R     MOV     R7,#LOW ErrorMode
003B 120000  E     LCALL   _ComTxString
                                           ; SOURCE LINE # 68
003E 7E00    R     MOV     R6,#HIGH Ok
0040 7F00    R     MOV     R7,#LOW Ok
0042 7D08          MOV     R5,#08H
0044 120000  E     LCALL   _ComRxMatch
0047 4008          JC      ?C0005
                                           ; SOURCE LINE # 69
0049 900000  R     MOV     DPTR,#GsmErrno
004C 7404          MOV     A,#04H
004E F0            MOVX    @DPTR,A
                                           ; SOURCE LINE # 70
004F C3            CLR     C
C51 COMPILER V5.50,  GSMBASE                                                               13/09/08  10:06:14  PAGE 6   

0050 22            RET     
                                           ; SOURCE LINE # 71
0051         ?C0005:
                                           ; SOURCE LINE # 73
0051 7E00    R     MOV     R6,#HIGH TextMode
0053 7F00    R     MOV     R7,#LOW TextMode
0055 120000  E     LCALL   _ComTxString
                                           ; SOURCE LINE # 74
0058 7E00    R     MOV     R6,#HIGH Ok
005A 7F00    R     MOV     R7,#LOW Ok
005C 7D08          MOV     R5,#08H
005E 120000  E     LCALL   _ComRxMatch
0061 4008          JC      ?C0006
                                           ; SOURCE LINE # 75
0063 900000  R     MOV     DPTR,#GsmErrno
0066 7405          MOV     A,#05H
0068 F0            MOVX    @DPTR,A
                                           ; SOURCE LINE # 76
0069 C3            CLR     C
006A 22            RET     
                                           ; SOURCE LINE # 77
006B         ?C0006:
                                           ; SOURCE LINE # 79
006B 120000  E     LCALL   ComFlushChars
006E 7E00    R     MOV     R6,#HIGH SendParams1
0070 7F00    R     MOV     R7,#LOW SendParams1
0072 120000  E     LCALL   _ComTxString
                                           ; SOURCE LINE # 80
0075 7FAA          MOV     R7,#0AAH
0077 120000  E     LCALL   _ComTxDec
                                           ; SOURCE LINE # 81
007A 120000  E     LCALL   ComFlushChars
007D 7E00    R     MOV     R6,#HIGH SendParams2
007F 7F00    R     MOV     R7,#LOW SendParams2
0081 120000  E     LCALL   _ComTxString
                                           ; SOURCE LINE # 82
0084 7E00    R     MOV     R6,#HIGH Ok
0086 7F00    R     MOV     R7,#LOW Ok
0088 7D08          MOV     R5,#08H
008A 120000  E     LCALL   _ComRxMatch
008D 4008          JC      ?C0007
                                           ; SOURCE LINE # 83
008F 900000  R     MOV     DPTR,#GsmErrno
0092 7406          MOV     A,#06H
0094 F0            MOVX    @DPTR,A
                                           ; SOURCE LINE # 84
0095 C3            CLR     C
0096 22            RET     
                                           ; SOURCE LINE # 85
0097         ?C0007:
                                           ; SOURCE LINE # 87
0097 E4            CLR     A
0098 900000  R     MOV     DPTR,#GsmErrno
009B F0            MOVX    @DPTR,A
                                           ; SOURCE LINE # 88
009C D3            SETB    C
                                           ; SOURCE LINE # 89
009D         ?C0002:
009D 22            RET     
             ; FUNCTION GsmReset (END)

             ; FUNCTION GsmRegistered (BEGIN)
                                           ; SOURCE LINE # 99
                                           ; SOURCE LINE # 101
                                           ; SOURCE LINE # 104
0000 120000  E     LCALL   ComFlushChars
C51 COMPILER V5.50,  GSMBASE                                                               13/09/08  10:06:14  PAGE 7   

0003 7E00    R     MOV     R6,#HIGH Registered
0005 7F00    R     MOV     R7,#LOW Registered
0007 120000  E     LCALL   _ComTxString
                                           ; SOURCE LINE # 105
000A 7E00    R     MOV     R6,#HIGH RegHeader
000C 7F00    R     MOV     R7,#LOW RegHeader
000E 7D08          MOV     R5,#08H
0010 120000  E     LCALL   _ComRxMatch
0013 4008          JC      ?C0008
                                           ; SOURCE LINE # 106
0015 900000  R     MOV     DPTR,#GsmErrno
0018 7401          MOV     A,#01H
001A F0            MOVX    @DPTR,A
                                           ; SOURCE LINE # 107
001B C3            CLR     C
001C 22            RET     
                                           ; SOURCE LINE # 108
001D         ?C0008:
                                           ; SOURCE LINE # 109
001D 7F2C          MOV     R7,#02CH
001F 120000  E     LCALL   _ComWaitChar
0022 4008          JC      ?C0010
                                           ; SOURCE LINE # 110
0024 900000  R     MOV     DPTR,#GsmErrno
0027 7402          MOV     A,#02H
0029 F0            MOVX    @DPTR,A
                                           ; SOURCE LINE # 111
002A C3            CLR     C
002B 22            RET     
                                           ; SOURCE LINE # 112
002C         ?C0010:
                                           ; SOURCE LINE # 119
002C 120000  E     LCALL   ComRxDec
;---- Variable 'Value' assigned to Register 'R7' ----
                                           ; SOURCE LINE # 120
002F EF            MOV     A,R7
0030 6401          XRL     A,#01H
0032 6003          JZ      ?C0012
0034 BF0507        CJNE    R7,#05H,?C0011
0037         ?C0012:
                                           ; SOURCE LINE # 121
0037 E4            CLR     A
0038 900000  R     MOV     DPTR,#GsmErrno
003B F0            MOVX    @DPTR,A
                                           ; SOURCE LINE # 122
003C D3            SETB    C
003D 22            RET     
                                           ; SOURCE LINE # 123
003E         ?C0011:
                                           ; SOURCE LINE # 124
003E 900000  R     MOV     DPTR,#GsmErrno
0041 7404          MOV     A,#04H
0043 F0            MOVX    @DPTR,A
                                           ; SOURCE LINE # 125
0044 C3            CLR     C
                                           ; SOURCE LINE # 126
0045         ?C0009:
0045 22            RET     
             ; FUNCTION GsmRegistered (END)



MODULE INFORMATION:   STATIC OVERLAYABLE
   CODE SIZE        =    228    ----
   CONSTANT SIZE    =     75    ----
   XDATA SIZE       =      1    ----
C51 COMPILER V5.50,  GSMBASE                                                               13/09/08  10:06:14  PAGE 8   

   PDATA SIZE       =   ----    ----
   DATA SIZE        =   ----    ----
   IDATA SIZE       =   ----    ----
   BIT SIZE         =   ----    ----
END OF MODULE INFORMATION.


C51 COMPILATION COMPLETE.  0 WARNING(S),  0 ERROR(S)
