C51 COMPILER V5.50,  MBRFIFO                                                               27/06/07  09:26:43  PAGE 1   


DOS C51 COMPILER V5.50, COMPILATION OF MODULE MBRFIFO
OBJECT MODULE PLACED IN ..\MODULY\MODBUS\MBRFIFO.OBJ
COMPILER INVOKED BY: C:\KEIL\C51_V5.5\BIN\C51.EXE ..\MODULY\MODBUS\MBRFIFO.C51 CD DB

stmt level    source

   1          //*****************************************************************************
   2          //
   3          //   MBRFifo.c       Modbus process reply - FIFO registers commands
   4          //   Version 1.0 (c) VymOs
   5          //
   6          //*****************************************************************************
   7          
   8          #include "MBRFifo.h"
   9          #include "..\inc\MBPacket.h"          // zapis dat paketu
  10          #include "..\inc\MBCb.h"              // vykonne callbacky
  11          #include "..\inc\MB.h"                // pomocne operace
  12          #include "..\inc\MBPdu.h"             // MBBitsToByte
  13          
  14          //-----------------------------------------------------------------------------
  15          // Read registers
  16          //-----------------------------------------------------------------------------
  17          
  18          void MBRReadFifoQueue( word Address)
  19          // Precte frontu 16bit hodnot
  20          {
  21   1      word Count;
  22   1      
  23   1         Count = MBCGetFifoLength();         // pocet polozek k odeslani
  24   1         if( Count > MB_MAX_FIFO_COUNT){
  25   2            Count = MB_MAX_FIFO_COUNT;       // omezeni poctu polozek
  26   2         }
  27   1         // zahlavi odpovedi :
  28   1         MBWriteAddress( MBCGetOwnAddress());
  29   1         MBWriteByte( MBGetFunctionCode());
  30   1         MBWriteByte( 2 * Count);            // pocet bytu fronty
  31   1         MBWriteWord( Count);                // pocet polozek fronty
  32   1      
  33   1         // vykonny callback :
  34   1         if( !MBCReadFifoQueue( Address, Count)){
  35   2            return;                          // exception
  36   2         }
  37   1         MBWriteCrc();                       // dokonceni paketu
  38   1      } // MBRReadFifoQueue
  39          
C51 COMPILER V5.50,  MBRFIFO                                                               27/06/07  09:26:43  PAGE 2   

ASSEMBLY LISTING OF GENERATED OBJECT CODE


             ; FUNCTION _MBRReadFifoQueue (BEGIN)
0000 8E00    R     MOV     Address,R6
0002 8F00    R     MOV     Address+01H,R7
                                           ; SOURCE LINE # 18
                                           ; SOURCE LINE # 20
                                           ; SOURCE LINE # 23
0004 120000  E     LCALL   MBCGetFifoLength
0007 8E00    R     MOV     Count,R6
0009 8F00    R     MOV     Count+01H,R7
                                           ; SOURCE LINE # 24
000B D3            SETB    C
000C E500    R     MOV     A,Count+01H
000E 941F          SUBB    A,#01FH
0010 E500    R     MOV     A,Count
0012 9400          SUBB    A,#00H
0014 4006          JC      ?C0001
                                           ; SOURCE LINE # 25
0016 750000  R     MOV     Count,#00H
0019 75001F  R     MOV     Count+01H,#01FH
                                           ; SOURCE LINE # 26
001C         ?C0001:
                                           ; SOURCE LINE # 28
001C 120000  E     LCALL   MBCGetOwnAddress
001F 120000  E     LCALL   _MBWriteAddress
                                           ; SOURCE LINE # 29
0022 120000  E     LCALL   MBGetFunctionCode
0025 120000  E     LCALL   _MBWriteByte
                                           ; SOURCE LINE # 30
0028 E500    R     MOV     A,Count+01H
002A 25E0          ADD     A,ACC
002C FF            MOV     R7,A
002D 120000  E     LCALL   _MBWriteByte
                                           ; SOURCE LINE # 31
0030 AF00    R     MOV     R7,Count+01H
0032 AE00    R     MOV     R6,Count
0034 120000  E     LCALL   _MBWriteWord
                                           ; SOURCE LINE # 34
0037 AF00    R     MOV     R7,Address+01H
0039 AE00    R     MOV     R6,Address
003B AD00    R     MOV     R5,Count+01H
003D AC00    R     MOV     R4,Count
003F 120000  E     LCALL   _MBCReadFifoQueue
0042 5003          JNC     ?C0003
                                           ; SOURCE LINE # 36
0044         ?C0002:
                                           ; SOURCE LINE # 37
0044 120000  E     LCALL   MBWriteCrc
                                           ; SOURCE LINE # 38
0047         ?C0003:
0047 22            RET     
             ; FUNCTION _MBRReadFifoQueue (END)



MODULE INFORMATION:   STATIC OVERLAYABLE
   CODE SIZE        =     72    ----
   CONSTANT SIZE    =   ----    ----
   XDATA SIZE       =   ----    ----
   PDATA SIZE       =   ----    ----
   DATA SIZE        =   ----       4
   IDATA SIZE       =   ----    ----
   BIT SIZE         =   ----    ----
END OF MODULE INFORMATION.
C51 COMPILER V5.50,  MBRFIFO                                                               27/06/07  09:26:43  PAGE 3   



C51 COMPILATION COMPLETE.  0 WARNING(S),  0 ERROR(S)
