C51 COMPILER V5.50,  MBRTU                                                                 20/07/12  15:15:09  PAGE 1   


DOS C51 COMPILER V5.50, COMPILATION OF MODULE MBRTU
OBJECT MODULE PLACED IN ..\MODULY\MODBUS\MBRTU.OBJ
COMPILER INVOKED BY: E:\C51_V5.5\BIN\C51.EXE ..\MODULY\MODBUS\MBRTU.C51 CD DB

stmt level    source

   1          //*****************************************************************************
   2          //
   3          //   MBRtu.c     Modbus serial communication - RTU packets
   4          //   Version 1.0 (c) VymOs
   5          //
   6          //*****************************************************************************
   7          
   8          #include "MBRtu.h"
   9          #include "..\inc\MBPkt.h"
  10          #include "..\inc\MBCom.h"
  11          
  12          #define TraceError( n)
  13          
  14          static word CalcCrc( word Size);
  15          // Vypocita zabezpeceni z <Size> bytu
  16          
  17          //-----------------------------------------------------------------------------
  18          // Prijem paketu
  19          //-----------------------------------------------------------------------------
  20          
  21          TYesNo MBRReceive( void **Pdu, word *Size)
  22          // Dekoduje prijaty paket, vraci ukazatel na zacatek <Pdu>
  23          // a velikost dat <Size>
  24          {
  25   1      word Crc;
  26   1      word MCrc;
  27   1      
  28   1         if( ComDataSize <= MB_RTU_MIN_SIZE){
  29   2            TraceError( 1);
  30   2            return( NO);
  31   2         }
  32   1         if( ComDataSize > MB_RTU_MAX_SIZE){
  33   2            TraceError( 2);
  34   2            return( NO);
  35   2         }
  36   1         Crc   = CalcCrc( ComDataSize - MB_RTU_CRC_SIZE);
  37   1         MCrc  = (word)ComBuffer[ ComDataSize - 2];        // LSB CRC
  38   1         MCrc |= (word)ComBuffer[ ComDataSize - 1] << 8;   // MSB CRC
  39   1         if( Crc != MCrc){
  40   2            TraceError( 3);
  41   2            return( NO);
  42   2         }
  43   1         *Size = ComDataSize - MB_RTU_ADDRESS_SIZE - MB_RTU_CRC_SIZE;
  44   1         *Pdu  = &ComBuffer[ 1];
  45   1         return( YES);
  46   1      } // MBRReceive
  47          
  48          //-----------------------------------------------------------------------------
  49          // Rx Adresa
  50          //-----------------------------------------------------------------------------
  51          
  52          byte MBRGetAddress( void)
  53          // Vrati adresu paketu. POZOR, volat az po MBAReceive
  54          {
  55   1         return( ComBuffer[ 0]);
  56   1      } // MBRGetAddress
  57          
  58          
  59          //-----------------------------------------------------------------------------
C51 COMPILER V5.50,  MBRTU                                                                 20/07/12  15:15:09  PAGE 2   

  60          
  61          
  62          //-----------------------------------------------------------------------------
  63          // Tx Adresa
  64          //-----------------------------------------------------------------------------
  65          
  66          void MBRWriteAddress( byte Address)
  67          // Zapise adresu paketu
  68          {
  69   1         ComDataSize = 0;
  70   1         MBRWriteByte( Address);
  71   1      } // MBRWriteAddress
  72          
  73          //-----------------------------------------------------------------------------
  74          // Tx Byte
  75          //-----------------------------------------------------------------------------
  76          
  77          void MBRWriteByte( byte Data)
  78          // Zapise 8bitove slovo do paketu
  79          {
  80   1         ComBuffer[ ComDataSize++] = Data;
  81   1      } // MBRWriteByte
  82          
  83          //-----------------------------------------------------------------------------
  84          // Tx Word
  85          //-----------------------------------------------------------------------------
  86          
  87          void MBRWriteWord( word Data)
  88          // Zapise 16bitove slovo do paketu
  89          {
  90   1         MBRWriteByte( Data >> 8);           // MSB first
  91   1         MBRWriteByte( Data & 0xFF);         // LSB
  92   1      } // MBRWriteWord
  93          
  94          //-----------------------------------------------------------------------------
  95          // Tx Crc
  96          //-----------------------------------------------------------------------------
  97          
  98          void MBRWriteCrc( void)
  99          // Spocita a zapise zabezpeceni
 100          {
 101   1      word Crc;
 102   1      
 103   1         Crc = CalcCrc( ComDataSize);
 104   1         MBRWriteByte( Crc & 0xFF);          // LSB first
 105   1         MBRWriteByte( Crc >> 8);            // MSB
 106   1      } // MBRWriteCrc
 107          
 108          //-----------------------------------------------------------------------------
 109          // CRC
 110          //-----------------------------------------------------------------------------
 111          
 112          static byte code TblCrcHi[] = {
 113          0x00,0xC1,0x81,0x40,0x01,0xC0,0x80,0x41,0x01,0xC0,0x80,0x41,0x00,0xC1,0x81,
 114          0x40,0x01,0xC0,0x80,0x41,0x00,0xC1,0x81,0x40,0x00,0xC1,0x81,0x40,0x01,0xC0,
 115          0x80,0x41,0x01,0xC0,0x80,0x41,0x00,0xC1,0x81,0x40,0x00,0xC1,0x81,0x40,0x01,
 116          0xC0,0x80,0x41,0x00,0xC1,0x81,0x40,0x01,0xC0,0x80,0x41,0x01,0xC0,0x80,0x41,
 117          0x00,0xC1,0x81,0x40,0x01,0xC0,0x80,0x41,0x00,0xC1,0x81,0x40,0x00,0xC1,0x81,
 118          0x40,0x01,0xC0,0x80,0x41,0x00,0xC1,0x81,0x40,0x01,0xC0,0x80,0x41,0x01,0xC0,
 119          0x80,0x41,0x00,0xC1,0x81,0x40,0x00,0xC1,0x81,0x40,0x01,0xC0,0x80,0x41,0x01,
 120          0xC0,0x80,0x41,0x00,0xC1,0x81,0x40,0x01,0xC0,0x80,0x41,0x00,0xC1,0x81,0x40,
 121          0x00,0xC1,0x81,0x40,0x01,0xC0,0x80,0x41,0x01,0xC0,0x80,0x41,0x00,0xC1,0x81,
 122          0x40,0x00,0xC1,0x81,0x40,0x01,0xC0,0x80,0x41,0x00,0xC1,0x81,0x40,0x01,0xC0,
 123          0x80,0x41,0x01,0xC0,0x80,0x41,0x00,0xC1,0x81,0x40,0x00,0xC1,0x81,0x40,0x01,
 124          0xC0,0x80,0x41,0x01,0xC0,0x80,0x41,0x00,0xC1,0x81,0x40,0x01,0xC0,0x80,0x41,
 125          0x00,0xC1,0x81,0x40,0x00,0xC1,0x81,0x40,0x01,0xC0,0x80,0x41,0x00,0xC1,0x81,
C51 COMPILER V5.50,  MBRTU                                                                 20/07/12  15:15:09  PAGE 3   

 126          0x40,0x01,0xC0,0x80,0x41,0x01,0xC0,0x80,0x41,0x00,0xC1,0x81,0x40,0x01,0xC0,
 127          0x80,0x41,0x00,0xC1,0x81,0x40,0x00,0xC1,0x81,0x40,0x01,0xC0,0x80,0x41,0x01,
 128          0xC0,0x80,0x41,0x00,0xC1,0x81,0x40,0x00,0xC1,0x81,0x40,0x01,0xC0,0x80,0x41,
 129          0x00,0xC1,0x81,0x40,0x01,0xC0,0x80,0x41,0x01,0xC0,0x80,0x41,0x00,0xC1,0x81,
 130          0x40
 131          } ;
 132          
 133          static byte code TblCrcLo[] = {
 134          0x00,0xC0,0xC1,0x01,0xC3,0x03,0x02,0xC2,0xC6,0x06,0x07,0xC7,0x05,0xC5,0xC4,
 135          0x04,0xCC,0x0C,0x0D,0xCD,0x0F,0xCF,0xCE,0x0E,0x0A,0xCA,0xCB,0x0B,0xC9,0x09,
 136          0x08,0xC8,0xD8,0x18,0x19,0xD9,0x1B,0xDB,0xDA,0x1A,0x1E,0xDE,0xDF,0x1F,0xDD,
 137          0x1D,0x1C,0xDC,0x14,0xD4,0xD5,0x15,0xD7,0x17,0x16,0xD6,0xD2,0x12,0x13,0xD3,
 138          0x11,0xD1,0xD0,0x10,0xF0,0x30,0x31,0xF1,0x33,0xF3,0xF2,0x32,0x36,0xF6,0xF7,
 139          0x37,0xF5,0x35,0x34,0xF4,0x3C,0xFC,0xFD,0x3D,0xFF,0x3F,0x3E,0xFE,0xFA,0x3A,
 140          0x3B,0xFB,0x39,0xF9,0xF8,0x38,0x28,0xE8,0xE9,0x29,0xEB,0x2B,0x2A,0xEA,0xEE,
 141          0x2E,0x2F,0xEF,0x2D,0xED,0xEC,0x2C,0xE4,0x24,0x25,0xE5,0x27,0xE7,0xE6,0x26,
 142          0x22,0xE2,0xE3,0x23,0xE1,0x21,0x20,0xE0,0xA0,0x60,0x61,0xA1,0x63,0xA3,0xA2,
 143          0x62,0x66,0xA6,0xA7,0x67,0xA5,0x65,0x64,0xA4,0x6C,0xAC,0xAD,0x6D,0xAF,0x6F,
 144          0x6E,0xAE,0xAA,0x6A,0x6B,0xAB,0x69,0xA9,0xA8,0x68,0x78,0xB8,0xB9,0x79,0xBB,
 145          0x7B,0x7A,0xBA,0xBE,0x7E,0x7F,0xBF,0x7D,0xBD,0xBC,0x7C,0xB4,0x74,0x75,0xB5,
 146          0x77,0xB7,0xB6,0x76,0x72,0xB2,0xB3,0x73,0xB1,0x71,0x70,0xB0,0x50,0x90,0x91,
 147          0x51,0x93,0x53,0x52,0x92,0x96,0x56,0x57,0x97,0x55,0x95,0x94,0x54,0x9C,0x5C,
 148          0x5D,0x9D,0x5F,0x9F,0x9E,0x5E,0x5A,0x9A,0x9B,0x5B,0x99,0x59,0x58,0x98,0x88,
 149          0x48,0x49,0x89,0x4B,0x8B,0x8A,0x4A,0x4E,0x8E,0x8F,0x4F,0x8D,0x4D,0x4C,0x8C,
 150          0x44,0x84,0x85,0x45,0x87,0x47,0x46,0x86,0x82,0x42,0x43,0x83,0x41,0x81,0x80,
 151          0x40
 152          };
 153          
 154          static word CalcCrc( word Size)
 155          // Vypocita zabezpeceni z <Size> bytu
 156          {
 157   1      byte CrcHi = 0xFF;
 158   1      byte CrcLo = 0xFF;
 159   1      byte Index;
 160   1      word i;
 161   1      
 162   1         for( i = 0; i < Size; i++){
 163   2            Index = CrcLo ^ ComBuffer[ i];
 164   2            CrcLo = CrcHi ^ TblCrcHi[ Index];
 165   2            CrcHi = TblCrcLo[ Index];
 166   2         }
 167   1         return( (word)CrcHi << 8 | CrcLo);
 168   1      } // CalcCrc
 169          
C51 COMPILER V5.50,  MBRTU                                                                 20/07/12  15:15:09  PAGE 4   

ASSEMBLY LISTING OF GENERATED OBJECT CODE


             ; FUNCTION _MBRReceive (BEGIN)
0000 8B00    R     MOV     Pdu,R3
0002 8A00    R     MOV     Pdu+01H,R2
0004 8900    R     MOV     Pdu+02H,R1
                                           ; SOURCE LINE # 21
                                           ; SOURCE LINE # 24
                                           ; SOURCE LINE # 28
0006 D3            SETB    C
0007 E500    E     MOV     A,ComDataSize+01H
0009 9403          SUBB    A,#03H
000B E500    E     MOV     A,ComDataSize
000D 9400          SUBB    A,#00H
000F 5002          JNC     ?C0001
                                           ; SOURCE LINE # 30
0011 C3            CLR     C
0012 22            RET     
                                           ; SOURCE LINE # 31
0013         ?C0001:
                                           ; SOURCE LINE # 32
0013 D3            SETB    C
0014 E500    E     MOV     A,ComDataSize+01H
0016 9400          SUBB    A,#00H
0018 E500    E     MOV     A,ComDataSize
001A 9401          SUBB    A,#01H
001C 4002          JC      ?C0003
                                           ; SOURCE LINE # 34
001E C3            CLR     C
001F 22            RET     
                                           ; SOURCE LINE # 35
0020         ?C0003:
                                           ; SOURCE LINE # 36
0020 E500    E     MOV     A,ComDataSize+01H
0022 24FE          ADD     A,#0FEH
0024 FF            MOV     R7,A
0025 E500    E     MOV     A,ComDataSize
0027 34FF          ADDC    A,#0FFH
0029 FE            MOV     R6,A
002A 120000  R     LCALL   _CalcCrc
;---- Variable 'Crc' assigned to Register 'R4/R5' ----
002D AD07          MOV     R5,AR7
002F AC06          MOV     R4,AR6
                                           ; SOURCE LINE # 37
0031 7400    E     MOV     A,#LOW ComBuffer+0FFFEH
0033 2500    E     ADD     A,ComDataSize+01H
0035 F582          MOV     DPL,A
0037 E500    E     MOV     A,ComDataSize
0039 3400    E     ADDC    A,#HIGH ComBuffer+0FFFEH
003B F583          MOV     DPH,A
003D E0            MOVX    A,@DPTR
;---- Variable 'MCrc' assigned to Register 'R2/R3' ----
003E FB            MOV     R3,A
003F 7A00          MOV     R2,#00H
                                           ; SOURCE LINE # 38
0041 7400    E     MOV     A,#LOW ComBuffer+0FFFFH
0043 2500    E     ADD     A,ComDataSize+01H
0045 F582          MOV     DPL,A
0047 E500    E     MOV     A,ComDataSize
0049 3400    E     ADDC    A,#HIGH ComBuffer+0FFFFH
004B F583          MOV     DPH,A
004D E0            MOVX    A,@DPTR
004E FE            MOV     R6,A
004F E4            CLR     A
0050 EE            MOV     A,R6
C51 COMPILER V5.50,  MBRTU                                                                 20/07/12  15:15:09  PAGE 5   

0051 FA            MOV     R2,A
                                           ; SOURCE LINE # 39
0052 ED            MOV     A,R5
0053 6B            XRL     A,R3
0054 7002          JNZ     ?C0014
0056 EC            MOV     A,R4
0057 6A            XRL     A,R2
0058         ?C0014:
0058 6002          JZ      ?C0004
                                           ; SOURCE LINE # 41
005A C3            CLR     C
005B 22            RET     
                                           ; SOURCE LINE # 42
005C         ?C0004:
                                           ; SOURCE LINE # 43
005C E500    E     MOV     A,ComDataSize+01H
005E 24FD          ADD     A,#0FDH
0060 FF            MOV     R7,A
0061 E500    E     MOV     A,ComDataSize
0063 34FF          ADDC    A,#0FFH
0065 AB00    R     MOV     R3,Size
0067 AA00    R     MOV     R2,Size+01H
0069 A900    R     MOV     R1,Size+02H
006B 8FF0          MOV     B,R7
006D 120000  E     LCALL   ?C?ISTPTR
                                           ; SOURCE LINE # 44
0070 7B01          MOV     R3,#01H
0072 7A00    E     MOV     R2,#HIGH ComBuffer+01H
0074 7900    E     MOV     R1,#LOW ComBuffer+01H
0076 C003          PUSH    AR3
0078 C002          PUSH    AR2
007A C001          PUSH    AR1
007C AB00    R     MOV     R3,Pdu
007E AA00    R     MOV     R2,Pdu+01H
0080 A900    R     MOV     R1,Pdu+02H
0082 120000  E     LCALL   ?C?PSTPTR
                                           ; SOURCE LINE # 45
0085 D3            SETB    C
                                           ; SOURCE LINE # 46
0086         ?C0002:
0086 22            RET     
             ; FUNCTION _MBRReceive (END)

             ; FUNCTION MBRGetAddress (BEGIN)
                                           ; SOURCE LINE # 52
                                           ; SOURCE LINE # 54
                                           ; SOURCE LINE # 55
0000 900000  E     MOV     DPTR,#ComBuffer
0003 E0            MOVX    A,@DPTR
0004 FF            MOV     R7,A
                                           ; SOURCE LINE # 56
0005         ?C0005:
0005 22            RET     
             ; FUNCTION MBRGetAddress (END)

             ; FUNCTION _MBRWriteAddress (BEGIN)
;---- Variable 'Address' assigned to Register 'R7' ----
                                           ; SOURCE LINE # 66
                                           ; SOURCE LINE # 68
                                           ; SOURCE LINE # 69
0000 E4            CLR     A
0001 F500    E     MOV     ComDataSize,A
0003 F500    E     MOV     ComDataSize+01H,A
                                           ; SOURCE LINE # 70
0005 120000  R     LCALL   _MBRWriteByte
                                           ; SOURCE LINE # 71
C51 COMPILER V5.50,  MBRTU                                                                 20/07/12  15:15:09  PAGE 6   

0008 22            RET     
             ; FUNCTION _MBRWriteAddress (END)

             ; FUNCTION _MBRWriteByte (BEGIN)
;---- Variable 'Data' assigned to Register 'R7' ----
                                           ; SOURCE LINE # 77
                                           ; SOURCE LINE # 79
                                           ; SOURCE LINE # 80
0000 0500    E     INC     ComDataSize+01H
0002 E500    E     MOV     A,ComDataSize+01H
0004 AC00    E     MOV     R4,ComDataSize
0006 7002          JNZ     ?C0015
0008 0500    E     INC     ComDataSize
000A         ?C0015:
000A 14            DEC     A
000B 2400    E     ADD     A,#LOW ComBuffer
000D F582          MOV     DPL,A
000F EC            MOV     A,R4
0010 3400    E     ADDC    A,#HIGH ComBuffer
0012 F583          MOV     DPH,A
0014 EF            MOV     A,R7
0015 F0            MOVX    @DPTR,A
                                           ; SOURCE LINE # 81
0016 22            RET     
             ; FUNCTION _MBRWriteByte (END)

             ; FUNCTION _MBRWriteWord (BEGIN)
;---- Variable 'Data' assigned to Register 'R2/R3' ----
0000 AB07          MOV     R3,AR7
0002 AA06          MOV     R2,AR6
                                           ; SOURCE LINE # 87
                                           ; SOURCE LINE # 89
                                           ; SOURCE LINE # 90
0004 EA            MOV     A,R2
0005 FF            MOV     R7,A
0006 120000  R     LCALL   _MBRWriteByte
                                           ; SOURCE LINE # 91
0009 AF03          MOV     R7,AR3
000B EB            MOV     A,R3
000C 120000  R     LCALL   _MBRWriteByte
                                           ; SOURCE LINE # 92
000F 22            RET     
             ; FUNCTION _MBRWriteWord (END)

             ; FUNCTION MBRWriteCrc (BEGIN)
                                           ; SOURCE LINE # 98
                                           ; SOURCE LINE # 100
                                           ; SOURCE LINE # 103
0000 AF00    E     MOV     R7,ComDataSize+01H
0002 AE00    E     MOV     R6,ComDataSize
0004 120000  R     LCALL   _CalcCrc
;---- Variable 'Crc' assigned to Register 'R2/R3' ----
0007 AB07          MOV     R3,AR7
0009 AA06          MOV     R2,AR6
                                           ; SOURCE LINE # 104
000B EF            MOV     A,R7
000C 120000  R     LCALL   _MBRWriteByte
                                           ; SOURCE LINE # 105
000F EA            MOV     A,R2
0010 FF            MOV     R7,A
0011 120000  R     LCALL   _MBRWriteByte
                                           ; SOURCE LINE # 106
0014 22            RET     
             ; FUNCTION MBRWriteCrc (END)

             ; FUNCTION _CalcCrc (BEGIN)
C51 COMPILER V5.50,  MBRTU                                                                 20/07/12  15:15:09  PAGE 7   

0000 8E00    R     MOV     Size,R6
0002 8F00    R     MOV     Size+01H,R7
                                           ; SOURCE LINE # 154
                                           ; SOURCE LINE # 156
                                           ; SOURCE LINE # 157
;---- Variable 'CrcHi' assigned to Register 'R7' ----
0004 7FFF          MOV     R7,#0FFH
                                           ; SOURCE LINE # 158
;---- Variable 'CrcLo' assigned to Register 'R5' ----
0006 7DFF          MOV     R5,#0FFH
                                           ; SOURCE LINE # 162
;---- Variable 'i' assigned to Register 'R2/R3' ----
0008 E4            CLR     A
0009 FB            MOV     R3,A
000A FA            MOV     R2,A
000B         ?C0010:
000B C3            CLR     C
000C EB            MOV     A,R3
000D 9500    R     SUBB    A,Size+01H
000F EA            MOV     A,R2
0010 9500    R     SUBB    A,Size
0012 5020          JNC     ?C0011
                                           ; SOURCE LINE # 163
0014 7400    E     MOV     A,#LOW ComBuffer
0016 2B            ADD     A,R3
0017 F582          MOV     DPL,A
0019 E4            CLR     A
001A 3400    E     ADDC    A,#HIGH ComBuffer
001C F583          MOV     DPH,A
001E E0            MOVX    A,@DPTR
001F 6D            XRL     A,R5
0020 FE            MOV     R6,A
;---- Variable 'Index' assigned to Register 'R6' ----
                                           ; SOURCE LINE # 164
0021 900000  R     MOV     DPTR,#TblCrcHi
0024 93            MOVC    A,@A+DPTR
0025 6F            XRL     A,R7
0026 FD            MOV     R5,A
                                           ; SOURCE LINE # 165
0027 EE            MOV     A,R6
0028 900000  R     MOV     DPTR,#TblCrcLo
002B 93            MOVC    A,@A+DPTR
002C FF            MOV     R7,A
                                           ; SOURCE LINE # 166
002D 0B            INC     R3
002E BB0001        CJNE    R3,#00H,?C0016
0031 0A            INC     R2
0032         ?C0016:
0032 80D7          SJMP    ?C0010
0034         ?C0011:
                                           ; SOURCE LINE # 167
0034 EF            MOV     A,R7
0035 FE            MOV     R6,A
0036 ED            MOV     A,R5
0037 FF            MOV     R7,A
                                           ; SOURCE LINE # 168
0038         ?C0013:
0038 22            RET     
             ; FUNCTION _CalcCrc (END)



MODULE INFORMATION:   STATIC OVERLAYABLE
   CODE SIZE        =    267    ----
   CONSTANT SIZE    =    512    ----
   XDATA SIZE       =   ----    ----
C51 COMPILER V5.50,  MBRTU                                                                 20/07/12  15:15:09  PAGE 8   

   PDATA SIZE       =   ----    ----
   DATA SIZE        =   ----       8
   IDATA SIZE       =   ----    ----
   BIT SIZE         =   ----    ----
END OF MODULE INFORMATION.


C51 COMPILATION COMPLETE.  0 WARNING(S),  0 ERROR(S)
