C51 COMPILER V5.50,  MENU                                                                  13/10/15  08:59:51  PAGE 1   


DOS C51 COMPILER V5.50, COMPILATION OF MODULE MENU
OBJECT MODULE PLACED IN MENU.OBJ
COMPILER INVOKED BY: D:\C51\C51_V5.5\BIN\C51.EXE MENU.C51 CD DB

stmt level    source

   1          //*****************************************************************************
   2          //
   3          //    Menu.c - Hermes1 user interface
   4          //    Version 1.0, (c) P.Veit & VymOs
   5          //
   6          //*****************************************************************************
   7          
   8          #include "Menu.h"
   9          #include "Hermes1.h"
  10          #include "Cfg.h"               // Konfigurace
  11          #include "Lang.h"              // Stringy
  12          #include "Temp.h"              // Cteni teplot
  13          #include "Alarm.h"             // Hlaseni poruchy
  14          #include "Transmit.h"          // Vysilac
  15          #include "KbdCtl.h"            // Obsluha klavesnice - WaitForEnterEsc()
  16          #include "Beep.h"              // Repro v jednotce
  17          
  18          
  19          #include "..\inc\Ug3264gm.h"   // Displej
  20          #include "..\inc\Font.h"       // Fonty
  21          #include "..\inc\Display.h"    // Obecne zobrazeni
  22          #include "..\inc\System.h"     // "operacni system"
  23          #include "..\inc\conio.h"      // Displej
  24          #include "..\inc\bcd.h"        // BCD aritmetika
  25          #include "..\inc\Pca.h"        // zvuky pomoci PCA
  26          
  27          
  28          #ifdef __REMOTE__
              
              // Includy pro prijimac
              #include "Accu.h"              // Lowbat a stav akumulatoru
              #include "Signal.h"            // Sila signalu
              #include "Cal.h"               // Kalibrace
              #include "Hermes1r.h"          // Statistika prijmu
              
              #endif// __REMOTE__
  37          
  38          
  39          //#define __DEBUG__
  40          
  41          
  42          // Promenne pro zobrazeni
  43          byte         __xdata__ Display;         // Co mam v nasledujicim kroku prekreslit
  44          TDisplayMode __xdata__ DisplayMode;     // Typ zobrazeni
  45          
  46          // Globalni string buffer
  47          static byte __xdata__ StrBuffer[20];    // Musi se tam vlezt: datum vcetne zakoncovaci nuly (10+1 bajt), v
             -yuziva vice fci
  48          
  49          extern bit  BlinkShow;                  // Definovano v main.c51
  50          
  51          byte __xdata__ ShowDiagnostic;          // YES/NO zobrazovat diagnostiku
  52          
  53          
  54          // Globalni menu
  55          static TMenuItems __xdata__ MenuItems;
  56          
  57          // Editace tonu
  58          typedef enum {
C51 COMPILER V5.50,  MENU                                                                  13/10/15  08:59:51  PAGE 2   

  59            EDIT_DEFAULT,                 // Edituje se obecne cislo
  60            EDIT_SOUND_KEY_TONE,          // Edituje se ton kavesy
  61            EDIT_SOUND_KEY_VOLUME,        // Edituje se hlasitost klavesy
  62            EDIT_SOUND_ALARM_TONE,        // Edituje se ton alarmu
  63            EDIT_SOUND_ALARM_VOLUME,      // Edituje se hlasitost alarmu
  64          #ifdef __REMOTE__
                EDIT_SOUND_SIGNAL_TONE,        // Edituje se ton alarmu pri vypadku signalu
                EDIT_SOUND_SIGNAL_VOLUME,      // Edituje se hlasitost alarmu pri vypadku signalu
              #endif // __REMOTE__
  68            _EDIT_COUNT
  69          } TEditMode;
  70          static TEditMode __xdata__ EditMode;
  71          
  72          // ---------------------------------------------------------------------------------------------
  73          // Lokalni funkce
  74          // ---------------------------------------------------------------------------------------------
  75          
  76          static void DrawLogo();
  77          // Uvodni obrazovka pri zapnuti
  78          
  79          static TYesNo MenuPassword();
  80            // Vyzada zadani hesla
  81          
  82          
  83          
  84          // ---------------------------------------------------------------------------------------------
  85          // Symboly
  86          // ---------------------------------------------------------------------------------------------
  87          
  88          // Klavesy vcetne ramecku
  89          byte code SYMBOL_DOWN[19] = {16,11,11,254,11,96,0,35,24,194,32,134,48,130,1,12,160,255,0};
  90          byte code SYMBOL_ENTER[19] = {16,11,11,254,11,96,0,131,24,200,32,134,48,130,1,12,160,255,0};
  91          byte code SYMBOL_ESC[19] = {16,11,11,254,11,96,0,19,25,197,16,70,49,145,1,12,160,255,0};
  92          byte code SYMBOL_LEFT[19] = {16,11,11,254,11,96,0,3,24,194,40,38,50,128,1,12,160,255,0};
  93          byte code SYMBOL_RIGHT[19] = {16,11,11,254,11,96,0,3,152,200,40,134,48,128,1,12,160,255,0};
  94          byte code SYMBOL_UP[19] = {16,11,11,254,11,96,0,131,24,194,8,134,48,136,1,12,160,255,0};
  95          byte code SYMBOL_LEFTRIGHT[19] = {16,11,11,254,11,96,8,163,152,200,0,38,50,138,33,12,160,255,0};
  96          byte code SYMBOL_UPDOWN[19] = {16,11,11,254,11,96,0,163,152,200,130,38,50,138,1,12,160,255,0};
  97          
  98          byte code SYMBOL_ARROW[7] = {4,4,8,255,126,60,24};
  99          
 100          // Logo
 101          byte code SYMBOL_LOGO[543] = {540,83,52,0,0,0,240,1,0,0,0,0,0,34,0,0,0,0,0,0,0,0,0,0,0,0,28,0,0,0,0,0,160,
             -130,3,0,0,0,0,42,84,0,0,0,0,192,64,5,0,0,24,0,0,24,0,0,0,14,248,3,0,0,0,0,3,0,124,0,0,0,14,64,66,0,0,0,24,0,0,4,0,0,0,0,
             -0,192,7,0,0,248,3,0,4,0,0,128,36,128,64,0,0,0,72,2,28,120,0,255,131,36,128,0,0,240,63,8,2,0,32,0,16,0,0,192,64,5,0,1,248
             -,3,11,84,120,16,0,0,248,131,7,248,63,8,0,8,0,112,255,131,0,0,208,7,8,0,248,3,49,0,120,0,128,0,136,242,7,240,63,8,128,36,
             -0,120,255,3,0,48,130,4,24,33,0,0,0,0,112,17,2,0,240,1,0,24,33,248,131,32,0,120,17,130,36,8,194,1,0,0,72,2,31,96,120,0,12
             -8,36,0,0,6,248,63,8,2,0,28,112,255,3,0,0,0,0,24,2,248,131,23,56,120,33,0,0,40,66,5,16,6,192,129,34,84,128,255,1,42,200,1
             -29,1,224,57,160,2,0,0,56,0,2,12,192,208,7,12,0,0,0,11,0,192,255,3,28,248,227,131,243,63,32,2,8,68,0,15,0,34,0,0,0,199,31
             -,64,129,23,60,168,128,3,0,40,34,132,202,31,240,129,34,153,48,15,0,34,200,81,10,240,63,0,0,0,157,250,255,3,62,0,16,10,0,0
             -,32,0,0,34,124,0,0,0,16,195,129,248,63,192,129,40,0,0,255,3,34,72,194,1,24,33,32,2,35,96,0,17,2,34,0,0,6,23,33,192,1,17,
             -28,136,17,2,0,8,2,128,8,0,224,131,36,56,80,0,0,2,176,65,5,224,16,32,0,0,84,200,31,3,60,120,129,129,154,35,0,128,34,0,152
             -,49,130,62,40,210,7,16,39,0,128,28,0,0,227,3,28,0,224,3,32,28,32,2,0,68,0,0,0,34,0,0,0,0,0,64,1,49,64,0,0,0,0,136,2,0,0,
             -0,64,130,36,56,0,0,0,42,48,66,4,0,0,160,2,0,68,0,0,0,18,120,129,2,0,0,0,128,34,0,0,0,0,0,40,66,6,0,0,0,128,28,84,0,0,0,0
             -,0,192,4,0,0,0,0,49,0,0,0,0,0,136,2,0,0,0,0,128,36,0,0,0,0,0,48,2,0,0};
 102          
 103          // Lowbat
 104          byte code SYMBOLAKU[23] = {20,16,10,254,11,56,225,142,19,10,40,160,128,2,10,40,224,132,19,78,40,160,255};
 105          
 106          // Identifikacni cislo v uvodu
 107          byte code SYMBOLMRIZKA[7] = {4,5,5,234,171,175,0};
 108          
 109          // Meze teploty
 110          byte code SYMBOL_LIMIT_MAX[7] = {4,7,4,200,254,206,8};
 111          byte code SYMBOL_LIMIT_MIN[7] = {4,7,4,49,247,55,1};
 112          
C51 COMPILER V5.50,  MENU                                                                  13/10/15  08:59:51  PAGE 3   

 113          // Alarm
 114          byte code SYMBOL_REPRO[16] = {13,11,9,124,136,240,17,244,31,0,17,20,16,80,16,1};
 115          
 116          // Stav baterie (0=prazdna, 4=plna)
 117          byte code SYMBOL_ACCU[5][21] = {18,18,8,60,255,129,129,129,129,129,129,129,129,129,129,129,129,129,129,129
             -,255,
 118                                          18,18,8,60,255,129,129,129,129,129,129,129,129,129,129,129,255,171,213,171
             -,255,
 119                                          18,18,8,60,255,129,129,129,129,129,129,129,255,171,213,171,213,171,213,171
             -,255,
 120                                          18,18,8,60,255,129,129,129,255,171,213,171,213,171,213,171,213,171,213,171
             -,255,
 121                                          18,18,8,60,255,171,213,171,213,171,213,171,213,171,213,171,213,171,213,171
             -,255};
 122          
 123          // Sila signalu (0=prazdny, 4=plny)
 124          byte code SYMBOL_SIGNAL[5][19] = {16,16,8,1,2,4,255,4,2,1,0,0,0,0,0,0,0,0,0,
 125                                            16,16,8,1,2,4,255,4,194,193,0,0,0,0,0,0,0,0,0,
 126                                            16,16,8,1,2,4,255,4,194,193,0,240,240,0,0,0,0,0,0,
 127                                            16,16,8,1,2,4,255,4,194,193,0,240,240,0,252,252,0,0,0,
 128                                            16,16,8,1,2,4,255,4,194,193,0,240,240,0,252,252,0,255,255};
 129          
 130          //-----------------------------------------------------------------------------
 131          // Identifikacni cislo
 132          //-----------------------------------------------------------------------------
 133          
 134          static void EditIdentificationNumber() {
 135   1        while(1) {
 136   2          DisplayDialog(LangSimpleDecode(STR_IDENTIFICATION_NUMBER), DIALOG_KEYS_OKCANCEL | DIALOG_NO_WAIT);
 137   2          UN.DT = Config.IdentificationNumber;
 138   2          if (!DisplayEdit(54, 28, 2, 0)) {
 139   3            break;
 140   3          }
 141   2          if (UN.ST.X4 < MIN_IDENTIFICATION_NUMBER || UN.ST.X4 > MAX_IDENTIFICATION_NUMBER) {
 142   3            // Zadane cislo je mimo rozsah
 143   3            if (DisplayDialog(LangSimpleDecode(STR_INVALID_VALUE), DIALOG_KEYS_RETRYCANCEL) == K_ENTER) {
 144   4              // Chce se opravit => udelam novy cyklus
 145   4              continue;
 146   4            } else {
 147   4              // Nechce se opravit, vyskocim z cyklu
 148   4              break;
 149   4            }//else
 150   3          } else {
 151   3            // Zadane cislo je v poradku, ulozim jej
 152   3            Config.IdentificationNumber = UN.ST.X4;   // Je to na 1 bajt
 153   3            CfgSave(CFG_IDENTIFICATION_NUMBER);
 154   3            return;  // Vyskocim z cyklu
 155   3          }//else
 156   2        }//while
 157   1      }
 158          
 159          //-----------------------------------------------------------------------------
 160          // Nastaveni podsvitu
 161          //-----------------------------------------------------------------------------
 162          
 163          static void EditBacklight() {
 164   1        DisplayDialog(LangSimpleDecode(STR_BACKLIGHT), DIALOG_KEYS_OKCANCEL | DIALOG_NO_WAIT);
 165   1        UN.ST.X1 = DisplayChooseItem(33, 28, LangDecode(STR_ON_OFF_AUTO, _BACKLIGHT_COUNT), _BACKLIGHT_COUNT, Co
             -nfig.Backlight);
 166   1        if (UN.ST.X1 == MENU_ESC_PRESSED) {
 167   2          return;
 168   2        }
 169   1        Config.Backlight = UN.ST.X1;
 170   1        CfgSave(CFG_BACKLIGHT);
 171   1      }
 172          
C51 COMPILER V5.50,  MENU                                                                  13/10/15  08:59:51  PAGE 4   

 173          //-----------------------------------------------------------------------------
 174          // Nastaveni zvuku klaves
 175          //-----------------------------------------------------------------------------
 176          
 177          static void EditSoundKey(void) {
 178   1        // Nastaveni zvuku klaves
 179   1        // Pozor, fce DisplayEdit() automaticky meni polozky v Config, pri zruseni editace je treba zavolat CfgL
             -oad()
 180   1        DisplayDialog(LangSimpleDecode(STR_SOUND_TONE), DIALOG_KEYS_OKCANCEL | DIALOG_NO_WAIT);
 181   1        UN.DT = Config.Sound.KeyTone;
 182   1        EditMode = EDIT_SOUND_KEY_TONE;
 183   1        if (!DisplayEdit(59, 28, 1, 0)) {
 184   2          EditMode = EDIT_DEFAULT;
 185   2          CfgLoad();
 186   2          return;
 187   2        }
 188   1      
 189   1      #ifdef __REMOTE__
                DisplayDialog(LangSimpleDecode(STR_SOUND_VOLUME), DIALOG_KEYS_OKCANCEL | DIALOG_NO_WAIT);
                UN.DT = Config.Sound.KeyVolume;
                EditMode = EDIT_SOUND_KEY_VOLUME;
                if (!DisplayEdit(59, 28, 1, 0)) {
                  EditMode = EDIT_DEFAULT;
                  CfgLoad();
                  return;
                }
              #else
 199   1        Config.Sound.KeyVolume = 9;           // U prijimace hlasitost needituju
 200   1      #endif // __REMOTE__
 201   1      
 202   1        // Vratim rezim editace
 203   1        EditMode = EDIT_DEFAULT;
 204   1        // Ulozim
 205   1        CfgSave(CFG_SOUND);
 206   1      }
 207          
 208          //-----------------------------------------------------------------------------
 209          // Nastaveni zvuku alarmu
 210          //-----------------------------------------------------------------------------
 211          
 212          static void EditSoundAlarm(void) {
 213   1        // Nastaveni zvuku alarmu
 214   1        // Pozor, fce DisplayEdit() automaticky meni polozky v Config, pri zruseni editace je treba zavolat CfgL
             -oad()
 215   1        DisplayDialog(LangSimpleDecode(STR_SOUND_TONE), DIALOG_KEYS_OKCANCEL | DIALOG_NO_WAIT);
 216   1        UN.DT = Config.Sound.AlarmTone;
 217   1        EditMode = EDIT_SOUND_ALARM_TONE;
 218   1        if (!DisplayEdit(59, 28, 1, 0)) {
 219   2          EditMode = EDIT_DEFAULT;
 220   2          CfgLoad();
 221   2          return;
 222   2        }
 223   1      
 224   1      #ifdef __REMOTE__
                DisplayDialog(LangSimpleDecode(STR_SOUND_VOLUME), DIALOG_KEYS_OKCANCEL | DIALOG_NO_WAIT);
                UN.DT = Config.Sound.AlarmVolume;
                EditMode = EDIT_SOUND_ALARM_VOLUME;
                if (!DisplayEdit(59, 28, 1, 0)) {
                  EditMode = EDIT_DEFAULT;
                  CfgLoad();
                  return;
                }
              #else
 234   1        Config.Sound.AlarmVolume = 9;         // U prijimace hlasitost needituju
 235   1      #endif // __REMOTE__
 236   1      
C51 COMPILER V5.50,  MENU                                                                  13/10/15  08:59:51  PAGE 5   

 237   1        // Vratim rezim editace
 238   1        EditMode = EDIT_DEFAULT;
 239   1        // Ulozim
 240   1        CfgSave(CFG_SOUND);
 241   1      }
 242          
 243          //-----------------------------------------------------------------------------
 244          // Nastaveni zvuku alarmu pri vypadku signalu
 245          //-----------------------------------------------------------------------------
 246          
 247          #ifdef __REMOTE__
              
              static void EditSoundSignal(void) {
                // Nastaveni zvuku pri vypadku signalu
                // Pozor, fce DisplayEdit() automaticky meni polozky v Config, pri zruseni editace je treba zavolat CfgL
             -oad()
                DisplayDialog(LangSimpleDecode(STR_SOUND_TONE), DIALOG_KEYS_OKCANCEL | DIALOG_NO_WAIT);
                UN.DT = Config.Sound.SignalTone;
                EditMode = EDIT_SOUND_SIGNAL_TONE;
                if (!DisplayEdit(59, 28, 1, 0)) {
                  EditMode = EDIT_DEFAULT;
                  CfgLoad();
                  return;
                }
              
                DisplayDialog(LangSimpleDecode(STR_SOUND_VOLUME), DIALOG_KEYS_OKCANCEL | DIALOG_NO_WAIT);
                UN.DT = Config.Sound.SignalVolume;
                EditMode = EDIT_SOUND_SIGNAL_VOLUME;
                if (!DisplayEdit(59, 28, 1, 0)) {
                  EditMode = EDIT_DEFAULT;
                  CfgLoad();
                  return;
                }
              
                // Vratim rezim editace
                EditMode = EDIT_DEFAULT;
                // Ulozim
                CfgSave(CFG_SOUND);
              }
              
              #endif // __REMOTE__
 277          
 278          
 279          //-----------------------------------------------------------------------------
 280          // Nastaveni zvuku
 281          //-----------------------------------------------------------------------------
 282          
 283          static void MenuSound(void) {
 284   1        // Menu zvuky
 285   1        while (1) {
 286   2          MenuItems.Items                       = LangDecode(STR_MENU_SOUND, ID_MENU_SOUND_COUNT);
 287   2          MenuItems.ItemsCount                  = ID_MENU_SOUND_COUNT;
 288   2          MenuItems.Title                       = LangSimpleDecode(STR_MENU_SOUND_TITLE);
 289   2          MenuItems.Show                        = 0xFFFF;
 290   2          MenuItems.Position.CurrentItem        = 0;
 291   2          MenuItems.Position.FirstDisplayedItem = 0;
 292   2          switch (DisplayMenu(&MenuItems)) {
 293   3      
 294   3            case MENU_ESC_PRESSED:
 295   3              return;
 296   3      
 297   3            case ID_MENU_SOUND_KEY:
 298   3              EditSoundKey();
 299   3              return;
 300   3      
 301   3            case ID_MENU_SOUND_ALARM:
C51 COMPILER V5.50,  MENU                                                                  13/10/15  08:59:51  PAGE 6   

 302   3              EditSoundAlarm();
 303   3              return;
 304   3      
 305   3      #ifdef __REMOTE__
                    case ID_MENU_SOUND_SIGNAL:
                      EditSoundSignal();
                      return;
              #endif // __REMOTE__
 310   3      
 311   3          }//switch
 312   2        }//while
 313   1      }
 314          
 315          //-----------------------------------------------------------------------------
 316          // Meze
 317          //-----------------------------------------------------------------------------
 318          
 319          static void EditLimits() {
 320   1        int NewMinLimit;
 321   1      
 322   1        DisplayDialog(LangSimpleDecode(STR_ENTER_MIN_LIMIT), DIALOG_KEYS_OKCANCEL | DIALOG_NO_WAIT);
 323   1        UN.DT = Config.MinLimit;
 324   1        if (!DisplayEdit(54, 28, TEMP_EDIT_LENGTH, TEMP_DECIMALS | DISPLAY_EDIT_SIGN)) {
 325   2          return;
 326   2        }
 327   1        NewMinLimit = (long)UN.DT;
 328   1      
 329   1        DisplayDialog(LangSimpleDecode(STR_ENTER_MAX_LIMIT), DIALOG_KEYS_OKCANCEL | DIALOG_NO_WAIT);
 330   1        UN.DT = Config.MaxLimit;
 331   1        if (!DisplayEdit(54, 28, TEMP_EDIT_LENGTH, TEMP_DECIMALS | DISPLAY_EDIT_SIGN)) {
 332   2          return;
 333   2        }
 334   1      
 335   1        Config.MinLimit = NewMinLimit;
 336   1        Config.MaxLimit = (long)UN.DT;
 337   1        CfgSave(CFG_MAX_LIMIT | CFG_MIN_LIMIT);
 338   1        UN.Word.Lsb = Config.MinLimit;
 339   1        UN.Word.Msb = Config.MaxLimit;
 340   1      }
 341          
 342          //-----------------------------------------------------------------------------
 343          // Nastaveni podsvitu
 344          //-----------------------------------------------------------------------------
 345          
 346          #ifdef __REMOTE__
              
              static void SetConnectionMode() {
                // Nastavi zobrazeni tak, aby se zobrazovala kvalita spojeni
                DisplayDialog(LangSimpleDecode(STR_CONNECTION_QUALITY), DIALOG_KEYS_OK | DIALOG_NO_WAIT);
                DisplayMode = DISPLAY_MODE_CONNECTION;
              }
              
              #endif// __REMOTE__
 355          
 356          //-----------------------------------------------------------------------------
 357          // Kalibrace akumulatoru
 358          //-----------------------------------------------------------------------------
 359          
 360          #ifdef __REMOTE__
              
              #define ACCU_DEFAULT_RANGE      99    // Standardne +- 9.9 %
              
              void MenuCalibrateAccu() {
                // Provede kalibraci akumulatoru
                byte Range; // Rozsah
                byte Conversion;
C51 COMPILER V5.50,  MENU                                                                  13/10/15  08:59:51  PAGE 7   

              
                if (DisplayDialog(LangSimpleDecode(STR_CALIBRATE_ACCU), DIALOG_KEYS_YESNO) != K_ENTER) {
                  return;     // Nechce kalibrovat
                }
              
                // Zeptam se na rozsah
                DisplayDialog(LangSimpleDecode(STR_CALIBRATE_RANGE), DIALOG_KEYS_OKCANCEL | DIALOG_NO_WAIT);
                UN.DT = ACCU_DEFAULT_RANGE;
                if (!DisplayEdit(54, 28, 2, 1)) {
                  return;
                }
                Range = UN.ST.X4; // Je to na 1 bajt
              
                // Zmerim
                DisplayDialog(LangSimpleDecode(STR_WAIT), DIALOG_KEYS_EMPTY);
                Conversion = AccuCalibrate();
              
                // Vypoctu dolni a horni mez - tj. zmerene napeti na stredu minus/plus zadane procenta
                Calibration.AccuMin = (dword)((dword)Conversion * ((dword)1000 - (dword)Range) / (dword)1000);
                Calibration.AccuMax = (dword)((dword)Conversion * ((dword)1000 + (dword)Range) / (dword)1000);
                CalSave();  // Ulozim
              
                // Zobrazim vysledky
                UN.DT = Conversion;
                DisplayNumber(20, 0, 0, 0);
                UN.DT = Calibration.AccuMin;
                DisplayNumber(50, 0, 0, 0);
                UN.DT = Calibration.AccuMax;
                DisplayNumber(80, 0, 0, 0);
                SysDelay(2000);
              }
              
              #endif// __REMOTE__
 401          
 402          //-----------------------------------------------------------------------------
 403          // Kalibrace sily signalu
 404          //-----------------------------------------------------------------------------
 405          
 406          #ifdef __REMOTE__
              
              void MenuCalibrateSignal() {
                // Provede kalibraci sily signalu
                byte Min, Max; // Prevod minima a maxima
              
                if (DisplayDialog(LangSimpleDecode(STR_CALIBRATE_SIGNAL), DIALOG_KEYS_YESNO) != K_ENTER) {
                  return;     // Nechce kalibrovat
                }
              
                // Minimum
                if (DisplayDialog(LangSimpleDecode(STR_CALIBRATE_SIGNAL_MIN), DIALOG_KEYS_OKCANCEL) != K_ENTER) {
                  return;     // Nechce kalibrovat
                }
                DisplayDialog(LangSimpleDecode(STR_WAIT), DIALOG_KEYS_EMPTY);
                Min = SignalCalibrate();
              
                // Maximum
                if (DisplayDialog(LangSimpleDecode(STR_CALIBRATE_SIGNAL_MAX), DIALOG_KEYS_OKCANCEL) != K_ENTER) {
                  return;     // Nechce kalibrovat
                }
                DisplayDialog(LangSimpleDecode(STR_WAIT), DIALOG_KEYS_EMPTY);
                Max = SignalCalibrate();
              
                // Ulozim
                Calibration.SignalMin = Min;
                Calibration.SignalMax = Max;
                CalSave();
C51 COMPILER V5.50,  MENU                                                                  13/10/15  08:59:51  PAGE 8   

              
                // Zobrazim vysledky
                UN.DT = Calibration.SignalMin;
                DisplayNumber(50, 0, 0, 0);
                UN.DT = Calibration.SignalMax;
                DisplayNumber(80, 0, 0, 0);
                SysDelay(2000);
              }
              
              #endif// __REMOTE__
 444          
 445          //-----------------------------------------------------------------------------
 446          // Nastaveni jazyka
 447          //-----------------------------------------------------------------------------
 448          
 449          void MenuLanguage() {
 450   1        // Provede volbu jazyka
 451   1        byte NewLanguage;
 452   1      
 453   1        MenuItems.Title                        = STR_JAZYK;
 454   1        MenuItems.Show                         = 0xFFFF;
 455   1        MenuItems.Position.CurrentItem         = 0;
 456   1        MenuItems.Position.FirstDisplayedItem  = 0;
 457   1        MenuItems.Items                        = STR_MENU_JAZYK;
 458   1        MenuItems.ItemsCount                   = LANG_COUNT;
 459   1        NewLanguage = DisplayMenu(&MenuItems);
 460   1        if (NewLanguage == MENU_ESC_PRESSED) {
 461   2          return;
 462   2        }
 463   1        if (NewLanguage >= _LANG_COUNT) {
 464   2          NewLanguage = LANG_DEFAULT;   // Vybral neco divneho, nastavim default jazyk
 465   2        }
 466   1        Config.Language = (NewLanguage & LANG_MASK) | (LANG_VERSION << 5);       // Ulozim zpet i vcetne jazykov
             -e verze
 467   1        CfgSave(CFG_LANGUAGE);
 468   1      }
 469          
 470          
 471          //-----------------------------------------------------------------------------
 472          // Nastaveni poctu paketu
 473          //-----------------------------------------------------------------------------
 474          
 475          #ifndef __REMOTE__
 476          
 477          static void EditTransmitter() {
 478   1        while(1) {
 479   2          DisplayDialog(LangSimpleDecode(STR_PACKET_COUNT), DIALOG_KEYS_OKCANCEL | DIALOG_NO_WAIT);
 480   2          UN.DT = Config.PacketCount;
 481   2          if (!DisplayEdit(54, 28, 2, 0)) {
 482   3            break;
 483   3          }
 484   2          if (UN.ST.X4 < MIN_PACKET_COUNT || UN.ST.X4 > MAX_PACKET_COUNT) {
 485   3            // Zadane cislo je mimo rozsah
 486   3            if (DisplayDialog(LangSimpleDecode(STR_INVALID_VALUE), DIALOG_KEYS_RETRYCANCEL) == K_ENTER) {
 487   4              // Chce se opravit => udelam novy cyklus
 488   4              continue;
 489   4            } else {
 490   4              // Nechce se opravit, vyskocim z cyklu
 491   4              break;
 492   4            }//else
 493   3          } else {
 494   3            // Zadane cislo je v poradku, ulozim jej
 495   3            Config.PacketCount = UN.ST.X4;   // Je to na 1 bajt
 496   3            CfgSave(CFG_PACKET_COUNT);
 497   3            return;  // Vyskocim z cyklu
 498   3          }//else
C51 COMPILER V5.50,  MENU                                                                  13/10/15  08:59:51  PAGE 9   

 499   2        }//while
 500   1      }
 501          
 502          #endif// __REMOTE__
 503          
 504          //-----------------------------------------------------------------------------
 505          // Heslo
 506          //-----------------------------------------------------------------------------
 507          
 508          #ifndef __REMOTE__
 509          
 510          static TYesNo MenuPassword() {
 511   1        // Vyzada zadani hesla
 512   1        while (1) {
 513   2          DisplayDialog(LangSimpleDecode(STR_PASSWORD), DIALOG_KEYS_OKCANCEL | DIALOG_NO_WAIT);
 514   2          UN.DT = 0;
 515   2          if (!DisplayEdit(32, 28, 6, 0)) {
 516   3            return NO;        // Dal Esc
 517   3          }
 518   2          if (UN.DT == 281018) {
 519   3            return YES;       // Zadal spravne heslo
 520   3          } else {
 521   3            if (DisplayDialog(LangSimpleDecode(STR_INVALID_VALUE), DIALOG_KEYS_RETRYCANCEL) != K_ENTER) {
 522   4              return NO;      // Nechce opakovat
 523   4            }
 524   3            // Jinak opakuji
 525   3          }//else
 526   2        }//while
 527   1      }
 528          
 529          #endif// __REMOTE__
 530          
 531          //-----------------------------------------------------------------------------
 532          // Menu
 533          //-----------------------------------------------------------------------------
 534          
 535          void MenuExecute() {
 536   1        // Hlavni menu
 537   1        DisplaySetFont(FONT_TAHOMA10_BOLD);
 538   1        Font.Mode = FONT_MODE_NORMAL;
 539   1      
 540   1        while (1) {
 541   2          MenuItems.Items                       = LangDecode(STR_MAIN_MENU, ID_MAIN_MENU_COUNT);
 542   2          MenuItems.ItemsCount                  = ID_MAIN_MENU_COUNT;
 543   2          MenuItems.Title                       = NULL;
 544   2          MenuItems.Show                        = 0xFFFF;
 545   2          MenuItems.Position.CurrentItem        = 0;
 546   2          MenuItems.Position.FirstDisplayedItem = 0;
 547   2          switch (DisplayMenu(&MenuItems)) {
 548   3      
 549   3            case MENU_ESC_PRESSED:
 550   3              return;
 551   3      
 552   3            case ID_MAIN_MENU_ID:
 553   3              EditIdentificationNumber();
 554   3              return;
 555   3      
 556   3            case ID_MAIN_MENU_LIMITS:
 557   3              EditLimits();
 558   3              return;
 559   3      
 560   3            case ID_MAIN_MENU_BACKLIGHT:
 561   3              EditBacklight();
 562   3              return;
 563   3      
 564   3            case ID_MAIN_MENU_SOUND:
C51 COMPILER V5.50,  MENU                                                                  13/10/15  08:59:51  PAGE 10  

 565   3              MenuSound();
 566   3              return;
 567   3      
 568   3      #ifdef __REMOTE__
              // Prijimac
              
                    case ID_MAIN_MENU_CONNECTION:
                      SetConnectionMode();
                      return;
              
              #else
 576   3      // Vysilac
 577   3      
 578   3            case ID_MAIN_MENU_TRANSMITTER:
 579   3              if (!MenuPassword()) {
 580   4                return;
 581   4              }
 582   3              EditTransmitter();
 583   3              return;
 584   3      
 585   3      #endif // __REMOTE__
 586   3      
 587   3          }//switch
 588   2        }//while
 589   1      } // Menu
 590          
 591          //-----------------------------------------------------------------------------
 592          // Inicializace
 593          //-----------------------------------------------------------------------------
 594          
 595          void MenuInit()
 596          // Inicializace zobrazeni, volat az po nahrani konfigurace
 597          {
 598   1        DisplayInit();
 599   1      //  DisplaySetInverseDisplay();
 600   1        DisplayClear();
 601   1        Language = Config.Language & LANG_MASK;  // Ulozim pro automaticke dekodovani, vyseparuju pouze jazyk
 602   1        DrawLogo();
 603   1        DisplaySetFont(FONT_TAHOMA10_BOLD);
 604   1        // Zvolim, co se bude po resetu zobrazovat
 605   1        DisplayMode    = DISPLAY_MODE_NORMAL;    // Zobrazuji normalne
 606   1        Display        = DISPLAY_ALL;            // uplne prekreslit
 607   1        ShowDiagnostic = NO;                     // Default nezobrazuju diagnostiku
 608   1        EditMode       = EDIT_DEFAULT;           // Edituje se obecne cislo
 609   1      } // MenuInit
 610          
 611          //-----------------------------------------------------------------------------
 612          // Zobrazeni identifikacniho cisla
 613          //-----------------------------------------------------------------------------
 614          
 615          #define ID_X    8
 616          #define ID_Y    5
 617          
 618          static void DrawIdentificationNumber() {
 619   1        DisplaySetFont(FONT_SMALL8_NUMERIC);
 620   1        Font.Mode = FONT_MODE_FAST;
 621   1        DisplaySymbol(ID_X, ID_Y + 2, SYMBOLMRIZKA);
 622   1        DisplayChar(ID_X + 8,  ID_Y, Config.IdentificationNumber / 10);       // U numerickeho fontu nemuzu pouz
             -it DisplayString()
 623   1        DisplayChar(ID_X + 14, ID_Y, Config.IdentificationNumber % 10);
 624   1      }
 625          
 626          //-----------------------------------------------------------------------------
 627          // Zobrazeni teploty
 628          //-----------------------------------------------------------------------------
 629          
C51 COMPILER V5.50,  MENU                                                                  13/10/15  08:59:51  PAGE 11  

 630          #define TEMP_X  (DISPLAY_WIDTH - 9)
 631          #define TEMP_Y  16       // Jen nasobky 8
 632          
 633          static void DrawTemperature() {
 634   1        // Vykresli na displej teplotu
 635   1      
 636   1      #ifdef __REMOTE__
                if (WaitingForFirstPacket) {
                  return;             // Stale jeste cekam, az prijde prvni paket po zapnuti prijimace - teplotu nezobra
             -zuju
                }
              #endif // __REMOTE__
 641   1      
 642   1        DisplaySetFont( FONT_MYRIAD32);
 643   1        Font.Mode = FONT_MODE_FAST;
 644   1        if (Temp.Value == TEMP_ERROR_01C) {   // Odpojene cidlo
 645   2          DisplayChar(TEMP_X - 18, TEMP_Y, 11);    // Minus
 646   2          DisplayClearArea(0, TEMP_Y, TEMP_X - 18, (TEMP_Y + Font.Height));         // Zbytek mazu
 647   2        } else {      // Cidlo v poradku, teplota je platna
 648   2          UN.DT = Temp.Value;
 649   2          DisplayNumber(TEMP_X, TEMP_Y, TEMP_EDIT_LENGTH + 1, TEMP_DECIMALS);   // Kvuli minusu musim TEMP_EDIT_
             -LENGTH + 1
 650   2        }
 651   1      }
 652          
 653          //-----------------------------------------------------------------------------
 654          // Zobrazeni mezi
 655          //-----------------------------------------------------------------------------
 656          
 657          #define LIMIT_MIN_X  65
 658          #define LIMIT_MIN_Y  51
 659          #define LIMIT_MAX_X  116
 660          #define LIMIT_MAX_Y  51
 661          
 662          #define ClearMin()      DisplayClearArea(LIMIT_MIN_X - 34, LIMIT_MIN_Y, LIMIT_MIN_X + 6, LIMIT_MIN_Y + 8)
 663          #define ClearMax()      DisplayClearArea(LIMIT_MAX_X - 34, LIMIT_MAX_Y, LIMIT_MAX_X + 6, LIMIT_MAX_Y + 8)
 664          
 665          static void DrawLimits() {
 666   1        // Vykresli na displej meze vcetne pripadneho prekroceni
 667   1        DisplaySetFont(FONT_TAHOMA10_BOLD_NUMERIC);
 668   1        Font.Mode = FONT_MODE_FAST;
 669   1      
 670   1        if (Temp.MinAlarm && !BlinkShow) {
 671   2          ClearMin();
 672   2        } else {
 673   2          DisplaySymbol(LIMIT_MIN_X, LIMIT_MIN_Y + 5, SYMBOL_LIMIT_MIN);
 674   2          UN.DT = Config.MinLimit;
 675   2          DisplayNumber(LIMIT_MIN_X - 3, LIMIT_MIN_Y, 0, TEMP_DECIMALS);
 676   2        }
 677   1      
 678   1        if (Temp.MaxAlarm && !BlinkShow) {
 679   2          ClearMax();
 680   2        } else {
 681   2          DisplaySymbol(LIMIT_MAX_X, LIMIT_MAX_Y, SYMBOL_LIMIT_MAX);
 682   2          UN.DT = Config.MaxLimit;
 683   2          DisplayNumber(LIMIT_MAX_X - 3, LIMIT_MAX_Y, 0, TEMP_DECIMALS);
 684   2        }
 685   1      }
 686          
 687          
 688          //-----------------------------------------------------------------------------
 689          // Zobrazeni zakazaneho alarmu
 690          //-----------------------------------------------------------------------------
 691          
 692          #define REPRO_X 8
 693          #define REPRO_Y 50
C51 COMPILER V5.50,  MENU                                                                  13/10/15  08:59:51  PAGE 12  

 694          
 695          static void DrawRepro() {
 696   1        if (Alarm.Quiet) {
 697   2          DisplaySymbol(REPRO_X, REPRO_Y, SYMBOL_REPRO);
 698   2        } else {
 699   2          DisplayClearArea(REPRO_X, REPRO_Y, REPRO_X + SYMBOL_REPRO[1], REPRO_Y + SYMBOL_REPRO[2]);
 700   2        }
 701   1      }
 702          
 703          //-----------------------------------------------------------------------------
 704          // Zobrazeni kvality spojeni v prijimaci
 705          //-----------------------------------------------------------------------------
 706          
 707          #ifdef __REMOTE__
              
              #define CONNECTION_X  75
              #define CONNECTION_Y  24
              
              static void DrawConnection() {
                DisplaySetFont(FONT_TAHOMA10_BOLD);
              //  DisplaySetFont(FONT_TAHOMA8);
                Font.Mode = FONT_MODE_FAST;
                DisplaySetAreaFast(0, CONNECTION_Y / 8, 128, CONNECTION_Y / 8 + 2, 0);
                UN.DT = PacketCounterOk;
                DisplayNumber(CONNECTION_X, CONNECTION_Y, 0, 0);
              }
              
              #endif// __REMOTE__
 722          
 723          //-----------------------------------------------------------------------------
 724          // Zobrazeni diagnostiky v prijimaci
 725          //-----------------------------------------------------------------------------
 726          
 727          #ifdef __REMOTE__
              
              static void DrawDiagnostics(void) {
                // Zobrazi diagnostiku
                DisplaySetFont(FONT_TAHOMA10_BOLD);
                DisplayClear();
                // Ain
                DisplayString(0, 0, "Ain:");
                UN.DT = Accu.Conversion;
                DisplayNumber(50, 0, 0, 0);
                UN.DT = Signal.Conversion;
                DisplayNumber(80, 0, 0, 0);
              }
              
              #endif// __REMOTE__
 742          
 743          //-----------------------------------------------------------------------------
 744          // Zobrazeni poruchy spojeni v prijimaci
 745          //-----------------------------------------------------------------------------
 746          
 747          #ifdef __REMOTE__
              
              static void DrawConnectionError() {
                DisplaySetFont(FONT_TAHOMA10_BOLD);
                Font.Mode = FONT_MODE_FAST;
                DisplayStringCenter(64, 24, LangSimpleDecode(STR_CONNECTION_ERROR1));
                DisplayStringCenter(64, 40, LangSimpleDecode(STR_CONNECTION_ERROR2));
              }
              
              #endif// __REMOTE__
 757          
 758          //-----------------------------------------------------------------------------
 759          // Zobrazeni stavu akumulatoru v prijimaci
C51 COMPILER V5.50,  MENU                                                                  13/10/15  08:59:51  PAGE 13  

 760          //-----------------------------------------------------------------------------
 761          
 762          #ifdef __REMOTE__
              
              #define ACCU_X 45
              #define ACCU_Y 5
              
              static void DrawAccu() {
                DisplaySymbol(ACCU_X, ACCU_Y, SYMBOL_ACCU[Accu.Indication]);
              /*  DisplaySetFont(FONT_LUCIDA6);
                Font.Mode = FONT_MODE_FAST;
                DisplaySetArea(ACCU_X, 8, ACCU_X + 25, 15, 0);
                UN.DT = Accu.Conversion;
                DisplayNumber(ACCU_X + 25, 8, 0, 0);*/
              }
              
              #endif// __REMOTE__
 777          
 778          //-----------------------------------------------------------------------------
 779          // Zobrazeni signalu v prijimaci
 780          //-----------------------------------------------------------------------------
 781          
 782          #ifdef __REMOTE__
              
              #define SIGNAL_X 75
              #define SIGNAL_Y 5
              
              static void DrawSignal() {
                DisplaySymbol(SIGNAL_X, SIGNAL_Y, SYMBOL_SIGNAL[Signal.Indication]);
              /*  DisplaySetFont(FONT_LUCIDA6);
                Font.Mode = FONT_MODE_FAST;
                DisplaySetAreaFast(0, 1, 12, 3, 0);
                UN.DT = Signal.IndicatedConversion;
                DisplayNumber(12, 8, 0, 0);
                if (Signal.ZeroSignalIgnored) {
                  DisplayChar(0, 16, '1');
                } else {
                  DisplayChar(0, 16, '0');
                }*/
              }
              
              #endif// __REMOTE__
 802          
 803          //-----------------------------------------------------------------------------
 804          // Zobrazeni diagnostiky cteni teplot
 805          //-----------------------------------------------------------------------------
 806          
 807          #ifndef __REMOTE__
 808          
 809          #define TEMP_DIAG_X1  70
 810          #define TEMP_DIAG_X2  (DISPLAY_WIDTH - 11)
 811          #define TEMP_DIAG_Y   50
 812          
 813          static void DrawTempDiagnostic() {
 814   1        // Prekresli diagnostiku cteni teplot
 815   1        DisplaySetFont(FONT_TAHOMA10_BOLD_NUMERIC);
 816   1        Font.Mode = FONT_MODE_FAST;
 817   1        DisplayClearArea(TEMP_DIAG_X1 - 34, TEMP_DIAG_Y, TEMP_DIAG_X2, TEMP_DIAG_Y + 8)
 818   1        UN.DT = Temp.OkCount;
 819   1        DisplayNumber(TEMP_DIAG_X1, TEMP_DIAG_Y, 0, 0);
 820   1        UN.DT = Temp.ErrorCount;
 821   1        DisplayNumber(TEMP_DIAG_X2, TEMP_DIAG_Y, 0, 0);
 822   1      }
 823          
 824          #endif // __REMOTE__
 825          
C51 COMPILER V5.50,  MENU                                                                  13/10/15  08:59:51  PAGE 14  

 826          //-----------------------------------------------------------------------------
 827          // Zobrazeni behem mereni
 828          //-----------------------------------------------------------------------------
 829          
 830          void MenuRedraw(byte NewDisplay) {
 831   1        // Vykresleni behem mereni
 832   1        Display |= NewDisplay;
 833   1      
 834   1      #ifdef __REMOTE__
                switch (DisplayMode) {
                  case DISPLAY_MODE_CONNECTION:
                    // Prekresluju jen kvalitu spojeni
                    if (Display & DISPLAY_1SEC) {
                      DrawConnection();
                    }
                    Display = 0;
                    return;
              
                  case DISPLAY_MODE_DIAGNOSTICS:
                    // Prekresluju jen diagnostiku
                    if (Display & DISPLAY_1SEC) {
                      DrawDiagnostics();
                    }
                    Display = 0;
                    return;
                }//switch
              
                if (ConnectionDown || ConnectionUp) {
                  ConnectionDown = ConnectionUp = NO;         // Shodim flagy, beru na vedomi
                  Display = DISPLAY_ALL;    // Je porucha komunikace nebo prave nabehla komunikace => prekreslim cely di
             -splej (krome blikani)
                }
              #endif// __REMOTE__
 858   1      
 859   1        if (Display & DISPLAY_FRAME) {
 860   2          DisplayClear();
 861   2          DrawIdentificationNumber();
 862   2        }
 863   1      
 864   1        if (Display & DISPLAY_1SEC) {
 865   2          DrawRepro();
 866   2      #ifdef __REMOTE__
                  DrawAccu();
                  DrawSignal();
                  if (ConnectionOk) {
                    DrawTemperature();
                  } else {
                    DrawConnectionError();    // Porucha spojeni
                  }
              #else
 875   2          DrawTemperature();
 876   2      #endif// __REMOTE__
 877   2        }
 878   1      
 879   1        if (Display & DISPLAY_BLINK) {
 880   2      #ifdef __REMOTE__
                  if (ConnectionOk) {
                    DrawLimits();             // Jen kdyz je spojeni v poradku
                  }
              #else
 885   2          if (ShowDiagnostic) {
 886   3            DrawTempDiagnostic();
 887   3          } else {
 888   3            DrawLimits();
 889   3          }
 890   2      #endif// __REMOTE__
C51 COMPILER V5.50,  MENU                                                                  13/10/15  08:59:51  PAGE 15  

 891   2        }
 892   1      
 893   1        DisplaySetFont(FONT_TAHOMA10_BOLD);
 894   1      //  DisplaySetFont( FONT_TAHOMA8);    // Vratim font
 895   1        Font.Mode = FONT_MODE_NORMAL;     // Vratim i mod
 896   1      
 897   1        Display = 0;  // Vse jsem zobrazil, nuluju
 898   1      }
 899          
 900          //-----------------------------------------------------------------------------
 901          // Uvodni obrazovka
 902          //-----------------------------------------------------------------------------
 903          
 904          static void DrawLogo() {
 905   1        // Uvodni obrazovka pri zapnuti. Vyuziva StrBuffer[]
 906   1        DisplaySetFont(FONT_LUCIDA6);
 907   1        DisplaySymbol(24, 8, SYMBOL_LOGO);
 908   1        UN.DT = wbcd2bin(VERSION);
 909   1        DisplayNumber(DISPLAY_WIDTH - 5, 5, 0, 2);
 910   1      }
 911          
 912          //-----------------------------------------------------------------------------
 913          // Callback editace cisla
 914          //-----------------------------------------------------------------------------
 915          
 916          void DisplayEditExecute(byte idata *Chars) {
 917   1        word Value;
 918   1      
 919   1        Value = (word)Chars[0] + (word)(10 * Chars[1]) + 100 * (word)Chars[2] + 1000 * (word)Chars[3];        //
             - Zatim osetruju jen 4 cislice
 920   1      
 921   1        switch (EditMode) {
 922   2          case EDIT_SOUND_KEY_TONE:
 923   2            // Edituje se ton klavesy
 924   2            Config.Sound.KeyTone = Value;
 925   2            KbdBeepKey();
 926   2            return;
 927   2      
 928   2          case EDIT_SOUND_KEY_VOLUME:
 929   2            // Edituje se hlasitost klavesy
 930   2            Config.Sound.KeyVolume = Value;
 931   2            KbdBeepKey();
 932   2            return;
 933   2      
 934   2          case EDIT_SOUND_ALARM_TONE:
 935   2            // Edituje se ton alarmu
 936   2            Config.Sound.AlarmTone = Value;
 937   2            BeepAlarm();
 938   2            return;
 939   2      
 940   2          case EDIT_SOUND_ALARM_VOLUME:
 941   2            // Edituje se hlasitost alarmu
 942   2            Config.Sound.AlarmVolume = Value;
 943   2            BeepAlarm();
 944   2            return;
 945   2      
 946   2      #ifdef __REMOTE__
                  case EDIT_SOUND_SIGNAL_TONE:
                    // Edituje se ton vypadku signalu
                    Config.Sound.SignalTone = Value;
                    BeepSignal();
                    return;
              
                  case EDIT_SOUND_SIGNAL_VOLUME:
                    // Edituje se hlasitost vypadku signalu
                    Config.Sound.SignalVolume = Value;
C51 COMPILER V5.50,  MENU                                                                  13/10/15  08:59:51  PAGE 16  

                    BeepSignal();
                    return;
              #endif // __REMOTE__
 959   2      
 960   2          default:
 961   2            // Edituje se jine cislo
 962   2            KbdBeepKey();
 963   2      
 964   2        }//switch
 965   1      }
 966          
C51 COMPILER V5.50,  MENU                                                                  13/10/15  08:59:51  PAGE 17  

ASSEMBLY LISTING OF GENERATED OBJECT CODE


             ; FUNCTION EditIdentificationNumber (BEGIN)
                                           ; SOURCE LINE # 134
0000         ?C0001:
                                           ; SOURCE LINE # 135
                                           ; SOURCE LINE # 136
0000 7E00    E     MOV     R6,#HIGH STR_IDENTIFICATION_NUMBER
0002 7F00    E     MOV     R7,#LOW STR_IDENTIFICATION_NUMBER
0004 120000  E     LCALL   _LangSimpleDecode
0007 AA06          MOV     R2,AR6
0009 A907          MOV     R1,AR7
000B 7BFF          MOV     R3,#0FFH
000D 7DB0          MOV     R5,#0B0H
000F 120000  E     LCALL   _DisplayDialog
                                           ; SOURCE LINE # 137
0012 900000  E     MOV     DPTR,#Config+02H
0015 E0            MOVX    A,@DPTR
0016 FF            MOV     R7,A
0017 E4            CLR     A
0018 8F00    E     MOV     UN+03H,R7
001A F500    E     MOV     UN+02H,A
001C F500    E     MOV     UN+01H,A
001E F500    E     MOV     UN,A
                                           ; SOURCE LINE # 138
0020 7F36          MOV     R7,#036H
0022 7D1C          MOV     R5,#01CH
0024 7B02          MOV     R3,#02H
0026 F500    E     MOV     ?_DisplayEdit?BYTE+03H,A
0028 120000  E     LCALL   _DisplayEdit
002B 5036          JNC     ?C0009
                                           ; SOURCE LINE # 139
                                           ; SOURCE LINE # 140
002D         ?C0003:
                                           ; SOURCE LINE # 141
002D E500    E     MOV     A,UN+03H
002F C3            CLR     C
0030 9401          SUBB    A,#01H
0032 4007          JC      ?C0005
0034 E500    E     MOV     A,UN+03H
0036 D3            SETB    C
0037 9463          SUBB    A,#063H
0039 4017          JC      ?C0004
003B         ?C0005:
                                           ; SOURCE LINE # 143
003B 7E00    E     MOV     R6,#HIGH STR_INVALID_VALUE
003D 7F00    E     MOV     R7,#LOW STR_INVALID_VALUE
003F 120000  E     LCALL   _LangSimpleDecode
0042 AA06          MOV     R2,AR6
0044 A907          MOV     R1,AR7
0046 7BFF          MOV     R3,#0FFH
0048 7D32          MOV     R5,#032H
004A 120000  E     LCALL   _DisplayDialog
004D BF0513        CJNE    R7,#05H,?C0009
                                           ; SOURCE LINE # 145
0050 80AE          SJMP    ?C0001
                                           ; SOURCE LINE # 146
                                           ; SOURCE LINE # 148
                                           ; SOURCE LINE # 149
                                           ; SOURCE LINE # 150
0052         ?C0004:
                                           ; SOURCE LINE # 152
0052 900000  E     MOV     DPTR,#Config+02H
0055 E500    E     MOV     A,UN+03H
0057 F0            MOVX    @DPTR,A
C51 COMPILER V5.50,  MENU                                                                  13/10/15  08:59:51  PAGE 18  

                                           ; SOURCE LINE # 153
0058 7F04          MOV     R7,#04H
005A 7E00          MOV     R6,#00H
005C 7D00          MOV     R5,#00H
005E 7C00          MOV     R4,#00H
0060 120000  E     LCALL   _CfgSave
                                           ; SOURCE LINE # 155
                                           ; SOURCE LINE # 156
                                           ; SOURCE LINE # 157
0063         ?C0009:
0063 22            RET     
             ; FUNCTION EditIdentificationNumber (END)

             ; FUNCTION EditBacklight (BEGIN)
                                           ; SOURCE LINE # 163
                                           ; SOURCE LINE # 164
0000 7E00    E     MOV     R6,#HIGH STR_BACKLIGHT
0002 7F00    E     MOV     R7,#LOW STR_BACKLIGHT
0004 120000  E     LCALL   _LangSimpleDecode
0007 AA06          MOV     R2,AR6
0009 A907          MOV     R1,AR7
000B 7BFF          MOV     R3,#0FFH
000D 7DB0          MOV     R5,#0B0H
000F 120000  E     LCALL   _DisplayDialog
                                           ; SOURCE LINE # 165
0012 7E00    E     MOV     R6,#HIGH STR_ON_OFF_AUTO
0014 7F00    E     MOV     R7,#LOW STR_ON_OFF_AUTO
0016 900000  E     MOV     DPTR,#Language
0019 E0            MOVX    A,@DPTR
001A 75F003        MOV     B,#03H
001D A4            MUL     AB
001E FD            MOV     R5,A
001F 120000  E     LCALL   _DecodeString
0022 AA06          MOV     R2,AR6
0024 AB07          MOV     R3,AR7
0026 7F21          MOV     R7,#021H
0028 7D1C          MOV     R5,#01CH
002A 750003  E     MOV     ?_DisplayChooseItem?BYTE+04H,#03H
002D 900000  E     MOV     DPTR,#Config+04H
0030 E0            MOVX    A,@DPTR
0031 F500    E     MOV     ?_DisplayChooseItem?BYTE+05H,A
0033 120000  E     LCALL   _DisplayChooseItem
0036 8F00    E     MOV     UN,R7
                                           ; SOURCE LINE # 166
0038 E500    E     MOV     A,UN
003A F4            CPL     A
003B 6011          JZ      ?C0011
                                           ; SOURCE LINE # 168
003D         ?C0010:
                                           ; SOURCE LINE # 169
003D 900000  E     MOV     DPTR,#Config+04H
0040 E500    E     MOV     A,UN
0042 F0            MOVX    @DPTR,A
                                           ; SOURCE LINE # 170
0043 7F10          MOV     R7,#010H
0045 7E00          MOV     R6,#00H
0047 7D00          MOV     R5,#00H
0049 7C00          MOV     R4,#00H
004B 120000  E     LCALL   _CfgSave
                                           ; SOURCE LINE # 171
004E         ?C0011:
004E 22            RET     
             ; FUNCTION EditBacklight (END)

             ; FUNCTION EditSoundKey (BEGIN)
                                           ; SOURCE LINE # 177
C51 COMPILER V5.50,  MENU                                                                  13/10/15  08:59:51  PAGE 19  

                                           ; SOURCE LINE # 180
0000 7E00    E     MOV     R6,#HIGH STR_SOUND_TONE
0002 7F00    E     MOV     R7,#LOW STR_SOUND_TONE
0004 120000  E     LCALL   _LangSimpleDecode
0007 AA06          MOV     R2,AR6
0009 A907          MOV     R1,AR7
000B 7BFF          MOV     R3,#0FFH
000D 7DB0          MOV     R5,#0B0H
000F 120000  E     LCALL   _DisplayDialog
                                           ; SOURCE LINE # 181
0012 900000  E     MOV     DPTR,#Config+0AH
0015 E0            MOVX    A,@DPTR
0016 FF            MOV     R7,A
0017 E4            CLR     A
0018 8F00    E     MOV     UN+03H,R7
001A F500    E     MOV     UN+02H,A
001C F500    E     MOV     UN+01H,A
001E F500    E     MOV     UN,A
                                           ; SOURCE LINE # 182
0020 900000  R     MOV     DPTR,#EditMode
0023 04            INC     A
0024 F0            MOVX    @DPTR,A
                                           ; SOURCE LINE # 183
0025 7F3B          MOV     R7,#03BH
0027 7D1C          MOV     R5,#01CH
0029 FB            MOV     R3,A
002A E4            CLR     A
002B F500    E     MOV     ?_DisplayEdit?BYTE+03H,A
002D 120000  E     LCALL   _DisplayEdit
0030 4009          JC      ?C0012
                                           ; SOURCE LINE # 184
0032 E4            CLR     A
0033 900000  R     MOV     DPTR,#EditMode
0036 F0            MOVX    @DPTR,A
                                           ; SOURCE LINE # 185
0037 120000  E     LCALL   CfgLoad
003A 22            RET     
                                           ; SOURCE LINE # 187
003B         ?C0012:
                                           ; SOURCE LINE # 199
003B 900000  E     MOV     DPTR,#Config+0BH
003E 7409          MOV     A,#09H
0040 F0            MOVX    @DPTR,A
                                           ; SOURCE LINE # 203
0041 E4            CLR     A
0042 900000  R     MOV     DPTR,#EditMode
0045 F0            MOVX    @DPTR,A
                                           ; SOURCE LINE # 205
0046 FF            MOV     R7,A
0047 7E01          MOV     R6,#01H
0049 FD            MOV     R5,A
004A FC            MOV     R4,A
004B 120000  E     LCALL   _CfgSave
                                           ; SOURCE LINE # 206
004E         ?C0013:
004E 22            RET     
             ; FUNCTION EditSoundKey (END)

             ; FUNCTION EditSoundAlarm (BEGIN)
                                           ; SOURCE LINE # 212
                                           ; SOURCE LINE # 215
0000 7E00    E     MOV     R6,#HIGH STR_SOUND_TONE
0002 7F00    E     MOV     R7,#LOW STR_SOUND_TONE
0004 120000  E     LCALL   _LangSimpleDecode
0007 AA06          MOV     R2,AR6
0009 A907          MOV     R1,AR7
C51 COMPILER V5.50,  MENU                                                                  13/10/15  08:59:51  PAGE 20  

000B 7BFF          MOV     R3,#0FFH
000D 7DB0          MOV     R5,#0B0H
000F 120000  E     LCALL   _DisplayDialog
                                           ; SOURCE LINE # 216
0012 900000  E     MOV     DPTR,#Config+0CH
0015 E0            MOVX    A,@DPTR
0016 FF            MOV     R7,A
0017 E4            CLR     A
0018 8F00    E     MOV     UN+03H,R7
001A F500    E     MOV     UN+02H,A
001C F500    E     MOV     UN+01H,A
001E F500    E     MOV     UN,A
                                           ; SOURCE LINE # 217
0020 900000  R     MOV     DPTR,#EditMode
0023 7403          MOV     A,#03H
0025 F0            MOVX    @DPTR,A
                                           ; SOURCE LINE # 218
0026 7F3B          MOV     R7,#03BH
0028 7D1C          MOV     R5,#01CH
002A 7B01          MOV     R3,#01H
002C E4            CLR     A
002D F500    E     MOV     ?_DisplayEdit?BYTE+03H,A
002F 120000  E     LCALL   _DisplayEdit
0032 4009          JC      ?C0014
                                           ; SOURCE LINE # 219
0034 E4            CLR     A
0035 900000  R     MOV     DPTR,#EditMode
0038 F0            MOVX    @DPTR,A
                                           ; SOURCE LINE # 220
0039 120000  E     LCALL   CfgLoad
003C 22            RET     
                                           ; SOURCE LINE # 222
003D         ?C0014:
                                           ; SOURCE LINE # 234
003D 900000  E     MOV     DPTR,#Config+0DH
0040 7409          MOV     A,#09H
0042 F0            MOVX    @DPTR,A
                                           ; SOURCE LINE # 238
0043 E4            CLR     A
0044 900000  R     MOV     DPTR,#EditMode
0047 F0            MOVX    @DPTR,A
                                           ; SOURCE LINE # 240
0048 FF            MOV     R7,A
0049 7E01          MOV     R6,#01H
004B FD            MOV     R5,A
004C FC            MOV     R4,A
004D 120000  E     LCALL   _CfgSave
                                           ; SOURCE LINE # 241
0050         ?C0015:
0050 22            RET     
             ; FUNCTION EditSoundAlarm (END)

             ; FUNCTION MenuSound (BEGIN)
                                           ; SOURCE LINE # 283
0000         ?C0016:
                                           ; SOURCE LINE # 285
                                           ; SOURCE LINE # 286
0000 7E00    E     MOV     R6,#HIGH STR_MENU_SOUND
0002 7F00    E     MOV     R7,#LOW STR_MENU_SOUND
0004 900000  E     MOV     DPTR,#Language
0007 E0            MOVX    A,@DPTR
0008 25E0          ADD     A,ACC
000A FD            MOV     R5,A
000B 120000  E     LCALL   _DecodeString
000E AA06          MOV     R2,AR6
0010 A907          MOV     R1,AR7
C51 COMPILER V5.50,  MENU                                                                  13/10/15  08:59:51  PAGE 21  

0012 900000  R     MOV     DPTR,#MenuItems
0015 74FF          MOV     A,#0FFH
0017 F0            MOVX    @DPTR,A
0018 A3            INC     DPTR
0019 EA            MOV     A,R2
001A F0            MOVX    @DPTR,A
001B A3            INC     DPTR
001C E9            MOV     A,R1
001D F0            MOVX    @DPTR,A
                                           ; SOURCE LINE # 287
001E A3            INC     DPTR
001F 7402          MOV     A,#02H
0021 F0            MOVX    @DPTR,A
                                           ; SOURCE LINE # 288
0022 7E00    E     MOV     R6,#HIGH STR_MENU_SOUND_TITLE
0024 7F00    E     MOV     R7,#LOW STR_MENU_SOUND_TITLE
0026 120000  E     LCALL   _LangSimpleDecode
0029 AA06          MOV     R2,AR6
002B A907          MOV     R1,AR7
002D 900000  R     MOV     DPTR,#MenuItems+04H
0030 74FF          MOV     A,#0FFH
0032 F0            MOVX    @DPTR,A
0033 A3            INC     DPTR
0034 EA            MOV     A,R2
0035 F0            MOVX    @DPTR,A
0036 A3            INC     DPTR
0037 E9            MOV     A,R1
0038 F0            MOVX    @DPTR,A
                                           ; SOURCE LINE # 289
0039 74FF          MOV     A,#0FFH
003B A3            INC     DPTR
003C F0            MOVX    @DPTR,A
003D A3            INC     DPTR
003E F0            MOVX    @DPTR,A
                                           ; SOURCE LINE # 290
003F E4            CLR     A
0040 A3            INC     DPTR
0041 F0            MOVX    @DPTR,A
                                           ; SOURCE LINE # 291
0042 A3            INC     DPTR
0043 F0            MOVX    @DPTR,A
                                           ; SOURCE LINE # 292
0044 7B01          MOV     R3,#01H
0046 7A00    R     MOV     R2,#HIGH MenuItems
0048 7900    R     MOV     R1,#LOW MenuItems
004A 120000  E     LCALL   _DisplayMenu
004D EF            MOV     A,R7
004E 14            DEC     A
004F 600B          JZ      ?C0022
0051 2402          ADD     A,#02H
0053 600A          JZ      ?C0020
0055 14            DEC     A
0056 70A8          JNZ     ?C0016
                                           ; SOURCE LINE # 294
                                           ; SOURCE LINE # 297
0058         ?C0021:
                                           ; SOURCE LINE # 298
0058 120000  R     LCALL   EditSoundKey
005B 22            RET     
                                           ; SOURCE LINE # 301
005C         ?C0022:
                                           ; SOURCE LINE # 302
005C 120000  R     LCALL   EditSoundAlarm
                                           ; SOURCE LINE # 311
                                           ; SOURCE LINE # 312
                                           ; SOURCE LINE # 313
C51 COMPILER V5.50,  MENU                                                                  13/10/15  08:59:51  PAGE 22  

005F         ?C0020:
005F 22            RET     
             ; FUNCTION MenuSound (END)

             ; FUNCTION EditLimits (BEGIN)
                                           ; SOURCE LINE # 319
                                           ; SOURCE LINE # 322
0000 7E00    E     MOV     R6,#HIGH STR_ENTER_MIN_LIMIT
0002 7F00    E     MOV     R7,#LOW STR_ENTER_MIN_LIMIT
0004 120000  E     LCALL   _LangSimpleDecode
0007 AA06          MOV     R2,AR6
0009 A907          MOV     R1,AR7
000B 7BFF          MOV     R3,#0FFH
000D 7DB0          MOV     R5,#0B0H
000F 120000  E     LCALL   _DisplayDialog
                                           ; SOURCE LINE # 323
0012 900000  E     MOV     DPTR,#Config+07H
0015 E0            MOVX    A,@DPTR
0016 FE            MOV     R6,A
0017 A3            INC     DPTR
0018 E0            MOVX    A,@DPTR
0019 FF            MOV     R7,A
001A EE            MOV     A,R6
001B 33            RLC     A
001C 95E0          SUBB    A,ACC
001E 8F00    E     MOV     UN+03H,R7
0020 8E00    E     MOV     UN+02H,R6
0022 F500    E     MOV     UN+01H,A
0024 F500    E     MOV     UN,A
                                           ; SOURCE LINE # 324
0026 7F36          MOV     R7,#036H
0028 7D1C          MOV     R5,#01CH
002A 7B03          MOV     R3,#03H
002C 750041  E     MOV     ?_DisplayEdit?BYTE+03H,#041H
002F 120000  E     LCALL   _DisplayEdit
0032 4003          JC      $ + 5H
0034 020000  R     LJMP    ?C0024
                                           ; SOURCE LINE # 326
0037         ?C0023:
                                           ; SOURCE LINE # 327
0037 AF00    E     MOV     R7,UN+03H
0039 AE00    E     MOV     R6,UN+02H
003B AD00    E     MOV     R5,UN+01H
003D AC00    E     MOV     R4,UN
003F 8E00    R     MOV     NewMinLimit,R6
0041 8F00    R     MOV     NewMinLimit+01H,R7
                                           ; SOURCE LINE # 329
0043 7E00    E     MOV     R6,#HIGH STR_ENTER_MAX_LIMIT
0045 7F00    E     MOV     R7,#LOW STR_ENTER_MAX_LIMIT
0047 120000  E     LCALL   _LangSimpleDecode
004A AA06          MOV     R2,AR6
004C A907          MOV     R1,AR7
004E 7BFF          MOV     R3,#0FFH
0050 7DB0          MOV     R5,#0B0H
0052 120000  E     LCALL   _DisplayDialog
                                           ; SOURCE LINE # 330
0055 900000  E     MOV     DPTR,#Config+05H
0058 E0            MOVX    A,@DPTR
0059 FE            MOV     R6,A
005A A3            INC     DPTR
005B E0            MOVX    A,@DPTR
005C FF            MOV     R7,A
005D EE            MOV     A,R6
005E 33            RLC     A
005F 95E0          SUBB    A,ACC
0061 8F00    E     MOV     UN+03H,R7
C51 COMPILER V5.50,  MENU                                                                  13/10/15  08:59:51  PAGE 23  

0063 8E00    E     MOV     UN+02H,R6
0065 F500    E     MOV     UN+01H,A
0067 F500    E     MOV     UN,A
                                           ; SOURCE LINE # 331
0069 7F36          MOV     R7,#036H
006B 7D1C          MOV     R5,#01CH
006D 7B03          MOV     R3,#03H
006F 750041  E     MOV     ?_DisplayEdit?BYTE+03H,#041H
0072 120000  E     LCALL   _DisplayEdit
0075 503D          JNC     ?C0024
                                           ; SOURCE LINE # 333
0077         ?C0025:
                                           ; SOURCE LINE # 335
0077 900000  E     MOV     DPTR,#Config+07H
007A E500    R     MOV     A,NewMinLimit
007C F0            MOVX    @DPTR,A
007D A3            INC     DPTR
007E E500    R     MOV     A,NewMinLimit+01H
0080 F0            MOVX    @DPTR,A
                                           ; SOURCE LINE # 336
0081 AF00    E     MOV     R7,UN+03H
0083 AE00    E     MOV     R6,UN+02H
0085 AD00    E     MOV     R5,UN+01H
0087 AC00    E     MOV     R4,UN
0089 900000  E     MOV     DPTR,#Config+05H
008C EE            MOV     A,R6
008D F0            MOVX    @DPTR,A
008E A3            INC     DPTR
008F EF            MOV     A,R7
0090 F0            MOVX    @DPTR,A
                                           ; SOURCE LINE # 337
0091 7F60          MOV     R7,#060H
0093 7E00          MOV     R6,#00H
0095 7D00          MOV     R5,#00H
0097 7C00          MOV     R4,#00H
0099 120000  E     LCALL   _CfgSave
                                           ; SOURCE LINE # 338
009C 900000  E     MOV     DPTR,#Config+07H
009F E0            MOVX    A,@DPTR
00A0 FE            MOV     R6,A
00A1 A3            INC     DPTR
00A2 E0            MOVX    A,@DPTR
00A3 FF            MOV     R7,A
00A4 8E00    E     MOV     UN+02H,R6
00A6 8F00    E     MOV     UN+03H,R7
                                           ; SOURCE LINE # 339
00A8 900000  E     MOV     DPTR,#Config+05H
00AB E0            MOVX    A,@DPTR
00AC FE            MOV     R6,A
00AD A3            INC     DPTR
00AE E0            MOVX    A,@DPTR
00AF FF            MOV     R7,A
00B0 8E00    E     MOV     UN,R6
00B2 8F00    E     MOV     UN+01H,R7
                                           ; SOURCE LINE # 340
00B4         ?C0024:
00B4 22            RET     
             ; FUNCTION EditLimits (END)

             ; FUNCTION MenuLanguage (BEGIN)
                                           ; SOURCE LINE # 449
                                           ; SOURCE LINE # 453
0000 900000  R     MOV     DPTR,#MenuItems+04H
0003 74FF          MOV     A,#0FFH
0005 F0            MOVX    @DPTR,A
0006 A3            INC     DPTR
C51 COMPILER V5.50,  MENU                                                                  13/10/15  08:59:51  PAGE 24  

0007 7400    E     MOV     A,#HIGH STR_JAZYK
0009 F0            MOVX    @DPTR,A
000A A3            INC     DPTR
000B 7400    E     MOV     A,#LOW STR_JAZYK
000D F0            MOVX    @DPTR,A
                                           ; SOURCE LINE # 454
000E 74FF          MOV     A,#0FFH
0010 A3            INC     DPTR
0011 F0            MOVX    @DPTR,A
0012 A3            INC     DPTR
0013 F0            MOVX    @DPTR,A
                                           ; SOURCE LINE # 455
0014 E4            CLR     A
0015 A3            INC     DPTR
0016 F0            MOVX    @DPTR,A
                                           ; SOURCE LINE # 456
0017 A3            INC     DPTR
0018 F0            MOVX    @DPTR,A
                                           ; SOURCE LINE # 457
0019 900000  R     MOV     DPTR,#MenuItems
001C 74FF          MOV     A,#0FFH
001E F0            MOVX    @DPTR,A
001F A3            INC     DPTR
0020 7400    E     MOV     A,#HIGH STR_MENU_JAZYK
0022 F0            MOVX    @DPTR,A
0023 A3            INC     DPTR
0024 7400    E     MOV     A,#LOW STR_MENU_JAZYK
0026 F0            MOVX    @DPTR,A
                                           ; SOURCE LINE # 458
0027 A3            INC     DPTR
0028 7403          MOV     A,#03H
002A F0            MOVX    @DPTR,A
                                           ; SOURCE LINE # 459
002B 7B01          MOV     R3,#01H
002D 7A00    R     MOV     R2,#HIGH MenuItems
002F 7900    R     MOV     R1,#LOW MenuItems
0031 120000  E     LCALL   _DisplayMenu
;---- Variable 'NewLanguage' assigned to Register 'R7' ----
                                           ; SOURCE LINE # 460
0034 EF            MOV     A,R7
0035 F4            CPL     A
0036 601C          JZ      ?C0027
                                           ; SOURCE LINE # 462
0038         ?C0026:
                                           ; SOURCE LINE # 463
0038 EF            MOV     A,R7
0039 C3            CLR     C
003A 9403          SUBB    A,#03H
003C 4002          JC      ?C0028
                                           ; SOURCE LINE # 464
003E E4            CLR     A
003F FF            MOV     R7,A
                                           ; SOURCE LINE # 465
0040         ?C0028:
                                           ; SOURCE LINE # 466
0040 EF            MOV     A,R7
0041 541F          ANL     A,#01FH
0043 4420          ORL     A,#020H
0045 900000  E     MOV     DPTR,#Config+03H
0048 F0            MOVX    @DPTR,A
                                           ; SOURCE LINE # 467
0049 7F08          MOV     R7,#08H
004B 7E00          MOV     R6,#00H
004D 7D00          MOV     R5,#00H
004F 7C00          MOV     R4,#00H
0051 120000  E     LCALL   _CfgSave
C51 COMPILER V5.50,  MENU                                                                  13/10/15  08:59:51  PAGE 25  

                                           ; SOURCE LINE # 468
0054         ?C0027:
0054 22            RET     
             ; FUNCTION MenuLanguage (END)

             ; FUNCTION EditTransmitter (BEGIN)
                                           ; SOURCE LINE # 477
0000         ?C0029:
                                           ; SOURCE LINE # 478
                                           ; SOURCE LINE # 479
0000 7E00    E     MOV     R6,#HIGH STR_PACKET_COUNT
0002 7F00    E     MOV     R7,#LOW STR_PACKET_COUNT
0004 120000  E     LCALL   _LangSimpleDecode
0007 AA06          MOV     R2,AR6
0009 A907          MOV     R1,AR7
000B 7BFF          MOV     R3,#0FFH
000D 7DB0          MOV     R5,#0B0H
000F 120000  E     LCALL   _DisplayDialog
                                           ; SOURCE LINE # 480
0012 900000  E     MOV     DPTR,#Config+09H
0015 E0            MOVX    A,@DPTR
0016 FF            MOV     R7,A
0017 E4            CLR     A
0018 8F00    E     MOV     UN+03H,R7
001A F500    E     MOV     UN+02H,A
001C F500    E     MOV     UN+01H,A
001E F500    E     MOV     UN,A
                                           ; SOURCE LINE # 481
0020 7F36          MOV     R7,#036H
0022 7D1C          MOV     R5,#01CH
0024 7B02          MOV     R3,#02H
0026 F500    E     MOV     ?_DisplayEdit?BYTE+03H,A
0028 120000  E     LCALL   _DisplayEdit
002B 5036          JNC     ?C0037
                                           ; SOURCE LINE # 482
                                           ; SOURCE LINE # 483
002D         ?C0031:
                                           ; SOURCE LINE # 484
002D E500    E     MOV     A,UN+03H
002F C3            CLR     C
0030 9401          SUBB    A,#01H
0032 4007          JC      ?C0033
0034 E500    E     MOV     A,UN+03H
0036 D3            SETB    C
0037 9414          SUBB    A,#014H
0039 4017          JC      ?C0032
003B         ?C0033:
                                           ; SOURCE LINE # 486
003B 7E00    E     MOV     R6,#HIGH STR_INVALID_VALUE
003D 7F00    E     MOV     R7,#LOW STR_INVALID_VALUE
003F 120000  E     LCALL   _LangSimpleDecode
0042 AA06          MOV     R2,AR6
0044 A907          MOV     R1,AR7
0046 7BFF          MOV     R3,#0FFH
0048 7D32          MOV     R5,#032H
004A 120000  E     LCALL   _DisplayDialog
004D BF0513        CJNE    R7,#05H,?C0037
                                           ; SOURCE LINE # 488
0050 80AE          SJMP    ?C0029
                                           ; SOURCE LINE # 489
                                           ; SOURCE LINE # 491
                                           ; SOURCE LINE # 492
                                           ; SOURCE LINE # 493
0052         ?C0032:
                                           ; SOURCE LINE # 495
0052 900000  E     MOV     DPTR,#Config+09H
C51 COMPILER V5.50,  MENU                                                                  13/10/15  08:59:51  PAGE 26  

0055 E500    E     MOV     A,UN+03H
0057 F0            MOVX    @DPTR,A
                                           ; SOURCE LINE # 496
0058 7F80          MOV     R7,#080H
005A 7E00          MOV     R6,#00H
005C 7D00          MOV     R5,#00H
005E 7C00          MOV     R4,#00H
0060 120000  E     LCALL   _CfgSave
                                           ; SOURCE LINE # 498
                                           ; SOURCE LINE # 499
                                           ; SOURCE LINE # 500
0063         ?C0037:
0063 22            RET     
             ; FUNCTION EditTransmitter (END)

             ; FUNCTION MenuPassword (BEGIN)
                                           ; SOURCE LINE # 510
0000         ?C0038:
                                           ; SOURCE LINE # 512
                                           ; SOURCE LINE # 513
0000 7E00    E     MOV     R6,#HIGH STR_PASSWORD
0002 7F00    E     MOV     R7,#LOW STR_PASSWORD
0004 120000  E     LCALL   _LangSimpleDecode
0007 AA06          MOV     R2,AR6
0009 A907          MOV     R1,AR7
000B 7BFF          MOV     R3,#0FFH
000D 7DB0          MOV     R5,#0B0H
000F 120000  E     LCALL   _DisplayDialog
                                           ; SOURCE LINE # 514
0012 750000  E     MOV     UN+03H,#00H
0015 750000  E     MOV     UN+02H,#00H
0018 750000  E     MOV     UN+01H,#00H
001B 750000  E     MOV     UN,#00H
                                           ; SOURCE LINE # 515
001E 7F20          MOV     R7,#020H
0020 7D1C          MOV     R5,#01CH
0022 7B06          MOV     R3,#06H
0024 E4            CLR     A
0025 F500    E     MOV     ?_DisplayEdit?BYTE+03H,A
0027 120000  E     LCALL   _DisplayEdit
002A 4002          JC      ?C0040
                                           ; SOURCE LINE # 516
002C C3            CLR     C
002D 22            RET     
                                           ; SOURCE LINE # 517
002E         ?C0040:
                                           ; SOURCE LINE # 518
002E 7FBA          MOV     R7,#0BAH
0030 7E49          MOV     R6,#049H
0032 7D04          MOV     R5,#04H
0034 7C00          MOV     R4,#00H
0036 AB00    E     MOV     R3,UN+03H
0038 AA00    E     MOV     R2,UN+02H
003A A900    E     MOV     R1,UN+01H
003C A800    E     MOV     R0,UN
003E C3            CLR     C
003F 120000  E     LCALL   ?C?ULCMP
0042 7002          JNZ     ?C0042
                                           ; SOURCE LINE # 519
0044 D3            SETB    C
0045 22            RET     
                                           ; SOURCE LINE # 520
0046         ?C0042:
                                           ; SOURCE LINE # 521
0046 7E00    E     MOV     R6,#HIGH STR_INVALID_VALUE
0048 7F00    E     MOV     R7,#LOW STR_INVALID_VALUE
C51 COMPILER V5.50,  MENU                                                                  13/10/15  08:59:51  PAGE 27  

004A 120000  E     LCALL   _LangSimpleDecode
004D AA06          MOV     R2,AR6
004F A907          MOV     R1,AR7
0051 7BFF          MOV     R3,#0FFH
0053 7D32          MOV     R5,#032H
0055 120000  E     LCALL   _DisplayDialog
0058 EF            MOV     A,R7
0059 6405          XRL     A,#05H
005B 60A3          JZ      ?C0038
                                           ; SOURCE LINE # 522
005D C3            CLR     C
                                           ; SOURCE LINE # 523
                                           ; SOURCE LINE # 525
                                           ; SOURCE LINE # 526
                                           ; SOURCE LINE # 527
005E         ?C0041:
005E 22            RET     
             ; FUNCTION MenuPassword (END)

             ; FUNCTION MenuExecute (BEGIN)
                                           ; SOURCE LINE # 535
                                           ; SOURCE LINE # 537
0000 7F01          MOV     R7,#01H
0002 120000  E     LCALL   _DisplaySetFont
                                           ; SOURCE LINE # 538
0005 E4            CLR     A
0006 900000  E     MOV     DPTR,#Font+05H
0009 F0            MOVX    @DPTR,A
000A         ?C0045:
                                           ; SOURCE LINE # 540
                                           ; SOURCE LINE # 541
000A 7E00    E     MOV     R6,#HIGH STR_MAIN_MENU
000C 7F00    E     MOV     R7,#LOW STR_MAIN_MENU
000E 900000  E     MOV     DPTR,#Language
0011 E0            MOVX    A,@DPTR
0012 75F005        MOV     B,#05H
0015 A4            MUL     AB
0016 FD            MOV     R5,A
0017 120000  E     LCALL   _DecodeString
001A AA06          MOV     R2,AR6
001C A907          MOV     R1,AR7
001E 900000  R     MOV     DPTR,#MenuItems
0021 74FF          MOV     A,#0FFH
0023 F0            MOVX    @DPTR,A
0024 A3            INC     DPTR
0025 EA            MOV     A,R2
0026 F0            MOVX    @DPTR,A
0027 A3            INC     DPTR
0028 E9            MOV     A,R1
0029 F0            MOVX    @DPTR,A
                                           ; SOURCE LINE # 542
002A A3            INC     DPTR
002B 7405          MOV     A,#05H
002D F0            MOVX    @DPTR,A
                                           ; SOURCE LINE # 543
002E A3            INC     DPTR
002F E4            CLR     A
0030 F0            MOVX    @DPTR,A
0031 A3            INC     DPTR
0032 F0            MOVX    @DPTR,A
0033 A3            INC     DPTR
0034 F0            MOVX    @DPTR,A
                                           ; SOURCE LINE # 544
0035 74FF          MOV     A,#0FFH
0037 A3            INC     DPTR
0038 F0            MOVX    @DPTR,A
C51 COMPILER V5.50,  MENU                                                                  13/10/15  08:59:51  PAGE 28  

0039 A3            INC     DPTR
003A F0            MOVX    @DPTR,A
                                           ; SOURCE LINE # 545
003B E4            CLR     A
003C A3            INC     DPTR
003D F0            MOVX    @DPTR,A
                                           ; SOURCE LINE # 546
003E A3            INC     DPTR
003F F0            MOVX    @DPTR,A
                                           ; SOURCE LINE # 547
0040 7B01          MOV     R3,#01H
0042 7A00    R     MOV     R2,#HIGH MenuItems
0044 7900    R     MOV     R1,#LOW MenuItems
0046 120000  E     LCALL   _DisplayMenu
0049 EF            MOV     A,R7
004A 14            DEC     A
004B 6014          JZ      ?C0051
004D 14            DEC     A
004E 6015          JZ      ?C0052
0050 14            DEC     A
0051 6016          JZ      ?C0053
0053 14            DEC     A
0054 6017          JZ      ?C0054
0056 2405          ADD     A,#05H
0058 601B          JZ      ?C0049
005A 14            DEC     A
005B 70AD          JNZ     ?C0045
                                           ; SOURCE LINE # 549
                                           ; SOURCE LINE # 552
005D         ?C0050:
                                           ; SOURCE LINE # 553
005D 120000  R     LCALL   EditIdentificationNumber
0060 22            RET     
                                           ; SOURCE LINE # 556
0061         ?C0051:
                                           ; SOURCE LINE # 557
0061 120000  R     LCALL   EditLimits
0064 22            RET     
                                           ; SOURCE LINE # 560
0065         ?C0052:
                                           ; SOURCE LINE # 561
0065 120000  R     LCALL   EditBacklight
0068 22            RET     
                                           ; SOURCE LINE # 564
0069         ?C0053:
                                           ; SOURCE LINE # 565
0069 120000  R     LCALL   MenuSound
006C 22            RET     
                                           ; SOURCE LINE # 578
006D         ?C0054:
                                           ; SOURCE LINE # 579
006D 120000  R     LCALL   MenuPassword
0070 5003          JNC     ?C0049
                                           ; SOURCE LINE # 581
0072         ?C0055:
                                           ; SOURCE LINE # 582
0072 120000  R     LCALL   EditTransmitter
                                           ; SOURCE LINE # 587
                                           ; SOURCE LINE # 588
                                           ; SOURCE LINE # 589
0075         ?C0049:
0075 22            RET     
             ; FUNCTION MenuExecute (END)

             ; FUNCTION MenuInit (BEGIN)
                                           ; SOURCE LINE # 595
C51 COMPILER V5.50,  MENU                                                                  13/10/15  08:59:51  PAGE 29  

                                           ; SOURCE LINE # 597
                                           ; SOURCE LINE # 598
0000 120000  E     LCALL   DisplayInit
                                           ; SOURCE LINE # 600
0003 120000  E     LCALL   DisplayClear
                                           ; SOURCE LINE # 601
0006 900000  E     MOV     DPTR,#Config+03H
0009 E0            MOVX    A,@DPTR
000A 541F          ANL     A,#01FH
000C 900000  E     MOV     DPTR,#Language
000F F0            MOVX    @DPTR,A
                                           ; SOURCE LINE # 602
0010 120000  R     LCALL   DrawLogo
                                           ; SOURCE LINE # 603
0013 7F01          MOV     R7,#01H
0015 120000  E     LCALL   _DisplaySetFont
                                           ; SOURCE LINE # 605
0018 E4            CLR     A
0019 900000  R     MOV     DPTR,#DisplayMode
001C F0            MOVX    @DPTR,A
                                           ; SOURCE LINE # 606
001D 900000  R     MOV     DPTR,#Display
0020 74FF          MOV     A,#0FFH
0022 F0            MOVX    @DPTR,A
                                           ; SOURCE LINE # 607
0023 E4            CLR     A
0024 900000  R     MOV     DPTR,#ShowDiagnostic
0027 F0            MOVX    @DPTR,A
                                           ; SOURCE LINE # 608
0028 900000  R     MOV     DPTR,#EditMode
002B F0            MOVX    @DPTR,A
                                           ; SOURCE LINE # 609
002C 22            RET     
             ; FUNCTION MenuInit (END)

             ; FUNCTION DrawIdentificationNumber (BEGIN)
                                           ; SOURCE LINE # 618
                                           ; SOURCE LINE # 619
0000 7F05          MOV     R7,#05H
0002 120000  E     LCALL   _DisplaySetFont
                                           ; SOURCE LINE # 620
0005 900000  E     MOV     DPTR,#Font+05H
0008 7401          MOV     A,#01H
000A F0            MOVX    @DPTR,A
                                           ; SOURCE LINE # 621
000B 7F08          MOV     R7,#08H
000D 7D07          MOV     R5,#07H
000F 7BFF          MOV     R3,#0FFH
0011 7A00    R     MOV     R2,#HIGH SYMBOLMRIZKA
0013 7900    R     MOV     R1,#LOW SYMBOLMRIZKA
0015 120000  E     LCALL   _DisplaySymbol
                                           ; SOURCE LINE # 622
0018 7F10          MOV     R7,#010H
001A 7D05          MOV     R5,#05H
001C 900000  E     MOV     DPTR,#Config+02H
001F E0            MOVX    A,@DPTR
0020 75F00A        MOV     B,#0AH
0023 84            DIV     AB
0024 FB            MOV     R3,A
0025 120000  E     LCALL   _DisplayChar
                                           ; SOURCE LINE # 623
0028 7F16          MOV     R7,#016H
002A 7D05          MOV     R5,#05H
002C 900000  E     MOV     DPTR,#Config+02H
002F E0            MOVX    A,@DPTR
0030 75F00A        MOV     B,#0AH
C51 COMPILER V5.50,  MENU                                                                  13/10/15  08:59:51  PAGE 30  

0033 84            DIV     AB
0034 ABF0          MOV     R3,B
0036 120000  E     LCALL   _DisplayChar
                                           ; SOURCE LINE # 624
0039 22            RET     
             ; FUNCTION DrawIdentificationNumber (END)

             ; FUNCTION DrawTemperature (BEGIN)
                                           ; SOURCE LINE # 633
                                           ; SOURCE LINE # 642
0000 7F0A          MOV     R7,#0AH
0002 120000  E     LCALL   _DisplaySetFont
                                           ; SOURCE LINE # 643
0005 900000  E     MOV     DPTR,#Font+05H
0008 7401          MOV     A,#01H
000A F0            MOVX    @DPTR,A
                                           ; SOURCE LINE # 644
000B 900000  E     MOV     DPTR,#Temp
000E E0            MOVX    A,@DPTR
000F B4FC22        CJNE    A,#0FCH,?C0058
0012 A3            INC     DPTR
0013 E0            MOVX    A,@DPTR
0014 B4181D        CJNE    A,#018H,?C0058
                                           ; SOURCE LINE # 645
0017 7F65          MOV     R7,#065H
0019 7D10          MOV     R5,#010H
001B 7B0B          MOV     R3,#0BH
001D 120000  E     LCALL   _DisplayChar
                                           ; SOURCE LINE # 646
0020 E4            CLR     A
0021 FF            MOV     R7,A
0022 7D10          MOV     R5,#010H
0024 7B65          MOV     R3,#065H
0026 900000  E     MOV     DPTR,#Font+03H
0029 E0            MOVX    A,@DPTR
002A 2410          ADD     A,#010H
002C F500    E     MOV     ?_DisplaySetArea?BYTE+03H,A
002E C200    E     CLR     ?_DisplaySetArea?BIT
0030 120000  E     LCALL   _DisplaySetArea
                                           ; SOURCE LINE # 647
0033 22            RET     
0034         ?C0058:
                                           ; SOURCE LINE # 648
0034 900000  E     MOV     DPTR,#Temp
0037 E0            MOVX    A,@DPTR
0038 FE            MOV     R6,A
0039 A3            INC     DPTR
003A E0            MOVX    A,@DPTR
003B FF            MOV     R7,A
003C EE            MOV     A,R6
003D 33            RLC     A
003E 95E0          SUBB    A,ACC
0040 8F00    E     MOV     UN+03H,R7
0042 8E00    E     MOV     UN+02H,R6
0044 F500    E     MOV     UN+01H,A
0046 F500    E     MOV     UN,A
                                           ; SOURCE LINE # 649
0048 7F77          MOV     R7,#077H
004A 7D10          MOV     R5,#010H
004C 7B04          MOV     R3,#04H
004E 750001  E     MOV     ?_DisplayNumber?BYTE+03H,#01H
0051 120000  E     LCALL   _DisplayNumber
                                           ; SOURCE LINE # 650
                                           ; SOURCE LINE # 651
0054         ?C0060:
0054 22            RET     
C51 COMPILER V5.50,  MENU                                                                  13/10/15  08:59:51  PAGE 31  

             ; FUNCTION DrawTemperature (END)

             ; FUNCTION DrawLimits (BEGIN)
                                           ; SOURCE LINE # 665
                                           ; SOURCE LINE # 667
0000 7F07          MOV     R7,#07H
0002 120000  E     LCALL   _DisplaySetFont
                                           ; SOURCE LINE # 668
0005 900000  E     MOV     DPTR,#Font+05H
0008 7401          MOV     A,#01H
000A F0            MOVX    @DPTR,A
                                           ; SOURCE LINE # 670
000B 900000  E     MOV     DPTR,#Temp+02H
000E E0            MOVX    A,@DPTR
000F 6013          JZ      ?C0061
0011 200010  E     JB      BlinkShow,?C0061
                                           ; SOURCE LINE # 671
0014 7F1F          MOV     R7,#01FH
0016 7D33          MOV     R5,#033H
0018 7B47          MOV     R3,#047H
001A 75003B  E     MOV     ?_DisplaySetArea?BYTE+03H,#03BH
001D C200    E     CLR     ?_DisplaySetArea?BIT
001F 120000  E     LCALL   _DisplaySetArea
                                           ; SOURCE LINE # 672
0022 802D          SJMP    ?C0062
0024         ?C0061:
                                           ; SOURCE LINE # 673
0024 7F41          MOV     R7,#041H
0026 7D38          MOV     R5,#038H
0028 7BFF          MOV     R3,#0FFH
002A 7A00    R     MOV     R2,#HIGH SYMBOL_LIMIT_MIN
002C 7900    R     MOV     R1,#LOW SYMBOL_LIMIT_MIN
002E 120000  E     LCALL   _DisplaySymbol
                                           ; SOURCE LINE # 674
0031 900000  E     MOV     DPTR,#Config+07H
0034 E0            MOVX    A,@DPTR
0035 FE            MOV     R6,A
0036 A3            INC     DPTR
0037 E0            MOVX    A,@DPTR
0038 FF            MOV     R7,A
0039 EE            MOV     A,R6
003A 33            RLC     A
003B 95E0          SUBB    A,ACC
003D 8F00    E     MOV     UN+03H,R7
003F 8E00    E     MOV     UN+02H,R6
0041 F500    E     MOV     UN+01H,A
0043 F500    E     MOV     UN,A
                                           ; SOURCE LINE # 675
0045 7F3E          MOV     R7,#03EH
0047 7D33          MOV     R5,#033H
0049 E4            CLR     A
004A FB            MOV     R3,A
004B 750001  E     MOV     ?_DisplayNumber?BYTE+03H,#01H
004E 120000  E     LCALL   _DisplayNumber
                                           ; SOURCE LINE # 676
0051         ?C0062:
                                           ; SOURCE LINE # 678
0051 900000  E     MOV     DPTR,#Temp+03H
0054 E0            MOVX    A,@DPTR
0055 6012          JZ      ?C0063
0057 20000F  E     JB      BlinkShow,?C0063
                                           ; SOURCE LINE # 679
005A 7F52          MOV     R7,#052H
005C 7D33          MOV     R5,#033H
005E 7B7A          MOV     R3,#07AH
0060 75003B  E     MOV     ?_DisplaySetArea?BYTE+03H,#03BH
C51 COMPILER V5.50,  MENU                                                                  13/10/15  08:59:51  PAGE 32  

0063 C200    E     CLR     ?_DisplaySetArea?BIT
0065 120000  E     LCALL   _DisplaySetArea
                                           ; SOURCE LINE # 680
0068 22            RET     
0069         ?C0063:
                                           ; SOURCE LINE # 681
0069 7F74          MOV     R7,#074H
006B 7D33          MOV     R5,#033H
006D 7BFF          MOV     R3,#0FFH
006F 7A00    R     MOV     R2,#HIGH SYMBOL_LIMIT_MAX
0071 7900    R     MOV     R1,#LOW SYMBOL_LIMIT_MAX
0073 120000  E     LCALL   _DisplaySymbol
                                           ; SOURCE LINE # 682
0076 900000  E     MOV     DPTR,#Config+05H
0079 E0            MOVX    A,@DPTR
007A FE            MOV     R6,A
007B A3            INC     DPTR
007C E0            MOVX    A,@DPTR
007D FF            MOV     R7,A
007E EE            MOV     A,R6
007F 33            RLC     A
0080 95E0          SUBB    A,ACC
0082 8F00    E     MOV     UN+03H,R7
0084 8E00    E     MOV     UN+02H,R6
0086 F500    E     MOV     UN+01H,A
0088 F500    E     MOV     UN,A
                                           ; SOURCE LINE # 683
008A 7F71          MOV     R7,#071H
008C 7D33          MOV     R5,#033H
008E E4            CLR     A
008F FB            MOV     R3,A
0090 750001  E     MOV     ?_DisplayNumber?BYTE+03H,#01H
0093 120000  E     LCALL   _DisplayNumber
                                           ; SOURCE LINE # 684
                                           ; SOURCE LINE # 685
0096         ?C0065:
0096 22            RET     
             ; FUNCTION DrawLimits (END)

             ; FUNCTION DrawRepro (BEGIN)
                                           ; SOURCE LINE # 695
                                           ; SOURCE LINE # 696
0000 900000  E     MOV     DPTR,#Alarm+02H
0003 E0            MOVX    A,@DPTR
0004 600E          JZ      ?C0066
                                           ; SOURCE LINE # 697
0006 7F08          MOV     R7,#08H
0008 7D32          MOV     R5,#032H
000A 7BFF          MOV     R3,#0FFH
000C 7A00    R     MOV     R2,#HIGH SYMBOL_REPRO
000E 7900    R     MOV     R1,#LOW SYMBOL_REPRO
0010 120000  E     LCALL   _DisplaySymbol
                                           ; SOURCE LINE # 698
0013 22            RET     
0014         ?C0066:
                                           ; SOURCE LINE # 699
0014 7F08          MOV     R7,#08H
0016 7D32          MOV     R5,#032H
0018 900000  R     MOV     DPTR,#SYMBOL_REPRO+01H
001B E4            CLR     A
001C 93            MOVC    A,@A+DPTR
001D 2408          ADD     A,#08H
001F FB            MOV     R3,A
0020 A3            INC     DPTR
0021 E4            CLR     A
0022 93            MOVC    A,@A+DPTR
C51 COMPILER V5.50,  MENU                                                                  13/10/15  08:59:51  PAGE 33  

0023 2432          ADD     A,#032H
0025 F500    E     MOV     ?_DisplaySetArea?BYTE+03H,A
0027 C200    E     CLR     ?_DisplaySetArea?BIT
0029 120000  E     LCALL   _DisplaySetArea
                                           ; SOURCE LINE # 700
                                           ; SOURCE LINE # 701
002C         ?C0068:
002C 22            RET     
             ; FUNCTION DrawRepro (END)

             ; FUNCTION DrawTempDiagnostic (BEGIN)
                                           ; SOURCE LINE # 813
                                           ; SOURCE LINE # 815
0000 7F07          MOV     R7,#07H
0002 120000  E     LCALL   _DisplaySetFont
                                           ; SOURCE LINE # 816
0005 900000  E     MOV     DPTR,#Font+05H
0008 7401          MOV     A,#01H
000A F0            MOVX    @DPTR,A
                                           ; SOURCE LINE # 817
000B 7F24          MOV     R7,#024H
000D 7D32          MOV     R5,#032H
000F 7B75          MOV     R3,#075H
0011 75003A  E     MOV     ?_DisplaySetArea?BYTE+03H,#03AH
0014 C200    E     CLR     ?_DisplaySetArea?BIT
0016 120000  E     LCALL   _DisplaySetArea
                                           ; SOURCE LINE # 818
0019 900000  E     MOV     DPTR,#Temp+04H
001C E0            MOVX    A,@DPTR
001D FE            MOV     R6,A
001E A3            INC     DPTR
001F E0            MOVX    A,@DPTR
0020 FF            MOV     R7,A
0021 E4            CLR     A
0022 8F00    E     MOV     UN+03H,R7
0024 8E00    E     MOV     UN+02H,R6
0026 F500    E     MOV     UN+01H,A
0028 F500    E     MOV     UN,A
                                           ; SOURCE LINE # 819
002A 7F46          MOV     R7,#046H
002C 7D32          MOV     R5,#032H
002E FB            MOV     R3,A
002F F500    E     MOV     ?_DisplayNumber?BYTE+03H,A
0031 120000  E     LCALL   _DisplayNumber
                                           ; SOURCE LINE # 820
0034 900000  E     MOV     DPTR,#Temp+06H
0037 E0            MOVX    A,@DPTR
0038 FE            MOV     R6,A
0039 A3            INC     DPTR
003A E0            MOVX    A,@DPTR
003B FF            MOV     R7,A
003C E4            CLR     A
003D 8F00    E     MOV     UN+03H,R7
003F 8E00    E     MOV     UN+02H,R6
0041 F500    E     MOV     UN+01H,A
0043 F500    E     MOV     UN,A
                                           ; SOURCE LINE # 821
0045 7F75          MOV     R7,#075H
0047 7D32          MOV     R5,#032H
0049 FB            MOV     R3,A
004A F500    E     MOV     ?_DisplayNumber?BYTE+03H,A
004C 120000  E     LCALL   _DisplayNumber
                                           ; SOURCE LINE # 822
004F 22            RET     
             ; FUNCTION DrawTempDiagnostic (END)

C51 COMPILER V5.50,  MENU                                                                  13/10/15  08:59:51  PAGE 34  

             ; FUNCTION _MenuRedraw (BEGIN)
;---- Variable 'NewDisplay' assigned to Register 'R7' ----
                                           ; SOURCE LINE # 830
                                           ; SOURCE LINE # 832
0000 900000  R     MOV     DPTR,#Display
0003 E0            MOVX    A,@DPTR
0004 4F            ORL     A,R7
0005 F0            MOVX    @DPTR,A
                                           ; SOURCE LINE # 859
0006 30E106        JNB     ACC.1,?C0070
                                           ; SOURCE LINE # 860
0009 120000  E     LCALL   DisplayClear
                                           ; SOURCE LINE # 861
000C 120000  R     LCALL   DrawIdentificationNumber
                                           ; SOURCE LINE # 862
000F         ?C0070:
                                           ; SOURCE LINE # 864
000F 900000  R     MOV     DPTR,#Display
0012 E0            MOVX    A,@DPTR
0013 30E006        JNB     ACC.0,?C0071
                                           ; SOURCE LINE # 865
0016 120000  R     LCALL   DrawRepro
                                           ; SOURCE LINE # 875
0019 120000  R     LCALL   DrawTemperature
                                           ; SOURCE LINE # 877
001C         ?C0071:
                                           ; SOURCE LINE # 879
001C 900000  R     MOV     DPTR,#Display
001F E0            MOVX    A,@DPTR
0020 30E20E        JNB     ACC.2,?C0072
                                           ; SOURCE LINE # 885
0023 900000  R     MOV     DPTR,#ShowDiagnostic
0026 E0            MOVX    A,@DPTR
0027 6005          JZ      ?C0073
                                           ; SOURCE LINE # 886
0029 120000  R     LCALL   DrawTempDiagnostic
                                           ; SOURCE LINE # 887
002C 8003          SJMP    ?C0072
002E         ?C0073:
                                           ; SOURCE LINE # 888
002E 120000  R     LCALL   DrawLimits
                                           ; SOURCE LINE # 889
                                           ; SOURCE LINE # 891
0031         ?C0072:
                                           ; SOURCE LINE # 893
0031 7F01          MOV     R7,#01H
0033 120000  E     LCALL   _DisplaySetFont
                                           ; SOURCE LINE # 895
0036 E4            CLR     A
0037 900000  E     MOV     DPTR,#Font+05H
003A F0            MOVX    @DPTR,A
                                           ; SOURCE LINE # 897
003B 900000  R     MOV     DPTR,#Display
003E F0            MOVX    @DPTR,A
                                           ; SOURCE LINE # 898
003F 22            RET     
             ; FUNCTION _MenuRedraw (END)

             ; FUNCTION DrawLogo (BEGIN)
                                           ; SOURCE LINE # 904
                                           ; SOURCE LINE # 906
0000 7F03          MOV     R7,#03H
0002 120000  E     LCALL   _DisplaySetFont
                                           ; SOURCE LINE # 907
0005 7F18          MOV     R7,#018H
0007 7D08          MOV     R5,#08H
C51 COMPILER V5.50,  MENU                                                                  13/10/15  08:59:51  PAGE 35  

0009 7BFF          MOV     R3,#0FFH
000B 7A00    R     MOV     R2,#HIGH SYMBOL_LOGO
000D 7900    R     MOV     R1,#LOW SYMBOL_LOGO
000F 120000  E     LCALL   _DisplaySymbol
                                           ; SOURCE LINE # 908
0012 7F00          MOV     R7,#00H
0014 7E03          MOV     R6,#03H
0016 120000  E     LCALL   _wbcd2bin
0019 E4            CLR     A
001A 8F00    E     MOV     UN+03H,R7
001C 8E00    E     MOV     UN+02H,R6
001E F500    E     MOV     UN+01H,A
0020 F500    E     MOV     UN,A
                                           ; SOURCE LINE # 909
0022 7F7B          MOV     R7,#07BH
0024 7D05          MOV     R5,#05H
0026 FB            MOV     R3,A
0027 750002  E     MOV     ?_DisplayNumber?BYTE+03H,#02H
002A 120000  E     LCALL   _DisplayNumber
                                           ; SOURCE LINE # 910
002D 22            RET     
             ; FUNCTION DrawLogo (END)

             ; FUNCTION _DisplayEditExecute (BEGIN)
;---- Variable 'Chars' assigned to Register 'R1' ----
0000 A907          MOV     R1,AR7
                                           ; SOURCE LINE # 916
                                           ; SOURCE LINE # 919
0002 E9            MOV     A,R1
0003 04            INC     A
0004 F8            MOV     R0,A
0005 E6            MOV     A,@R0
0006 75F00A        MOV     B,#0AH
0009 A4            MUL     AB
000A FF            MOV     R7,A
000B A801          MOV     R0,AR1
000D E6            MOV     A,@R0
000E 2F            ADD     A,R7
000F FB            MOV     R3,A
0010 E4            CLR     A
0011 35F0          ADDC    A,B
0013 FA            MOV     R2,A
0014 E8            MOV     A,R0
0015 2402          ADD     A,#02H
0017 F8            MOV     R0,A
0018 E6            MOV     A,@R0
0019 FF            MOV     R7,A
001A 7E00          MOV     R6,#00H
001C 7C00          MOV     R4,#00H
001E 7D64          MOV     R5,#064H
0020 120000  E     LCALL   ?C?IMUL
0023 EF            MOV     A,R7
0024 2B            ADD     A,R3
0025 FB            MOV     R3,A
0026 EE            MOV     A,R6
0027 3A            ADDC    A,R2
0028 FA            MOV     R2,A
0029 AF01          MOV     R7,AR1
002B EF            MOV     A,R7
002C 2403          ADD     A,#03H
002E F8            MOV     R0,A
002F E6            MOV     A,@R0
0030 FF            MOV     R7,A
0031 7E00          MOV     R6,#00H
0033 7C03          MOV     R4,#03H
0035 7DE8          MOV     R5,#0E8H
C51 COMPILER V5.50,  MENU                                                                  13/10/15  08:59:51  PAGE 36  

0037 120000  E     LCALL   ?C?IMUL
003A EF            MOV     A,R7
003B 2B            ADD     A,R3
003C F500    R     MOV     Value+01H,A
003E EE            MOV     A,R6
003F 3A            ADDC    A,R2
0040 F500    R     MOV     Value,A
                                           ; SOURCE LINE # 921
0042 900000  R     MOV     DPTR,#EditMode
0045 E0            MOVX    A,@DPTR
0046 24FE          ADD     A,#0FEH
0048 6014          JZ      ?C0080
004A 14            DEC     A
004B 601B          JZ      ?C0081
004D 14            DEC     A
004E 6022          JZ      ?C0082
0050 2403          ADD     A,#03H
0052 7028          JNZ     ?C0083
                                           ; SOURCE LINE # 922
0054         ?C0078:
                                           ; SOURCE LINE # 924
0054 900000  E     MOV     DPTR,#Config+0AH
0057 E500    R     MOV     A,Value+01H
0059 F0            MOVX    @DPTR,A
                                           ; SOURCE LINE # 925
005A 120000  E     LCALL   KbdBeepKey
005D 22            RET     
                                           ; SOURCE LINE # 928
005E         ?C0080:
                                           ; SOURCE LINE # 930
005E 900000  E     MOV     DPTR,#Config+0BH
0061 E500    R     MOV     A,Value+01H
0063 F0            MOVX    @DPTR,A
                                           ; SOURCE LINE # 931
0064 120000  E     LCALL   KbdBeepKey
0067 22            RET     
                                           ; SOURCE LINE # 934
0068         ?C0081:
                                           ; SOURCE LINE # 936
0068 900000  E     MOV     DPTR,#Config+0CH
006B E500    R     MOV     A,Value+01H
006D F0            MOVX    @DPTR,A
                                           ; SOURCE LINE # 937
006E 120000  E     LCALL   BeepAlarm
0071 22            RET     
                                           ; SOURCE LINE # 940
0072         ?C0082:
                                           ; SOURCE LINE # 942
0072 900000  E     MOV     DPTR,#Config+0DH
0075 E500    R     MOV     A,Value+01H
0077 F0            MOVX    @DPTR,A
                                           ; SOURCE LINE # 943
0078 120000  E     LCALL   BeepAlarm
007B 22            RET     
                                           ; SOURCE LINE # 960
007C         ?C0083:
                                           ; SOURCE LINE # 962
007C 120000  E     LCALL   KbdBeepKey
                                           ; SOURCE LINE # 964
                                           ; SOURCE LINE # 965
007F         ?C0079:
007F 22            RET     
             ; FUNCTION _DisplayEditExecute (END)



C51 COMPILER V5.50,  MENU                                                                  13/10/15  08:59:51  PAGE 37  

MODULE INFORMATION:   STATIC OVERLAYABLE
   CODE SIZE        =   1716    ----
   CONSTANT SIZE    =    962    ----
   XDATA SIZE       =     35    ----
   PDATA SIZE       =   ----    ----
   DATA SIZE        =   ----       4
   IDATA SIZE       =   ----    ----
   BIT SIZE         =   ----    ----
END OF MODULE INFORMATION.


C51 COMPILATION COMPLETE.  0 WARNING(S),  0 ERROR(S)
