C51 COMPILER V5.50,  TEMP                                                                  13/10/15  08:59:51  PAGE 1   


DOS C51 COMPILER V5.50, COMPILATION OF MODULE TEMP
OBJECT MODULE PLACED IN TEMP.OBJ
COMPILER INVOKED BY: D:\C51\C51_V5.5\BIN\C51.EXE TEMP.C51 CD DB

stmt level    source

   1          //*****************************************************************************
   2          //
   3          //    Temp.c - Mereni teploty
   4          //    Version 1.0
   5          //
   6          //*****************************************************************************
   7          
   8          #include "Temp.h"
   9          #include "Hermes1.h"
  10          #include "Alarm.h"             // Hlaseni poruchy
  11          
  12          #include "..\inc\Thermo.h"     // Cteni teplot
  13          
  14          TTemp __xdata__ Temp;
  15          
  16          
  17          // Lokalni promenne:
  18          
  19          static byte  ErrorCount;        // Pocet chybne nactenych teplot
  20          #define MAX_ERROR_COUNT   3     // Kolikrat se pokusim nacist teplotu
  21          
  22          
  23          void TemperatureInit() {
  24   1        // Inicializace
  25   1        ThermoInit();
  26   1        Temp.Value      = 0;
  27   1        Temp.MinAlarm   = NO;
  28   1        Temp.MaxAlarm   = NO;
  29   1        Temp.OkCount    = 0;
  30   1        Temp.ErrorCount = 0;
  31   1        ErrorCount      = 0;
  32   1      }
  33          
  34          void TemperatureRead() {
  35   1        // Cteni teploty
  36   1        ThermoMeasure();      // Nacte a ulozi teplotu do Temp.Value
  37   1        // Nastaveni alarmu
  38   1        if (Temp.Value == TEMP_ERROR_01C) {
  39   2          Temp.MinAlarm = YES;         // Odpojene cidlo, nastavim oba alarmy
  40   2          Temp.MaxAlarm = YES;
  41   2        } else {
  42   2          Temp.MinAlarm = (TYesNo)(Temp.Value < Config.MinLimit);
  43   2          Temp.MaxAlarm = (TYesNo)(Temp.Value > Config.MaxLimit);
  44   2        }
  45   1        if (Temp.MinAlarm || Temp.MaxAlarm) {
  46   2          AlarmSet(ALARM_TYPE_TEMP);
  47   2        }
  48   1      }
  49          
  50          //-----------------------------------------------------------------------------
  51          // Callback teploty
  52          //-----------------------------------------------------------------------------
  53          
  54          void AlogTemperature( byte channel, int value) {
  55   1        // Ulozi teplotu do lokalni promenne (tuto fci vola fce ThermoMeasure(), kvuli kompatibilite s Auto musi
             - mit tento nazev)
  56   1        // Prototyp je definovany v Hardware.h, aby fce byla pristupna pro modul Thermo.c
  57   1        if (value == TEMP_INVALID) {
  58   2          // Odpojene cidlo
C51 COMPILER V5.50,  TEMP                                                                  13/10/15  08:59:51  PAGE 2   

  59   2          if (++ErrorCount > MAX_ERROR_COUNT) {
  60   3            ErrorCount = MAX_ERROR_COUNT;     // Ochrana pred pretecenim
  61   3            Temp.Value = TEMP_ERROR_01C;
  62   3          }//if
  63   2          Temp.ErrorCount++;
  64   2        } else {
  65   2          // Teplota v poradku
  66   2          Temp.Value = TempConvert01C(value);
  67   2          if (Temp.Value > TEMP_MAX_01C) {
  68   3            Temp.Value = TEMP_MAX_01C;
  69   3          } else if (Temp.Value < TEMP_MIN_01C) {
  70   3            Temp.Value = TEMP_MIN_01C;
  71   3          }
  72   2          ErrorCount = 0;
  73   2          Temp.OkCount++;
  74   2        }//else
  75   1        channel = 0;          // Warning
  76   1      } // AlogTemperature
  77          
C51 COMPILER V5.50,  TEMP                                                                  13/10/15  08:59:51  PAGE 3   

ASSEMBLY LISTING OF GENERATED OBJECT CODE


             ; FUNCTION TemperatureInit (BEGIN)
                                           ; SOURCE LINE # 23
                                           ; SOURCE LINE # 25
0000 120000  E     LCALL   ThermoInit
                                           ; SOURCE LINE # 26
0003 E4            CLR     A
0004 900000  R     MOV     DPTR,#Temp
0007 F0            MOVX    @DPTR,A
0008 A3            INC     DPTR
0009 F0            MOVX    @DPTR,A
                                           ; SOURCE LINE # 27
000A A3            INC     DPTR
000B F0            MOVX    @DPTR,A
                                           ; SOURCE LINE # 28
000C A3            INC     DPTR
000D F0            MOVX    @DPTR,A
                                           ; SOURCE LINE # 29
000E A3            INC     DPTR
000F F0            MOVX    @DPTR,A
0010 A3            INC     DPTR
0011 F0            MOVX    @DPTR,A
                                           ; SOURCE LINE # 30
0012 A3            INC     DPTR
0013 F0            MOVX    @DPTR,A
0014 A3            INC     DPTR
0015 F0            MOVX    @DPTR,A
                                           ; SOURCE LINE # 31
0016 F500    R     MOV     ErrorCount,A
                                           ; SOURCE LINE # 32
0018 22            RET     
             ; FUNCTION TemperatureInit (END)

             ; FUNCTION TemperatureRead (BEGIN)
                                           ; SOURCE LINE # 34
                                           ; SOURCE LINE # 36
0000 120000  E     LCALL   ThermoMeasure
                                           ; SOURCE LINE # 38
0003 900000  R     MOV     DPTR,#Temp
0006 E0            MOVX    A,@DPTR
0007 FE            MOV     R6,A
0008 A3            INC     DPTR
0009 E0            MOVX    A,@DPTR
000A FF            MOV     R7,A
000B BEFC0B        CJNE    R6,#0FCH,?C0002
000E BF1808        CJNE    R7,#018H,?C0002
                                           ; SOURCE LINE # 39
0011 A3            INC     DPTR
0012 7401          MOV     A,#01H
0014 F0            MOVX    @DPTR,A
                                           ; SOURCE LINE # 40
0015 A3            INC     DPTR
0016 F0            MOVX    @DPTR,A
                                           ; SOURCE LINE # 41
0017 8044          SJMP    ?C0003
0019         ?C0002:
                                           ; SOURCE LINE # 42
0019 900000  E     MOV     DPTR,#Config+07H
001C E0            MOVX    A,@DPTR
001D FC            MOV     R4,A
001E A3            INC     DPTR
001F E0            MOVX    A,@DPTR
0020 FD            MOV     R5,A
0021 C3            CLR     C
C51 COMPILER V5.50,  TEMP                                                                  13/10/15  08:59:51  PAGE 4   

0022 EF            MOV     A,R7
0023 9D            SUBB    A,R5
0024 EC            MOV     A,R4
0025 6480          XRL     A,#080H
0027 F8            MOV     R0,A
0028 EE            MOV     A,R6
0029 6480          XRL     A,#080H
002B 98            SUBB    A,R0
002C 5003          JNC     ?C0004
002E D3            SETB    C
002F 8001          SJMP    ?C0005
0031         ?C0004:
0031 C3            CLR     C
0032         ?C0005:
0032 E4            CLR     A
0033 33            RLC     A
0034 900000  R     MOV     DPTR,#Temp+02H
0037 F0            MOVX    @DPTR,A
                                           ; SOURCE LINE # 43
0038 900000  E     MOV     DPTR,#Config+05H
003B E0            MOVX    A,@DPTR
003C FE            MOV     R6,A
003D A3            INC     DPTR
003E E0            MOVX    A,@DPTR
003F FF            MOV     R7,A
0040 D3            SETB    C
0041 900000  R     MOV     DPTR,#Temp+01H
0044 E0            MOVX    A,@DPTR
0045 9F            SUBB    A,R7
0046 EE            MOV     A,R6
0047 6480          XRL     A,#080H
0049 F8            MOV     R0,A
004A 900000  R     MOV     DPTR,#Temp
004D E0            MOVX    A,@DPTR
004E 6480          XRL     A,#080H
0050 98            SUBB    A,R0
0051 4003          JC      ?C0006
0053 D3            SETB    C
0054 8001          SJMP    ?C0007
0056         ?C0006:
0056 C3            CLR     C
0057         ?C0007:
0057 E4            CLR     A
0058 33            RLC     A
0059 900000  R     MOV     DPTR,#Temp+03H
005C F0            MOVX    @DPTR,A
                                           ; SOURCE LINE # 44
005D         ?C0003:
                                           ; SOURCE LINE # 45
005D 900000  R     MOV     DPTR,#Temp+02H
0060 E0            MOVX    A,@DPTR
0061 7004          JNZ     ?C0009
0063 A3            INC     DPTR
0064 E0            MOVX    A,@DPTR
0065 6005          JZ      ?C0010
0067         ?C0009:
                                           ; SOURCE LINE # 46
0067 E4            CLR     A
0068 FF            MOV     R7,A
0069 120000  E     LCALL   _AlarmSet
                                           ; SOURCE LINE # 47
                                           ; SOURCE LINE # 48
006C         ?C0010:
006C 22            RET     
             ; FUNCTION TemperatureRead (END)

C51 COMPILER V5.50,  TEMP                                                                  13/10/15  08:59:51  PAGE 5   

             ; FUNCTION _AlogTemperature (BEGIN)
0000 8F00    R     MOV     channel,R7
;---- Variable 'value' assigned to Register 'R6/R7' ----
0002 AF05          MOV     R7,AR5
0004 AE04          MOV     R6,AR4
                                           ; SOURCE LINE # 54
                                           ; SOURCE LINE # 57
0006 E4            CLR     A
0007 B5072A        CJNE    A,AR7,?C0011
000A EE            MOV     A,R6
000B B49C26        CJNE    A,#09CH,?C0011
                                           ; SOURCE LINE # 59
000E 0500    R     INC     ErrorCount
0010 E500    R     MOV     A,ErrorCount
0012 D3            SETB    C
0013 9403          SUBB    A,#03H
0015 400D          JC      ?C0012
                                           ; SOURCE LINE # 60
0017 750003  R     MOV     ErrorCount,#03H
                                           ; SOURCE LINE # 61
001A 900000  R     MOV     DPTR,#Temp
001D 74FC          MOV     A,#0FCH
001F F0            MOVX    @DPTR,A
0020 A3            INC     DPTR
0021 7418          MOV     A,#018H
0023 F0            MOVX    @DPTR,A
                                           ; SOURCE LINE # 62
0024         ?C0012:
                                           ; SOURCE LINE # 63
0024 900000  R     MOV     DPTR,#Temp+07H
0027 E0            MOVX    A,@DPTR
0028 04            INC     A
0029 F0            MOVX    @DPTR,A
002A 7006          JNZ     ?C0019
002C 900000  R     MOV     DPTR,#Temp+06H
002F E0            MOVX    A,@DPTR
0030 04            INC     A
0031 F0            MOVX    @DPTR,A
0032         ?C0019:
                                           ; SOURCE LINE # 64
0032 804A          SJMP    ?C0013
0034         ?C0011:
                                           ; SOURCE LINE # 66
0034 120000  E     LCALL   _TempConvert01C
0037 900000  R     MOV     DPTR,#Temp
003A EE            MOV     A,R6
003B F0            MOVX    @DPTR,A
003C A3            INC     DPTR
003D EF            MOV     A,R7
003E F0            MOVX    @DPTR,A
                                           ; SOURCE LINE # 67
003F D3            SETB    C
0040 94E7          SUBB    A,#0E7H
0042 EE            MOV     A,R6
0043 6480          XRL     A,#080H
0045 9483          SUBB    A,#083H
0047 400C          JC      ?C0014
                                           ; SOURCE LINE # 68
0049 900000  R     MOV     DPTR,#Temp
004C 7403          MOV     A,#03H
004E F0            MOVX    @DPTR,A
004F A3            INC     DPTR
0050 74E7          MOV     A,#0E7H
0052 F0            MOVX    @DPTR,A
                                           ; SOURCE LINE # 69
0053 8018          SJMP    ?C0015
C51 COMPILER V5.50,  TEMP                                                                  13/10/15  08:59:51  PAGE 6   

0055         ?C0014:
0055 C3            CLR     C
0056 900000  R     MOV     DPTR,#Temp+01H
0059 E0            MOVX    A,@DPTR
005A 9419          SUBB    A,#019H
005C 900000  R     MOV     DPTR,#Temp
005F E0            MOVX    A,@DPTR
0060 6480          XRL     A,#080H
0062 947C          SUBB    A,#07CH
0064 5007          JNC     ?C0015
                                           ; SOURCE LINE # 70
0066 74FC          MOV     A,#0FCH
0068 F0            MOVX    @DPTR,A
0069 A3            INC     DPTR
006A 7419          MOV     A,#019H
006C F0            MOVX    @DPTR,A
                                           ; SOURCE LINE # 71
006D         ?C0015:
                                           ; SOURCE LINE # 72
006D E4            CLR     A
006E F500    R     MOV     ErrorCount,A
                                           ; SOURCE LINE # 73
0070 900000  R     MOV     DPTR,#Temp+05H
0073 E0            MOVX    A,@DPTR
0074 04            INC     A
0075 F0            MOVX    @DPTR,A
0076 7006          JNZ     ?C0020
0078 900000  R     MOV     DPTR,#Temp+04H
007B E0            MOVX    A,@DPTR
007C 04            INC     A
007D F0            MOVX    @DPTR,A
007E         ?C0020:
                                           ; SOURCE LINE # 74
007E         ?C0013:
                                           ; SOURCE LINE # 75
007E E4            CLR     A
007F F500    R     MOV     channel,A
                                           ; SOURCE LINE # 76
0081 22            RET     
             ; FUNCTION _AlogTemperature (END)



MODULE INFORMATION:   STATIC OVERLAYABLE
   CODE SIZE        =    264    ----
   CONSTANT SIZE    =   ----    ----
   XDATA SIZE       =      8    ----
   PDATA SIZE       =   ----    ----
   DATA SIZE        =      1       1
   IDATA SIZE       =   ----    ----
   BIT SIZE         =   ----    ----
END OF MODULE INFORMATION.


C51 COMPILATION COMPLETE.  0 WARNING(S),  0 ERROR(S)
