C51 COMPILER V5.50,  GSMBASE                                                               24/07/12  10:33:54  PAGE 1   


DOS C51 COMPILER V5.50, COMPILATION OF MODULE GSMBASE
OBJECT MODULE PLACED IN ..\MODULY\GSM\GSMBASE.OBJ
COMPILER INVOKED BY: E:\C51_V5.5\BIN\C51.EXE ..\MODULY\GSM\GSMBASE.C51 CD DB

stmt level    source

   1          //******************************************************************************
   2          //
   3          //   GsmBase.c    GSM basic services
   4          //   Version 1.0  (c) VymOs
   5          //
   6          //******************************************************************************
   7          
   8          #include "..\inc\Gsm.h"
   9          #include "..\inc\System.h"   // SysDelay
  10          
  11          #ifndef GSM_COM2
                 #include "..\inc\Com.h"
              #else
  14             #include "..\inc\Com2sw.h"
  15          
  16             #define ComFlushChars Com2FlushChars
  17             #define ComRxChar     Com2RxChar
  18             #define ComRxWait     Com2RxWait
  19             #define ComTxChar     Com2TxChar
  20          #endif
  21          
  22          #include "..\inc\COM_util.h"
  23          
  24          #ifdef GSM_SMS_DEBUG
                extern byte __xdata__ SmsDebugValue;
                #define SetDebugValue(Value) SmsDebugValue = Value
              #else
  28            #define SetDebugValue(Value)
  29          #endif
  30          
  31          // Preddefinovane retezce :
  32          
  33          static char code At[]         = "At\r";                 // vyzva
  34          static char code Ok[]         = "\r\nOK\r\n";           // ok reply
  35          static char code EchoOff[]    = "ATE0\r";               // echo off
  36          static char code ErrorMode[]  = "ATV1+CMEE=1\r";        // Extended error mode
  37          static char code TextMode[]   = "AT+CMGF=1\r";          // SMS text mode
  38          
  39          
  40          #define TxString( s) ComFlushChars();ComTxString( s)    // pred vyslanim zrus Rx
  41          
  42          //-----------------------------------------------------------------------------
  43          // Reset
  44          //-----------------------------------------------------------------------------
  45          
  46          TYesNo GsmReset( void)
  47          // Inicializace modemu
  48          {
  49   1         // Echo off :
  50   1         TxString( EchoOff);
  51   1         ComRxWait( 1);                      // cekani na odpoved
  52   1         if( !ComWaitChar( '\n')){           // pred OK
  53   2            SetDebugValue( 1);
  54   2            return( NO);
  55   2         }
  56   1         if( !ComWaitChar( '\n')){           // za OK
  57   2            SetDebugValue( 2);
  58   2            return( NO);
  59   2         }
C51 COMPILER V5.50,  GSMBASE                                                               24/07/12  10:33:54  PAGE 2   

  60   1         // SMS mode :
  61   1         ComTxString( ErrorMode);
  62   1         if( !ComRxMatch( Ok, 1)){
  63   2            SetDebugValue( 3);
  64   2            return( NO);
  65   2         }
  66   1         SysDelay( GSM_ERROR_MODE_TIMEOUT);  // TC35i shit
  67   1         ComTxString( TextMode);
  68   1         if( !ComRxMatch( Ok, 1)){
  69   2            SetDebugValue( 4);
  70   2            return( NO);
  71   2         }
  72   1         // Predpoklada se, ze GSM modul je jiz spravne nastaven na pamet v SIM karte
  73   1         return( YES);
  74   1      } // GsmReset
  75          
  76          //******************************************************************************
  77          // Registrace
  78          //******************************************************************************
  79          
  80          static char code Registered[] = "AT+CREG?\r";           // Registration
  81          static char code RegHeader[]  = "\r\n+CREG: ";          // Header of registration
  82          
  83          
  84          TYesNo GsmRegistered( void)
  85          // Vraci YES, je-li modem registrovan v siti
  86          {
  87   1      byte Value;
  88   1      
  89   1         TxString( Registered);
  90   1         if( !ComRxMatch( RegHeader, 1)){
  91   2            SetDebugValue( 99);
  92   2            return( NO);
  93   2         }
  94   1         if( !ComWaitChar( ',')){            // preskoc pole <n>
  95   2            SetDebugValue( 98);
  96   2            return( NO);
  97   2         }
  98   1         Value = ComRxDec();                 // pole <stat>
  99   1         if( Value == 1 || Value == 5){
 100   2            return( YES);                    // registered or roaming
 101   2         }
 102   1         SetDebugValue( Value);              // show registered status
 103   1         return( NO);
 104   1      } // GsmRegistered
 105          
 106          #ifdef GSM_OPERATOR
              //******************************************************************************
              // Operator
              //******************************************************************************
              
              static char code Operator[]   = "AT+COPS?\r";           // Get operator
              static char code OperHeader[] = "\r\n+COPS: ";          // operator header
              
              TYesNo GsmOperator( char xdata *Name)
              // Vrati retezec s nazvem operatora,
              // POZOR delka <Name> musi byt min SMS_MAX_OPERATOR+1
              {
                 TxString( Operator);
                 if( !ComRxMatch( OperHeader, 1)){
                    SetDebugValue( 1);
                    return( NO);
                 }
                 if( !ComWaitChar( ',')){            // preskoc pole <mode>
                    SetDebugValue( 2);
                    return( NO);
C51 COMPILER V5.50,  GSMBASE                                                               24/07/12  10:33:54  PAGE 3   

                 }
                 if( !ComWaitChar( ',')){            // preskoc pole <format>
                    SetDebugValue( 3);
                    return( NO);
                 }
                 if( !ComRxString( Name, SMS_MAX_OPERATOR)){
                    SetDebugValue( 4);
                    return( NO);
                 }
                 return( YES);
              } // GsmOperator
              
              #endif // GSM_OPERATOR
 139          
 140          #ifdef GSM_SIGNAL_STRENGTH
              //******************************************************************************
              // Sila signalu
              //******************************************************************************
              
              static char code Rssi[]       = "AT+CSQ\r";             // Get Received Signal Strength
              static char code RssiHeader[] = "\r\n+CSQ: ";           // Signal strength header
              
              byte GsmSignalStrength( void)
              // Vrati relativni silu signalu 0..31 nebo 99 nejde-li zjistit
              {
              byte Value;
              
                 TxString( Rssi);
                 if( !ComRxMatch( RssiHeader, 1)){
                    SetDebugValue( 1);
                    return( 99);
                 }
                 Value = ComRxDec();                 // relativni sila
                 SetDebugValue( 0);                  // may return 99 also
                 return( Value);
              } // GsmSignalStrength
              
              #endif // GSM_SIGNAL_STREGTH
 164          
 165          #ifdef GSM_PIN
              //******************************************************************************
              // Kontrola pin
              //******************************************************************************
              
              static char code PinQuery[]         = "AT+CPIN?\r";
              static char code PinQueryReply[]    = "\r\n+CPIN: READY\r\n";
              
              TYesNo GsmPinReady( void)
              // Kontroluje platnost PIN, vraci YES neni-li potreba zadavat
              {
                 ComTxString( PinQuery);
                 if( !ComRxMatch( PinQueryReply, 5)){
                    SetDebugValue( 1);
                    return( NO);       // need pin enter
                 }
                 if( !ComRxMatch( Ok, 5)){
                    SetDebugValue( 2);
                    return( NO);       // error reply
                 }
                 return( YES);         // pin not needed
              } // GsmPinReady
              
              //******************************************************************************
              // Zadani pin
              //******************************************************************************
              
C51 COMPILER V5.50,  GSMBASE                                                               24/07/12  10:33:54  PAGE 4   

              static char code PinSet[]         = "AT+CPIN=\"";
              static char code PinUnlock[]      = "AT+CLCK=\"SC\",0,\"";
              // Funguje v HyperTerminalu:   AT+CPIN="1234"   AT+CLCK="SC",0,"1234"
              
              TYesNo GsmPinEnter( char xdata *Pin)
              // Zada <Pin> a zablokuje dalsi zadavani po zapnuti
              {
                 // set pin :
                 TxString( PinSet);
                 ComTxXString(Pin);                  // pin number
                 ComTxChar( '"');                    // close string with "
                 ComTxChar( '\r');
                 if( !ComRxMatch( Ok, 30)){          // Mereni na modulu Siemens TC35i: timeout 17 jeste nefunguje, 18 u
             -z ano. Pozor, jeste i 25 jednou zablblo, ale PIN se presto odblokoval, jen to zahlasilo Error.
                    SetDebugValue( 1);
                    return( NO);                     // error reply
                 }
                 // unlock pin :
                 TxString( PinUnlock);
                 ComTxXString(Pin);                  // pin number
                 ComTxChar( '"');                    // close string with "
                 ComTxChar( '\r');
                 if( !ComRxMatch( Ok, 30)){
                    SetDebugValue( 2);
                    return( NO);                     // error reply
                 }
                 return( YES);
              } // GsmPinEnter
              #endif // GSM_PIN
 220          
 221          #ifdef GSM_SMS_MEMORY
              //-----------------------------------------------------------------------------
              // Set SMS Memory
              //-----------------------------------------------------------------------------
              
              static char code MemoryPhone[] = "AT+CPMS=MT,MT,MT\r";  // SMS data in the internal memory
              static char code MemorySim[]   = "AT+CPMS=SM,SM,SM\r";  // SMS data in the SIM memory
              static char code MemoryHeader[]= "\r\n+CPMS: ";         // Header of memory settings
              
              TYesNo SmsMemory( byte Location)
              // Nastaveni pameti SMS. <Location> viz TSmsMemory
              {
                 switch( Location){
                    case SMS_SIM_MEMORY :
                       TxString( MemorySim);
                       break;
                    case SMS_PHONE_MEMORY :
                       TxString( MemoryPhone);
                       break;
                    default :
                       SetDebugValue( 1);
                       return( NO);
                 }
                 if( !ComRxMatch( MemoryHeader, 50)){ // prepnuti trva az nekolik sekund
                    SetDebugValue( 2);
                    return( NO);
                 }
                 if( !ComWaitChar( '\r')){            // preskoc na konec radku
                    SetDebugValue( 3);
                    return( NO);
                 }
                 if( !ComWaitChar( '\n')){
                    SetDebugValue( 4);
                    return( NO);
                 }
                 if( !ComRxMatch( Ok, 1)){            // OK
C51 COMPILER V5.50,  GSMBASE                                                               24/07/12  10:33:54  PAGE 5   

                    SetDebugValue( 5);
                    return( NO);
                 }
                 return( YES);
              } // SmsMemory
              
              #endif // GSM_SMS_MEMORY
 264          
 265          #ifdef GSM_SMS_PARAMETERS
              //******************************************************************************
              // SMS parameters
              //******************************************************************************
              
              static char code SendParams1[] = "AT+CSMP=17,";     // SMS send parameters part 1 + <expiration>
              static char code SendParams2[] = ",0,0\r";          // SMS send parameters part 1
              
              TYesNo SmsSendParameters( void)
              // Nastaveni implicitnich parametru pro SMS send
              {
                 TxString( SendParams1);
                 ComTxDec( SMS_EXPIRATION);
                 ComTxString( SendParams2);
                 if( !ComRxMatch( Ok, 1)){
                    SetDebugValue( 1);
                    return( NO);
                 }
                 return( YES);
              } // SmsSendParameters
              #endif
C51 COMPILER V5.50,  GSMBASE                                                               24/07/12  10:33:54  PAGE 6   

ASSEMBLY LISTING OF GENERATED OBJECT CODE


             ; FUNCTION GsmReset (BEGIN)
                                           ; SOURCE LINE # 46
                                           ; SOURCE LINE # 48
                                           ; SOURCE LINE # 50
0000 120000  E     LCALL   Com2FlushChars
0003 7E00    R     MOV     R6,#HIGH EchoOff
0005 7F00    R     MOV     R7,#LOW EchoOff
0007 120000  E     LCALL   _ComTxString
                                           ; SOURCE LINE # 51
000A 7F01          MOV     R7,#01H
000C 120000  E     LCALL   _Com2RxWait
                                           ; SOURCE LINE # 52
000F 7F0A          MOV     R7,#0AH
0011 120000  E     LCALL   _ComWaitChar
0014 4002          JC      ?C0001
                                           ; SOURCE LINE # 54
0016 C3            CLR     C
0017 22            RET     
                                           ; SOURCE LINE # 55
0018         ?C0001:
                                           ; SOURCE LINE # 56
0018 7F0A          MOV     R7,#0AH
001A 120000  E     LCALL   _ComWaitChar
001D 4002          JC      ?C0003
                                           ; SOURCE LINE # 58
001F C3            CLR     C
0020 22            RET     
                                           ; SOURCE LINE # 59
0021         ?C0003:
                                           ; SOURCE LINE # 61
0021 7E00    R     MOV     R6,#HIGH ErrorMode
0023 7F00    R     MOV     R7,#LOW ErrorMode
0025 120000  E     LCALL   _ComTxString
                                           ; SOURCE LINE # 62
0028 7E00    R     MOV     R6,#HIGH Ok
002A 7F00    R     MOV     R7,#LOW Ok
002C 7D01          MOV     R5,#01H
002E 120000  E     LCALL   _ComRxMatch
0031 4002          JC      ?C0004
                                           ; SOURCE LINE # 64
0033 C3            CLR     C
0034 22            RET     
                                           ; SOURCE LINE # 65
0035         ?C0004:
                                           ; SOURCE LINE # 66
0035 7F0A          MOV     R7,#0AH
0037 7E00          MOV     R6,#00H
0039 120000  E     LCALL   _SysDelay
                                           ; SOURCE LINE # 67
003C 7E00    R     MOV     R6,#HIGH TextMode
003E 7F00    R     MOV     R7,#LOW TextMode
0040 120000  E     LCALL   _ComTxString
                                           ; SOURCE LINE # 68
0043 7E00    R     MOV     R6,#HIGH Ok
0045 7F00    R     MOV     R7,#LOW Ok
0047 7D01          MOV     R5,#01H
0049 120000  E     LCALL   _ComRxMatch
004C 4002          JC      ?C0005
                                           ; SOURCE LINE # 70
004E C3            CLR     C
004F 22            RET     
                                           ; SOURCE LINE # 71
0050         ?C0005:
C51 COMPILER V5.50,  GSMBASE                                                               24/07/12  10:33:54  PAGE 7   

                                           ; SOURCE LINE # 73
0050 D3            SETB    C
                                           ; SOURCE LINE # 74
0051         ?C0002:
0051 22            RET     
             ; FUNCTION GsmReset (END)

             ; FUNCTION GsmRegistered (BEGIN)
                                           ; SOURCE LINE # 84
                                           ; SOURCE LINE # 86
                                           ; SOURCE LINE # 89
0000 120000  E     LCALL   Com2FlushChars
0003 7E00    R     MOV     R6,#HIGH Registered
0005 7F00    R     MOV     R7,#LOW Registered
0007 120000  E     LCALL   _ComTxString
                                           ; SOURCE LINE # 90
000A 7E00    R     MOV     R6,#HIGH RegHeader
000C 7F00    R     MOV     R7,#LOW RegHeader
000E 7D01          MOV     R5,#01H
0010 120000  E     LCALL   _ComRxMatch
0013 4002          JC      ?C0006
                                           ; SOURCE LINE # 92
0015 C3            CLR     C
0016 22            RET     
                                           ; SOURCE LINE # 93
0017         ?C0006:
                                           ; SOURCE LINE # 94
0017 7F2C          MOV     R7,#02CH
0019 120000  E     LCALL   _ComWaitChar
001C 4002          JC      ?C0008
                                           ; SOURCE LINE # 96
001E C3            CLR     C
001F 22            RET     
                                           ; SOURCE LINE # 97
0020         ?C0008:
                                           ; SOURCE LINE # 98
0020 120000  E     LCALL   ComRxDec
;---- Variable 'Value' assigned to Register 'R7' ----
                                           ; SOURCE LINE # 99
0023 EF            MOV     A,R7
0024 6401          XRL     A,#01H
0026 6003          JZ      ?C0010
0028 BF0502        CJNE    R7,#05H,?C0009
002B         ?C0010:
                                           ; SOURCE LINE # 100
002B D3            SETB    C
002C 22            RET     
                                           ; SOURCE LINE # 101
002D         ?C0009:
                                           ; SOURCE LINE # 103
002D C3            CLR     C
                                           ; SOURCE LINE # 104
002E         ?C0007:
002E 22            RET     
             ; FUNCTION GsmRegistered (END)



MODULE INFORMATION:   STATIC OVERLAYABLE
   CODE SIZE        =    129    ----
   CONSTANT SIZE    =     61    ----
   XDATA SIZE       =   ----    ----
   PDATA SIZE       =   ----    ----
   DATA SIZE        =   ----    ----
   IDATA SIZE       =   ----    ----
   BIT SIZE         =   ----    ----
C51 COMPILER V5.50,  GSMBASE                                                               24/07/12  10:33:54  PAGE 8   

END OF MODULE INFORMATION.


C51 COMPILATION COMPLETE.  0 WARNING(S),  0 ERROR(S)
