C51 COMPILER V5.50,  GSMSMS                                                                28/06/12  15:55:47  PAGE 1   


DOS C51 COMPILER V5.50, COMPILATION OF MODULE GSMSMS
OBJECT MODULE PLACED IN ..\MODULY\GSM\GSMSMS.OBJ
COMPILER INVOKED BY: E:\C51_V5.5\BIN\C51.EXE ..\MODULY\GSM\GSMSMS.C51 CD DB

stmt level    source

   1          //******************************************************************************
   2          //
   3          //   GsmSms.c     GSM SMS messaging
   4          //   Version 1.0  (c) VymOs
   5          //
   6          //******************************************************************************
   7          
   8          #include "..\inc\Gsm.h"
   9          #include "..\inc\System.h"   // SysDelay
  10          #include <string.h>
  11          
  12          #ifdef GSM_SMS_USE_GSMCTL
                 #include "..\inc\GsmCtl.h"   // GSM kontext
              #else
  15             #define GsmReady() YES       // Informaci o pripravenosti GSM modulu nemam, beru ze je stale pripraven
  16          #endif
  17          
  18          #ifndef GSM_COM2
  19             #include "..\inc\Com.h"
  20          #else
                 #include "..\inc\Com2sw.h"
              
                 #define ComFlushChars Com2FlushChars
                 #define ComRxChar     Com2RxChar
                 #define ComRxWait     Com2RxWait
                 #define ComTxChar     Com2TxChar
              #endif
  28          
  29          #include "..\inc\COM_util.h"
  30          
  31          #ifdef GSM_SMS_DEBUG
                extern byte __xdata__ SmsDebugValue;
                #define SetDebugValue(Value) SmsDebugValue = Value
              #else
  35            #define SetDebugValue(Value)
  36          #endif
  37          
  38          // Preddefinovane retezce :
  39          
  40          static char code PduSend[]    = "AT+CMGS=\"+";          // Send SMS + "+<number."<CR>
  41          static char code Prompt[]     = "\r\n> ";               // input prompt
  42          static char code SendOk[]     = "\r\n+CMGS: ";          // Send ok (+message reference, pduack)
  43          
  44          static char code PduRead[]    = "AT+CMGR=";             // Read SMS <index><CR>
  45          static char code ReadHeader[] = "\r\n+CMGR: ";          // Header of read message
  46          static char code EmptyRead[]  = ",,0\r\n";              // empty SMS message
  47          static char code ReceivedMsg[]= "REC";                  // REC READ/REC UNREAD status
  48          
  49          static char code Delete[]     = "AT+CMGD=";             // Delete SMS <index><CR>
  50          
  51          #define CTRL_Z  '\x1A'
  52          
  53          #define PDU_FIXED_LENGTH      8        // konstatni delka telegramu bez SMSC
  54          #define TIMESTAMP_LENGTH     14        // delka sekce cas+zona
  55          
  56          #define SMS_PROMPT_TIMEOUT   10        // Send prompt timeout      * 0.1s
  57          
  58          
  59          #define TxString( s) ComFlushChars();ComTxString( s)    // pred vyslanim zrus Rx
C51 COMPILER V5.50,  GSMSMS                                                                28/06/12  15:55:47  PAGE 2   

  60          
  61          //-----------------------------------------------------------------------------
  62          // Send
  63          //-----------------------------------------------------------------------------
  64          
  65          
  66          TYesNo SmsSend( char xdata *DstNumber, char *Text, byte MessageLength)
  67          // Odeslani zpravy
  68          {
  69   1      byte   i;
  70   1      byte   ch;
  71   1      
  72   1         if( !GsmReady()){
  73   2            SetDebugValue(1);
  74   2            return( NO);                     // out of context
  75   2         }
  76   1         // AT command SMS send :
  77   1         TxString( PduSend);
  78   1         ComTxXString( DstNumber);           // destination number
  79   1         ComTxChar( '"');                    // close string with "
  80   1         ComTxChar( '\r');
  81   1         // wait for prompt :
  82   1         if( !ComRxMatch( Prompt, SMS_PROMPT_TIMEOUT)){
  83   2            SetDebugValue(2);
  84   2            return( NO);
  85   2         }
  86   1         // send text :
  87   1         for( i = 0; i < MessageLength; i++){
  88   2            ch = Text[ i];
  89   2            // ASCII to GSM alphabet :
  90   2            if( ch == '@'){
  91   3               ch = '\0';
  92   3            }
  93   2            ComTxChar( ch);
  94   2         }
  95   1         ComTxChar( CTRL_Z);                 // message terminator
  96   1      #ifdef GSM_SMS_USE_GSMCTL
                 // Nacteni odpovedi necham na automat
                 GsmCtl.Status  = GSM_SMS_SENDING;       // kontext radice
                 GsmCtl.Counter = GSM_SMS_SEND_TIMEOUT;  // timeout potvrzeni
              #else
 101   1         // Automat se nepouziva, pockam na odpoved
 102   1         if( !ComRxMatch( SendOk, 10 * GSM_SMS_SEND_TIMEOUT)){        // Timeout se do ComRxMatch() zadava v 0.1
             -sec
 103   2            SetDebugValue(3);
 104   2            return( NO);
 105   2         }
 106   1       #endif
 107   1         SetDebugValue(0);  // V poradku
 108   1         return( YES);
 109   1      } // SmsSend
 110          
 111          
 112          //-----------------------------------------------------------------------------
 113          // Send OK
 114          //-----------------------------------------------------------------------------
 115          
 116          #ifdef GSM_SMS_USE_GSMCTL
              
              TYesNo SmsSendOk( void)
              // Testuje potvrzeni odeslani
              {
                 if( !ComRxMatch( SendOk, 0)){
                    return( NO);
                 }
                 return( YES);
C51 COMPILER V5.50,  GSMSMS                                                                28/06/12  15:55:47  PAGE 3   

              } // SmsSendOk
              
              #endif
 128          
 129          //-----------------------------------------------------------------------------
 130          // Receive
 131          //-----------------------------------------------------------------------------
 132          
 133          byte SmsRead( byte Index, char xdata *SrcNumber, char xdata *Text)
 134          // Precte prijatou zpravu z pozice <Index>, vrati jeji delku
 135          {
 136   1      byte MessageLength;
 137   1      byte i;
 138   1      byte ch;
 139   1      
 140   1         if( !GsmReady()){
 141   2            SetDebugValue(1);
 142   2            return( SMS_READ_ERROR);         // kontextova cinnost, nelze cist
 143   2         }
 144   1         Index++;                            // cislovano od 1
 145   1         // AT prikaz Read :
 146   1         TxString( PduRead);
 147   1         ComTxDec( Index);                   // pozice
 148   1         ComTxChar( '\r');
 149   1         if( !ComRxMatch( ReadHeader, 5)){
 150   2            SetDebugValue(2);
 151   2            return( SMS_READ_ERROR);         // neplatna hlavicka odpovedi
 152   2         }
 153   1         // read first character :
 154   1         if( !ComRxChar( &ch)){
 155   2            SetDebugValue(3);
 156   2            return( SMS_READ_ERROR);
 157   2         }
 158   1         // test for empty message signature :
 159   1         if( ch == '0'){
 160   2            if( ComRxMatch( EmptyRead, 1)){
 161   3               SetDebugValue(4);
 162   3               return( SMS_EMPTY_MESSAGE);
 163   3            }
 164   2            SetDebugValue(5);
 165   2            return( SMS_READ_ERROR);
 166   2         }
 167   1         // test for message type :
 168   1         if( ch != '"'){
 169   2            SetDebugValue(6);
 170   2            return( SMS_READ_ERROR);
 171   2         }
 172   1         if( !ComRxMatch( ReceivedMsg, 1)){
 173   2            SetDebugValue(7);
 174   2            return( SMS_READ_ERROR);
 175   2         }
 176   1         if( !ComWaitChar( ',')){
 177   2            SetDebugValue(8);
 178   2            return( SMS_READ_ERROR);         // invalid sequence
 179   2         }
 180   1         // phone number :
 181   1         if( !ComRxString( SrcNumber, GSM_MAX_NUMBER)){
 182   2            SetDebugValue(9);
 183   2            return( SMS_READ_ERROR);         // invalid sequence
 184   2         }
 185   1         if( SrcNumber[ 0] == '+'){          // remove leading + sign
 186   2            ch = strlen( SrcNumber);         // sorry
 187   2            for( i = 0; i < ch; i++){
 188   3                SrcNumber[ i] = SrcNumber[ i + 1];
 189   3            }
 190   2         }
C51 COMPILER V5.50,  GSMSMS                                                                28/06/12  15:55:47  PAGE 4   

 191   1         // skip up to end of line :
 192   1         if( !ComWaitChar( '\n')){
 193   2            SetDebugValue(10);
 194   2            return( SMS_READ_ERROR);         // invalid sequence
 195   2         }
 196   1         // text of the message :
 197   1         MessageLength = ComRxDelimiter( Text, SMS_MAX_LENGTH, '\r');
 198   1         if( !MessageLength){
 199   2            SetDebugValue(11);
 200   2            return( SMS_READ_ERROR);         // invalid sequence
 201   2         }
 202   1         // transform from GSM alphabet :
 203   1         for( i = 0; i < MessageLength; i++){
 204   2            ch = Text[ i];
 205   2            if( ch == '\0'){
 206   3               Text[ i] = '@';
 207   3            }
 208   2         }
 209   1         SetDebugValue(0);    // V poradku
 210   1         return( MessageLength);
 211   1      } // SmsRead
 212          
 213          
 214          
 215          //-----------------------------------------------------------------------------
 216          // Delete
 217          //-----------------------------------------------------------------------------
 218          
 219          
 220          void SmsDelete( byte Index)
 221          // Smaze prijatou zpravu z pozice <Index>
 222          {
 223   1         Index++;                            // cislovano od 1
 224   1         TxString( Delete);
 225   1         ComTxDec( Index);                   // pozice
 226   1         ComTxChar( '\r');
 227   1      } // SmsDelete
C51 COMPILER V5.50,  GSMSMS                                                                28/06/12  15:55:47  PAGE 5   

ASSEMBLY LISTING OF GENERATED OBJECT CODE


             ; FUNCTION _SmsSend (BEGIN)
0000 8E00    R     MOV     DstNumber,R6
0002 8F00    R     MOV     DstNumber+01H,R7
0004 8B00    R     MOV     Text,R3
0006 8A00    R     MOV     Text+01H,R2
0008 8900    R     MOV     Text+02H,R1
                                           ; SOURCE LINE # 66
                                           ; SOURCE LINE # 68
                                           ; SOURCE LINE # 72
                                           ; SOURCE LINE # 74
                                           ; SOURCE LINE # 75
000A         ?C0001:
                                           ; SOURCE LINE # 77
000A 120000  E     LCALL   ComFlushChars
000D 7E00    R     MOV     R6,#HIGH PduSend
000F 7F00    R     MOV     R7,#LOW PduSend
0011 120000  E     LCALL   _ComTxString
                                           ; SOURCE LINE # 78
0014 AF00    R     MOV     R7,DstNumber+01H
0016 AE00    R     MOV     R6,DstNumber
0018 120000  E     LCALL   _ComTxXString
                                           ; SOURCE LINE # 79
001B 7F22          MOV     R7,#022H
001D 120000  E     LCALL   _ComTxChar
                                           ; SOURCE LINE # 80
0020 7F0D          MOV     R7,#0DH
0022 120000  E     LCALL   _ComTxChar
                                           ; SOURCE LINE # 82
0025 7E00    R     MOV     R6,#HIGH Prompt
0027 7F00    R     MOV     R7,#LOW Prompt
0029 7D0A          MOV     R5,#0AH
002B 120000  E     LCALL   _ComRxMatch
002E 4002          JC      ?C0003
                                           ; SOURCE LINE # 84
0030 C3            CLR     C
0031 22            RET     
                                           ; SOURCE LINE # 85
0032         ?C0003:
                                           ; SOURCE LINE # 87
0032 E4            CLR     A
0033 F500    R     MOV     i,A
0035         ?C0004:
0035 E500    R     MOV     A,i
0037 C3            CLR     C
0038 9500    R     SUBB    A,MessageLength
003A 5020          JNC     ?C0005
                                           ; SOURCE LINE # 88
003C AB00    R     MOV     R3,Text
003E AA00    R     MOV     R2,Text+01H
0040 A900    R     MOV     R1,Text+02H
0042 850082  R     MOV     DPL,i
0045 758300        MOV     DPH,#00H
0048 120000  E     LCALL   ?C?CLDOPTR
004B F500    R     MOV     ch,A
                                           ; SOURCE LINE # 90
004D B44003        CJNE    A,#040H,?C0007
                                           ; SOURCE LINE # 91
0050 E4            CLR     A
0051 F500    R     MOV     ch,A
                                           ; SOURCE LINE # 92
0053         ?C0007:
                                           ; SOURCE LINE # 93
0053 AF00    R     MOV     R7,ch
C51 COMPILER V5.50,  GSMSMS                                                                28/06/12  15:55:47  PAGE 6   

0055 120000  E     LCALL   _ComTxChar
                                           ; SOURCE LINE # 94
0058 0500    R     INC     i
005A 80D9          SJMP    ?C0004
005C         ?C0005:
                                           ; SOURCE LINE # 95
005C 7F1A          MOV     R7,#01AH
005E 120000  E     LCALL   _ComTxChar
                                           ; SOURCE LINE # 102
0061 7E00    R     MOV     R6,#HIGH SendOk
0063 7F00    R     MOV     R7,#LOW SendOk
0065 7D96          MOV     R5,#096H
0067 120000  E     LCALL   _ComRxMatch
006A 4002          JC      ?C0008
                                           ; SOURCE LINE # 104
006C C3            CLR     C
006D 22            RET     
                                           ; SOURCE LINE # 105
006E         ?C0008:
                                           ; SOURCE LINE # 108
006E D3            SETB    C
                                           ; SOURCE LINE # 109
006F         ?C0002:
006F 22            RET     
             ; FUNCTION _SmsSend (END)

             ; FUNCTION _SmsRead (BEGIN)
0000 8F00    R     MOV     Index,R7
0002 8C00    R     MOV     SrcNumber,R4
0004 8D00    R     MOV     SrcNumber+01H,R5
0006 8A00    R     MOV     Text,R2
0008 8B00    R     MOV     Text+01H,R3
                                           ; SOURCE LINE # 133
                                           ; SOURCE LINE # 135
                                           ; SOURCE LINE # 140
                                           ; SOURCE LINE # 142
                                           ; SOURCE LINE # 143
000A         ?C0009:
                                           ; SOURCE LINE # 144
000A 0500    R     INC     Index
                                           ; SOURCE LINE # 146
000C 120000  E     LCALL   ComFlushChars
000F 7E00    R     MOV     R6,#HIGH PduRead
0011 7F00    R     MOV     R7,#LOW PduRead
0013 120000  E     LCALL   _ComTxString
                                           ; SOURCE LINE # 147
0016 AF00    R     MOV     R7,Index
0018 120000  E     LCALL   _ComTxDec
                                           ; SOURCE LINE # 148
001B 7F0D          MOV     R7,#0DH
001D 120000  E     LCALL   _ComTxChar
                                           ; SOURCE LINE # 149
0020 7E00    R     MOV     R6,#HIGH ReadHeader
0022 7F00    R     MOV     R7,#LOW ReadHeader
0024 7D05          MOV     R5,#05H
0026 120000  E     LCALL   _ComRxMatch
0029 4003          JC      ?C0011
                                           ; SOURCE LINE # 151
002B 7FFF          MOV     R7,#0FFH
002D 22            RET     
                                           ; SOURCE LINE # 152
002E         ?C0011:
                                           ; SOURCE LINE # 154
002E 7F00    R     MOV     R7,#LOW ch
0030 120000  E     LCALL   _ComRxChar
0033 4003          JC      ?C0012
C51 COMPILER V5.50,  GSMSMS                                                                28/06/12  15:55:47  PAGE 7   

                                           ; SOURCE LINE # 156
0035 7FFF          MOV     R7,#0FFH
0037 22            RET     
                                           ; SOURCE LINE # 157
0038         ?C0012:
                                           ; SOURCE LINE # 159
0038 E500    R     MOV     A,ch
003A B43011        CJNE    A,#030H,?C0013
                                           ; SOURCE LINE # 160
003D 7E00    R     MOV     R6,#HIGH EmptyRead
003F 7F00    R     MOV     R7,#LOW EmptyRead
0041 7D01          MOV     R5,#01H
0043 120000  E     LCALL   _ComRxMatch
0046 5003          JNC     ?C0014
                                           ; SOURCE LINE # 162
0048 7F00          MOV     R7,#00H
004A 22            RET     
                                           ; SOURCE LINE # 163
004B         ?C0014:
                                           ; SOURCE LINE # 165
004B 7FFF          MOV     R7,#0FFH
004D 22            RET     
                                           ; SOURCE LINE # 166
004E         ?C0013:
                                           ; SOURCE LINE # 168
004E E500    R     MOV     A,ch
0050 6422          XRL     A,#022H
0052 6003          JZ      ?C0015
                                           ; SOURCE LINE # 170
0054 7FFF          MOV     R7,#0FFH
0056 22            RET     
                                           ; SOURCE LINE # 171
0057         ?C0015:
                                           ; SOURCE LINE # 172
0057 7E00    R     MOV     R6,#HIGH ReceivedMsg
0059 7F00    R     MOV     R7,#LOW ReceivedMsg
005B 7D01          MOV     R5,#01H
005D 120000  E     LCALL   _ComRxMatch
0060 4003          JC      ?C0016
                                           ; SOURCE LINE # 174
0062 7FFF          MOV     R7,#0FFH
0064 22            RET     
                                           ; SOURCE LINE # 175
0065         ?C0016:
                                           ; SOURCE LINE # 176
0065 7F2C          MOV     R7,#02CH
0067 120000  E     LCALL   _ComWaitChar
006A 4003          JC      ?C0017
                                           ; SOURCE LINE # 178
006C 7FFF          MOV     R7,#0FFH
006E 22            RET     
                                           ; SOURCE LINE # 179
006F         ?C0017:
                                           ; SOURCE LINE # 181
006F AF00    R     MOV     R7,SrcNumber+01H
0071 AE00    R     MOV     R6,SrcNumber
0073 7D10          MOV     R5,#010H
0075 120000  E     LCALL   _ComRxString
0078 4003          JC      ?C0018
                                           ; SOURCE LINE # 183
007A 7FFF          MOV     R7,#0FFH
007C 22            RET     
                                           ; SOURCE LINE # 184
007D         ?C0018:
                                           ; SOURCE LINE # 185
007D 850082  R     MOV     DPL,SrcNumber+01H
C51 COMPILER V5.50,  GSMSMS                                                                28/06/12  15:55:47  PAGE 8   

0080 850083  R     MOV     DPH,SrcNumber
0083 E0            MOVX    A,@DPTR
0084 642B          XRL     A,#02BH
0086 703A          JNZ     ?C0019
                                           ; SOURCE LINE # 186
0088 AA00    R     MOV     R2,SrcNumber
008A A900    R     MOV     R1,SrcNumber+01H
008C 7B01          MOV     R3,#01H
008E 120000  E     LCALL   _strlen
0091 8F00    R     MOV     ch,R7
                                           ; SOURCE LINE # 187
0093 E4            CLR     A
0094 F500    R     MOV     i,A
0096         ?C0020:
0096 E500    R     MOV     A,i
0098 C3            CLR     C
0099 9500    R     SUBB    A,ch
009B 5025          JNC     ?C0019
                                           ; SOURCE LINE # 188
009D E500    R     MOV     A,i
009F 2401          ADD     A,#01H
00A1 FF            MOV     R7,A
00A2 E4            CLR     A
00A3 33            RLC     A
00A4 FE            MOV     R6,A
00A5 E500    R     MOV     A,SrcNumber+01H
00A7 2F            ADD     A,R7
00A8 F582          MOV     DPL,A
00AA EE            MOV     A,R6
00AB 3500    R     ADDC    A,SrcNumber
00AD F583          MOV     DPH,A
00AF E0            MOVX    A,@DPTR
00B0 FF            MOV     R7,A
00B1 E500    R     MOV     A,SrcNumber+01H
00B3 2500    R     ADD     A,i
00B5 F582          MOV     DPL,A
00B7 E4            CLR     A
00B8 3500    R     ADDC    A,SrcNumber
00BA F583          MOV     DPH,A
00BC EF            MOV     A,R7
00BD F0            MOVX    @DPTR,A
                                           ; SOURCE LINE # 189
00BE 0500    R     INC     i
00C0 80D4          SJMP    ?C0020
                                           ; SOURCE LINE # 190
00C2         ?C0019:
                                           ; SOURCE LINE # 192
00C2 7F0A          MOV     R7,#0AH
00C4 120000  E     LCALL   _ComWaitChar
00C7 4003          JC      ?C0023
                                           ; SOURCE LINE # 194
00C9 7FFF          MOV     R7,#0FFH
00CB 22            RET     
                                           ; SOURCE LINE # 195
00CC         ?C0023:
                                           ; SOURCE LINE # 197
00CC AF00    R     MOV     R7,Text+01H
00CE AE00    R     MOV     R6,Text
00D0 7DA1          MOV     R5,#0A1H
00D2 7B0D          MOV     R3,#0DH
00D4 120000  E     LCALL   _ComRxDelimiter
;---- Variable 'MessageLength' assigned to Register 'R6' ----
00D7 AE07          MOV     R6,AR7
                                           ; SOURCE LINE # 198
00D9 EE            MOV     A,R6
00DA 7003          JNZ     ?C0024
C51 COMPILER V5.50,  GSMSMS                                                                28/06/12  15:55:47  PAGE 9   

                                           ; SOURCE LINE # 200
00DC 7FFF          MOV     R7,#0FFH
00DE 22            RET     
                                           ; SOURCE LINE # 201
00DF         ?C0024:
                                           ; SOURCE LINE # 203
00DF E4            CLR     A
00E0 F500    R     MOV     i,A
00E2         ?C0025:
00E2 E500    R     MOV     A,i
00E4 C3            CLR     C
00E5 9E            SUBB    A,R6
00E6 5017          JNC     ?C0026
                                           ; SOURCE LINE # 204
00E8 E500    R     MOV     A,Text+01H
00EA 2500    R     ADD     A,i
00EC F582          MOV     DPL,A
00EE E4            CLR     A
00EF 3500    R     ADDC    A,Text
00F1 F583          MOV     DPH,A
00F3 E0            MOVX    A,@DPTR
00F4 F500    R     MOV     ch,A
                                           ; SOURCE LINE # 205
00F6 7003          JNZ     ?C0027
                                           ; SOURCE LINE # 206
00F8 7440          MOV     A,#040H
00FA F0            MOVX    @DPTR,A
                                           ; SOURCE LINE # 207
                                           ; SOURCE LINE # 208
00FB         ?C0027:
00FB 0500    R     INC     i
00FD 80E3          SJMP    ?C0025
00FF         ?C0026:
                                           ; SOURCE LINE # 210
00FF AF06          MOV     R7,AR6
                                           ; SOURCE LINE # 211
0101         ?C0010:
0101 22            RET     
             ; FUNCTION _SmsRead (END)

             ; FUNCTION _SmsDelete (BEGIN)
0000 8F00    R     MOV     Index,R7
                                           ; SOURCE LINE # 220
                                           ; SOURCE LINE # 222
                                           ; SOURCE LINE # 223
0002 0500    R     INC     Index
                                           ; SOURCE LINE # 224
0004 120000  E     LCALL   ComFlushChars
0007 7E00    R     MOV     R6,#HIGH Delete
0009 7F00    R     MOV     R7,#LOW Delete
000B 120000  E     LCALL   _ComTxString
                                           ; SOURCE LINE # 225
000E AF00    R     MOV     R7,Index
0010 120000  E     LCALL   _ComTxDec
                                           ; SOURCE LINE # 226
0013 7F0D          MOV     R7,#0DH
0015 120000  E     LCALL   _ComTxChar
                                           ; SOURCE LINE # 227
0018 22            RET     
             ; FUNCTION _SmsDelete (END)



MODULE INFORMATION:   STATIC OVERLAYABLE
   CODE SIZE        =    395    ----
   CONSTANT SIZE    =     64    ----
C51 COMPILER V5.50,  GSMSMS                                                                28/06/12  15:55:47  PAGE 10  

   XDATA SIZE       =   ----    ----
   PDATA SIZE       =   ----    ----
   DATA SIZE        =   ----      16
   IDATA SIZE       =   ----    ----
   BIT SIZE         =   ----    ----
END OF MODULE INFORMATION.


C51 COMPILATION COMPLETE.  0 WARNING(S),  0 ERROR(S)
