C51 COMPILER V5.50,  SPIHW                                                                 13/09/12  16:09:43  PAGE 1   


DOS C51 COMPILER V5.50, COMPILATION OF MODULE SPIHW
OBJECT MODULE PLACED IN ..\MODULY\RD2\SPIHW.OBJ
COMPILER INVOKED BY: E:\C51_V5.5\BIN\C51.EXE ..\MODULY\RD2\SPIHW.C51 CD DB

stmt level    source

   1          //*****************************************************************************
   2          //
   3          //   SpiHw.c     ED2 SPI interface
   4          //   Version 1.0 (c) VymOs
   5          //
   6          //*****************************************************************************
   7          
   8          #include "..\inc\SpiHw.h"
   9          #include "..\inc\Spi.h"
  10          
  11          //-----------------------------------------------------------------------------
  12          // Start
  13          //-----------------------------------------------------------------------------
  14          
  15          void SpiInit( void)
  16          // Inicializace radice
  17          {
  18   1         SPCON &= ~SPCON_SPEN;         // disable SPI
  19   1         SPCON  = SPCON_SSDIS | SPCON_MSTR | SPI_BAUD | SPI_LEVEL | SPI_EDGE;
  20   1         SPCON |= SPCON_SPEN;          // enable SPI
  21   1      } // SpiInit
  22          
  23          //-----------------------------------------------------------------------------
  24          // Cteni dat
  25          //-----------------------------------------------------------------------------
  26          
  27          byte SpiReadByte()
  28          // Precte byte
  29          {
  30   1         SPDAT = 0;                          // dummy Tx
  31   1         while( !(SPSTA & SPSTA_SPIF));      // cekani na dokonceni
  32   1         return( SPDAT);                     // prijata data
  33   1      } // SpiReadByte
  34          
  35          //-----------------------------------------------------------------------------
  36          // Zapis dat
  37          //-----------------------------------------------------------------------------
  38          
  39          void SpiWriteByte(byte Value)
  40          // Zapise byte
  41          {
  42   1         SPDAT = Value;                      // Tx
  43   1         while( !(SPSTA & SPSTA_SPIF));      // cekani na dokonceni
  44   1      } // SpiWriteByte
C51 COMPILER V5.50,  SPIHW                                                                 13/09/12  16:09:43  PAGE 2   

ASSEMBLY LISTING OF GENERATED OBJECT CODE


             ; FUNCTION SpiInit (BEGIN)
                                           ; SOURCE LINE # 15
                                           ; SOURCE LINE # 17
                                           ; SOURCE LINE # 18
0000 53C3BF        ANL     SPCON,#0BFH
                                           ; SOURCE LINE # 19
0003 75C33C        MOV     SPCON,#03CH
                                           ; SOURCE LINE # 20
0006 43C340        ORL     SPCON,#040H
                                           ; SOURCE LINE # 21
0009 22            RET     
             ; FUNCTION SpiInit (END)

             ; FUNCTION SpiReadByte (BEGIN)
                                           ; SOURCE LINE # 27
                                           ; SOURCE LINE # 29
                                           ; SOURCE LINE # 30
0000 E4            CLR     A
0001 F5C5          MOV     SPDAT,A
0003         ?C0002:
                                           ; SOURCE LINE # 31
0003 E5C4          MOV     A,SPSTA
0005 30E7FB        JNB     ACC.7,?C0002
0008         ?C0003:
                                           ; SOURCE LINE # 32
0008 AFC5          MOV     R7,SPDAT
                                           ; SOURCE LINE # 33
000A         ?C0004:
000A 22            RET     
             ; FUNCTION SpiReadByte (END)

             ; FUNCTION _SpiWriteByte (BEGIN)
;---- Variable 'Value' assigned to Register 'R7' ----
                                           ; SOURCE LINE # 39
                                           ; SOURCE LINE # 41
                                           ; SOURCE LINE # 42
0000 8FC5          MOV     SPDAT,R7
0002         ?C0005:
                                           ; SOURCE LINE # 43
0002 E5C4          MOV     A,SPSTA
0004 30E7FB        JNB     ACC.7,?C0005
                                           ; SOURCE LINE # 44
0007         ?C0007:
0007 22            RET     
             ; FUNCTION _SpiWriteByte (END)



MODULE INFORMATION:   STATIC OVERLAYABLE
   CODE SIZE        =     29    ----
   CONSTANT SIZE    =   ----    ----
   XDATA SIZE       =   ----    ----
   PDATA SIZE       =   ----    ----
   DATA SIZE        =   ----    ----
   IDATA SIZE       =   ----    ----
   BIT SIZE         =   ----    ----
END OF MODULE INFORMATION.


C51 COMPILATION COMPLETE.  0 WARNING(S),  0 ERROR(S)
