C51 COMPILER V5.50,  X25645                                                                05/03/08  07:46:09  PAGE 1   


DOS C51 COMPILER V5.50, COMPILATION OF MODULE X25645
OBJECT MODULE PLACED IN ..\MODULY\X25645\X25645.OBJ
COMPILER INVOKED BY: E:\C51_V5.5\BIN\C51.EXE ..\MODULY\X25645\X25645.C51 CD DB

stmt level    source

   1          //*****************************************************************************
   2          //
   3          //    X25645.c  -  EEPROM services X25645 / AT25640 via template
   4          //    Version 1.0, (c) Vymos
   5          //
   6          //*****************************************************************************
   7          
   8          #include "..\inc\X25645.h"
   9          
  10          //-----------------------------------------------------------------------------
  11          // Makra pro generovani zdrojoveho textu
  12          //-----------------------------------------------------------------------------
  13          
  14          // Porty :
  15          
  16          #define XCS    EepCS
  17          #define XSCK   EepSCK
  18          #define XSO    EepSO
  19          #define XSI    EepSI
  20          
  21          // Inverze signalu:
  22          #define XSI_H EEP_XSI_H
  23          #define XSCK_H EEP_XSCK_H
  24          
  25          // Funkce :
  26          
  27          #define XInit           EepInit
  28          #define XReadByte       EepReadByte
  29          #define XBlockReadStart EepBlockReadStart
  30          #define XRawReadByte    EepRawReadByte
  31          #define XStop           EepStop
  32          #define XWriteByte      EepWriteByte
  33          #define XPageWriteStart EepPageWriteStart
  34          #define XRawWriteByte   EepRawWriteByte
  35          #define XAccuOk         EepAccuOk
  36          
  37          
  38          // Podminena kompilace :
  39          
  40          #ifdef EEP_READ_BYTE
  41             #define X_READ_BYTE     1
  42          #endif
  43          #ifdef EEP_WRITE_BYTE
  44             #define X_WRITE_BYTE    1
  45          #endif
  46          
  47          #include "X25645.tpl"          // zdrojovy text
C51 COMPILER V5.50,  X25645                                                                05/03/08  07:46:09  PAGE 2   

ASSEMBLY LISTING OF GENERATED OBJECT CODE


             ; FUNCTION EepInit (BEGIN)
                                           ; SOURCE LINE # 69
                                           ; SOURCE LINE # 71
0000 D293          SETB    EepCS
                                           ; SOURCE LINE # 72
0002 C296          CLR     EepSCK
                                           ; SOURCE LINE # 73
0004 D297          SETB    EepSI
                                           ; SOURCE LINE # 74
0006 D294          SETB    EepSO
                                           ; SOURCE LINE # 76
0008 120000  R     LCALL   WipPoll
                                           ; SOURCE LINE # 77
000B 120000  R     LCALL   WrenCmd
                                           ; SOURCE LINE # 78
000E 7F30          MOV     R7,#030H
0010 120000  R     LCALL   _WrsrCmd
                                           ; SOURCE LINE # 79
0013 22            RET     
             ; FUNCTION EepInit (END)

             ; FUNCTION _EepReadByte (BEGIN)
;---- Variable 'address' assigned to Register 'R6/R7' ----
                                           ; SOURCE LINE # 86
                                           ; SOURCE LINE # 88
                                           ; SOURCE LINE # 91
0000 120000  R     LCALL   _EepBlockReadStart
                                           ; SOURCE LINE # 92
0003 120000  R     LCALL   EepRawReadByte
0006 8F00    R     MOV     value,R7
                                           ; SOURCE LINE # 93
0008 120000  R     LCALL   EepStop
                                           ; SOURCE LINE # 94
000B AF00    R     MOV     R7,value
                                           ; SOURCE LINE # 95
000D         ?C0002:
000D 22            RET     
             ; FUNCTION _EepReadByte (END)

             ; FUNCTION _EepBlockReadStart (BEGIN)
0000 8E00    R     MOV     address,R6
0002 8F00    R     MOV     address+01H,R7
                                           ; SOURCE LINE # 103
                                           ; SOURCE LINE # 105
                                           ; SOURCE LINE # 106
0004 120000  R     LCALL   WipPoll
                                           ; SOURCE LINE # 107
0007 C296          CLR     EepSCK
0009 D297          SETB    EepSI
000B D294          SETB    EepSO
000D 00            NOP     
000E 00            NOP     
000F 00            NOP     
                                           ; SOURCE LINE # 108
0010 C293          CLR     EepCS
                                           ; SOURCE LINE # 109
0012 7F03          MOV     R7,#03H
0014 120000  R     LCALL   _EepRawWriteByte
                                           ; SOURCE LINE # 110
0017 E500    R     MOV     A,address
0019 FF            MOV     R7,A
001A 120000  R     LCALL   _EepRawWriteByte
                                           ; SOURCE LINE # 111
C51 COMPILER V5.50,  X25645                                                                05/03/08  07:46:09  PAGE 3   

001D AF00    R     MOV     R7,address+01H
001F 120000  R     LCALL   _EepRawWriteByte
                                           ; SOURCE LINE # 112
0022 22            RET     
             ; FUNCTION _EepBlockReadStart (END)

             ; FUNCTION EepStop (BEGIN)
                                           ; SOURCE LINE # 118
                                           ; SOURCE LINE # 120
                                           ; SOURCE LINE # 121
0000 C296          CLR     EepSCK
                                           ; SOURCE LINE # 122
0002 00            NOP     
                                           ; SOURCE LINE # 123
0003 D293          SETB    EepCS
                                           ; SOURCE LINE # 124
0005 00            NOP     
                                           ; SOURCE LINE # 126
0006 D294          SETB    EepSO
0008 D297          SETB    EepSI
000A D296          SETB    EepSCK
                                           ; SOURCE LINE # 127
000C 22            RET     
             ; FUNCTION EepStop (END)

             ; FUNCTION _EepWriteByte (BEGIN)
0000 8D00    R     MOV     value,R5
;---- Variable 'address' assigned to Register 'R6/R7' ----
                                           ; SOURCE LINE # 135
                                           ; SOURCE LINE # 137
                                           ; SOURCE LINE # 138
0002 120000  R     LCALL   _EepPageWriteStart
0005 4002          JC      ?C0005
                                           ; SOURCE LINE # 139
0007 C3            CLR     C
0008 22            RET     
                                           ; SOURCE LINE # 140
0009         ?C0005:
                                           ; SOURCE LINE # 141
0009 AF00    R     MOV     R7,value
000B 120000  R     LCALL   _EepRawWriteByte
                                           ; SOURCE LINE # 142
000E 120000  R     LCALL   EepStop
                                           ; SOURCE LINE # 143
0011 D3            SETB    C
                                           ; SOURCE LINE # 144
0012         ?C0006:
0012 22            RET     
             ; FUNCTION _EepWriteByte (END)

             ; FUNCTION _EepPageWriteStart (BEGIN)
0000 8E00    R     MOV     address,R6
0002 8F00    R     MOV     address+01H,R7
                                           ; SOURCE LINE # 152
                                           ; SOURCE LINE # 154
                                           ; SOURCE LINE # 155
0004 208002        JB      BAT,?C0007
                                           ; SOURCE LINE # 156
0007 C3            CLR     C
0008 22            RET     
                                           ; SOURCE LINE # 157
0009         ?C0007:
                                           ; SOURCE LINE # 158
0009 120000  R     LCALL   WipPoll
                                           ; SOURCE LINE # 159
000C 120000  R     LCALL   WrenCmd
C51 COMPILER V5.50,  X25645                                                                05/03/08  07:46:09  PAGE 4   

                                           ; SOURCE LINE # 160
000F C296          CLR     EepSCK
0011 D297          SETB    EepSI
0013 D294          SETB    EepSO
0015 00            NOP     
0016 00            NOP     
0017 00            NOP     
                                           ; SOURCE LINE # 161
0018 C293          CLR     EepCS
                                           ; SOURCE LINE # 162
001A 7F02          MOV     R7,#02H
001C 120000  R     LCALL   _EepRawWriteByte
                                           ; SOURCE LINE # 163
001F E500    R     MOV     A,address
0021 FF            MOV     R7,A
0022 120000  R     LCALL   _EepRawWriteByte
                                           ; SOURCE LINE # 164
0025 AF00    R     MOV     R7,address+01H
0027 120000  R     LCALL   _EepRawWriteByte
                                           ; SOURCE LINE # 165
002A D3            SETB    C
                                           ; SOURCE LINE # 166
002B         ?C0008:
002B 22            RET     
             ; FUNCTION _EepPageWriteStart (END)

             ; FUNCTION WrenCmd (BEGIN)
                                           ; SOURCE LINE # 172
                                           ; SOURCE LINE # 174
0000 C296          CLR     EepSCK
0002 D297          SETB    EepSI
0004 D294          SETB    EepSO
0006 00            NOP     
0007 00            NOP     
0008 00            NOP     
                                           ; SOURCE LINE # 175
0009 C293          CLR     EepCS
                                           ; SOURCE LINE # 176
000B 7F06          MOV     R7,#06H
000D 120000  R     LCALL   _EepRawWriteByte
                                           ; SOURCE LINE # 177
0010 120000  R     LCALL   EepStop
                                           ; SOURCE LINE # 178
0013 22            RET     
             ; FUNCTION WrenCmd (END)

             ; FUNCTION RsdrCmd (BEGIN)
                                           ; SOURCE LINE # 185
                                           ; SOURCE LINE # 187
                                           ; SOURCE LINE # 188
0000 C296          CLR     EepSCK
0002 D297          SETB    EepSI
0004 D294          SETB    EepSO
0006 00            NOP     
0007 00            NOP     
0008 00            NOP     
                                           ; SOURCE LINE # 189
0009 C293          CLR     EepCS
                                           ; SOURCE LINE # 190
000B 7F05          MOV     R7,#05H
000D 120000  R     LCALL   _EepRawWriteByte
                                           ; SOURCE LINE # 191
0010 120000  R     LCALL   EepRawReadByte
;---- Variable 'value' assigned to Register 'R7' ----
                                           ; SOURCE LINE # 192
0013 120000  R     LCALL   EepStop
C51 COMPILER V5.50,  X25645                                                                05/03/08  07:46:09  PAGE 5   

                                           ; SOURCE LINE # 193
                                           ; SOURCE LINE # 194
0016         ?C0010:
0016 22            RET     
             ; FUNCTION RsdrCmd (END)

             ; FUNCTION _WrsrCmd (BEGIN)
0000 8F00    R     MOV     value,R7
                                           ; SOURCE LINE # 200
                                           ; SOURCE LINE # 202
0002 C296          CLR     EepSCK
0004 D297          SETB    EepSI
0006 D294          SETB    EepSO
0008 00            NOP     
0009 00            NOP     
000A 00            NOP     
                                           ; SOURCE LINE # 203
000B C293          CLR     EepCS
                                           ; SOURCE LINE # 204
000D 7F01          MOV     R7,#01H
000F 120000  R     LCALL   _EepRawWriteByte
                                           ; SOURCE LINE # 205
0012 AF00    R     MOV     R7,value
0014 120000  R     LCALL   _EepRawWriteByte
                                           ; SOURCE LINE # 206
0017 120000  R     LCALL   EepStop
                                           ; SOURCE LINE # 207
001A 22            RET     
             ; FUNCTION _WrsrCmd (END)

             ; FUNCTION WipPoll (BEGIN)
                                           ; SOURCE LINE # 213
0000         ?C0012:
                                           ; SOURCE LINE # 215
0000 120000  R     LCALL   RsdrCmd
0003 EF            MOV     A,R7
0004 20E0F9        JB      ACC.0,?C0012
                                           ; SOURCE LINE # 216
0007         ?C0014:
0007 22            RET     
             ; FUNCTION WipPoll (END)

             ; FUNCTION _EepRawWriteByte (BEGIN)
;---- Variable 'value' assigned to Register 'R7' ----
                                           ; SOURCE LINE # 222
                                           ; SOURCE LINE # 225
;---- Variable 'i' assigned to Register 'R6' ----
0000 E4            CLR     A
0001 FE            MOV     R6,A
0002         ?C0015:
                                           ; SOURCE LINE # 226
0002 C296          CLR     EepSCK
                                           ; SOURCE LINE # 228
0004 EF            MOV     A,R7
0005 33            RLC     A
0006 9297          MOV     EepSI,C
                                           ; SOURCE LINE # 232
0008 EF            MOV     A,R7
0009 25E0          ADD     A,ACC
000B FF            MOV     R7,A
                                           ; SOURCE LINE # 233
000C D296          SETB    EepSCK
                                           ; SOURCE LINE # 234
000E 0E            INC     R6
000F BE08F0        CJNE    R6,#08H,?C0015
                                           ; SOURCE LINE # 235
C51 COMPILER V5.50,  X25645                                                                05/03/08  07:46:09  PAGE 6   

0012         ?C0018:
0012 22            RET     
             ; FUNCTION _EepRawWriteByte (END)

             ; FUNCTION EepRawReadByte (BEGIN)
                                           ; SOURCE LINE # 241
                                           ; SOURCE LINE # 243
;---- Variable 'value' assigned to Register 'R7' ----
0000 E4            CLR     A
0001 FF            MOV     R7,A
                                           ; SOURCE LINE # 245
0002 D294          SETB    EepSO
                                           ; SOURCE LINE # 246
;---- Variable 'i' assigned to Register 'R6' ----
0004 FE            MOV     R6,A
0005         ?C0019:
                                           ; SOURCE LINE # 247
0005 C296          CLR     EepSCK
                                           ; SOURCE LINE # 248
0007 EF            MOV     A,R7
0008 25E0          ADD     A,ACC
000A FF            MOV     R7,A
                                           ; SOURCE LINE # 249
000B 309401        JNB     EepSO,?C0022
000E 0F            INC     R7
000F         ?C0022:
                                           ; SOURCE LINE # 250
000F D296          SETB    EepSCK
                                           ; SOURCE LINE # 251
0011 0E            INC     R6
0012 BE08F0        CJNE    R6,#08H,?C0019
0015         ?C0020:
                                           ; SOURCE LINE # 252
                                           ; SOURCE LINE # 253
0015         ?C0023:
0015 22            RET     
             ; FUNCTION EepRawReadByte (END)



MODULE INFORMATION:   STATIC OVERLAYABLE
   CODE SIZE        =    264    ----
   CONSTANT SIZE    =   ----    ----
   XDATA SIZE       =   ----    ----
   PDATA SIZE       =   ----    ----
   DATA SIZE        =   ----       7
   IDATA SIZE       =   ----    ----
   BIT SIZE         =   ----    ----
END OF MODULE INFORMATION.


C51 COMPILATION COMPLETE.  0 WARNING(S),  0 ERROR(S)
