C51 COMPILER V5.50,  MBRIDGE                                                               28/06/12  15:55:47  PAGE 1   


DOS C51 COMPILER V5.50, COMPILATION OF MODULE MBRIDGE
OBJECT MODULE PLACED IN ..\MODULY\MBRIDGE\MBRIDGE.OBJ
COMPILER INVOKED BY: E:\C51_V5.5\BIN\C51.EXE ..\MODULY\MBRIDGE\MBRIDGE.C51 CD DB

stmt level    source

   1          //*****************************************************************************
   2          //
   3          //    MBridge.c     Bat2Bridge protocol services
   4          //    Version 1.0   (c) VymOs
   5          //
   6          //*****************************************************************************
   7          
   8          #include "../Inc/Megavi/MBridge.h"
   9          #include "../Inc/System.h"             // Operating system
  10          #include "../Inc/Spi.h"                // SPI interface (used by DataFlash)
  11          #include <string.h>
  12          
  13          // SPI parameters
  14          #define MBRIDGE_BAUD   SPI_CLOCK_16        // rychlost
  15          #define MBRIDGE_LEVEL  SPI_CLOCK_H         // klidova hladina SCK
  16          #define MBRIDGE_EDGE   SPI_EDGE_RETURN     // strobovaci hrana SCK
  17          
  18          #define MBridgeAttach()   _MBridgeSpiInit(); BatCSMOD = 0;    // initialize SPI & select
  19          #define MBridgeRelease()  SpiInit();         BatCSMOD = 1;    // default SPI & deselect
  20          
  21          #define MBRIDGE_DELAY     10               // MBridge reply delay [ms]
  22          #define MBRIDGE_SPI_SPACE 5                // SPI character space
  23          
  24          // Local variables :
  25          static byte __xdata__ _CurrentSlot;
  26          
  27          // Local functions :
  28          
  29          static void _MBridgeSpiInit( void);
  30          // Initialize SPI
  31          
  32          static byte TransceiveByte( byte Value);
  33          // Rx/Tx data via SPI
  34          
  35          static void SendFrameHeader( byte Size, byte Command);
  36          // Send command frame header
  37          
  38          static void SendSimpleCommand( Command);
  39          // Send simple <Command>
  40          
  41          static TYesNo SendData( byte Command, void __xdata__ *Data, byte Size);
  42          // Send <Data> with <Size> as <Command>
  43          
  44          static TYesNo ReadReplyHeader( byte ReplySize, byte Reply);
  45          // Read reply header
  46          
  47          static TYesNo ReadSimpleReply( byte Reply);
  48          // Read simple reply
  49          
  50          static TYesNo ReadReplySms( byte Reply, void __xdata__ *Data, byte Size);
  51          // Read reply with data
  52          
  53          //-----------------------------------------------------------------------------
  54          // Initialisation
  55          //-----------------------------------------------------------------------------
  56          
  57          void MBridgeInit( void)
  58          // Communication initialisation
  59          {
C51 COMPILER V5.50,  MBRIDGE                                                               28/06/12  15:55:47  PAGE 2   

  60   1         _CurrentSlot = BRIDGE_SLOT_INVALID;   // invalidate slot
  61   1      } // MBridgeInit
  62          
  63          //-----------------------------------------------------------------------------
  64          // Send configuration
  65          //-----------------------------------------------------------------------------
  66          
  67          TYesNo MBridgeConfigurationSet( TBat2Configuration __xdata__ *Configuration)
  68          // Send <Configuration> data
  69          {
  70   1         return( SendData( BRIDGE_COMMAND_CONFIGURATION_SET, Configuration, sizeof( TBat2Configuration)));
  71   1      } // MBridgeConfigurationSet
  72          
  73          //-----------------------------------------------------------------------------
  74          // Send male data
  75          //-----------------------------------------------------------------------------
  76          
  77          TYesNo MBridgeMaleDataSet( TBat2Data __xdata__ *MaleData)
  78          // Send <MaleData>
  79          {
  80   1         return( SendData( BRIDGE_COMMAND_MALE_DATA_SET, MaleData, sizeof( TBat2Data)));
  81   1      } // MBridgeMaleDataSet
  82          
  83          //-----------------------------------------------------------------------------
  84          // Send female data
  85          //-----------------------------------------------------------------------------
  86          
  87          TYesNo MBridgeFemaleDataSet( TBat2Data __xdata__ *FemaleData)
  88          // Send <FemaleData>
  89          {
  90   1         return( SendData( BRIDGE_COMMAND_FEMALE_DATA_SET, FemaleData, sizeof( TBat2Data)));
  91   1      } // MBridgeMaleDataSet
  92          
  93          //-----------------------------------------------------------------------------
  94          // Get SMS count
  95          //-----------------------------------------------------------------------------
  96          
  97          TYesNo MBridgeSmsCount( byte data *SmsCount)
  98          // Get SMS count
  99          {
 100   1      byte Crc;
 101   1      byte Value;
 102   1      
 103   1         SendSimpleCommand( BRIDGE_COMMAND_SMS_COUNT_GET);
 104   1         // wait for reply :
 105   1         SysDelay( MBRIDGE_DELAY);
 106   1         if( !ReadReplyHeader( sizeof( TBridgeReplySmsCountGet), BRIDGE_REPLY_SMS_COUNT_GET)){
 107   2            return( NO);
 108   2         }
 109   1         Crc  = sizeof( TBridgeReplySmsCountGet);
 110   1         Crc += sizeof( TBridgeReplySmsCountGet);
 111   1         Crc += BRIDGE_REPLY_SMS_COUNT_GET;
 112   1         // read count :
 113   1         Value = TransceiveByte( 0xFF);
 114   1         *SmsCount = Value;
 115   1         Crc += Value;
 116   1         // read CRC :
 117   1         Value = TransceiveByte( 0xFF);
 118   1         if( Value  != (byte)~Crc){
 119   2            MBridgeRelease();
 120   2            return( NO);
 121   2         }
 122   1         MBridgeRelease();
 123   1         return( YES);
 124   1      } // MBridgeSmsCount
 125          
C51 COMPILER V5.50,  MBRIDGE                                                               28/06/12  15:55:47  PAGE 3   

 126          //-----------------------------------------------------------------------------
 127          // Get SMS
 128          //-----------------------------------------------------------------------------
 129          
 130          TYesNo MBridgeSmsGet( byte __xdata__ *Phone, byte __xdata__ *Text)
 131          // Get current SMS for send
 132          {
 133   1      byte SmsSlot;
 134   1      
 135   1         // get phone number :
 136   1         SendSimpleCommand( BRIDGE_COMMAND_SMS_PHONE_GET);
 137   1         SysDelay( MBRIDGE_DELAY);           // wait for reply
 138   1         if( !ReadReplySms( BRIDGE_REPLY_SMS_PHONE_GET, Phone, sizeof(TBridgeReplySmsPhoneGet))){
 139   2            return( NO);
 140   2         }
 141   1         SmsSlot = _CurrentSlot;             // save phone slot
 142   1         // get SMS text :
 143   1         SendSimpleCommand( BRIDGE_COMMAND_SMS_TEXT_GET);
 144   1         SysDelay( MBRIDGE_DELAY);           // wait for reply
 145   1         if( !ReadReplySms( BRIDGE_REPLY_SMS_TEXT_GET, Text, sizeof(TBridgeReplySmsTextGet))){
 146   2            return( NO);
 147   2         }
 148   1         // check for phone / text SMS slot :
 149   1         if( SmsSlot != _CurrentSlot){
 150   2            return( NO);                     // phone / text slot mismatch
 151   2         }
 152   1         return( YES);
 153   1      } // MBridgeSmsText
 154          
 155          //-----------------------------------------------------------------------------
 156          // Update SMS status
 157          //-----------------------------------------------------------------------------
 158          
 159          TYesNo MBridgeSmsStatusSet( byte SendOk)
 160          // Send SMS <SendOk> status (moves current SMS to next position)
 161          {
 162   1      byte Crc;
 163   1      
 164   1         // send status :
 165   1         SendFrameHeader( sizeof( TBridgeCommandSmsStatusSet), BRIDGE_COMMAND_SMS_STATUS_SET);
 166   1         Crc  = sizeof( TBridgeCommandSmsStatusSet);
 167   1         Crc += sizeof( TBridgeCommandSmsStatusSet);
 168   1         Crc += BRIDGE_COMMAND_SMS_STATUS_SET;
 169   1         TransceiveByte( _CurrentSlot);
 170   1         Crc += _CurrentSlot;
 171   1         TransceiveByte( SendOk);
 172   1         Crc += SendOk;
 173   1         TransceiveByte( ~Crc);
 174   1         MBridgeRelease();
 175   1         // wait for reply :
 176   1         SysDelay( MBRIDGE_DELAY);
 177   1         // read reply :
 178   1         return( ReadSimpleReply( BRIDGE_REPLY_SMS_STATUS_SET));
 179   1      } // MBridgeSmsStatusSet
 180          
 181          //-----------------------------------------------------------------------------
 182          // Send received SMS
 183          //-----------------------------------------------------------------------------
 184          
 185          TYesNo MBridgeSmsReceived( char __xdata__ *Phone, char __xdata__ *Text)
 186          // Send received SMS <Phone> and <Text>
 187          {
 188   1         // send phone number :
 189   1         if( !SendData( BRIDGE_COMMAND_SMS_PHONE_SET, Phone, BAT2_SMS_PHONE_NUMBER_SIZE)){
 190   2            return( NO);
 191   2         }
C51 COMPILER V5.50,  MBRIDGE                                                               28/06/12  15:55:47  PAGE 4   

 192   1         // send SMS text :
 193   1         if( !SendData( BRIDGE_COMMAND_SMS_TEXT_SET, Text, BAT2_SMS_SIZE)){
 194   2            return( NO);
 195   2         }
 196   1         return( YES);
 197   1      } // MBridgeSmsReceived
 198          
 199          //*****************************************************************************
 200          
 201          //-----------------------------------------------------------------------------
 202          // SPI init
 203          //-----------------------------------------------------------------------------
 204          
 205          static void _MBridgeSpiInit( void)
 206          // Initialize SPI
 207          {
 208   1         SPCON &= ~SPCON_SPEN;                 // disable SPI
 209   1         SPCON  = SPCON_SSDIS | SPCON_MSTR | MBRIDGE_BAUD | MBRIDGE_LEVEL | MBRIDGE_EDGE;
 210   1         SPCON |= SPCON_SPEN;                  // enable SPI
 211   1      } // _MBridgeSpiInit
 212          
 213          //-----------------------------------------------------------------------------
 214          // Transceive
 215          //-----------------------------------------------------------------------------
 216          
 217          static byte TransceiveByte( byte Value)
 218          // Rx/Tx byte
 219          {
 220   1      byte Delay;
 221   1      
 222   1         // trasmit data :
 223   1         SPDAT = Value;
 224   1         while( !(SPSTA & SPSTA_SPIF));      // wait for transmission done
 225   1         // insert space before next byte :
 226   1         Delay = MBRIDGE_SPI_SPACE;          // mov R7, SPACE
 227   1         do {                                // label :
 228   2         } while( --Delay);                  // djnz R7, label
 229   1         // read received data :
 230   1         return( SPDAT);
 231   1      } // TransceiveByte
 232          
 233          //-----------------------------------------------------------------------------
 234          // Send frame header
 235          //-----------------------------------------------------------------------------
 236          
 237          static void SendFrameHeader( byte Size, byte Command)
 238          // Send command frame header
 239          {
 240   1         MBridgeAttach();
 241   1         // send frame header :
 242   1         TransceiveByte( BRIDGE_LEADER_CHAR);
 243   1         TransceiveByte( Size);
 244   1         TransceiveByte( Size);
 245   1         TransceiveByte( Command);
 246   1      } // SendFrameHeader
 247          
 248          //-----------------------------------------------------------------------------
 249          // Send simple command
 250          //-----------------------------------------------------------------------------
 251          
 252          static void SendSimpleCommand( Command)
 253          // Send simple <Command>
 254          {
 255   1      byte Crc;
 256   1      
 257   1         SendFrameHeader( sizeof( TBridgeCommandSimple), Command);
C51 COMPILER V5.50,  MBRIDGE                                                               28/06/12  15:55:47  PAGE 5   

 258   1         Crc  = sizeof( TBridgeCommandSimple);
 259   1         Crc += sizeof( TBridgeCommandSimple);
 260   1         Crc += Command;
 261   1         TransceiveByte( ~Crc);
 262   1         MBridgeRelease();
 263   1      } // SendSimpleCommand
 264          
 265          //-----------------------------------------------------------------------------
 266          // Send data
 267          //-----------------------------------------------------------------------------
 268          
 269          static TYesNo SendData( byte Command, void __xdata__ *Data, byte Size)
 270          // Send <Data> with <Size> as <Command>
 271          {
 272   1      byte __xdata__ *p;
 273   1      byte Crc;
 274   1      byte Value;
 275   1      byte FrameSize;
 276   1      
 277   1         // send frame :
 278   1         FrameSize = Size + 1;                    // Data size with Command code
 279   1         SendFrameHeader( FrameSize, Command);
 280   1         Crc  = FrameSize;
 281   1         Crc += FrameSize;
 282   1         Crc += Command;
 283   1         // send data :
 284   1         p    = (byte __xdata__ *)Data;
 285   1         do {
 286   2            Value = *p;
 287   2            p++;
 288   2            TransceiveByte( Value);
 289   2            Crc += Value;
 290   2         } while( --Size);
 291   1         // send CRC :
 292   1         TransceiveByte( ~Crc);
 293   1         MBridgeRelease();
 294   1         // wait for reply :
 295   1         SysDelay( MBRIDGE_DELAY);
 296   1         // read reply :
 297   1         return( ReadSimpleReply( Command + BRIDGE_REPLY_BASE));
 298   1      } // SendData
 299          
 300          //-----------------------------------------------------------------------------
 301          // Read reply
 302          //-----------------------------------------------------------------------------
 303          
 304          static TYesNo ReadReplyHeader( byte ReplySize, byte Reply)
 305          // Read reply header
 306          {
 307   1      byte Value;
 308   1      byte Size;
 309   1      
 310   1         MBridgeAttach();
 311   1         Value = TransceiveByte( BRIDGE_QUERY_CHAR);   // send query & empty read
 312   1         Value = TransceiveByte( 0xFF);                // leader
 313   1         if( Value != BRIDGE_LEADER_CHAR){
 314   2            MBridgeRelease();
 315   2            return( NO);
 316   2         }
 317   1         Size  = TransceiveByte( 0xFF);   // size 1
 318   1         Value = TransceiveByte( 0xFF);   // size 2
 319   1         if( Size != Value){
 320   2            MBridgeRelease();
 321   2            return( NO);
 322   2         }
 323   1         if( Size != ReplySize){
C51 COMPILER V5.50,  MBRIDGE                                                               28/06/12  15:55:47  PAGE 6   

 324   2            MBridgeRelease();
 325   2            return( NO);
 326   2         }
 327   1         Value = TransceiveByte( 0xFF);
 328   1         if( Value != Reply){
 329   2            MBridgeRelease();
 330   2            return( NO);
 331   2         }
 332   1         return( YES);
 333   1      } // ReadReplyHeader
 334          
 335          //-----------------------------------------------------------------------------
 336          // Read simple reply
 337          //-----------------------------------------------------------------------------
 338          
 339          static TYesNo ReadSimpleReply( byte Reply)
 340          // Read simple reply
 341          {
 342   1      byte Crc;
 343   1      byte Value;
 344   1      
 345   1         if( !ReadReplyHeader( sizeof( TBridgeReplySimple), Reply)){
 346   2            return( NO);
 347   2         }
 348   1         Crc  = sizeof( TBridgeReplySimple);
 349   1         Crc += sizeof( TBridgeReplySimple);
 350   1         Crc += Reply;
 351   1         // read CRC :
 352   1         Value = TransceiveByte( 0xFF);
 353   1         if( Value  != (byte)~Crc){
 354   2            MBridgeRelease();
 355   2            return( NO);
 356   2         }
 357   1         MBridgeRelease();
 358   1         return( YES);
 359   1      } // ReadSimpleReply
 360          
 361          //-----------------------------------------------------------------------------
 362          // Read reply data
 363          //-----------------------------------------------------------------------------
 364          
 365          static TYesNo ReadReplySms( byte Reply, void __xdata__ *Data, byte Size)
 366          // Read reply with data
 367          {
 368   1      byte __xdata__ *p;
 369   1      byte Crc;
 370   1      byte Value;
 371   1      
 372   1         if( !ReadReplyHeader( Size, Reply)){
 373   2            return( NO);
 374   2         }
 375   1         Crc  = Size;
 376   1         Crc += Size;
 377   1         Crc += Reply;
 378   1         // read slot :
 379   1         Value = TransceiveByte( 0xFF);
 380   1         _CurrentSlot = Value;
 381   1         Crc += Value;
 382   1         // read data :
 383   1         Size -= 2;                // without Reply & Slot
 384   1         p = (byte __xdata__ *)Data;
 385   1         do {
 386   2            Value = TransceiveByte( 0xFF);
 387   2            *p    = Value;
 388   2            p++;
 389   2            Crc  += Value;
C51 COMPILER V5.50,  MBRIDGE                                                               28/06/12  15:55:47  PAGE 7   

 390   2         } while( --Size);
 391   1         // read CRC :
 392   1         Value = TransceiveByte( 0xFF);
 393   1         if( Value  != (byte)~Crc){
 394   2            MBridgeRelease();
 395   2            return( NO);
 396   2         }
 397   1         MBridgeRelease();
 398   1         if( _CurrentSlot == 0xFF){
 399   2            return( NO);
 400   2         }
 401   1         return( YES);
 402   1      } // ReadReplySms
 403          
C51 COMPILER V5.50,  MBRIDGE                                                               28/06/12  15:55:47  PAGE 8   

ASSEMBLY LISTING OF GENERATED OBJECT CODE


             ; FUNCTION MBridgeInit (BEGIN)
                                           ; SOURCE LINE # 57
                                           ; SOURCE LINE # 59
                                           ; SOURCE LINE # 60
0000 900000  R     MOV     DPTR,#_CurrentSlot
0003 74FF          MOV     A,#0FFH
0005 F0            MOVX    @DPTR,A
                                           ; SOURCE LINE # 61
0006 22            RET     
             ; FUNCTION MBridgeInit (END)

             ; FUNCTION _MBridgeConfigurationSet (BEGIN)
;---- Variable 'Configuration' assigned to Register 'R4/R5' ----
0000 AD07          MOV     R5,AR7
0002 AC06          MOV     R4,AR6
                                           ; SOURCE LINE # 67
                                           ; SOURCE LINE # 69
                                           ; SOURCE LINE # 70
0004 7F01          MOV     R7,#01H
0006 7B50          MOV     R3,#050H
0008 120000  R     LCALL   _SendData
                                           ; SOURCE LINE # 71
000B         ?C0002:
000B 22            RET     
             ; FUNCTION _MBridgeConfigurationSet (END)

             ; FUNCTION _MBridgeMaleDataSet (BEGIN)
;---- Variable 'MaleData' assigned to Register 'R4/R5' ----
0000 AD07          MOV     R5,AR7
0002 AC06          MOV     R4,AR6
                                           ; SOURCE LINE # 77
                                           ; SOURCE LINE # 79
                                           ; SOURCE LINE # 80
0004 7F02          MOV     R7,#02H
0006 7B74          MOV     R3,#074H
0008 120000  R     LCALL   _SendData
                                           ; SOURCE LINE # 81
000B         ?C0003:
000B 22            RET     
             ; FUNCTION _MBridgeMaleDataSet (END)

             ; FUNCTION _MBridgeFemaleDataSet (BEGIN)
;---- Variable 'FemaleData' assigned to Register 'R4/R5' ----
0000 AD07          MOV     R5,AR7
0002 AC06          MOV     R4,AR6
                                           ; SOURCE LINE # 87
                                           ; SOURCE LINE # 89
                                           ; SOURCE LINE # 90
0004 7F03          MOV     R7,#03H
0006 7B74          MOV     R3,#074H
0008 120000  R     LCALL   _SendData
                                           ; SOURCE LINE # 91
000B         ?C0004:
000B 22            RET     
             ; FUNCTION _MBridgeFemaleDataSet (END)

             ; FUNCTION _MBridgeSmsCount (BEGIN)
0000 8F00    R     MOV     SmsCount,R7
                                           ; SOURCE LINE # 97
                                           ; SOURCE LINE # 99
                                           ; SOURCE LINE # 103
0002 7F04          MOV     R7,#04H
0004 7E00          MOV     R6,#00H
C51 COMPILER V5.50,  MBRIDGE                                                               28/06/12  15:55:47  PAGE 9   

0006 120000  R     LCALL   _SendSimpleCommand
                                           ; SOURCE LINE # 105
0009 7F0A          MOV     R7,#0AH
000B 7E00          MOV     R6,#00H
000D 120000  E     LCALL   _SysDelay
                                           ; SOURCE LINE # 106
0010 7F02          MOV     R7,#02H
0012 7D84          MOV     R5,#084H
0014 120000  R     LCALL   _ReadReplyHeader
0017 4002          JC      ?C0005
                                           ; SOURCE LINE # 107
0019 C3            CLR     C
001A 22            RET     
                                           ; SOURCE LINE # 108
001B         ?C0005:
                                           ; SOURCE LINE # 109
001B 750002  R     MOV     Crc,#02H
                                           ; SOURCE LINE # 110
001E 0500    R     INC     Crc
0020 0500    R     INC     Crc
                                           ; SOURCE LINE # 111
0022 7484          MOV     A,#084H
0024 2500    R     ADD     A,Crc
0026 F500    R     MOV     Crc,A
                                           ; SOURCE LINE # 113
0028 7FFF          MOV     R7,#0FFH
002A 120000  R     LCALL   _TransceiveByte
002D 8F00    R     MOV     Value,R7
                                           ; SOURCE LINE # 114
002F A800    R     MOV     R0,SmsCount
0031 A600    R     MOV     @R0,Value
                                           ; SOURCE LINE # 115
0033 E500    R     MOV     A,Value
0035 2500    R     ADD     A,Crc
0037 F500    R     MOV     Crc,A
                                           ; SOURCE LINE # 117
0039 7FFF          MOV     R7,#0FFH
003B 120000  R     LCALL   _TransceiveByte
003E 8F00    R     MOV     Value,R7
                                           ; SOURCE LINE # 118
0040 E500    R     MOV     A,Crc
0042 F4            CPL     A
0043 6500    R     XRL     A,Value
0045 6007          JZ      ?C0007
                                           ; SOURCE LINE # 119
0047 120000  E     LCALL   SpiInit
004A D293          SETB    BatCSMOD
                                           ; SOURCE LINE # 120
004C C3            CLR     C
004D 22            RET     
                                           ; SOURCE LINE # 121
004E         ?C0007:
                                           ; SOURCE LINE # 122
004E 120000  E     LCALL   SpiInit
0051 D293          SETB    BatCSMOD
                                           ; SOURCE LINE # 123
0053 D3            SETB    C
                                           ; SOURCE LINE # 124
0054         ?C0006:
0054 22            RET     
             ; FUNCTION _MBridgeSmsCount (END)

             ; FUNCTION _MBridgeSmsGet (BEGIN)
0000 8E00    R     MOV     Phone,R6
0002 8F00    R     MOV     Phone+01H,R7
0004 8C00    R     MOV     Text,R4
C51 COMPILER V5.50,  MBRIDGE                                                               28/06/12  15:55:47  PAGE 10  

0006 8D00    R     MOV     Text+01H,R5
                                           ; SOURCE LINE # 130
                                           ; SOURCE LINE # 132
                                           ; SOURCE LINE # 136
0008 7F05          MOV     R7,#05H
000A 7E00          MOV     R6,#00H
000C 120000  R     LCALL   _SendSimpleCommand
                                           ; SOURCE LINE # 137
000F 7F0A          MOV     R7,#0AH
0011 7E00          MOV     R6,#00H
0013 120000  E     LCALL   _SysDelay
                                           ; SOURCE LINE # 138
0016 7F85          MOV     R7,#085H
0018 AD00    R     MOV     R5,Phone+01H
001A AC00    R     MOV     R4,Phone
001C 7B11          MOV     R3,#011H
001E 120000  R     LCALL   _ReadReplySms
0021 4002          JC      ?C0008
                                           ; SOURCE LINE # 139
0023 C3            CLR     C
0024 22            RET     
                                           ; SOURCE LINE # 140
0025         ?C0008:
                                           ; SOURCE LINE # 141
0025 900000  R     MOV     DPTR,#_CurrentSlot
0028 E0            MOVX    A,@DPTR
0029 F500    R     MOV     SmsSlot,A
                                           ; SOURCE LINE # 143
002B 7F06          MOV     R7,#06H
002D 7E00          MOV     R6,#00H
002F 120000  R     LCALL   _SendSimpleCommand
                                           ; SOURCE LINE # 144
0032 7F0A          MOV     R7,#0AH
0034 7E00          MOV     R6,#00H
0036 120000  E     LCALL   _SysDelay
                                           ; SOURCE LINE # 145
0039 7F86          MOV     R7,#086H
003B AD00    R     MOV     R5,Text+01H
003D AC00    R     MOV     R4,Text
003F 7BA2          MOV     R3,#0A2H
0041 120000  R     LCALL   _ReadReplySms
0044 4002          JC      ?C0010
                                           ; SOURCE LINE # 146
0046 C3            CLR     C
0047 22            RET     
                                           ; SOURCE LINE # 147
0048         ?C0010:
                                           ; SOURCE LINE # 149
0048 900000  R     MOV     DPTR,#_CurrentSlot
004B E0            MOVX    A,@DPTR
004C 6500    R     XRL     A,SmsSlot
004E 6002          JZ      ?C0011
                                           ; SOURCE LINE # 150
0050 C3            CLR     C
0051 22            RET     
                                           ; SOURCE LINE # 151
0052         ?C0011:
                                           ; SOURCE LINE # 152
0052 D3            SETB    C
                                           ; SOURCE LINE # 153
0053         ?C0009:
0053 22            RET     
             ; FUNCTION _MBridgeSmsGet (END)

             ; FUNCTION _MBridgeSmsStatusSet (BEGIN)
0000 8F00    R     MOV     SendOk,R7
C51 COMPILER V5.50,  MBRIDGE                                                               28/06/12  15:55:47  PAGE 11  

                                           ; SOURCE LINE # 159
                                           ; SOURCE LINE # 161
                                           ; SOURCE LINE # 165
0002 7F03          MOV     R7,#03H
0004 7D07          MOV     R5,#07H
0006 120000  R     LCALL   _SendFrameHeader
                                           ; SOURCE LINE # 166
0009 750003  R     MOV     Crc,#03H
                                           ; SOURCE LINE # 167
000C 7403          MOV     A,#03H
000E 2500    R     ADD     A,Crc
0010 F500    R     MOV     Crc,A
                                           ; SOURCE LINE # 168
0012 2407          ADD     A,#07H
0014 F500    R     MOV     Crc,A
                                           ; SOURCE LINE # 169
0016 900000  R     MOV     DPTR,#_CurrentSlot
0019 E0            MOVX    A,@DPTR
001A FF            MOV     R7,A
001B 120000  R     LCALL   _TransceiveByte
                                           ; SOURCE LINE # 170
001E 900000  R     MOV     DPTR,#_CurrentSlot
0021 E0            MOVX    A,@DPTR
0022 2500    R     ADD     A,Crc
0024 F500    R     MOV     Crc,A
                                           ; SOURCE LINE # 171
0026 AF00    R     MOV     R7,SendOk
0028 120000  R     LCALL   _TransceiveByte
                                           ; SOURCE LINE # 172
002B E500    R     MOV     A,SendOk
002D 2500    R     ADD     A,Crc
002F F500    R     MOV     Crc,A
                                           ; SOURCE LINE # 173
0031 F4            CPL     A
0032 FF            MOV     R7,A
0033 120000  R     LCALL   _TransceiveByte
                                           ; SOURCE LINE # 174
0036 120000  E     LCALL   SpiInit
0039 D293          SETB    BatCSMOD
                                           ; SOURCE LINE # 176
003B 7F0A          MOV     R7,#0AH
003D 7E00          MOV     R6,#00H
003F 120000  E     LCALL   _SysDelay
                                           ; SOURCE LINE # 178
0042 7F87          MOV     R7,#087H
0044 120000  R     LCALL   _ReadSimpleReply
                                           ; SOURCE LINE # 179
0047         ?C0012:
0047 22            RET     
             ; FUNCTION _MBridgeSmsStatusSet (END)

             ; FUNCTION _MBridgeSmsReceived (BEGIN)
0000 8C00    R     MOV     Text,R4
0002 8D00    R     MOV     Text+01H,R5
;---- Variable 'Phone' assigned to Register 'R2/R3' ----
0004 AB07          MOV     R3,AR7
0006 AA06          MOV     R2,AR6
                                           ; SOURCE LINE # 185
                                           ; SOURCE LINE # 187
                                           ; SOURCE LINE # 189
0008 7F08          MOV     R7,#08H
000A AD03          MOV     R5,AR3
000C AC02          MOV     R4,AR2
000E 7B0F          MOV     R3,#0FH
0010 120000  R     LCALL   _SendData
0013 4002          JC      ?C0013
C51 COMPILER V5.50,  MBRIDGE                                                               28/06/12  15:55:47  PAGE 12  

                                           ; SOURCE LINE # 190
0015 C3            CLR     C
0016 22            RET     
                                           ; SOURCE LINE # 191
0017         ?C0013:
                                           ; SOURCE LINE # 193
0017 7F09          MOV     R7,#09H
0019 AD00    R     MOV     R5,Text+01H
001B AC00    R     MOV     R4,Text
001D 7BA0          MOV     R3,#0A0H
001F 120000  R     LCALL   _SendData
0022 4002          JC      ?C0015
                                           ; SOURCE LINE # 194
0024 C3            CLR     C
0025 22            RET     
                                           ; SOURCE LINE # 195
0026         ?C0015:
                                           ; SOURCE LINE # 196
0026 D3            SETB    C
                                           ; SOURCE LINE # 197
0027         ?C0014:
0027 22            RET     
             ; FUNCTION _MBridgeSmsReceived (END)

             ; FUNCTION _MBridgeSpiInit (BEGIN)
                                           ; SOURCE LINE # 205
                                           ; SOURCE LINE # 207
                                           ; SOURCE LINE # 208
0000 53C3BF        ANL     SPCON,#0BFH
                                           ; SOURCE LINE # 209
0003 75C33F        MOV     SPCON,#03FH
                                           ; SOURCE LINE # 210
0006 43C340        ORL     SPCON,#040H
                                           ; SOURCE LINE # 211
0009 22            RET     
             ; FUNCTION _MBridgeSpiInit (END)

             ; FUNCTION _TransceiveByte (BEGIN)
;---- Variable 'Value' assigned to Register 'R7' ----
                                           ; SOURCE LINE # 217
                                           ; SOURCE LINE # 219
                                           ; SOURCE LINE # 223
0000 8FC5          MOV     SPDAT,R7
0002         ?C0017:
                                           ; SOURCE LINE # 224
0002 E5C4          MOV     A,SPSTA
0004 30E7FB        JNB     ACC.7,?C0017
0007         ?C0018:
                                           ; SOURCE LINE # 226
;---- Variable 'Delay' assigned to Register 'R7' ----
0007 7F05          MOV     R7,#05H
                                           ; SOURCE LINE # 227
                                           ; SOURCE LINE # 228
0009         ?C0019:
0009 DFFE          DJNZ    R7,?C0019
                                           ; SOURCE LINE # 230
000B AFC5          MOV     R7,SPDAT
                                           ; SOURCE LINE # 231
000D         ?C0022:
000D 22            RET     
             ; FUNCTION _TransceiveByte (END)

             ; FUNCTION _SendFrameHeader (BEGIN)
;---- Variable 'Size' assigned to Register 'R6' ----
0000 AE07          MOV     R6,AR7
;---- Variable 'Command' assigned to Register 'R5' ----
C51 COMPILER V5.50,  MBRIDGE                                                               28/06/12  15:55:47  PAGE 13  

                                           ; SOURCE LINE # 237
                                           ; SOURCE LINE # 239
                                           ; SOURCE LINE # 240
0002 120000  R     LCALL   _MBridgeSpiInit
0005 C293          CLR     BatCSMOD
                                           ; SOURCE LINE # 242
0007 7F55          MOV     R7,#055H
0009 120000  R     LCALL   _TransceiveByte
                                           ; SOURCE LINE # 243
000C AF06          MOV     R7,AR6
000E 120000  R     LCALL   _TransceiveByte
                                           ; SOURCE LINE # 244
0011 AF06          MOV     R7,AR6
0013 120000  R     LCALL   _TransceiveByte
                                           ; SOURCE LINE # 245
0016 AF05          MOV     R7,AR5
0018 120000  R     LCALL   _TransceiveByte
                                           ; SOURCE LINE # 246
001B 22            RET     
             ; FUNCTION _SendFrameHeader (END)

             ; FUNCTION _SendSimpleCommand (BEGIN)
;---- Variable 'Command' assigned to Register 'R2/R3' ----
0000 AB07          MOV     R3,AR7
0002 AA06          MOV     R2,AR6
                                           ; SOURCE LINE # 252
                                           ; SOURCE LINE # 254
                                           ; SOURCE LINE # 257
0004 7F01          MOV     R7,#01H
0006 AD03          MOV     R5,AR3
0008 120000  R     LCALL   _SendFrameHeader
                                           ; SOURCE LINE # 258
;---- Variable 'Crc' assigned to Register 'R7' ----
000B 7F01          MOV     R7,#01H
                                           ; SOURCE LINE # 259
000D 0F            INC     R7
                                           ; SOURCE LINE # 260
000E EB            MOV     A,R3
000F 2F            ADD     A,R7
                                           ; SOURCE LINE # 261
0010 F4            CPL     A
0011 FF            MOV     R7,A
0012 120000  R     LCALL   _TransceiveByte
                                           ; SOURCE LINE # 262
0015 120000  E     LCALL   SpiInit
0018 D293          SETB    BatCSMOD
                                           ; SOURCE LINE # 263
001A 22            RET     
             ; FUNCTION _SendSimpleCommand (END)

             ; FUNCTION _SendData (BEGIN)
0000 8F00    R     MOV     Command,R7
0002 8C00    R     MOV     Data,R4
0004 8D00    R     MOV     Data+01H,R5
;---- Variable 'Size' assigned to Register 'R3' ----
                                           ; SOURCE LINE # 269
                                           ; SOURCE LINE # 271
                                           ; SOURCE LINE # 278
0006 EB            MOV     A,R3
0007 04            INC     A
;---- Variable 'FrameSize' assigned to Register 'R4' ----
0008 FC            MOV     R4,A
                                           ; SOURCE LINE # 279
0009 FF            MOV     R7,A
000A AD00    R     MOV     R5,Command
000C 120000  R     LCALL   _SendFrameHeader
C51 COMPILER V5.50,  MBRIDGE                                                               28/06/12  15:55:47  PAGE 14  

                                           ; SOURCE LINE # 280
;---- Variable 'Crc' assigned to Register 'R6' ----
000F AE04          MOV     R6,AR4
                                           ; SOURCE LINE # 281
0011 EC            MOV     A,R4
0012 2E            ADD     A,R6
0013 FE            MOV     R6,A
                                           ; SOURCE LINE # 282
0014 2500    R     ADD     A,Command
0016 FE            MOV     R6,A
                                           ; SOURCE LINE # 284
0017 850000  R     MOV     p,Data
001A 850000  R     MOV     p+01H,Data+01H
001D         ?C0027:
                                           ; SOURCE LINE # 285
                                           ; SOURCE LINE # 286
001D 850082  R     MOV     DPL,p+01H
0020 850083  R     MOV     DPH,p
0023 E0            MOVX    A,@DPTR
;---- Variable 'Value' assigned to Register 'R5' ----
0024 FD            MOV     R5,A
                                           ; SOURCE LINE # 287
0025 0500    R     INC     p+01H
0027 E500    R     MOV     A,p+01H
0029 7002          JNZ     ?C0044
002B 0500    R     INC     p
002D         ?C0044:
                                           ; SOURCE LINE # 288
002D AF05          MOV     R7,AR5
002F 120000  R     LCALL   _TransceiveByte
                                           ; SOURCE LINE # 289
0032 ED            MOV     A,R5
0033 2E            ADD     A,R6
0034 FE            MOV     R6,A
                                           ; SOURCE LINE # 290
0035 DBE6          DJNZ    R3,?C0027
                                           ; SOURCE LINE # 292
0037 F4            CPL     A
0038 FF            MOV     R7,A
0039 120000  R     LCALL   _TransceiveByte
                                           ; SOURCE LINE # 293
003C 120000  E     LCALL   SpiInit
003F D293          SETB    BatCSMOD
                                           ; SOURCE LINE # 295
0041 7F0A          MOV     R7,#0AH
0043 7E00          MOV     R6,#00H
0045 120000  E     LCALL   _SysDelay
                                           ; SOURCE LINE # 297
0048 E500    R     MOV     A,Command
004A 2480          ADD     A,#080H
004C FF            MOV     R7,A
004D 120000  R     LCALL   _ReadSimpleReply
                                           ; SOURCE LINE # 298
0050         ?C0028:
0050 22            RET     
             ; FUNCTION _SendData (END)

             ; FUNCTION _ReadReplyHeader (BEGIN)
0000 8F00    R     MOV     ReplySize,R7
0002 8D00    R     MOV     Reply,R5
                                           ; SOURCE LINE # 304
                                           ; SOURCE LINE # 306
                                           ; SOURCE LINE # 310
0004 120000  R     LCALL   _MBridgeSpiInit
0007 C293          CLR     BatCSMOD
                                           ; SOURCE LINE # 311
C51 COMPILER V5.50,  MBRIDGE                                                               28/06/12  15:55:47  PAGE 15  

0009 7FAA          MOV     R7,#0AAH
000B 120000  R     LCALL   _TransceiveByte
000E 8F00    R     MOV     Value,R7
                                           ; SOURCE LINE # 312
0010 7FFF          MOV     R7,#0FFH
0012 120000  R     LCALL   _TransceiveByte
0015 8F00    R     MOV     Value,R7
                                           ; SOURCE LINE # 313
0017 E500    R     MOV     A,Value
0019 6455          XRL     A,#055H
001B 6007          JZ      ?C0029
                                           ; SOURCE LINE # 314
001D 120000  E     LCALL   SpiInit
0020 D293          SETB    BatCSMOD
                                           ; SOURCE LINE # 315
0022 C3            CLR     C
0023 22            RET     
                                           ; SOURCE LINE # 316
0024         ?C0029:
                                           ; SOURCE LINE # 317
0024 7FFF          MOV     R7,#0FFH
0026 120000  R     LCALL   _TransceiveByte
0029 8F00    R     MOV     Size,R7
                                           ; SOURCE LINE # 318
002B 7FFF          MOV     R7,#0FFH
002D 120000  R     LCALL   _TransceiveByte
0030 8F00    R     MOV     Value,R7
                                           ; SOURCE LINE # 319
0032 E500    R     MOV     A,Size
0034 6500    R     XRL     A,Value
0036 6007          JZ      ?C0031
                                           ; SOURCE LINE # 320
0038 120000  E     LCALL   SpiInit
003B D293          SETB    BatCSMOD
                                           ; SOURCE LINE # 321
003D C3            CLR     C
003E 22            RET     
                                           ; SOURCE LINE # 322
003F         ?C0031:
                                           ; SOURCE LINE # 323
003F E500    R     MOV     A,Size
0041 6500    R     XRL     A,ReplySize
0043 6007          JZ      ?C0032
                                           ; SOURCE LINE # 324
0045 120000  E     LCALL   SpiInit
0048 D293          SETB    BatCSMOD
                                           ; SOURCE LINE # 325
004A C3            CLR     C
004B 22            RET     
                                           ; SOURCE LINE # 326
004C         ?C0032:
                                           ; SOURCE LINE # 327
004C 7FFF          MOV     R7,#0FFH
004E 120000  R     LCALL   _TransceiveByte
0051 8F00    R     MOV     Value,R7
                                           ; SOURCE LINE # 328
0053 E500    R     MOV     A,Value
0055 6500    R     XRL     A,Reply
0057 6007          JZ      ?C0033
                                           ; SOURCE LINE # 329
0059 120000  E     LCALL   SpiInit
005C D293          SETB    BatCSMOD
                                           ; SOURCE LINE # 330
005E C3            CLR     C
005F 22            RET     
                                           ; SOURCE LINE # 331
C51 COMPILER V5.50,  MBRIDGE                                                               28/06/12  15:55:47  PAGE 16  

0060         ?C0033:
                                           ; SOURCE LINE # 332
0060 D3            SETB    C
                                           ; SOURCE LINE # 333
0061         ?C0030:
0061 22            RET     
             ; FUNCTION _ReadReplyHeader (END)

             ; FUNCTION _ReadSimpleReply (BEGIN)
0000 8F00    R     MOV     Reply,R7
                                           ; SOURCE LINE # 339
                                           ; SOURCE LINE # 341
                                           ; SOURCE LINE # 345
0002 7F01          MOV     R7,#01H
0004 AD00    R     MOV     R5,Reply
0006 120000  R     LCALL   _ReadReplyHeader
0009 4002          JC      ?C0034
                                           ; SOURCE LINE # 346
000B C3            CLR     C
000C 22            RET     
                                           ; SOURCE LINE # 347
000D         ?C0034:
                                           ; SOURCE LINE # 348
;---- Variable 'Crc' assigned to Register 'R6' ----
000D 7E01          MOV     R6,#01H
                                           ; SOURCE LINE # 349
000F 0E            INC     R6
                                           ; SOURCE LINE # 350
0010 E500    R     MOV     A,Reply
0012 2E            ADD     A,R6
0013 FE            MOV     R6,A
                                           ; SOURCE LINE # 352
0014 7FFF          MOV     R7,#0FFH
0016 120000  R     LCALL   _TransceiveByte
;---- Variable 'Value' assigned to Register 'R7' ----
                                           ; SOURCE LINE # 353
0019 EE            MOV     A,R6
001A F4            CPL     A
001B 6F            XRL     A,R7
001C 6007          JZ      ?C0036
                                           ; SOURCE LINE # 354
001E 120000  E     LCALL   SpiInit
0021 D293          SETB    BatCSMOD
                                           ; SOURCE LINE # 355
0023 C3            CLR     C
0024 22            RET     
                                           ; SOURCE LINE # 356
0025         ?C0036:
                                           ; SOURCE LINE # 357
0025 120000  E     LCALL   SpiInit
0028 D293          SETB    BatCSMOD
                                           ; SOURCE LINE # 358
002A D3            SETB    C
                                           ; SOURCE LINE # 359
002B         ?C0035:
002B 22            RET     
             ; FUNCTION _ReadSimpleReply (END)

             ; FUNCTION _ReadReplySms (BEGIN)
0000 8F00    R     MOV     Reply,R7
0002 8C00    R     MOV     Data,R4
0004 8D00    R     MOV     Data+01H,R5
0006 8B00    R     MOV     Size,R3
                                           ; SOURCE LINE # 365
                                           ; SOURCE LINE # 367
                                           ; SOURCE LINE # 372
C51 COMPILER V5.50,  MBRIDGE                                                               28/06/12  15:55:47  PAGE 17  

0008 AF00    R     MOV     R7,Size
000A AD00    R     MOV     R5,Reply
000C 120000  R     LCALL   _ReadReplyHeader
000F 4002          JC      ?C0037
                                           ; SOURCE LINE # 373
0011 C3            CLR     C
0012 22            RET     
                                           ; SOURCE LINE # 374
0013         ?C0037:
                                           ; SOURCE LINE # 375
;---- Variable 'Crc' assigned to Register 'R6' ----
0013 AE00    R     MOV     R6,Size
                                           ; SOURCE LINE # 376
0015 E500    R     MOV     A,Size
0017 2E            ADD     A,R6
0018 FE            MOV     R6,A
                                           ; SOURCE LINE # 377
0019 2500    R     ADD     A,Reply
001B FE            MOV     R6,A
                                           ; SOURCE LINE # 379
001C 7FFF          MOV     R7,#0FFH
001E 120000  R     LCALL   _TransceiveByte
;---- Variable 'Value' assigned to Register 'R5' ----
0021 AD07          MOV     R5,AR7
                                           ; SOURCE LINE # 380
0023 900000  R     MOV     DPTR,#_CurrentSlot
0026 ED            MOV     A,R5
0027 F0            MOVX    @DPTR,A
                                           ; SOURCE LINE # 381
0028 2E            ADD     A,R6
0029 FE            MOV     R6,A
                                           ; SOURCE LINE # 383
002A 1500    R     DEC     Size
002C 1500    R     DEC     Size
                                           ; SOURCE LINE # 384
;---- Variable 'p' assigned to Register 'R2/R3' ----
002E AB00    R     MOV     R3,Data+01H
0030 AA00    R     MOV     R2,Data
0032         ?C0041:
                                           ; SOURCE LINE # 385
                                           ; SOURCE LINE # 386
0032 7FFF          MOV     R7,#0FFH
0034 120000  R     LCALL   _TransceiveByte
0037 AD07          MOV     R5,AR7
                                           ; SOURCE LINE # 387
0039 8B82          MOV     DPL,R3
003B 8A83          MOV     DPH,R2
003D ED            MOV     A,R5
003E F0            MOVX    @DPTR,A
                                           ; SOURCE LINE # 388
003F 0B            INC     R3
0040 BB0001        CJNE    R3,#00H,?C0045
0043 0A            INC     R2
0044         ?C0045:
                                           ; SOURCE LINE # 389
0044 ED            MOV     A,R5
0045 2E            ADD     A,R6
0046 FE            MOV     R6,A
                                           ; SOURCE LINE # 390
0047 D500E8  R     DJNZ    Size,?C0041
                                           ; SOURCE LINE # 392
004A 7FFF          MOV     R7,#0FFH
004C 120000  R     LCALL   _TransceiveByte
004F AD07          MOV     R5,AR7
                                           ; SOURCE LINE # 393
0051 EE            MOV     A,R6
C51 COMPILER V5.50,  MBRIDGE                                                               28/06/12  15:55:47  PAGE 18  

0052 F4            CPL     A
0053 6D            XRL     A,R5
0054 6007          JZ      ?C0042
                                           ; SOURCE LINE # 394
0056 120000  E     LCALL   SpiInit
0059 D293          SETB    BatCSMOD
                                           ; SOURCE LINE # 395
005B C3            CLR     C
005C 22            RET     
                                           ; SOURCE LINE # 396
005D         ?C0042:
                                           ; SOURCE LINE # 397
005D 120000  E     LCALL   SpiInit
0060 D293          SETB    BatCSMOD
                                           ; SOURCE LINE # 398
0062 900000  R     MOV     DPTR,#_CurrentSlot
0065 E0            MOVX    A,@DPTR
0066 B4FF02        CJNE    A,#0FFH,?C0043
                                           ; SOURCE LINE # 399
0069 C3            CLR     C
006A 22            RET     
                                           ; SOURCE LINE # 400
006B         ?C0043:
                                           ; SOURCE LINE # 401
006B D3            SETB    C
                                           ; SOURCE LINE # 402
006C         ?C0038:
006C 22            RET     
             ; FUNCTION _ReadReplySms (END)



MODULE INFORMATION:   STATIC OVERLAYABLE
   CODE SIZE        =    735    ----
   CONSTANT SIZE    =   ----    ----
   XDATA SIZE       =      1    ----
   PDATA SIZE       =   ----    ----
   DATA SIZE        =   ----      26
   IDATA SIZE       =   ----    ----
   BIT SIZE         =   ----    ----
END OF MODULE INFORMATION.


C51 COMPILATION COMPLETE.  0 WARNING(S),  0 ERROR(S)
