C51 COMPILER V5.50,  SED1335                                                               24/07/12  10:33:51  PAGE 1   


DOS C51 COMPILER V5.50, COMPILATION OF MODULE SED1335
OBJECT MODULE PLACED IN ..\MODULY\SED1335\SED1335.OBJ
COMPILER INVOKED BY: E:\C51_V5.5\BIN\C51.EXE ..\MODULY\SED1335\SED1335.C51 CD DB

stmt level    source

   1          //*****************************************************************************
   2          //
   3          //    Sed1335.c - SED 1335F LCD display services
   4          //    Version 1.0, (c) Vymos
   5          //
   6          //*****************************************************************************
   7          
   8          // 21.1.2008: Podpora radice S1D13700
   9          
  10          // 13.3.2008: Zlepsena podpora S1D3700, bez problemu v puvodnim makru pro zapis dat (mrseni zobrazeni)
  11          
  12          
  13          //#define __DEBUG__
  14          
  15          #include "..\inc\System.h"
  16          #include "..\inc\Sed1335.h"
  17          #include <stdio.h>
  18          
  19          // Prikazy pro radic SED 1335F :
  20          
  21          //-----------------------------------------------------------------------------
  22          // SYSTEM_SET
  23          //-----------------------------------------------------------------------------
  24          #define DISPLAY_CMD_SYSTEM_SET 0x40          // inicializace a zakladni nastaveni
  25          // P1
  26          #define DISPLAY_MASK_P1         0x10          // zakladni maska, povinna !
  27          #define DISPLAY_MASK_M0         0x01          // external CG ROM
  28          #define DISPLAY_MASK_M2         0x04          // 16 pixel char height
  29          #define DISPLAY_MASK_WS         0x08          // dual-panel display
  30          #define DISPLAY_MASK_IV         0x20          // No screen top-line correction
  31          #define DISPLAY_MASK_TL         0x40          // TV mode
  32          #define DISPLAY_MASK_DR         0x80          // additional shift-clock cycle
  33          // P2
  34          #define DISPLAY_MASK_FX         0x07          // sirka znaku - 1
  35          #define DISPLAY_MASK_WF         0x80          // two-frame AC drive waveform
  36          // P3
  37          #define DISPLAY_MASK_FY         0x0F          // vyska znaku - 1
  38          // P4
  39          #define DISPLAY_MASK_CR         0xFF          // bytu na radku - 1, 0..239
  40          // P5
  41          #define DISPLAY_MASK_TCR        0xFF          // celkova delka radku v "bytech" - 1, 0..255
  42          // P6
  43          #define DISPLAY_MASK_LF         0xFF          // pocet grafickych radku - 1, 0..255
  44          // P7
  45          #define DISPLAY_MASK_APL        0xFF          // dolni byte poctu bytu na virtualni radek
  46          // P8
  47          #define DISPLAY_MASK_APH        0xFF          // horni byte poctu bytu na virtualni radek
  48          
  49          //-----------------------------------------------------------------------------
  50          // SLEEP IN
  51          //-----------------------------------------------------------------------------
  52          
  53          #define DISPLAY_CMD_SLEEP_IN    0x53          // uspani displeje
  54          
  55          // vzbuzeni pomoci prvnich 2 bytu SYSTEM_SET
  56          
  57          //-----------------------------------------------------------------------------
  58          // DISP ON/OFF
  59          //-----------------------------------------------------------------------------
C51 COMPILER V5.50,  SED1335                                                               24/07/12  10:33:51  PAGE 2   

  60          
  61          #define DISPLAY_CMD_DISP_OFF    0x58            // vypinani displeje, nastaveni kurzoru a rovin
  62          #define DISPLAY_CMD_DISP_ON     0x59            // zapinani displeje, -"-
  63          // P1
  64          #define DISPLAY_MASK_CURSOR_OFF    0x00         // vypnuti kurzoru
  65          #define DISPLAY_MASK_CURSOR_ON     0x01         // svitici kurzor
  66          #define DISPLAY_MASK_CURSOR_FLASH2 0x02         // kurzor blikajici 2Hz
  67          #define DISPLAY_MASK_CURSOR_FLASH1 0x03         // kurzor blikajici 1Hz
  68          
  69          #define DISPLAY_MASK_SAD1_OFF      0x00         // vypnuti roviny SAD1
  70          #define DISPLAY_MASK_SAD1_ON       0x04         // zapnuti roviny SAD1
  71          #define DISPLAY_MASK_SAD1_FLASH2   0x08         // blikani roviny SAD1 2Hz
  72          #define DISPLAY_MASK_SAD1_FLASH16  0x0C         // blikani roviny SAD1 16Hz
  73          
  74          #define DISPLAY_MASK_SAD2_OFF      0x00         // vypnuti roviny SAD2
  75          #define DISPLAY_MASK_SAD2_ON       0x10         // zapnuti roviny SAD2
  76          #define DISPLAY_MASK_SAD2_FLASH2   0x20         // blikani roviny SAD2 2Hz
  77          #define DISPLAY_MASK_SAD2_FLASH16  0x30         // blikani roviny SAD2 16Hz
  78          
  79          #define DISPLAY_MASK_SAD3_OFF      0x00         // vypnuti roviny SAD3
  80          #define DISPLAY_MASK_SAD3_ON       0x40         // zapnuti roviny SAD3
  81          #define DISPLAY_MASK_SAD3_FLASH2   0x80         // blikani roviny SAD3 2Hz
  82          #define DISPLAY_MASK_SAD3_FLASH16  0xC0         // blikani roviny SAD3 16Hz
  83          
  84          //-----------------------------------------------------------------------------
  85          // SCROLL
  86          //-----------------------------------------------------------------------------
  87          
  88          #define DISPLAY_CMD_SCROLL         0x44         // definice rolovacich oblasti
  89          // P1
  90          #define DISPLAY_MASK_SAD1L         0xFF         // dolni adresa oblasti SAD1
  91          // P2
  92          #define DISPLAY_MASK_SAD1H         0xFF         // horni adresa oblasti SAD1
  93          // P3
  94          #define DISPLAY_MASK_SL1           0xFF         // pocet radku oblasti SAD1 - 1
  95          
  96          // P4
  97          #define DISPLAY_MASK_SAD2L         0xFF         // dolni adresa oblasti SAD2
  98          // P5
  99          #define DISPLAY_MASK_SAD2H         0xFF         // horni adresa oblasti SAD2
 100          // P6
 101          #define DISPLAY_MASK_SL2           0xFF         // pocet radku oblasti SAD2 - 1
 102          
 103          // P7
 104          #define DISPLAY_MASK_SAD3L         0xFF         // dolni adresa oblasti SAD3
 105          // P8
 106          #define DISPLAY_MASK_SAD3H         0xFF         // horni adresa oblasti SAD3
 107          
 108          // jen pro WS = 1 a dve roviny :
 109          // P9
 110          #define DISPLAY_MASK_SAD4L         0xFF         // dolni adresa oblasti SAD4
 111          // P10
 112          #define DISPLAY_MASK_SAD4H         0xFF         // horni adresa oblasti SAD4
 113          
 114          //-----------------------------------------------------------------------------
 115          // CSRFORM
 116          //-----------------------------------------------------------------------------
 117          
 118          #define DISPLAY_CMD_CSRFORM        0x5D        // nastavi velikost a tvar kurzoru
 119          // P1
 120          #define DISPLAY_MASK_CRX           0x0F        // sirka kurzoru v pixelech - 1
 121          // P2
 122          #define DISPLAY_MASK_CRY           0x0F        // vyska kurzoru v pixelech - 1
 123          #define DISPLAY_MASK_CM            0x80        // blokovy kurzor, v grafice vzdy nastavit
 124          
 125          //-----------------------------------------------------------------------------
C51 COMPILER V5.50,  SED1335                                                               24/07/12  10:33:51  PAGE 3   

 126          // CGRAM_ADR
 127          //-----------------------------------------------------------------------------
 128          
 129          #define DISPLAY_CMD_CGRAM_ADR      0x5C        // nastaveni pocatecni adresy generatoru znaku
 130          // P1
 131          #define DISPLAY_MASK_SAGL          0xFF        // dolni cast adresy
 132          // P2
 133          #define DISPLAY_MASK_SAGH          0xFF        // horni cast adresy
 134          // POZOR, adresa plati pro znak 0x00, prvni uzivatelsky znak je 0x80
 135          // ofset prvniho uzivatelskeho znaku je 0x80 krat pocet radku na znak
 136          
 137          //-----------------------------------------------------------------------------
 138          // HDOT_SCR
 139          //-----------------------------------------------------------------------------
 140          
 141          #define DISPLAY_CMD_HDOT_SCR       0x5A        // horizontalni rolovani po pixelech
 142          // P1
 143          #define DISPLAY_MASK_HDOT_PIXEL    0x07        // pocet pixelu horizontalniho posunu
 144          
 145          //-----------------------------------------------------------------------------
 146          // OVLAY
 147          //-----------------------------------------------------------------------------
 148          
 149          #define DISPLAY_CMD_OVLAY          0x5B        // rizeni prekryti rovin
 150          // P1
 151          #define DISPLAY_MASK_OR            0x00        // OR  rovin 1 a 2, OR 3
 152          #define DISPLAY_MASK_XOR           0x01        // XOR rovin 1 a 2, OR 3
 153          #define DISPLAY_MASK_AND           0x02        // AND rovin 1 a 2, OR 3
 154          #define DISPLAY_MASK_POR           0x03        // Prioritni OR rovin 1,2 a 3
 155          
 156          #define DISPLAY_MASK_TEXT          0x00        // rovina 1 v textovem modu
 157          #define DISPLAY_MASK_GRAPHICS      0x0C        // rovina 1 v grafickem modu
 158          #define DISPLAY_MASK_GRAPHICS3     0x1C        // tri graficke roviny
 159          
 160          //-----------------------------------------------------------------------------
 161          // CSRW
 162          //-----------------------------------------------------------------------------
 163          
 164          #define DISPLAY_CMD_CSRW           0x46        // zapis pozice ukazatele do videopameti
 165          // P1
 166          #define DISPLAY_MASK_CSRL          0xFF        // dolni cast adresy ukazatele
 167          // P2
 168          #define DISPLAY_MASK_CSRH          0xFF        // horni cast adresy ukazatele (nepovinna)
 169          
 170          //-----------------------------------------------------------------------------
 171          // CSRR
 172          //-----------------------------------------------------------------------------
 173          
 174          #define DISPLAY_CMD_CSRR           0x47        // cteni pozice ukazatele do videopameti
 175          // P1 viz CSRW
 176          // P2 viz CSRW
 177          // oba parametry se ctou (!) v datovem modu
 178          
 179          //-----------------------------------------------------------------------------
 180          // MREAD
 181          //-----------------------------------------------------------------------------
 182          
 183          #define DISPLAY_CMD_MREAD          0x43      // cteni videopameti
 184          // P1..PN ctene byty, inkrement/dekrement adresy probiha podle CSRDIR
 185          
 186          //-----------------------------------------------------------------------------
 187          // GRAYSCALE
 188          //-----------------------------------------------------------------------------
 189          #define DISPLAY_CMD_GRAYSCALE      0x60      // Stupne sedi
 190          
 191          //-----------------------------------------------------------------------------
C51 COMPILER V5.50,  SED1335                                                               24/07/12  10:33:51  PAGE 4   

 192          
 193          
 194          // Konstanty pro displej POWERTIP PG320240 :
 195          
 196          //#define DISPLAY_WIDTH   320                   // graficke rozliseni v pixelech vodorovne
 197          //#define DISPLAY_HEIGHT  240                   // graficke rozliseni v pixelech svisle
 198          #define DISPLAY_X_BYTE  (DISPLAY_WIDTH / 8)   // pocet bytu videoram na radek
 199          #define DISPLAY_CR_SPACE 18                   // pocet bytu horizontalniho zatemneni
 200          
 201          #ifdef DISPLAY_MODE_MIXED
                 // Generovani znaku v textovem modu :
              
                 #define DISPLAY_X_FONT 5                      // zabudovany font - sirka
                 #define DISPLAY_Y_FONT 7                      // zabudovany font - vyska
                 #define DISPLAY_MIN_CHAR      ' '             // minimalni znak generatoru
                 #define DISPLAY_MAX_CHAR      0x7F            // maximalni zakladni znak generatoru
                 #define DISPLAY_MIN_RAM1_CHAR 0x80            // prvni uzivatelsky definovany znak
                 #define DISPLAY_MAX_RAM1_CHAR 0x9F            // posledni uzivatelsky definovany znak
                 #define DISPLAY_MIN_RAM2_CHAR 0xE0            // prvni uzivatelsky znak v druhe casti
                 #define DISPLAY_MAX_RAM2_CHAR 0xFF            // posledni uzivatelsky znak v druhe casti
                 #define DISPLAY_RAM2_MASK     0x40            // kodovani RAM2 v souvisle oblasti-nuluj tento bit
              
                 // Uzivatelske nastaveni :
              
                 #define DISPLAY_COLS (DISPLAY_WIDTH / DISPLAY_CHAR_WIDTH)   // pocet sloupcu textu
                 #define DISPLAY_ROWS (DISPLAY_HEIGHT / DISPLAY_CHAR_HEIGHT) // pocet radku textu
              #endif
 219          
 220          #define DISPLAY_CHAR_WIDTH  8                                  // sirka pole pro znak
 221          #define DISPLAY_CHAR_HEIGHT 8                                  // vyska pole pro znak
 222          
 223          // Rozdeleni oblasti videopameti :
 224          
 225          #define DISPLAY_SAD1_START  0                   // startovaci adresa prvni roviny
 226          #define DISPLAY_SAD1_HEIGHT DISPLAY_HEIGHT      // vyska prvni roviny
 227          #ifdef DISPLAY_MODE_MIXED
                 #define DISPLAY_SAD2_START (DISPLAY_COLS * DISPLAY_ROWS)  // pocet znaku na strance
                 #define DISPLAY_SAD3_START  0                             // nepouzito
                 #define DISPLAY_SAD4_START  0                             // nepouzito
                 #define DISPLAY_CGRAM_START 0xF000                        // zacatek znakoveho generatoru
              #elif DISPLAY_MODE_GRAPHICS2
 233             #define DISPLAY_SAD2_START (DISPLAY_X_BYTE * DISPLAY_HEIGHT) // pocet bytu na strance
 234             #define DISPLAY_SAD3_START  0                                // nepouzito
 235             #define DISPLAY_SAD4_START  0                                // nepouzito
 236          #elif DISPLAY_MODE_GRAPHICS3
                 #define DISPLAY_SAD2_START (DISPLAY_X_BYTE * DISPLAY_HEIGHT)      // pocet bytu na strance
                 #define DISPLAY_SAD3_START (2 * DISPLAY_X_BYTE * DISPLAY_HEIGHT)  // pocet bytu na predchozich strankac
             -h
                 #define DISPLAY_SAD4_START  0                                     // nepouzito
              #else
                 #error "Undefined graphics mode (DISPLAY_MODE_...)"
              #endif
 243          #define DISPLAY_SAD2_HEIGHT DISPLAY_HEIGHT
 244          
 245          // Lokalni promenne :
 246          #ifdef DISPLAY_MODE_MIXED
                 byte row;   // aktualni pozice v textove obrazovce
                 byte col;
              #endif
 250          
 251          // Kontextove promenne pro kresleni :
 252          bit    _plane;                         // cislo graficke roviny
 253          static word   _offset;                 // ofset do videopameti, odpovidajici <x,y,plane>
 254          static TFontDescriptor code *_font;    // pracovni font
 255          static bit plane1_on;
 256          static bit plane2_on;
C51 COMPILER V5.50,  SED1335                                                               24/07/12  10:33:51  PAGE 5   

 257          
 258          // Lokalni funkce :
 259          
 260          #define WriteData( d) DisplayWriteData( d)
 261          // zapise do displeje data
 262          
 263          static void ClearRAM( void);
 264          // Smaze vsechny roviny RAM
 265          
 266          static void VideoRAMSet( word start, word length, char ch);
 267          // Nastavi oblast video RAM na zadanou hodnotu. POZOR, pred volanim musi byt
 268          // nastaven smysl pohybu kurzoru
 269          
 270          //-----------------------------------------------------------------------------
 271          // Implementacni poznamky :
 272          // - Vodic A0 je trvale drzen v 0 (datovy mod), jen po dobu vyslani prikazu
 273          //   se nastavuje do 1. Bude-li vadit, muze se shozeni A0 schovat do makra
 274          //   DisplayEnable() a nahozeni do DisplayDisable()
 275          // - Vyberovy vodic /CS displeje je trvale v 1 (neaktivni), po dobu volani
 276          //   funkce se aktivuje
 277          // - Implicitni pohyb kurzoru je vpravo, pokud jej funkce zmeni, je treba jej
 278          //   vratit
 279          
 280          //-----------------------------------------------------------------------------
 281          // Inicializace displeje - podle Swordfish
 282          //-----------------------------------------------------------------------------
 283          
 284          /*#define cmdSystem 0x40          // general system settings
 285          #define cmdSleep 0x53           // enter into standy mode
 286          #define cmdDisplayOff 0x58      // turn the display off
 287          #define cmdDisplayOn 0x59       // turn the display on
 288          #define cmdScroll 0x44          // setup text and graphics address regions
 289          #define cmdCsrForm 0x5D         // set cursor size
 290          #define cmdCsrDirRight 0x4C     // cursor moves right after write to display memory
 291          #define cmdCsrDirLeft 0x4D      // cursor moves left after write to display memory
 292          #define cmdCsrDirUp 0x4E        // cursor moves up after write to display memory
 293          #define cmdCsrDirDown 0x4F      // cursor moves down after write to display memory
 294          #define cmdCGRAMAddress 0x5C    // configure character generator RAM address
 295          #define cmdHDotScroll 0x5A      // set horizontal scroll rate
 296          #define cmdOverlay 0x5B         // configure how layers overlay
 297          #define cmdSetCsrAddress 0x46   // set the cursor address
 298          #define cmdGetCsrAddress 0x47   // read the cursor address
 299          #define cmdDisplayWrite 0x42    // write to display memory
 300          #define cmdDisplayRead 0x43     // read from display memory
 301          
 302          static void CsrMemPosition(word pMemStart) {
 303             DisplayWriteCommand(cmdSetCsrAddress);  // command - next two bytes are low & high bytes of memory star
             -t
 304             WriteData(pMemStart & 0x00FF);   // low byte
 305             WriteData(pMemStart << 8);   // high byte
 306          }
 307          
 308          void DisplayInit( void)
 309          // inicializuje display
 310          {
 311             word w;
 312          
 313             DisplayRES = 1;
 314             DisplayWR = 1;
 315             DisplayA0 = 0;
 316             DisplayCS = 1;
 317             SysDelay(100);         // start up delay, allow GLCD to settle
 318             DisplayRES = 0;                    // RST = 0 to reset
 319             SysDelay(5);                 // 1 ms minimum, 5ms for safety
 320             DisplayRES = 1;
 321             SysDelay(5);                 // 3 ms minimum, 5ms for safety
C51 COMPILER V5.50,  SED1335                                                               24/07/12  10:33:51  PAGE 6   

 322             DisplayCS = 1;
 323          
 324             SysDelay(100);
 325             DisplayWriteCommand(cmdSystem);         // execute 'system set' instruction
 326             WriteData(0x30);               // control byte sets internal char gen (see DS);
 327             SysDelay(100);
 328          
 329             DisplayWriteCommand(cmdSystem);         // execute 'system set' instruction
 330             SysDelay(1);
 331             WriteData(0x30);               // control byte sets internal char gen (see DS);
 332             WriteData(0x87);               // FX - horizontal char size - 1 (see DS);
 333             WriteData(0x07);               // FY - vertical char size - 1
 334             WriteData(0x27);               // C/R - bytes per line horizintally - 1
 335             WriteData(0x42);               // TC/R - provides overscan idle time (see DS);
 336             WriteData(0xEF);               // LF - height of frame in lines - 1 (0xEF = 239);
 337             WriteData(0x28);               // AP[L] - low byte of AP (horizontal address of virtual screen);
 338             WriteData(0x00);               // AP[H] - high byte of AP (horizontal address of virtual screen);
 339             DisplayWriteCommand(cmdScroll);         // sets scroll address and lines per scroll block
 340             WriteData(0x00);               // graphics layer 1 start[L] (0x0000);
 341             WriteData(0x00);               // graphics layer 1 start[H]
 342             WriteData(0xEF);               // graphics layer 1 lines per block - 1 (0xEF = 239);
 343             WriteData(0x80);               // graphics layer 2 start[L] (0x2580 = 9600 = 320 x 240 / 8);
 344             WriteData(0x25);               // graphics layer 2 start[H]
 345             WriteData(0xEF);               // graphics layer 2 lines per block - 1 (0xEF = 239);
 346             WriteData(0x00);               // graphics layer 3 start[L] (0x4B00 = 19200 = 9600 + 320 x 240 / 8);
 347             WriteData(0x4B);               // graphics layer 3 start[H]
 348             WriteData(0x00);               // no graphics layer 4
 349             WriteData(0x00);
 350             DisplayWriteCommand(cmdHDotScroll);     // allow screen to scroll by pixels
 351             WriteData(0x00);               // set to zero pixels
 352             DisplayWriteCommand(cmdOverlay);        // controls how graphics layers are combined
 353             WriteData(0x1C);               // set to priority OR L1 > L2 > L3, all graphics layers
 354             DisplayWriteCommand(cmdDisplayOff);     // command for screen off...
 355             WriteData(0x54);               // but sets screens 1 - 3 for turning on later
 356             DisplayWriteCommand(cmdCsrForm);        // select cursor size and shape
 357             WriteData(0x00);               // cursor width - 1
 358             WriteData(0x80);               // cursor height - 1 (plus block style);
 359          
 360          //   DisplayWriteCommand(0x60);         // SED1335_CMD_GRAYSCALE
 361          //   WriteData(0x00);        // 1 bpp
 362          
 363          
 364             DisplayWriteCommand(cmdCsrDirRight);    // set cursor to increment to right
 365             CsrMemPosition(0);          // cursor at start of graphics layer 1
 366             DisplayWriteCommand(cmdDisplayWrite);   // set to write to display memory
 367             for (w = 0; w < 28800; w++) {         // clear layers 1 - 3 of display memory
 368                WriteData(0x01);
 369             }
 370             CsrMemPosition(0);          // cursor at start of graphics layer 1
 371             DisplayWriteCommand(cmdDisplayOn);      // command for screen on...
 372             WriteData(0x54);               // for screens 1 - 3
 373          
 374             SysDelay(50000);
 375          
 376             // Nastaveni implicitniho grafickeho fontu :
 377             ClearRAM();
 378             DisplaySetFont( 0);
 379             DisplaySetPlane( DISPLAY_PLANE2);
 380             DisplayPlane( YES);
 381             DisplaySetPlane( DISPLAY_PLANE1);
 382             DisplayPlane( YES);
 383             // zapnuty obe roviny :
 384             plane1_on = 1;
 385             plane2_on = 1;
 386          }*/
 387          
C51 COMPILER V5.50,  SED1335                                                               24/07/12  10:33:51  PAGE 7   

 388          //-----------------------------------------------------------------------------
 389          // Inicializace displeje
 390          //-----------------------------------------------------------------------------
 391          
 392          void DisplayInit( void)
 393          // inicializuje display
 394          {
 395   1         // Default nastavim na data
 396   1         DisplayAddressData();
 397   1      
 398   1         // Reset
 399   1         DisplayRun();
 400   1         SysDelay(100);       // start up delay, allow GLCD to settle
 401   1         DisplayReset();      // RST = 0 to reset
 402   1         SysDelay(5);         // 1 ms minimum, 5ms for safety
 403   1         DisplayRun();
 404   1         SysDelay(5);         // 3 ms minimum, 5ms for safety
 405   1      
 406   1         // Probuzeni radice S1D3700 - zapis SYSTEM_SET + P1 = opusteni Sleep modu
 407   1         SysDelay(100);
 408   1         DisplayWriteCommand(DISPLAY_CMD_SYSTEM_SET);
 409   1         WriteData( DISPLAY_MASK_P1 |
 411   1                    DISPLAY_MASK_IV
 411   1                  );         // P1 - Internal ROM, 64 CG RAM, Height 8, single-panel,
 412   1                             // no top-line correction, LCD mode, no additional cycles
 413   1         SysDelay(100);
 414   1      
 415   1         //------------- SYSTEM_SET :
 416   1         DisplayWriteCommand( DISPLAY_CMD_SYSTEM_SET);
 417   1         WriteData( DISPLAY_MASK_P1 |
 419   1                    DISPLAY_MASK_IV
 419   1                  );         // P1 - Internal ROM, 64 CG RAM, Height 8, single-panel,
 420   1                             // no top-line correction, LCD mode, no additional cycles
 421   1         WriteData( DISPLAY_MASK_WF |
 423   1                   (DISPLAY_MASK_FX  & (DISPLAY_CHAR_WIDTH - 1))
 423   1                  );         // P2 - sirka znaku, two frame waveform period
 424   1         WriteData( DISPLAY_MASK_FY  & (DISPLAY_CHAR_HEIGHT - 1)
 425   1                  );         // P3 - vyska znaku
 426   1         WriteData( DISPLAY_MASK_CR  & (DISPLAY_X_BYTE - 1));
 427   1                             // P4 - sirka radku v bytech - 1
 428   1         WriteData( DISPLAY_MASK_TCR & (DISPLAY_X_BYTE + DISPLAY_CR_SPACE - 1));
 429   1                             // P5 - celkova sirka radku vcetne zatemneni
 430   1         WriteData( DISPLAY_MASK_LF  & (DISPLAY_HEIGHT - 1));
 431   1                             // P6 - vyska displeje v pixelech - 1
 432   1         WriteData( DISPLAY_MASK_APL & DISPLAY_X_BYTE);
 433   1                             // P7 - LSB sirka virtualniho radku v bytech
 434   1         WriteData( DISPLAY_MASK_APH & (DISPLAY_X_BYTE >> 8));
 435   1                             // P8 - MSB -"-
 436   1         //------------- SCROLL :
 437   1         DisplayWriteCommand( DISPLAY_CMD_SCROLL);
 438   1         WriteData( DISPLAY_MASK_SAD1L & DISPLAY_SAD1_START);
 439   1                             // P1 - SAD1L
 440   1         WriteData( DISPLAY_MASK_SAD1H & (DISPLAY_SAD1_START >> 8));
 441   1                             // P2 - SAD1H
 442   1         WriteData( DISPLAY_MASK_SL1   & (DISPLAY_SAD1_HEIGHT - 1));
 443   1                             // P3 - SL1
 444   1         WriteData( DISPLAY_MASK_SAD2L & DISPLAY_SAD2_START);
 445   1                             // P4 - SAD2L
 446   1         WriteData( DISPLAY_MASK_SAD2H & (DISPLAY_SAD2_START >> 8));
 447   1                             // P5 - SAD2H
 448   1         WriteData( DISPLAY_MASK_SL2   & (DISPLAY_SAD2_HEIGHT - 1));
 449   1                             // P6 - SL2
 450   1         WriteData( DISPLAY_MASK_SAD3L & DISPLAY_SAD3_START);
 451   1                             // P7 - SAD3L
 452   1         WriteData( DISPLAY_MASK_SAD3H & (DISPLAY_SAD3_START >> 8));
 453   1                             // P8 - SAD3H
C51 COMPILER V5.50,  SED1335                                                               24/07/12  10:33:51  PAGE 8   

 454   1         WriteData( DISPLAY_MASK_SAD4L & DISPLAY_SAD4_START);
 455   1                             // P9 - SAD4L
 456   1         WriteData( DISPLAY_MASK_SAD4H & (DISPLAY_SAD4_START >> 8));
 457   1                             // P10 - SAD4H
 458   1         //------------- HDOT_SCR :
 459   1         DisplayWriteCommand( DISPLAY_CMD_HDOT_SCR);
 460   1         WriteData( DISPLAY_MASK_HDOT_PIXEL & 0);
 461   1                              // P1 - pocet pixelu horizontalniho posunu
 462   1         #ifdef DISPLAY_MODE_MIXED
                    //------------- OVLAY :
                    DisplayWriteCommand( DISPLAY_CMD_OVLAY);
                    WriteData( DISPLAY_MASK_TEXT |
                               DISPLAY_MASK_XOR);
                                               // P1 - SAD1 textovy, grafika XORovana s textem, 2 roviny
                    //------------- CGRAM ADR :
                    DisplayWriteCommand( DISPLAY_CMD_CGRAM_ADR);
                    WriteData( DISPLAY_MASK_SAGL & DISPLAY_CGRAM_START);
                    WriteData( DISPLAY_MASK_SAGH & (DISPLAY_CGRAM_START >> 8));
                                               // nastaveni baze uzivatelskych znaku
                 #elif DISPLAY_MODE_GRAPHICS2
 474   1            //------------- OVLAY :
 475   1            DisplayWriteCommand( DISPLAY_CMD_OVLAY);
 476   1            WriteData( DISPLAY_MASK_GRAPHICS |
 477   1                       DISPLAY_MASK_XOR);
 478   1                                       // P1 - SAD1 grafika, grafika XORovana se SAD1, 2 roviny
 479   1         #elif DISPLAY_MODE_GRAPHICS3
                    //------------- OVLAY :
                    DisplayWriteCommand( DISPLAY_CMD_OVLAY);
                    WriteData( DISPLAY_MASK_GRAPHICS3 |
                               DISPLAY_MASK_XOR);
                                               // P1 - SAD1 grafika, grafika XORovana se SAD1, 3 roviny
                 #endif
 486   1         //------------- GRAYSCALE
 487   1         DisplayWriteCommand(DISPLAY_CMD_GRAYSCALE);  // SED1335_CMD_GRAYSCALE
 488   1         WriteData(0x00);             // 1 bpp
 489   1         //------------- DISP_OFF
 490   1         DisplayWriteCommand( DISPLAY_CMD_DISP_OFF);
 491   1         //------------- CSRDIR :
 492   1         DisplayWriteCommand(DISPLAY_CMD_CSR_DOWN);     // Pohyb kurzoru dolu
 493   1      //   DisplayWriteCommand( DISPLAY_CMD_CSR_RIGHT);
 494   1         ClearRAM();
 495   1         #ifdef DISPLAY_MODE_MIXED
                    //------------- CSRFORM :
                    DisplayWriteCommand( DISPLAY_CMD_CSRFORM);
                    WriteData( DISPLAY_MASK_CRX & (DISPLAY_X_FONT - 1));
                                               // P1 - sirka kurzoru v pixelech-1
                    WriteData( DISPLAY_MASK_CM |
                               DISPLAY_MASK_CRY & (DISPLAY_Y_FONT - 1));
                                               // P2 - vyska kurzoru v pixelech - 1, blokovy kurzor
                 #endif
 504   1         #ifdef DISPLAY_MODE_MIXED
                    //------------- DISP_ON :
                    DisplayWriteCommand( DISPLAY_CMD_DISP_ON);
                    WriteData( DISPLAY_MASK_CURSOR_OFF |
                               DISPLAY_MASK_SAD1_ON  |
                               DISPLAY_MASK_SAD2_ON  |
                               DISPLAY_MASK_SAD3_OFF
                             );
                                               // P1 - Vypnuty kurzor, zapnuty roviny SAD1, SAD2
                 #elif DISPLAY_MODE_GRAPHICS2
 514   1            //------------- DISP_ON :
 515   1            DisplayWriteCommand( DISPLAY_CMD_DISP_ON);
 516   1            WriteData( DISPLAY_MASK_CURSOR_OFF |
 520   1                       DISPLAY_MASK_SAD1_ON  |
 520   1                       DISPLAY_MASK_SAD2_ON  |
 520   1                       DISPLAY_MASK_SAD3_OFF
C51 COMPILER V5.50,  SED1335                                                               24/07/12  10:33:51  PAGE 9   

 520   1                     );
 521   1                                       // P1 - Vypnuty kurzor, zapnuty roviny SAD1, SAD2
 522   1         #elif DISPLAY_MODE_GRAPHICS3
                    //------------- DISP_ON :
                    DisplayWriteCommand( DISPLAY_CMD_DISP_ON);
                    WriteData( DISPLAY_MASK_CURSOR_OFF |
                               DISPLAY_MASK_SAD1_ON  |
                               DISPLAY_MASK_SAD2_ON  |
                               DISPLAY_MASK_SAD3_ON
                             );
                                               // P1 - Vypnuty kurzor, zapnuty roviny SAD1, SAD2, SAD3
                 #endif
 532   1      
 533   1         #ifdef DISPLAY_MODE_MIXED
                    // kurzor na prvni textovou pozici
                    row = 0;
                    col = 0;
                 #endif
 538   1      
 539   1         // Nastaveni implicitniho grafickeho fontu :
 540   1         DisplaySetFont( 0);
 541   1         DisplaySetPlane( DISPLAY_PLANE2);
 542   1         DisplayPlane( YES);
 543   1         DisplaySetPlane( DISPLAY_PLANE1);
 544   1         DisplayPlane( YES);
 545   1         // zapnuty obe roviny :
 546   1         plane1_on = 1;
 547   1         plane2_on = 1;
 548   1      } // DisplayInit
 549          
 550          //-----------------------------------------------------------------------------
 551          // Offset adresy podle souradnic
 552          //-----------------------------------------------------------------------------
 553          
 554          #ifdef DISPLAY_OFFSET
 555          
 556          word DisplayOffset(byte X, byte Y) {
 557   1        // Offset adresy podle souradnic
 558   1        return (word)(X + (_plane ? DISPLAY_SAD2_START : DISPLAY_SAD1_START) + Y * DISPLAY_X_BYTE);
 559   1      }
 560          
 561          #endif
 562          
 563          //-----------------------------------------------------------------------------
 564          // Nastaveni roviny
 565          //-----------------------------------------------------------------------------
 566          
 567          void DisplaySetPlane( bit plane)
 568          // nastavi pracovni zobrazovaci rovinu
 569          {
 570   1         _plane = plane;
 571   1      } // DisplaySetPlane
 572          
 573          
 574          //-----------------------------------------------------------------------------
 575          // Nastaveni fontu
 576          //-----------------------------------------------------------------------------
 577          
 578          void DisplaySetFont( byte font)
 579          // nastavi pracovni font
 580          {
 581   1      //   _font = &Font[ font];
 582   1         switch (font) {
 583   2      #ifdef DISPLAY_FONT_SYSTEM
 584   2           case FONT_SYSTEM: {
 585   3             _font = &FontSystem;
C51 COMPILER V5.50,  SED1335                                                               24/07/12  10:33:51  PAGE 10  

 586   3             break;
 587   3           }
 588   2      #endif
 589   2      #ifdef DISPLAY_MODE_MIXED
                   case FONT_FRAME_8x8: {
                     _font = &FontFrame;
                     break;
                   }
              #endif
 595   2      #ifdef DISPLAY_FONT_NUM_MYRIAD40
 596   2           case FONT_NUM_MYRIAD40: {
 597   3             _font = &FontNumericMyriad40;
 598   3             break;
 599   3           }
 600   2      #endif
 601   2      #ifdef DISPLAY_FONT_NUM_MYRIAD32
 602   2           case FONT_NUM_MYRIAD32: {
 603   3             _font = &FontNumericMyriad32;
 604   3             break;
 605   3           }
 606   2      #endif
 607   2      #ifdef DISPLAY_FONT_NUM_TAHOMA18
 608   2           case FONT_NUM_TAHOMA18: {
 609   3             _font = &FontNumericTahoma18;
 610   3             break;
 611   3           }
 612   2      #endif
 613   2         }//switch
 614   1      } // DisplaySetFont
 615          
 616          //-----------------------------------------------------------------------------
 617          // Nastaveni pozice
 618          //-----------------------------------------------------------------------------
 619          #ifdef DISPLAY_MOVE_TO
 620          
 621          void DisplayMoveTo( byte x, byte y)
 622          // presun pozice kurzoru <x> je pocet osmic pixelu, <y> je pocet pixelu
 623          {
 624   1      #ifdef DISPLAY_MODE_MIXED
                 _offset  = DISPLAY_SAD2_START + y * DISPLAY_X_BYTE;          // zacatek radku y
                 _offset += x;                                                // sloupec x
              #elif DISPLAY_MODE_GRAPHICS2
 628   1         _offset  = (plane ? DISPLAY_SAD2_START : DISPLAY_SAD1_START) // zacatek roviny
 629   1                     + y * DISPLAY_X_BYTE;                            // zacatek radku y
 630   1         _offset += x;                                                // sloupec x
 631   1      #elif DISPLAY_MODE_GRAPHICS3
              #endif
 633   1      } // DisplayMoveTo
 634          
 635          #endif // DISPLAY_MOVE_TO
 636          
 637          //-----------------------------------------------------------------------------
 638          // Mazani roviny
 639          //-----------------------------------------------------------------------------
 640          #ifdef DISPLAY_CLEAR
 641          
 642          void DisplayClear( void)
 643          // Smaze nastavenou rovinu
 644          {
 645   1      //   DisplayEnable();
 646   1      #ifdef DISPLAY_MODE_MIXED
                 if( !plane){
                    // nastaveni textove roviny na mezery :
                    VideoRAMSet( DISPLAY_SAD1_START, DISPLAY_ROWS * DISPLAY_COLS, ' ');
                 } else {
                    // nastaveni graficke roviny SAD2 na 0 :
C51 COMPILER V5.50,  SED1335                                                               24/07/12  10:33:51  PAGE 11  

                    VideoRAMSet( DISPLAY_SAD2_START, DISPLAY_X_BYTE * DISPLAY_HEIGHT, 0);
                 }
                 // kurzor na prvni textovou pozici :
                 row = 0;
                 col = 0;
              #elif DISPLAY_MODE_GRAPHICS2
 658   1            // Maze obe roviny!
 659   1            // nastaveni graficke roviny SAD1 na 0 :
 660   1            VideoRAMSet( DISPLAY_SAD1_START, DISPLAY_X_BYTE * DISPLAY_HEIGHT, 0);
 661   1            // nastaveni graficke roviny SAD2 na 0 :
 662   1            VideoRAMSet( DISPLAY_SAD2_START, DISPLAY_X_BYTE * DISPLAY_HEIGHT, 0);
 663   1      #elif DISPLAY_MODE_GRAPHICS3
              #endif
 665   1      //   DisplayDisable();
 666   1      } // DisplayClear
 667          #endif  // DISPLAY_CLEAR
 668          
 669          //-----------------------------------------------------------------------------
 670          // Zobrazeni roviny
 671          //-----------------------------------------------------------------------------
 672          #ifdef DISPLAY_PLANE
 673          
 674          void DisplayPlane( bit on)
 675          // Podle promenne <on> zapne/vypne nastavenou rovinu
 676          {
 677   1      
 678   1      //   DisplayEnable();
 679   1         if( !plane){
 680   2            plane1_on = on;
 681   2         } else {
 682   2            plane2_on = on;
 683   2         }
 684   1         //------------- DISP_ON :
 685   1         DisplayWriteCommand( DISPLAY_CMD_DISP_ON);
 686   1      #ifdef DISPLAY_MODE_MIXED
                 WriteData( DISPLAY_MASK_CURSOR_FLASH2 |      // v textu zapnuty
                            (plane1_on ? DISPLAY_MASK_SAD1_ON : DISPLAY_MASK_SAD1_OFF) |
                            (plane2_on ? DISPLAY_MASK_SAD2_ON : DISPLAY_MASK_SAD2_OFF) |
                            DISPLAY_MASK_SAD3_OFF
                          );
              #else
 693   1         WriteData( DISPLAY_MASK_CURSOR_OFF |         // v grafice vypnuty
 697   1                    (plane1_on ? DISPLAY_MASK_SAD1_ON : DISPLAY_MASK_SAD1_OFF) |
 697   1                    (plane2_on ? DISPLAY_MASK_SAD2_ON : DISPLAY_MASK_SAD2_OFF) |
 697   1                    DISPLAY_MASK_SAD3_OFF
 697   1                  );
 698   1      #endif
 699   1      //   DisplayDisable();
 700   1      } // DisplayPlane
 701          
 702          #endif // DISPLAY_PLANE
 703          
 704          //-----------------------------------------------------------------------------
 705          // Obdelnik
 706          //-----------------------------------------------------------------------------
 707          #ifdef DISPLAY_FILL_BOX
 708          
 709          void DisplayFillBox( byte w, byte h, byte value)
 710          // Nakresli obdelnik do nastavene roviny od nastavene pozice.
 711          // <w> je sirka v osmicich pixelu, <h> je vyska v pixelech, <value>
 712          // je hodnota osmice
 713          {
 714   1      byte i, j;
 715   1      
 716   1      //   DisplayWriteCommand( DISPLAY_CMD_CSR_DOWN);                 // pohyb kurzoru dolu
 717   1         for( j = 0; j < w; j++){
C51 COMPILER V5.50,  SED1335                                                               24/07/12  10:33:51  PAGE 12  

 718   2            // jeden sloupec
 719   2            SetCursor( _offset);
 720   2            DisplayWriteCommand( DISPLAY_CMD_MWRITE);
 721   2            for( i = 0; i < h; i++){
 722   3               WriteData( value);
 723   3            }
 724   2            _offset++;                                         // dalsi sloupec
 725   2         }
 726   1      //   DisplayWriteCommand( DISPLAY_CMD_CSR_RIGHT);                 // standardni smer pohybu
 727   1      } // DisplayBox
 728          
 729          #endif // DISPLAY_FILL_BOX
 730          
 731          //-----------------------------------------------------------------------------
 732          // Zapis obdelnikoveho vzoru
 733          //-----------------------------------------------------------------------------
 734          #ifdef DISPLAY_PATTERN
 735          
 736          void DisplayPattern( byte code *pattern, byte w, byte h)
 737          // Nakresli obdelnik vyplneny vzorem z adresy <pattern>
 738          // do nastavene roviny od nastavene pozice.
 739          // <w> je sirka v osmicich pixelu, <h> je vyska v pixelech
 740          {
 741   1      byte i, j;
 742   1      
 743   1      //   DisplayEnable();
 744   1      //   DisplayWriteCommand( DISPLAY_CMD_CSR_DOWN);                 // pohyb kurzoru dolu
 745   1         for( j = 0; j < w; j++){
 746   2            // jeden sloupec
 747   2            SetCursor( _offset);
 748   2            DisplayWriteCommand( DISPLAY_CMD_MWRITE);
 749   2            for( i = 0; i < h; i++){
 750   3               WriteData( *pattern);
 751   3      /*         if (i % 2) {
 752   3                 WriteData(0xFF);
 753   3               } else {
 754   3                 WriteData(0);
 755   3               }*/
 756   3               pattern++;
 757   3            }
 758   2            _offset++;                                         // dalsi sloupec
 759   2         }
 760   1      //   DisplayWriteCommand( DISPLAY_CMD_CSR_RIGHT);                 // standardni smer pohybu
 761   1      //   DisplayDisable();
 762   1      } // DisplayPattern
 763          
 764          #endif // DISPLAY_PATTERN
 765          
 766          //-----------------------------------------------------------------------------
 767          // Pozicovani kurzoru
 768          //-----------------------------------------------------------------------------
 769          #ifdef DISPLAY_GOTO_RC
 770          
 771          void DisplayGotoRC( byte r, byte c)
 772          // presune kurzor na zadanou textovou pozici <r> radek <c> sloupec
 773          // Hodnota DISPLAY_CURRENT znamena beze zmeny
 774          {
 775   1      #ifdef DISPLAY_MODE_MIXED
                 if( r != DISPLAY_CURRENT){
                    row = r;
                 }
                 if( c != DISPLAY_CURRENT){
                    col = c;
                 }
              #else
 783   1         DisplayMoveTo( c, r * font->height);
C51 COMPILER V5.50,  SED1335                                                               24/07/12  10:33:51  PAGE 13  

 784   1      #endif
 785   1      } // DisplayGotoRC
 786          
 787          #endif // DISPLAY_GOTO_RC
 788          
 789          //-----------------------------------------------------------------------------
 790          // Zapis znaku
 791          //-----------------------------------------------------------------------------
 792          #ifdef DISPLAY_PUTCHAR
 793          
 794          char putchar( char c)
 795          // standardni zapis znaku
 796          {
 797   1      word index;
 798   1      byte bwidth;
 799   1      #ifdef DISPLAY_MODE_MIXED
              word start;
              
                 if( !plane){
                    if( c == '\n'){
                       // (ponekud atypicky) presun na prvni pozici noveho radku
                       row++;
                       col = 0;
                       return( c);
                    }
                    if( c == '\r'){
                       // (ponekud atypicky) presun na predchozi pozici noveho radku
                       row++;
                       col--;
                       return( c);
                    }
                    if( c == CH_NULL){
                       // mezera bez prepsani podkladu
                       col++;
                       return( c);
                    }
                    DisplayEnable();
                    start  = DISPLAY_SAD1_START + row * DISPLAY_COLS;
                    start += col;
                    SetCursor( start);
              
                    //------------- MWRITE
                    DisplayWriteCommand( DISPLAY_CMD_MWRITE);
                    WriteData( c);
                    col++;
                    if( col >= DISPLAY_COLS){
                       col = 0;
                       row++;
                    }
                    DisplayDisable();
                    return( c);
                 } else {
                    // plane == 1 je grafika
              #endif
 838   1         if( c == '\n'){
 839   2            // (ponekud atypicky) presun na prvni pozici noveho radku
 840   2            _offset /= DISPLAY_X_BYTE;
 841   2            _offset *= DISPLAY_X_BYTE;                 // zacatek radku
 842   2            _offset += font->height * DISPLAY_X_BYTE;  // novy radek
 843   2            return( c);
 844   2         }
 845   1         bwidth = font->width / 8;                     // bytova sirka fontu
 846   1         if( c == '\r'){
 847   2            // (ponekud atypicky) presun na predchozi pozici noveho radku
 848   2            _offset -= bwidth;
 849   2            _offset += font->height * DISPLAY_X_BYTE;  // novy radek
C51 COMPILER V5.50,  SED1335                                                               24/07/12  10:33:51  PAGE 14  

 850   2            return( c);
 851   2         }
 852   1         if( c == CH_NULL){
 853   2            // mezera bez prepsani podkladu
 854   2            _offset += bwidth;                      // presun vpravo na nasledujici znak
 855   2            return( c);
 856   2         }
 857   1         // Nahrada znaku za spravnou pozici
 858   1         switch (c) {
 859   2           case '-': c = font->minus; break;
 860   2           case ' ': c = font->space; break;
 861   2           case '.': c = font->dot; break;
 862   2           case ':': c = font->colon; break;
 863   2           default:  c -= font->offset;             // Normalni znak, pole znaku zacina od znaku 'offset'
 864   2         }//else
 865   1         index  = c * (bwidth * font->height);      // zacatek vybraneho znaku
 866   1         DisplayPattern( &font->array[ index], bwidth, font->height);
 867   1         return( c);
 868   1      #ifdef DISPLAY_MODE_MIXED
                 }    // vetev plane == 1
              #endif
 871   1      } // putchar
 872          
 873          #endif // DISPLAY_PUTCHAR
 874          
 875          //-----------------------------------------------------------------------------
 876          // Zapis prikazu
 877          //-----------------------------------------------------------------------------
 878          
 879          /*void DisplayWriteCommand( byte cmd)
 880          // zapise do displeje prikaz
 881          {
 882             DisplayAddressCommand();                    // nahodit A0
 883             DisplayWriteData( cmd);
 884             DisplayAddressData();                       // shodit A0, nasleduji parametry
 885          } // WriteCommand*/
 886          
 887          //-----------------------------------------------------------------------------
 888          // Mazani RAM
 889          //-----------------------------------------------------------------------------
 890          
 891          static void ClearRAM( void)
 892          // Smaze vsechny roviny RAM
 893          {
 894   1         #ifdef DISPLAY_MODE_MIXED
                    // nastaveni textove roviny na mezery :
                    VideoRAMSet( DISPLAY_SAD1_START, DISPLAY_ROWS * DISPLAY_COLS, ' ');
                    // nastaveni graficke roviny SAD2 na 0 :
                    VideoRAMSet( DISPLAY_SAD2_START, DISPLAY_X_BYTE * DISPLAY_HEIGHT, 0);
                 #elif DISPLAY_MODE_GRAPHICS2
 900   1            // nastaveni graficke roviny SAD1 na 0 :
 901   1            VideoRAMSet( DISPLAY_SAD1_START, DISPLAY_X_BYTE * DISPLAY_HEIGHT, 0);
 902   1            // nastaveni graficke roviny SAD2 na 0 :
 903   1            VideoRAMSet( DISPLAY_SAD2_START, DISPLAY_X_BYTE * DISPLAY_HEIGHT, 0);
 904   1         #elif DISPLAY_MODE_GRAPHICS3
                    // nastaveni graficke roviny SAD1 na 0 :
                    VideoRAMSet( DISPLAY_SAD1_START, DISPLAY_X_BYTE * DISPLAY_HEIGHT, 0);
                    // nastaveni graficke roviny SAD2 na 0 :
                    VideoRAMSet( DISPLAY_SAD2_START, DISPLAY_X_BYTE * DISPLAY_HEIGHT, 0);
                    // nastaveni graficke roviny SAD3 na 0 :
                    VideoRAMSet( DISPLAY_SAD3_START, DISPLAY_X_BYTE * DISPLAY_HEIGHT, 0);
                 #endif
 912   1      } // ClearRAM
 913          
 914          //-----------------------------------------------------------------------------
 915          // Nastaveni ukazatele RAM
C51 COMPILER V5.50,  SED1335                                                               24/07/12  10:33:51  PAGE 15  

 916          //-----------------------------------------------------------------------------
 917          
 918          void SetCursor( word address)
 919          // Nastavi adresu do video RAM
 920          {
 921   1         DisplayWriteCommand( DISPLAY_CMD_CSRW);
 922   1         WriteData( DISPLAY_MASK_CSRL & address);
 923   1         WriteData( DISPLAY_MASK_CSRH & (address >> 8));
 924   1      } // SetCursor
 925          
 926          //-----------------------------------------------------------------------------
 927          // Nastaveni RAM na hodnotu
 928          //-----------------------------------------------------------------------------
 929          
 930          static void VideoRAMSet( word start, word length, char ch)
 931          // Nastavi oblast video RAM na zadanou hodnotu. POZOR, pred volanim musi byt
 932          // nastaven smysl pohybu kurzoru
 933          {
 934   1      word i;
 935   1      
 936   1         DisplayWriteCommand(DISPLAY_CMD_CSR_RIGHT);
 937   1         SetCursor( start);
 938   1         //------- MWRITE
 939   1         DisplayWriteCommand( DISPLAY_CMD_MWRITE);
 940   1         for( i = 0; i < length; i++){
 941   2            WriteData( ch);
 942   2         }
 943   1         DisplayWriteCommand(DISPLAY_CMD_CSR_DOWN);
 944   1      } // VideoRAMSet
 945          
 946          #ifdef DISPLAY_MODE_MIXED
              //-----------------------------------------------------------------------------
              // Zobrazeni kurzoru
              //-----------------------------------------------------------------------------
              #ifdef DISPLAY_CURSOR
              
              void DisplayCursor( bool on)
              // je-li <on>=NO zhasne kurzor, jinak rozsviti
              {
              word Start;
              
                 DisplayEnable();
                 if( on){
                    // pozice kurzoru :
                    Start  = DISPLAY_SAD1_START + row * DISPLAY_COLS;
                    Start += col;
                    SetCursor( Start);
                    // zapnuti kurzoru :
                    DisplayWriteCommand( DISPLAY_CMD_DISP_ON);
                    WriteData( DISPLAY_MASK_CURSOR_FLASH2 |
                               DISPLAY_MASK_SAD1_ON  |
                               DISPLAY_MASK_SAD2_ON  |
                               DISPLAY_MASK_SAD3_OFF
                             );
                                               // P1 - Blikajici kurzor, zapnuty roviny SAD1, SAD2
                 } else {
                    // zhasnuti kurzoru :
                    DisplayWriteCommand( DISPLAY_CMD_DISP_ON);
                    WriteData( DISPLAY_MASK_CURSOR_OFF |
                               DISPLAY_MASK_SAD1_ON  |
                               DISPLAY_MASK_SAD2_ON  |
                               DISPLAY_MASK_SAD3_OFF
                             );
                                               // P1 - vypnuty kurzor, zapnuty roviny SAD1, SAD2
                 }
                 DisplayDisable();
C51 COMPILER V5.50,  SED1335                                                               24/07/12  10:33:51  PAGE 16  

              } // DisplayCursor
              
              #endif // DISPLAY_CURSOR
              //-----------------------------------------------------------------------------
              // Mazani radku
              //-----------------------------------------------------------------------------
              #ifdef DISPLAY_CLR_EOL
              
              void DisplayClrEol( void)
              // smaze az do konce radku, nemeni pozici kurzoru
              {
              word Start;
              
                 DisplayEnable();
                 Start  = DISPLAY_SAD1_START + row * DISPLAY_COLS;
                 Start += col;
                 VideoRAMSet( Start, DISPLAY_COLS - col, ' ');
                 DisplayDisable();
              } // DisplayClrEol
              #endif // DISPLAY_CLR_EOL
              
              #endif // DISPLAY_MODE_MIXED
C51 COMPILER V5.50,  SED1335                                                               24/07/12  10:33:51  PAGE 17  

ASSEMBLY LISTING OF GENERATED OBJECT CODE


             ; FUNCTION DisplayInit (BEGIN)
                                           ; SOURCE LINE # 392
                                           ; SOURCE LINE # 394
                                           ; SOURCE LINE # 396
0000 C2EE          CLR     TmcA0D
                                           ; SOURCE LINE # 399
0002 C2C6          CLR     TmcRESD
                                           ; SOURCE LINE # 400
0004 7F64          MOV     R7,#064H
0006 7E00          MOV     R6,#00H
0008 120000  E     LCALL   _SysDelay
                                           ; SOURCE LINE # 401
000B D2C6          SETB    TmcRESD
                                           ; SOURCE LINE # 402
000D 7F05          MOV     R7,#05H
000F 7E00          MOV     R6,#00H
0011 120000  E     LCALL   _SysDelay
                                           ; SOURCE LINE # 403
0014 C2C6          CLR     TmcRESD
                                           ; SOURCE LINE # 404
0016 7F05          MOV     R7,#05H
0018 7E00          MOV     R6,#00H
001A 120000  E     LCALL   _SysDelay
                                           ; SOURCE LINE # 407
001D 7F64          MOV     R7,#064H
001F 7E00          MOV     R6,#00H
0021 120000  E     LCALL   _SysDelay
                                           ; SOURCE LINE # 408
0024 D2EE          SETB    TmcA0D
0026 758040        MOV     P0,#040H
0029 C2A7          CLR     TmcCSD
002B C2A1          CLR     TmcCLKAD
002D D2A1          SETB    TmcCLKAD
002F D2A7          SETB    TmcCSD
0031 C2EE          CLR     TmcA0D
                                           ; SOURCE LINE # 411
0033 758030        MOV     P0,#030H
0036 C2A7          CLR     TmcCSD
0038 C2A1          CLR     TmcCLKAD
003A D2A1          SETB    TmcCLKAD
003C D2A7          SETB    TmcCSD
                                           ; SOURCE LINE # 413
003E 7F64          MOV     R7,#064H
0040 7E00          MOV     R6,#00H
0042 120000  E     LCALL   _SysDelay
                                           ; SOURCE LINE # 416
0045 D2EE          SETB    TmcA0D
0047 758040        MOV     P0,#040H
004A C2A7          CLR     TmcCSD
004C C2A1          CLR     TmcCLKAD
004E D2A1          SETB    TmcCLKAD
0050 D2A7          SETB    TmcCSD
0052 C2EE          CLR     TmcA0D
                                           ; SOURCE LINE # 419
0054 758030        MOV     P0,#030H
0057 C2A7          CLR     TmcCSD
0059 C2A1          CLR     TmcCLKAD
005B D2A1          SETB    TmcCLKAD
005D D2A7          SETB    TmcCSD
                                           ; SOURCE LINE # 423
005F 758087        MOV     P0,#087H
0062 C2A7          CLR     TmcCSD
0064 C2A1          CLR     TmcCLKAD
C51 COMPILER V5.50,  SED1335                                                               24/07/12  10:33:51  PAGE 18  

0066 D2A1          SETB    TmcCLKAD
0068 D2A7          SETB    TmcCSD
                                           ; SOURCE LINE # 425
006A 758007        MOV     P0,#07H
006D C2A7          CLR     TmcCSD
006F C2A1          CLR     TmcCLKAD
0071 D2A1          SETB    TmcCLKAD
0073 D2A7          SETB    TmcCSD
                                           ; SOURCE LINE # 426
0075 758027        MOV     P0,#027H
0078 C2A7          CLR     TmcCSD
007A C2A1          CLR     TmcCLKAD
007C D2A1          SETB    TmcCLKAD
007E D2A7          SETB    TmcCSD
                                           ; SOURCE LINE # 428
0080 758039        MOV     P0,#039H
0083 C2A7          CLR     TmcCSD
0085 C2A1          CLR     TmcCLKAD
0087 D2A1          SETB    TmcCLKAD
0089 D2A7          SETB    TmcCSD
                                           ; SOURCE LINE # 430
008B 7580EF        MOV     P0,#0EFH
008E C2A7          CLR     TmcCSD
0090 C2A1          CLR     TmcCLKAD
0092 D2A1          SETB    TmcCLKAD
0094 D2A7          SETB    TmcCSD
                                           ; SOURCE LINE # 432
0096 758028        MOV     P0,#028H
0099 C2A7          CLR     TmcCSD
009B C2A1          CLR     TmcCLKAD
009D D2A1          SETB    TmcCLKAD
009F D2A7          SETB    TmcCSD
                                           ; SOURCE LINE # 434
00A1 E4            CLR     A
00A2 F580          MOV     P0,A
00A4 C2A7          CLR     TmcCSD
00A6 C2A1          CLR     TmcCLKAD
00A8 D2A1          SETB    TmcCLKAD
00AA D2A7          SETB    TmcCSD
                                           ; SOURCE LINE # 437
00AC D2EE          SETB    TmcA0D
00AE 758044        MOV     P0,#044H
00B1 C2A7          CLR     TmcCSD
00B3 C2A1          CLR     TmcCLKAD
00B5 D2A1          SETB    TmcCLKAD
00B7 D2A7          SETB    TmcCSD
00B9 C2EE          CLR     TmcA0D
                                           ; SOURCE LINE # 438
00BB F580          MOV     P0,A
00BD C2A7          CLR     TmcCSD
00BF C2A1          CLR     TmcCLKAD
00C1 D2A1          SETB    TmcCLKAD
00C3 D2A7          SETB    TmcCSD
                                           ; SOURCE LINE # 440
00C5 F580          MOV     P0,A
00C7 C2A7          CLR     TmcCSD
00C9 C2A1          CLR     TmcCLKAD
00CB D2A1          SETB    TmcCLKAD
00CD D2A7          SETB    TmcCSD
                                           ; SOURCE LINE # 442
00CF 7580EF        MOV     P0,#0EFH
00D2 C2A7          CLR     TmcCSD
00D4 C2A1          CLR     TmcCLKAD
00D6 D2A1          SETB    TmcCLKAD
00D8 D2A7          SETB    TmcCSD
                                           ; SOURCE LINE # 444
C51 COMPILER V5.50,  SED1335                                                               24/07/12  10:33:51  PAGE 19  

00DA 758080        MOV     P0,#080H
00DD C2A7          CLR     TmcCSD
00DF C2A1          CLR     TmcCLKAD
00E1 D2A1          SETB    TmcCLKAD
00E3 D2A7          SETB    TmcCSD
                                           ; SOURCE LINE # 446
00E5 758025        MOV     P0,#025H
00E8 C2A7          CLR     TmcCSD
00EA C2A1          CLR     TmcCLKAD
00EC D2A1          SETB    TmcCLKAD
00EE D2A7          SETB    TmcCSD
                                           ; SOURCE LINE # 448
00F0 7580EF        MOV     P0,#0EFH
00F3 C2A7          CLR     TmcCSD
00F5 C2A1          CLR     TmcCLKAD
00F7 D2A1          SETB    TmcCLKAD
00F9 D2A7          SETB    TmcCSD
                                           ; SOURCE LINE # 450
00FB F580          MOV     P0,A
00FD C2A7          CLR     TmcCSD
00FF C2A1          CLR     TmcCLKAD
0101 D2A1          SETB    TmcCLKAD
0103 D2A7          SETB    TmcCSD
                                           ; SOURCE LINE # 452
0105 F580          MOV     P0,A
0107 C2A7          CLR     TmcCSD
0109 C2A1          CLR     TmcCLKAD
010B D2A1          SETB    TmcCLKAD
010D D2A7          SETB    TmcCSD
                                           ; SOURCE LINE # 454
010F F580          MOV     P0,A
0111 C2A7          CLR     TmcCSD
0113 C2A1          CLR     TmcCLKAD
0115 D2A1          SETB    TmcCLKAD
0117 D2A7          SETB    TmcCSD
                                           ; SOURCE LINE # 456
0119 F580          MOV     P0,A
011B C2A7          CLR     TmcCSD
011D C2A1          CLR     TmcCLKAD
011F D2A1          SETB    TmcCLKAD
0121 D2A7          SETB    TmcCSD
                                           ; SOURCE LINE # 459
0123 D2EE          SETB    TmcA0D
0125 75805A        MOV     P0,#05AH
0128 C2A7          CLR     TmcCSD
012A C2A1          CLR     TmcCLKAD
012C D2A1          SETB    TmcCLKAD
012E D2A7          SETB    TmcCSD
0130 C2EE          CLR     TmcA0D
                                           ; SOURCE LINE # 460
0132 F580          MOV     P0,A
0134 C2A7          CLR     TmcCSD
0136 C2A1          CLR     TmcCLKAD
0138 D2A1          SETB    TmcCLKAD
013A D2A7          SETB    TmcCSD
                                           ; SOURCE LINE # 475
013C D2EE          SETB    TmcA0D
013E 75805B        MOV     P0,#05BH
0141 C2A7          CLR     TmcCSD
0143 C2A1          CLR     TmcCLKAD
0145 D2A1          SETB    TmcCLKAD
0147 D2A7          SETB    TmcCSD
0149 C2EE          CLR     TmcA0D
                                           ; SOURCE LINE # 477
014B 75800D        MOV     P0,#0DH
014E C2A7          CLR     TmcCSD
C51 COMPILER V5.50,  SED1335                                                               24/07/12  10:33:51  PAGE 20  

0150 C2A1          CLR     TmcCLKAD
0152 D2A1          SETB    TmcCLKAD
0154 D2A7          SETB    TmcCSD
                                           ; SOURCE LINE # 487
0156 D2EE          SETB    TmcA0D
0158 758060        MOV     P0,#060H
015B C2A7          CLR     TmcCSD
015D C2A1          CLR     TmcCLKAD
015F D2A1          SETB    TmcCLKAD
0161 D2A7          SETB    TmcCSD
0163 C2EE          CLR     TmcA0D
                                           ; SOURCE LINE # 488
0165 F580          MOV     P0,A
0167 C2A7          CLR     TmcCSD
0169 C2A1          CLR     TmcCLKAD
016B D2A1          SETB    TmcCLKAD
016D D2A7          SETB    TmcCSD
                                           ; SOURCE LINE # 490
016F D2EE          SETB    TmcA0D
0171 758058        MOV     P0,#058H
0174 C2A7          CLR     TmcCSD
0176 C2A1          CLR     TmcCLKAD
0178 D2A1          SETB    TmcCLKAD
017A D2A7          SETB    TmcCSD
017C C2EE          CLR     TmcA0D
                                           ; SOURCE LINE # 492
017E D2EE          SETB    TmcA0D
0180 75804F        MOV     P0,#04FH
0183 C2A7          CLR     TmcCSD
0185 C2A1          CLR     TmcCLKAD
0187 D2A1          SETB    TmcCLKAD
0189 D2A7          SETB    TmcCSD
018B C2EE          CLR     TmcA0D
                                           ; SOURCE LINE # 494
018D 120000  R     LCALL   ClearRAM
                                           ; SOURCE LINE # 515
0190 D2EE          SETB    TmcA0D
0192 758059        MOV     P0,#059H
0195 C2A7          CLR     TmcCSD
0197 C2A1          CLR     TmcCLKAD
0199 D2A1          SETB    TmcCLKAD
019B D2A7          SETB    TmcCSD
019D C2EE          CLR     TmcA0D
                                           ; SOURCE LINE # 520
019F 758014        MOV     P0,#014H
01A2 C2A7          CLR     TmcCSD
01A4 C2A1          CLR     TmcCLKAD
01A6 D2A1          SETB    TmcCLKAD
01A8 D2A7          SETB    TmcCSD
                                           ; SOURCE LINE # 540
01AA E4            CLR     A
01AB FF            MOV     R7,A
01AC 120000  R     LCALL   _DisplaySetFont
                                           ; SOURCE LINE # 541
01AF D200    R     SETB    ?DisplaySetPlane?BIT
01B1 120000  R     LCALL   DisplaySetPlane
                                           ; SOURCE LINE # 542
01B4 D200    R     SETB    ?DisplayPlane?BIT
01B6 120000  R     LCALL   DisplayPlane
                                           ; SOURCE LINE # 543
01B9 C200    R     CLR     ?DisplaySetPlane?BIT
01BB 120000  R     LCALL   DisplaySetPlane
                                           ; SOURCE LINE # 544
01BE D200    R     SETB    ?DisplayPlane?BIT
01C0 120000  R     LCALL   DisplayPlane
                                           ; SOURCE LINE # 546
C51 COMPILER V5.50,  SED1335                                                               24/07/12  10:33:51  PAGE 21  

01C3 D200    R     SETB    plane1_on
                                           ; SOURCE LINE # 547
01C5 D200    R     SETB    plane2_on
                                           ; SOURCE LINE # 548
01C7 22            RET     
             ; FUNCTION DisplayInit (END)

             ; FUNCTION _DisplayOffset (BEGIN)
;---- Variable 'X' assigned to Register 'R7' ----
;---- Variable 'Y' assigned to Register 'R5' ----
                                           ; SOURCE LINE # 556
                                           ; SOURCE LINE # 558
0000 7E00          MOV     R6,#00H
0002 300006  R     JNB     _plane,?C0002
0005 7A25          MOV     R2,#025H
0007 7B80          MOV     R3,#080H
0009 8004          SJMP    ?C0003
000B         ?C0002:
000B 7A00          MOV     R2,#00H
000D 7B00          MOV     R3,#00H
000F         ?C0003:
000F EB            MOV     A,R3
0010 2F            ADD     A,R7
0011 FB            MOV     R3,A
0012 EA            MOV     A,R2
0013 3E            ADDC    A,R6
0014 FA            MOV     R2,A
0015 ED            MOV     A,R5
0016 75F028        MOV     B,#028H
0019 A4            MUL     AB
001A 2B            ADD     A,R3
001B FF            MOV     R7,A
001C E5F0          MOV     A,B
001E 3A            ADDC    A,R2
001F FE            MOV     R6,A
                                           ; SOURCE LINE # 559
0020         ?C0004:
0020 22            RET     
             ; FUNCTION _DisplayOffset (END)

             ; FUNCTION DisplaySetPlane (BEGIN)
                                           ; SOURCE LINE # 567
                                           ; SOURCE LINE # 569
                                           ; SOURCE LINE # 570
0000 A200    R     MOV     C,plane
0002 9200    R     MOV     _plane,C
                                           ; SOURCE LINE # 571
0004 22            RET     
             ; FUNCTION DisplaySetPlane (END)

             ; FUNCTION _DisplaySetFont (BEGIN)
;---- Variable 'font' assigned to Register 'R7' ----
                                           ; SOURCE LINE # 578
                                           ; SOURCE LINE # 580
                                           ; SOURCE LINE # 582
0000 EF            MOV     A,R7
0001 24FE          ADD     A,#0FEH
0003 6011          JZ      ?C0008
0005 14            DEC     A
0006 6015          JZ      ?C0009
0008 14            DEC     A
0009 6019          JZ      ?C0010
000B 2404          ADD     A,#04H
000D 701B          JNZ     ?C0011
                                           ; SOURCE LINE # 584
000F         ?C0007:
C51 COMPILER V5.50,  SED1335                                                               24/07/12  10:33:51  PAGE 22  

                                           ; SOURCE LINE # 585
000F 750000  E     MOV     _font,#HIGH FontSystem
0012 750000  E     MOV     _font+01H,#LOW FontSystem
                                           ; SOURCE LINE # 586
0015 22            RET     
                                           ; SOURCE LINE # 587
                                           ; SOURCE LINE # 596
0016         ?C0008:
                                           ; SOURCE LINE # 597
0016 750000  E     MOV     _font,#HIGH FontNumericMyriad40
0019 750000  E     MOV     _font+01H,#LOW FontNumericMyriad40
                                           ; SOURCE LINE # 598
001C 22            RET     
                                           ; SOURCE LINE # 599
                                           ; SOURCE LINE # 602
001D         ?C0009:
                                           ; SOURCE LINE # 603
001D 750000  E     MOV     _font,#HIGH FontNumericMyriad32
0020 750000  E     MOV     _font+01H,#LOW FontNumericMyriad32
                                           ; SOURCE LINE # 604
0023 22            RET     
                                           ; SOURCE LINE # 605
                                           ; SOURCE LINE # 608
0024         ?C0010:
                                           ; SOURCE LINE # 609
0024 750000  E     MOV     _font,#HIGH FontNumericTahoma18
0027 750000  E     MOV     _font+01H,#LOW FontNumericTahoma18
                                           ; SOURCE LINE # 610
                                           ; SOURCE LINE # 611
                                           ; SOURCE LINE # 613
                                           ; SOURCE LINE # 614
002A         ?C0011:
002A 22            RET     
             ; FUNCTION _DisplaySetFont (END)

             ; FUNCTION _DisplayMoveTo (BEGIN)
;---- Variable 'x' assigned to Register 'R4' ----
0000 AC07          MOV     R4,AR7
;---- Variable 'y' assigned to Register 'R5' ----
                                           ; SOURCE LINE # 621
                                           ; SOURCE LINE # 623
                                           ; SOURCE LINE # 628
0002 ED            MOV     A,R5
0003 75F028        MOV     B,#028H
0006 A4            MUL     AB
0007 FF            MOV     R7,A
0008 AEF0          MOV     R6,B
000A 300006  R     JNB     _plane,?C0012
000D 7A25          MOV     R2,#025H
000F 7B80          MOV     R3,#080H
0011 8004          SJMP    ?C0013
0013         ?C0012:
0013 7A00          MOV     R2,#00H
0015 7B00          MOV     R3,#00H
0017         ?C0013:
0017 EF            MOV     A,R7
0018 2B            ADD     A,R3
0019 F500    R     MOV     _offset+01H,A
001B EE            MOV     A,R6
001C 3A            ADDC    A,R2
001D F500    R     MOV     _offset,A
                                           ; SOURCE LINE # 630
001F EC            MOV     A,R4
0020 2500    R     ADD     A,_offset+01H
0022 F500    R     MOV     _offset+01H,A
0024 E4            CLR     A
C51 COMPILER V5.50,  SED1335                                                               24/07/12  10:33:51  PAGE 23  

0025 3500    R     ADDC    A,_offset
0027 F500    R     MOV     _offset,A
                                           ; SOURCE LINE # 633
0029 22            RET     
             ; FUNCTION _DisplayMoveTo (END)

             ; FUNCTION DisplayClear (BEGIN)
                                           ; SOURCE LINE # 642
                                           ; SOURCE LINE # 644
                                           ; SOURCE LINE # 660
0000 E4            CLR     A
0001 FF            MOV     R7,A
0002 FE            MOV     R6,A
0003 7D80          MOV     R5,#080H
0005 7C25          MOV     R4,#025H
0007 FB            MOV     R3,A
0008 120000  R     LCALL   _VideoRAMSet
                                           ; SOURCE LINE # 662
000B 7F80          MOV     R7,#080H
000D 7E25          MOV     R6,#025H
000F 7D80          MOV     R5,#080H
0011 7C25          MOV     R4,#025H
0013 E4            CLR     A
0014 FB            MOV     R3,A
0015 120000  R     LCALL   _VideoRAMSet
                                           ; SOURCE LINE # 666
0018 22            RET     
             ; FUNCTION DisplayClear (END)

             ; FUNCTION DisplayPlane (BEGIN)
                                           ; SOURCE LINE # 674
                                           ; SOURCE LINE # 676
                                           ; SOURCE LINE # 679
0000 200006  R     JB      _plane,?C0016
                                           ; SOURCE LINE # 680
0003 A200    R     MOV     C,on
0005 9200    R     MOV     plane1_on,C
                                           ; SOURCE LINE # 681
0007 8004          SJMP    ?C0017
0009         ?C0016:
                                           ; SOURCE LINE # 682
0009 A200    R     MOV     C,on
000B 9200    R     MOV     plane2_on,C
                                           ; SOURCE LINE # 683
000D         ?C0017:
                                           ; SOURCE LINE # 685
000D D2EE          SETB    TmcA0D
000F 758059        MOV     P0,#059H
0012 C2A7          CLR     TmcCSD
0014 C2A1          CLR     TmcCLKAD
0016 D2A1          SETB    TmcCLKAD
0018 D2A7          SETB    TmcCSD
001A C2EE          CLR     TmcA0D
                                           ; SOURCE LINE # 697
001C 300004  R     JNB     plane2_on,?C0018
001F 7F10          MOV     R7,#010H
0021 8002          SJMP    ?C0019
0023         ?C0018:
0023 7F00          MOV     R7,#00H
0025         ?C0019:
0025 300004  R     JNB     plane1_on,?C0020
0028 7E04          MOV     R6,#04H
002A 8002          SJMP    ?C0021
002C         ?C0020:
002C 7E00          MOV     R6,#00H
002E         ?C0021:
C51 COMPILER V5.50,  SED1335                                                               24/07/12  10:33:51  PAGE 24  

002E EE            MOV     A,R6
002F 4F            ORL     A,R7
0030 F580          MOV     P0,A
0032 C2A7          CLR     TmcCSD
0034 C2A1          CLR     TmcCLKAD
0036 D2A1          SETB    TmcCLKAD
0038 D2A7          SETB    TmcCSD
                                           ; SOURCE LINE # 700
003A 22            RET     
             ; FUNCTION DisplayPlane (END)

             ; FUNCTION _DisplayFillBox (BEGIN)
0000 8F00    R     MOV     w,R7
0002 8D00    R     MOV     h,R5
0004 8B00    R     MOV     value,R3
                                           ; SOURCE LINE # 709
                                           ; SOURCE LINE # 713
                                           ; SOURCE LINE # 717
0006 E4            CLR     A
0007 F500    R     MOV     j,A
0009         ?C0023:
0009 E500    R     MOV     A,j
000B C3            CLR     C
000C 9500    R     SUBB    A,w
000E 5038          JNC     ?C0029
                                           ; SOURCE LINE # 719
0010 AF00    R     MOV     R7,_offset+01H
0012 AE00    R     MOV     R6,_offset
0014 120000  R     LCALL   _SetCursor
                                           ; SOURCE LINE # 720
0017 D2EE          SETB    TmcA0D
0019 758042        MOV     P0,#042H
001C C2A7          CLR     TmcCSD
001E C2A1          CLR     TmcCLKAD
0020 D2A1          SETB    TmcCLKAD
0022 D2A7          SETB    TmcCSD
0024 C2EE          CLR     TmcA0D
                                           ; SOURCE LINE # 721
;---- Variable 'i' assigned to Register 'R7' ----
0026 E4            CLR     A
0027 FF            MOV     R7,A
0028         ?C0026:
0028 EF            MOV     A,R7
0029 C3            CLR     C
002A 9500    R     SUBB    A,h
002C 500E          JNC     ?C0027
                                           ; SOURCE LINE # 722
002E 850080  R     MOV     P0,value
0031 C2A7          CLR     TmcCSD
0033 C2A1          CLR     TmcCLKAD
0035 D2A1          SETB    TmcCLKAD
0037 D2A7          SETB    TmcCSD
                                           ; SOURCE LINE # 723
0039 0F            INC     R7
003A 80EC          SJMP    ?C0026
003C         ?C0027:
                                           ; SOURCE LINE # 724
003C 0500    R     INC     _offset+01H
003E E500    R     MOV     A,_offset+01H
0040 7002          JNZ     ?C0054
0042 0500    R     INC     _offset
0044         ?C0054:
                                           ; SOURCE LINE # 725
0044 0500    R     INC     j
0046 80C1          SJMP    ?C0023
                                           ; SOURCE LINE # 727
C51 COMPILER V5.50,  SED1335                                                               24/07/12  10:33:51  PAGE 25  

0048         ?C0029:
0048 22            RET     
             ; FUNCTION _DisplayFillBox (END)

             ; FUNCTION _DisplayPattern (BEGIN)
0000 8E00    R     MOV     pattern,R6
0002 8F00    R     MOV     pattern+01H,R7
0004 8D00    R     MOV     w,R5
0006 8B00    R     MOV     h,R3
                                           ; SOURCE LINE # 736
                                           ; SOURCE LINE # 740
                                           ; SOURCE LINE # 745
0008 E4            CLR     A
0009 F500    R     MOV     j,A
000B         ?C0030:
000B E500    R     MOV     A,j
000D C3            CLR     C
000E 9500    R     SUBB    A,w
0010 5047          JNC     ?C0036
                                           ; SOURCE LINE # 747
0012 AF00    R     MOV     R7,_offset+01H
0014 AE00    R     MOV     R6,_offset
0016 120000  R     LCALL   _SetCursor
                                           ; SOURCE LINE # 748
0019 D2EE          SETB    TmcA0D
001B 758042        MOV     P0,#042H
001E C2A7          CLR     TmcCSD
0020 C2A1          CLR     TmcCLKAD
0022 D2A1          SETB    TmcCLKAD
0024 D2A7          SETB    TmcCSD
0026 C2EE          CLR     TmcA0D
                                           ; SOURCE LINE # 749
;---- Variable 'i' assigned to Register 'R7' ----
0028 E4            CLR     A
0029 FF            MOV     R7,A
002A         ?C0033:
002A EF            MOV     A,R7
002B C3            CLR     C
002C 9500    R     SUBB    A,h
002E 501D          JNC     ?C0034
                                           ; SOURCE LINE # 750
0030 850082  R     MOV     DPL,pattern+01H
0033 850083  R     MOV     DPH,pattern
0036 E4            CLR     A
0037 93            MOVC    A,@A+DPTR
0038 F580          MOV     P0,A
003A C2A7          CLR     TmcCSD
003C C2A1          CLR     TmcCLKAD
003E D2A1          SETB    TmcCLKAD
0040 D2A7          SETB    TmcCSD
                                           ; SOURCE LINE # 756
0042 0500    R     INC     pattern+01H
0044 E500    R     MOV     A,pattern+01H
0046 7002          JNZ     ?C0055
0048 0500    R     INC     pattern
004A         ?C0055:
                                           ; SOURCE LINE # 757
004A 0F            INC     R7
004B 80DD          SJMP    ?C0033
004D         ?C0034:
                                           ; SOURCE LINE # 758
004D 0500    R     INC     _offset+01H
004F E500    R     MOV     A,_offset+01H
0051 7002          JNZ     ?C0056
0053 0500    R     INC     _offset
0055         ?C0056:
C51 COMPILER V5.50,  SED1335                                                               24/07/12  10:33:51  PAGE 26  

                                           ; SOURCE LINE # 759
0055 0500    R     INC     j
0057 80B2          SJMP    ?C0030
                                           ; SOURCE LINE # 762
0059         ?C0036:
0059 22            RET     
             ; FUNCTION _DisplayPattern (END)

             ; FUNCTION _DisplayGotoRC (BEGIN)
;---- Variable 'r' assigned to Register 'R6' ----
0000 AE07          MOV     R6,AR7
;---- Variable 'c' assigned to Register 'R7' ----
0002 AF05          MOV     R7,AR5
                                           ; SOURCE LINE # 771
                                           ; SOURCE LINE # 774
                                           ; SOURCE LINE # 783
0004 850082  R     MOV     DPL,_font+01H
0007 850083  R     MOV     DPH,_font
000A A3            INC     DPTR
000B E4            CLR     A
000C 93            MOVC    A,@A+DPTR
000D FD            MOV     R5,A
000E EE            MOV     A,R6
000F 8DF0          MOV     B,R5
0011 A4            MUL     AB
0012 FD            MOV     R5,A
0013 120000  R     LCALL   _DisplayMoveTo
                                           ; SOURCE LINE # 785
0016 22            RET     
             ; FUNCTION _DisplayGotoRC (END)

             ; FUNCTION _putchar (BEGIN)
0000 8F00    R     MOV     c,R7
                                           ; SOURCE LINE # 794
                                           ; SOURCE LINE # 796
                                           ; SOURCE LINE # 838
0002 E500    R     MOV     A,c
0004 640A          XRL     A,#0AH
0006 7034          JNZ     ?C0038
                                           ; SOURCE LINE # 840
0008 AE00    R     MOV     R6,_offset
000A AF00    R     MOV     R7,_offset+01H
000C FC            MOV     R4,A
000D 7D28          MOV     R5,#028H
000F 120000  E     LCALL   ?C?UIDIV
0012 8E00    R     MOV     _offset,R6
0014 8F00    R     MOV     _offset+01H,R7
                                           ; SOURCE LINE # 841
0016 7C00          MOV     R4,#00H
0018 7D28          MOV     R5,#028H
001A 120000  E     LCALL   ?C?IMUL
001D 8E00    R     MOV     _offset,R6
001F 8F00    R     MOV     _offset+01H,R7
                                           ; SOURCE LINE # 842
0021 850082  R     MOV     DPL,_font+01H
0024 850083  R     MOV     DPH,_font
0027 A3            INC     DPTR
0028 E4            CLR     A
0029 93            MOVC    A,@A+DPTR
002A 75F028        MOV     B,#028H
002D A4            MUL     AB
002E AEF0          MOV     R6,B
0030 2500    R     ADD     A,_offset+01H
0032 F500    R     MOV     _offset+01H,A
0034 EE            MOV     A,R6
0035 3500    R     ADDC    A,_offset
C51 COMPILER V5.50,  SED1335                                                               24/07/12  10:33:51  PAGE 27  

0037 F500    R     MOV     _offset,A
                                           ; SOURCE LINE # 843
0039 AF00    R     MOV     R7,c
003B 22            RET     
                                           ; SOURCE LINE # 844
003C         ?C0038:
                                           ; SOURCE LINE # 845
003C 850082  R     MOV     DPL,_font+01H
003F 850083  R     MOV     DPH,_font
0042 E4            CLR     A
0043 93            MOVC    A,@A+DPTR
0044 FF            MOV     R7,A
0045 13            RRC     A
0046 13            RRC     A
0047 13            RRC     A
0048 541F          ANL     A,#01FH
;---- Variable 'bwidth' assigned to Register 'R2' ----
004A FA            MOV     R2,A
                                           ; SOURCE LINE # 846
004B E500    R     MOV     A,c
004D 640D          XRL     A,#0DH
004F 7023          JNZ     ?C0040
                                           ; SOURCE LINE # 848
0051 EA            MOV     A,R2
0052 FF            MOV     R7,A
0053 C3            CLR     C
0054 E500    R     MOV     A,_offset+01H
0056 9F            SUBB    A,R7
0057 F500    R     MOV     _offset+01H,A
0059 E500    R     MOV     A,_offset
005B 9400          SUBB    A,#00H
005D F500    R     MOV     _offset,A
                                           ; SOURCE LINE # 849
005F A3            INC     DPTR
0060 E4            CLR     A
0061 93            MOVC    A,@A+DPTR
0062 75F028        MOV     B,#028H
0065 A4            MUL     AB
0066 AEF0          MOV     R6,B
0068 2500    R     ADD     A,_offset+01H
006A F500    R     MOV     _offset+01H,A
006C EE            MOV     A,R6
006D 3500    R     ADDC    A,_offset
006F F500    R     MOV     _offset,A
                                           ; SOURCE LINE # 850
0071 AF00    R     MOV     R7,c
0073 22            RET     
                                           ; SOURCE LINE # 851
0074         ?C0040:
                                           ; SOURCE LINE # 852
0074 E500    R     MOV     A,c
0076 700D          JNZ     ?C0041
                                           ; SOURCE LINE # 854
0078 EA            MOV     A,R2
0079 2500    R     ADD     A,_offset+01H
007B F500    R     MOV     _offset+01H,A
007D E4            CLR     A
007E 3500    R     ADDC    A,_offset
0080 F500    R     MOV     _offset,A
                                           ; SOURCE LINE # 855
0082 AF00    R     MOV     R7,c
0084 22            RET     
                                           ; SOURCE LINE # 856
0085         ?C0041:
                                           ; SOURCE LINE # 858
0085 E500    R     MOV     A,c
C51 COMPILER V5.50,  SED1335                                                               24/07/12  10:33:51  PAGE 28  

0087 24E0          ADD     A,#0E0H
0089 601B          JZ      ?C0044
008B 24F2          ADD     A,#0F2H
008D 6028          JZ      ?C0045
008F 24F4          ADD     A,#0F4H
0091 6035          JZ      ?C0046
0093 240D          ADD     A,#0DH
0095 7042          JNZ     ?C0047
                                           ; SOURCE LINE # 859
0097         ?C0043:
0097 850082  R     MOV     DPL,_font+01H
009A 850083  R     MOV     DPH,_font
009D A3            INC     DPTR
009E A3            INC     DPTR
009F A3            INC     DPTR
00A0 E4            CLR     A
00A1 93            MOVC    A,@A+DPTR
00A2 F500    R     MOV     c,A
00A4 8044          SJMP    ?C0042
                                           ; SOURCE LINE # 860
00A6         ?C0044:
00A6 E500    R     MOV     A,_font+01H
00A8 2404          ADD     A,#04H
00AA F582          MOV     DPL,A
00AC E4            CLR     A
00AD 3500    R     ADDC    A,_font
00AF F583          MOV     DPH,A
00B1 E4            CLR     A
00B2 93            MOVC    A,@A+DPTR
00B3 F500    R     MOV     c,A
00B5 8033          SJMP    ?C0042
                                           ; SOURCE LINE # 861
00B7         ?C0045:
00B7 E500    R     MOV     A,_font+01H
00B9 2405          ADD     A,#05H
00BB F582          MOV     DPL,A
00BD E4            CLR     A
00BE 3500    R     ADDC    A,_font
00C0 F583          MOV     DPH,A
00C2 E4            CLR     A
00C3 93            MOVC    A,@A+DPTR
00C4 F500    R     MOV     c,A
00C6 8022          SJMP    ?C0042
                                           ; SOURCE LINE # 862
00C8         ?C0046:
00C8 E500    R     MOV     A,_font+01H
00CA 2406          ADD     A,#06H
00CC F582          MOV     DPL,A
00CE E4            CLR     A
00CF 3500    R     ADDC    A,_font
00D1 F583          MOV     DPH,A
00D3 E4            CLR     A
00D4 93            MOVC    A,@A+DPTR
00D5 F500    R     MOV     c,A
00D7 8011          SJMP    ?C0042
                                           ; SOURCE LINE # 863
00D9         ?C0047:
00D9 850082  R     MOV     DPL,_font+01H
00DC 850083  R     MOV     DPH,_font
00DF A3            INC     DPTR
00E0 A3            INC     DPTR
00E1 E4            CLR     A
00E2 93            MOVC    A,@A+DPTR
00E3 FF            MOV     R7,A
00E4 C3            CLR     C
00E5 E500    R     MOV     A,c
C51 COMPILER V5.50,  SED1335                                                               24/07/12  10:33:51  PAGE 29  

00E7 9F            SUBB    A,R7
00E8 F500    R     MOV     c,A
                                           ; SOURCE LINE # 864
00EA         ?C0042:
                                           ; SOURCE LINE # 865
00EA 850082  R     MOV     DPL,_font+01H
00ED 850083  R     MOV     DPH,_font
00F0 A3            INC     DPTR
00F1 E4            CLR     A
00F2 93            MOVC    A,@A+DPTR
00F3 FB            MOV     R3,A
00F4 EA            MOV     A,R2
00F5 8BF0          MOV     B,R3
00F7 A4            MUL     AB
00F8 FF            MOV     R7,A
00F9 AEF0          MOV     R6,B
00FB AD00    R     MOV     R5,c
00FD ED            MOV     A,R5
00FE 33            RLC     A
00FF 95E0          SUBB    A,ACC
0101 FC            MOV     R4,A
0102 120000  E     LCALL   ?C?IMUL
;---- Variable 'index' assigned to Register 'R6/R7' ----
                                           ; SOURCE LINE # 866
0105 E500    R     MOV     A,_font+01H
0107 2407          ADD     A,#07H
0109 F582          MOV     DPL,A
010B E4            CLR     A
010C 3500    R     ADDC    A,_font
010E F583          MOV     DPH,A
0110 7401          MOV     A,#01H
0112 93            MOVC    A,@A+DPTR
0113 2F            ADD     A,R7
0114 FF            MOV     R7,A
0115 E4            CLR     A
0116 93            MOVC    A,@A+DPTR
0117 3E            ADDC    A,R6
0118 FE            MOV     R6,A
0119 AD02          MOV     R5,AR2
011B 120000  R     LCALL   _DisplayPattern
                                           ; SOURCE LINE # 867
011E AF00    R     MOV     R7,c
                                           ; SOURCE LINE # 871
0120         ?C0039:
0120 22            RET     
             ; FUNCTION _putchar (END)

             ; FUNCTION ClearRAM (BEGIN)
                                           ; SOURCE LINE # 891
                                           ; SOURCE LINE # 893
                                           ; SOURCE LINE # 901
0000 E4            CLR     A
0001 FF            MOV     R7,A
0002 FE            MOV     R6,A
0003 7D80          MOV     R5,#080H
0005 7C25          MOV     R4,#025H
0007 FB            MOV     R3,A
0008 120000  R     LCALL   _VideoRAMSet
                                           ; SOURCE LINE # 903
000B 7F80          MOV     R7,#080H
000D 7E25          MOV     R6,#025H
000F 7D80          MOV     R5,#080H
0011 7C25          MOV     R4,#025H
0013 E4            CLR     A
0014 FB            MOV     R3,A
0015 120000  R     LCALL   _VideoRAMSet
C51 COMPILER V5.50,  SED1335                                                               24/07/12  10:33:51  PAGE 30  

                                           ; SOURCE LINE # 912
0018 22            RET     
             ; FUNCTION ClearRAM (END)

             ; FUNCTION _SetCursor (BEGIN)
;---- Variable 'address' assigned to Register 'R6/R7' ----
                                           ; SOURCE LINE # 918
                                           ; SOURCE LINE # 920
                                           ; SOURCE LINE # 921
0000 D2EE          SETB    TmcA0D
0002 758046        MOV     P0,#046H
0005 C2A7          CLR     TmcCSD
0007 C2A1          CLR     TmcCLKAD
0009 D2A1          SETB    TmcCLKAD
000B D2A7          SETB    TmcCSD
000D C2EE          CLR     TmcA0D
                                           ; SOURCE LINE # 922
000F EF            MOV     A,R7
0010 F580          MOV     P0,A
0012 C2A7          CLR     TmcCSD
0014 C2A1          CLR     TmcCLKAD
0016 D2A1          SETB    TmcCLKAD
0018 D2A7          SETB    TmcCSD
                                           ; SOURCE LINE # 923
001A EE            MOV     A,R6
001B F580          MOV     P0,A
001D C2A7          CLR     TmcCSD
001F C2A1          CLR     TmcCLKAD
0021 D2A1          SETB    TmcCLKAD
0023 D2A7          SETB    TmcCSD
                                           ; SOURCE LINE # 924
0025 22            RET     
             ; FUNCTION _SetCursor (END)

             ; FUNCTION _VideoRAMSet (BEGIN)
0000 8C00    R     MOV     length,R4
0002 8D00    R     MOV     length+01H,R5
;---- Variable 'start' assigned to Register 'R6/R7' ----
;---- Variable 'ch' assigned to Register 'R3' ----
                                           ; SOURCE LINE # 930
                                           ; SOURCE LINE # 933
                                           ; SOURCE LINE # 936
0004 D2EE          SETB    TmcA0D
0006 75804C        MOV     P0,#04CH
0009 C2A7          CLR     TmcCSD
000B C2A1          CLR     TmcCLKAD
000D D2A1          SETB    TmcCLKAD
000F D2A7          SETB    TmcCSD
0011 C2EE          CLR     TmcA0D
                                           ; SOURCE LINE # 937
0013 120000  R     LCALL   _SetCursor
                                           ; SOURCE LINE # 939
0016 D2EE          SETB    TmcA0D
0018 758042        MOV     P0,#042H
001B C2A7          CLR     TmcCSD
001D C2A1          CLR     TmcCLKAD
001F D2A1          SETB    TmcCLKAD
0021 D2A7          SETB    TmcCSD
0023 C2EE          CLR     TmcA0D
                                           ; SOURCE LINE # 940
;---- Variable 'i' assigned to Register 'R6/R7' ----
0025 E4            CLR     A
0026 FF            MOV     R7,A
0027 FE            MOV     R6,A
0028         ?C0050:
0028 C3            CLR     C
C51 COMPILER V5.50,  SED1335                                                               24/07/12  10:33:51  PAGE 31  

0029 EF            MOV     A,R7
002A 9500    R     SUBB    A,length+01H
002C EE            MOV     A,R6
002D 9500    R     SUBB    A,length
002F 5011          JNC     ?C0051
                                           ; SOURCE LINE # 941
0031 8B80          MOV     P0,R3
0033 C2A7          CLR     TmcCSD
0035 C2A1          CLR     TmcCLKAD
0037 D2A1          SETB    TmcCLKAD
0039 D2A7          SETB    TmcCSD
                                           ; SOURCE LINE # 942
003B 0F            INC     R7
003C BF0001        CJNE    R7,#00H,?C0057
003F 0E            INC     R6
0040         ?C0057:
0040 80E6          SJMP    ?C0050
0042         ?C0051:
                                           ; SOURCE LINE # 943
0042 D2EE          SETB    TmcA0D
0044 75804F        MOV     P0,#04FH
0047 C2A7          CLR     TmcCSD
0049 C2A1          CLR     TmcCLKAD
004B D2A1          SETB    TmcCLKAD
004D D2A7          SETB    TmcCSD
004F C2EE          CLR     TmcA0D
                                           ; SOURCE LINE # 944
0051 22            RET     
             ; FUNCTION _VideoRAMSet (END)



MODULE INFORMATION:   STATIC OVERLAYABLE
   CODE SIZE        =   1283    ----
   CONSTANT SIZE    =   ----    ----
   XDATA SIZE       =   ----    ----
   PDATA SIZE       =   ----    ----
   DATA SIZE        =      4      12
   IDATA SIZE       =   ----    ----
   BIT SIZE         =      3       2
END OF MODULE INFORMATION.


C51 COMPILATION COMPLETE.  0 WARNING(S),  0 ERROR(S)
