C51 COMPILER V5.50,  GSMBASE                                                               10/10/09  11:56:04  PAGE 1   


DOS C51 COMPILER V5.50, COMPILATION OF MODULE GSMBASE
OBJECT MODULE PLACED IN ..\MODULY\GSM_GE\GSMBASE.OBJ
COMPILER INVOKED BY: C:\KEIL\C51_V5.5\BIN\C51.EXE ..\MODULY\GSM_GE\GSMBASE.C51 CD DB

stmt level    source

   1          //******************************************************************************
   2          //
   3          //   GsmBase.c    GSM basic services (Telit GE864-quad)
   4          //   Version 1.0  (c) VymOs
   5          //
   6          //******************************************************************************
   7          
   8          #include "..\inc\Gsm.h"
   9          #include "..\inc\System.h"   // SysDelay
  10          
  11          #ifndef GSM_COM2
  12             #include "..\inc\Com.h"
  13          #else
                 #include "..\inc\Com2sw.h"
              
                 #define ComFlushChars Com2FlushChars
                 #define ComRxChar     Com2RxChar
                 #define ComRxWait     Com2RxWait
                 #define ComTxChar     Com2TxChar
              #endif
  21          
  22          #include "..\inc\COM_util.h"
  23          
  24          // Preddefinovane retezce :
  25          
  26          static char code Ok[]          = "\r\nOK\r\n";          // ok reply
  27          static char code EchoOff[]     = "ATE0\r";              // echo off
  28          static char code ErrorMode[]   = "ATV1+CMEE=1\r";       // Extended error mode
  29          static char code TextMode[]    = "AT+CMGF=1\r";         // SMS text mode
  30          static char code SendParams1[] = "AT+CSMP=17,";         // SMS send parameters part 1 + <expiration>
  31          static char code SendParams2[] = ",0,0\r";              // SMS send parameters part 2
  32          static char code RegMode[]     = "AT#REGMODE=1\r";      // Registration mode
  33          
  34          
  35          #define TxString( s) ComFlushChars();ComTxString( s)    // pred vyslanim zrus Rx
  36          #define TO_REPLY          8                             // timeout odpovedi [100ms]
  37          #define TO_MEMORY_SWITCH 50                             // timeout pri prepnuti pameti [100ms]
  38          
  39          #ifdef GSM_DEBUG
                 byte __xdata__ GsmErrno;
                 #define TRACE( n)  GsmErrno = n;
              #else
  43             #define TRACE( n)
  44          #endif
  45          
  46          //-----------------------------------------------------------------------------
  47          // Reset
  48          //-----------------------------------------------------------------------------
  49          
  50          TYesNo GsmReset( void)
  51          // Inicializace modemu
  52          {
  53   1         // Echo off :
  54   1         TxString( EchoOff);
  55   1         if( !ComRxWait( TO_REPLY)){         // cekani na odpoved
  56   2            TRACE( 1);
  57   2            return( NO);
  58   2         }
  59   1         if( !ComWaitChar( '\n')){           // pred OK
C51 COMPILER V5.50,  GSMBASE                                                               10/10/09  11:56:04  PAGE 2   

  60   2            TRACE( 2);
  61   2            return( NO);
  62   2         }
  63   1         if( !ComWaitChar( '\n')){           // za OK
  64   2            TRACE( 3);
  65   2            return( NO);
  66   2         }
  67   1         // Extended error mode :
  68   1         ComTxString( ErrorMode);
  69   1         if( !ComRxMatch( Ok, TO_REPLY)){
  70   2            TRACE( 4);
  71   2            return( NO);
  72   2         }
  73   1         // SMS mode :
  74   1         ComTxString( TextMode);
  75   1         if( !ComRxMatch( Ok, TO_REPLY)){
  76   2            TRACE( 5);
  77   2            return( NO);
  78   2         }
  79   1         // SMS Expiration :
  80   1         TxString( SendParams1);
  81   1         ComTxDec( SMS_EXPIRATION);
  82   1         ComTxString( SendParams2);
  83   1         if( !ComRxMatch( Ok, TO_REPLY)){
  84   2            TRACE( 6);
  85   2            return( NO);
  86   2         }
  87   1         // Registration mode :
  88   1         TxString( RegMode);
  89   1         if( !ComRxMatch( Ok, TO_REPLY)){
  90   2            TRACE( 7);
  91   2            return( NO);
  92   2         }
  93   1         // Predpoklada se, ze GSM modul je jiz spravne nastaven na pamet v SIM karte
  94   1         TRACE( 0);
  95   1         return( YES);
  96   1      } // GsmReset
  97          
  98          //******************************************************************************
  99          // Registrace
 100          //******************************************************************************
 101          
 102          static char code Registered[] = "AT+CREG?\r";           // Registration
 103          static char code RegHeader[]  = "\r\n+CREG: ";          // Header of registration
 104          
 105          
 106          TYesNo GsmRegistered( void)
 107          // Vraci YES, je-li modem registrovan v siti
 108          {
 109   1      byte Value;
 110   1      
 111   1         TxString( Registered);
 112   1         if( !ComRxMatch( RegHeader, TO_REPLY)){
 113   2            TRACE( 1);
 114   2            return( NO);
 115   2         }
 116   1         if( !ComWaitChar( ',')){            // preskoc pole <n>
 117   2            TRACE( 2);
 118   2            return( NO);
 119   2         }
 120   1         Value = ComRxDec();                 // pole <stat>
 121   1         if( Value == 1 || Value == 5){
 122   2            TRACE( 0);
 123   2            return( YES);                    // registered or roaming
 124   2         }
 125   1         TRACE( 4);
C51 COMPILER V5.50,  GSMBASE                                                               10/10/09  11:56:04  PAGE 3   

 126   1         return( NO);
 127   1      } // GsmRegistered
 128          
 129          #ifdef GSM_OPERATOR
              //******************************************************************************
              // Operator
              //******************************************************************************
              
              static char code Operator[]   = "AT+COPS?\r";           // Get operator
              static char code OperHeader[] = "\r\n+COPS: ";          // operator header
              
              TYesNo GsmOperator( char xdata *Name)
              // Vrati retezec s nazvem operatora,
              // POZOR delka <Name> musi byt min SMS_MAX_OPERATOR+1
              {
                 TxString( Operator);
                 if( !ComRxMatch( OperHeader, TO_REPLY)){
                    TRACE( 1);
                    return( NO);
                 }
                 if( !ComWaitChar( ',')){            // preskoc pole <mode>
                    TRACE( 2);
                    return( NO);
                 }
                 if( !ComWaitChar( ',')){            // preskoc pole <format>
                    TRACE( 3);
                    return( NO);
                 }
                 if( !ComRxString( Name, SMS_MAX_OPERATOR)){
                    TRACE( 4);
                    return( NO);
                 }
                 TRACE( 0);
                 return( YES);
              } // GsmOperator
              
              #endif // GSM_OPERATOR
 163          
 164          #ifdef GSM_SIGNAL_STRENGTH
              //******************************************************************************
              // Sila signalu
              //******************************************************************************
              
              static char code Rssi[]       = "AT+CSQ\r";             // Get Received Signal Strength
              static char code RssiHeader[] = "\r\n+CSQ: ";           // Signal strength header
              
              byte GsmSignalStrength( void)
              // Vrati relativni silu signalu 0..31 nebo 99 nejde-li zjistit
              {
              byte Value;
              
                 TxString( Rssi);
                 if( !ComRxMatch( RssiHeader, TO_REPLY)){
                    TRACE( 1);
                    return( 99);
                 }
                 Value = ComRxDec();                 // relativni sila
                 TRACE( 0);
                 return( Value);
              } // GsmSignalStrength
              
              #endif // GSM_SIGNAL_STREGTH
 188          
 189          #ifdef GSM_SMS_MEMORY
              //-----------------------------------------------------------------------------
              // Set SMS Memory
C51 COMPILER V5.50,  GSMBASE                                                               10/10/09  11:56:04  PAGE 4   

              //-----------------------------------------------------------------------------
              
              static char code MemoryPhone[] = "AT+CPMS=\"MT\",\"MT\",\"MT\"\r";  // SMS data in the internal memory
              static char code MemorySim[]   = "AT+CPMS=\"SM\",\"SM\",\"SM\"\r";  // SMS data in the SIM memory
              static char code MemoryHeader[]= "\r\n+CPMS: ";         // Header of memory settings
              
              TYesNo SmsMemory( byte Location)
              // Nastaveni pameti SMS. <Location> viz TSmsMemory
              {
                 switch( Location){
                    case SMS_SIM_MEMORY :
                       TxString( MemorySim);
                       break;
                    case SMS_PHONE_MEMORY :
                       TxString( MemoryPhone);
                       break;
                    default :
                       TRACE( 5);
                       return( NO);
                 }
                 if( !ComRxMatch( MemoryHeader, TO_MEMORY_SWITCH)){ // prepnuti trva az nekolik sekund
                    TRACE( 1);
                    return( NO);
                 }
                 if( !ComWaitChar( '\r')){            // preskoc na konec radku
                    TRACE( 2);
                    return( NO);
                 }
                 if( !ComWaitChar( '\n')){
                    TRACE( 3);
                    return( NO);
                 }
                 if( !ComRxMatch( Ok, TO_REPLY)){    // OK
                    TRACE( 4);
                    return( NO);
                 }
                 TRACE( 0);
                 return( YES);
              } // SmsMemory
              
              #endif // GSM_SMS_MEMORY
C51 COMPILER V5.50,  GSMBASE                                                               10/10/09  11:56:04  PAGE 5   

ASSEMBLY LISTING OF GENERATED OBJECT CODE


             ; FUNCTION GsmReset (BEGIN)
                                           ; SOURCE LINE # 50
                                           ; SOURCE LINE # 52
                                           ; SOURCE LINE # 54
0000 120000  E     LCALL   ComFlushChars
0003 7E00    R     MOV     R6,#HIGH EchoOff
0005 7F00    R     MOV     R7,#LOW EchoOff
0007 120000  E     LCALL   _ComTxString
                                           ; SOURCE LINE # 55
000A 7F08          MOV     R7,#08H
000C 120000  E     LCALL   _ComRxWait
000F 4002          JC      ?C0001
                                           ; SOURCE LINE # 57
0011 C3            CLR     C
0012 22            RET     
                                           ; SOURCE LINE # 58
0013         ?C0001:
                                           ; SOURCE LINE # 59
0013 7F0A          MOV     R7,#0AH
0015 120000  E     LCALL   _ComWaitChar
0018 4002          JC      ?C0003
                                           ; SOURCE LINE # 61
001A C3            CLR     C
001B 22            RET     
                                           ; SOURCE LINE # 62
001C         ?C0003:
                                           ; SOURCE LINE # 63
001C 7F0A          MOV     R7,#0AH
001E 120000  E     LCALL   _ComWaitChar
0021 4002          JC      ?C0004
                                           ; SOURCE LINE # 65
0023 C3            CLR     C
0024 22            RET     
                                           ; SOURCE LINE # 66
0025         ?C0004:
                                           ; SOURCE LINE # 68
0025 7E00    R     MOV     R6,#HIGH ErrorMode
0027 7F00    R     MOV     R7,#LOW ErrorMode
0029 120000  E     LCALL   _ComTxString
                                           ; SOURCE LINE # 69
002C 7E00    R     MOV     R6,#HIGH Ok
002E 7F00    R     MOV     R7,#LOW Ok
0030 7D08          MOV     R5,#08H
0032 120000  E     LCALL   _ComRxMatch
0035 4002          JC      ?C0005
                                           ; SOURCE LINE # 71
0037 C3            CLR     C
0038 22            RET     
                                           ; SOURCE LINE # 72
0039         ?C0005:
                                           ; SOURCE LINE # 74
0039 7E00    R     MOV     R6,#HIGH TextMode
003B 7F00    R     MOV     R7,#LOW TextMode
003D 120000  E     LCALL   _ComTxString
                                           ; SOURCE LINE # 75
0040 7E00    R     MOV     R6,#HIGH Ok
0042 7F00    R     MOV     R7,#LOW Ok
0044 7D08          MOV     R5,#08H
0046 120000  E     LCALL   _ComRxMatch
0049 4002          JC      ?C0006
                                           ; SOURCE LINE # 77
004B C3            CLR     C
004C 22            RET     
C51 COMPILER V5.50,  GSMBASE                                                               10/10/09  11:56:04  PAGE 6   

                                           ; SOURCE LINE # 78
004D         ?C0006:
                                           ; SOURCE LINE # 80
004D 120000  E     LCALL   ComFlushChars
0050 7E00    R     MOV     R6,#HIGH SendParams1
0052 7F00    R     MOV     R7,#LOW SendParams1
0054 120000  E     LCALL   _ComTxString
                                           ; SOURCE LINE # 81
0057 7FAA          MOV     R7,#0AAH
0059 120000  E     LCALL   _ComTxDec
                                           ; SOURCE LINE # 82
005C 7E00    R     MOV     R6,#HIGH SendParams2
005E 7F00    R     MOV     R7,#LOW SendParams2
0060 120000  E     LCALL   _ComTxString
                                           ; SOURCE LINE # 83
0063 7E00    R     MOV     R6,#HIGH Ok
0065 7F00    R     MOV     R7,#LOW Ok
0067 7D08          MOV     R5,#08H
0069 120000  E     LCALL   _ComRxMatch
006C 4002          JC      ?C0007
                                           ; SOURCE LINE # 85
006E C3            CLR     C
006F 22            RET     
                                           ; SOURCE LINE # 86
0070         ?C0007:
                                           ; SOURCE LINE # 88
0070 120000  E     LCALL   ComFlushChars
0073 7E00    R     MOV     R6,#HIGH RegMode
0075 7F00    R     MOV     R7,#LOW RegMode
0077 120000  E     LCALL   _ComTxString
                                           ; SOURCE LINE # 89
007A 7E00    R     MOV     R6,#HIGH Ok
007C 7F00    R     MOV     R7,#LOW Ok
007E 7D08          MOV     R5,#08H
0080 120000  E     LCALL   _ComRxMatch
0083 4002          JC      ?C0008
                                           ; SOURCE LINE # 91
0085 C3            CLR     C
0086 22            RET     
                                           ; SOURCE LINE # 92
0087         ?C0008:
                                           ; SOURCE LINE # 95
0087 D3            SETB    C
                                           ; SOURCE LINE # 96
0088         ?C0002:
0088 22            RET     
             ; FUNCTION GsmReset (END)

             ; FUNCTION GsmRegistered (BEGIN)
                                           ; SOURCE LINE # 106
                                           ; SOURCE LINE # 108
                                           ; SOURCE LINE # 111
0000 120000  E     LCALL   ComFlushChars
0003 7E00    R     MOV     R6,#HIGH Registered
0005 7F00    R     MOV     R7,#LOW Registered
0007 120000  E     LCALL   _ComTxString
                                           ; SOURCE LINE # 112
000A 7E00    R     MOV     R6,#HIGH RegHeader
000C 7F00    R     MOV     R7,#LOW RegHeader
000E 7D08          MOV     R5,#08H
0010 120000  E     LCALL   _ComRxMatch
0013 4002          JC      ?C0009
                                           ; SOURCE LINE # 114
0015 C3            CLR     C
0016 22            RET     
                                           ; SOURCE LINE # 115
C51 COMPILER V5.50,  GSMBASE                                                               10/10/09  11:56:04  PAGE 7   

0017         ?C0009:
                                           ; SOURCE LINE # 116
0017 7F2C          MOV     R7,#02CH
0019 120000  E     LCALL   _ComWaitChar
001C 4002          JC      ?C0011
                                           ; SOURCE LINE # 118
001E C3            CLR     C
001F 22            RET     
                                           ; SOURCE LINE # 119
0020         ?C0011:
                                           ; SOURCE LINE # 120
0020 120000  E     LCALL   ComRxDec
;---- Variable 'Value' assigned to Register 'R7' ----
                                           ; SOURCE LINE # 121
0023 EF            MOV     A,R7
0024 6401          XRL     A,#01H
0026 6003          JZ      ?C0013
0028 BF0502        CJNE    R7,#05H,?C0012
002B         ?C0013:
                                           ; SOURCE LINE # 123
002B D3            SETB    C
002C 22            RET     
                                           ; SOURCE LINE # 124
002D         ?C0012:
                                           ; SOURCE LINE # 126
002D C3            CLR     C
                                           ; SOURCE LINE # 127
002E         ?C0010:
002E 22            RET     
             ; FUNCTION GsmRegistered (END)



MODULE INFORMATION:   STATIC OVERLAYABLE
   CODE SIZE        =    184    ----
   CONSTANT SIZE    =     89    ----
   XDATA SIZE       =   ----    ----
   PDATA SIZE       =   ----    ----
   DATA SIZE        =   ----    ----
   IDATA SIZE       =   ----    ----
   BIT SIZE         =   ----    ----
END OF MODULE INFORMATION.


C51 COMPILATION COMPLETE.  0 WARNING(S),  0 ERROR(S)
