C51 COMPILER V5.50,  SPI                                                                   16/08/07  16:05:51  PAGE 1   


DOS C51 COMPILER V5.50, COMPILATION OF MODULE SPI
OBJECT MODULE PLACED IN ..\MODULY\ATFLASH\SPI.OBJ
COMPILER INVOKED BY: E:\C51_V5.5\BIN\C51.EXE ..\MODULY\ATFLASH\SPI.C51 CD DB

stmt level    source

   1          //*****************************************************************************
   2          //
   3          //   Spi.c     Programmed SPI interface
   4          //   Version 1.0 (c) VymOs
   5          //
   6          //*****************************************************************************
   7          
   8          #include "..\inc\Spi.h"
   9          
  10          // Porty:
  11          #define SetSCK()  SpiSCK =  SPI_SCK_H
  12          #define ClrSCK()  SpiSCK = !SPI_SCK_H
  13          #define SetSI()   SpiSI  =  SPI_SI_H
  14          #define ClrSI()   SpiSI  = !SPI_SI_H
  15          
  16          //-----------------------------------------------------------------------------
  17          // Inicializace
  18          //-----------------------------------------------------------------------------
  19          
  20          void SpiInit( void)
  21          // Inicializace sbernice
  22          {
  23   1         SpiAttach();      // vychozi stav na sbernici
  24   1         SpiRelease();     // deselect
  25   1      } // SpiInit
  26          
  27          //-----------------------------------------------------------------------------
  28          // Cteni dat
  29          //-----------------------------------------------------------------------------
  30          
  31          byte SpiReadByte( void)
  32          // Precte byte
  33          {
  34   1      byte Value = 0;
  35   1      byte i = 8;
  36   1      
  37   1         SpiSO = 1;                // vyrazeni vystupniho budice
  38   1         do {
  39   2            SetSCK();
  40   2            Value <<= 1;
  41   2            if( SpiSO){
  42   3               Value |= 1;
  43   3            }
  44   2            ClrSCK();
  45   2         } while( --i);
  46   1         return( Value);
  47   1      } // SpiReadByte
  48          
  49          //-----------------------------------------------------------------------------
  50          // Zapis dat
  51          //-----------------------------------------------------------------------------
  52          
  53          void SpiWriteByte(byte Value)
  54          // Zapise byte
  55          {
  56   1      byte i;
  57   1      
  58   1         i = 8;
  59   1         do {
C51 COMPILER V5.50,  SPI                                                                   16/08/07  16:05:51  PAGE 2   

  60   2            if( Value & 0x80) {
  61   3               SetSI();
  62   3            } else {
  63   3               ClrSI();
  64   3            }
  65   2            SetSCK();
  66   2            Value <<= 1;
  67   2            ClrSCK();
  68   2         } while( --i);
  69   1      } // SpiWriteByte
C51 COMPILER V5.50,  SPI                                                                   16/08/07  16:05:51  PAGE 3   

ASSEMBLY LISTING OF GENERATED OBJECT CODE


             ; FUNCTION SpiInit (BEGIN)
                                           ; SOURCE LINE # 20
                                           ; SOURCE LINE # 22
                                           ; SOURCE LINE # 23
0000 C294          CLR     SpiCS
                                           ; SOURCE LINE # 24
0002 D294          SETB    SpiCS
                                           ; SOURCE LINE # 25
0004 22            RET     
             ; FUNCTION SpiInit (END)

             ; FUNCTION SpiReadByte (BEGIN)
                                           ; SOURCE LINE # 31
                                           ; SOURCE LINE # 33
                                           ; SOURCE LINE # 34
;---- Variable 'Value' assigned to Register 'R7' ----
0000 E4            CLR     A
0001 FF            MOV     R7,A
                                           ; SOURCE LINE # 35
;---- Variable 'i' assigned to Register 'R6' ----
0002 7E08          MOV     R6,#08H
                                           ; SOURCE LINE # 37
0004 D295          SETB    SpiSO
0006         ?C0004:
                                           ; SOURCE LINE # 38
                                           ; SOURCE LINE # 39
0006 D296          SETB    SpiSCK
                                           ; SOURCE LINE # 40
0008 EF            MOV     A,R7
0009 25E0          ADD     A,ACC
000B FF            MOV     R7,A
                                           ; SOURCE LINE # 41
000C 309503        JNB     SpiSO,?C0005
                                           ; SOURCE LINE # 42
000F 430701        ORL     AR7,#01H
                                           ; SOURCE LINE # 43
0012         ?C0005:
                                           ; SOURCE LINE # 44
0012 C296          CLR     SpiSCK
                                           ; SOURCE LINE # 45
0014 DEF0          DJNZ    R6,?C0004
                                           ; SOURCE LINE # 46
                                           ; SOURCE LINE # 47
0016         ?C0006:
0016 22            RET     
             ; FUNCTION SpiReadByte (END)

             ; FUNCTION _SpiWriteByte (BEGIN)
;---- Variable 'Value' assigned to Register 'R7' ----
                                           ; SOURCE LINE # 53
                                           ; SOURCE LINE # 55
                                           ; SOURCE LINE # 58
;---- Variable 'i' assigned to Register 'R6' ----
0000 7E08          MOV     R6,#08H
0002         ?C0009:
                                           ; SOURCE LINE # 59
                                           ; SOURCE LINE # 60
0002 EF            MOV     A,R7
0003 30E704        JNB     ACC.7,?C0010
                                           ; SOURCE LINE # 61
0006 D297          SETB    SpiSI
                                           ; SOURCE LINE # 62
0008 8002          SJMP    ?C0011
C51 COMPILER V5.50,  SPI                                                                   16/08/07  16:05:51  PAGE 4   

000A         ?C0010:
                                           ; SOURCE LINE # 63
000A C297          CLR     SpiSI
                                           ; SOURCE LINE # 64
000C         ?C0011:
                                           ; SOURCE LINE # 65
000C D296          SETB    SpiSCK
                                           ; SOURCE LINE # 66
000E EF            MOV     A,R7
000F 25E0          ADD     A,ACC
0011 FF            MOV     R7,A
                                           ; SOURCE LINE # 67
0012 C296          CLR     SpiSCK
                                           ; SOURCE LINE # 68
0014 DEEC          DJNZ    R6,?C0009
                                           ; SOURCE LINE # 69
0016 22            RET     
             ; FUNCTION _SpiWriteByte (END)



MODULE INFORMATION:   STATIC OVERLAYABLE
   CODE SIZE        =     51    ----
   CONSTANT SIZE    =   ----    ----
   XDATA SIZE       =   ----    ----
   PDATA SIZE       =   ----    ----
   DATA SIZE        =   ----    ----
   IDATA SIZE       =   ----    ----
   BIT SIZE         =   ----    ----
END OF MODULE INFORMATION.


C51 COMPILATION COMPLETE.  0 WARNING(S),  0 ERROR(S)
