C51 COMPILER V5.50,  ADS1241F                                                              14/09/07  10:19:46  PAGE 1   


DOS C51 COMPILER V5.50, COMPILATION OF MODULE ADS1241F
OBJECT MODULE PLACED IN ..\MODULY\ADS1241F\ADS1241F.OBJ
COMPILER INVOKED BY: E:\C51_V5.5\BIN\C51.EXE ..\MODULY\ADS1241F\ADS1241F.C51 CD DB

stmt level    source

   1          //*****************************************************************************
   2          //
   3          //    Ads1241f.c  -  A/D convertor ADS1241 single channel with filtering
   4          //    Version 1.0   (c) VymOs
   5          //
   6          //*****************************************************************************
   7          
   8          #include "..\inc\Ads1241f.h"
   9          
  10          // Plati pro SPI polaritu POL=H, klidova uroven SCLK=H
  11          
  12          // Porty :
  13          
  14          #define SetDIN()      AdcDIN  = 1
  15          #define ClrDIN()      AdcDIN  = 0
  16          #define SetSCLK()     AdcSCLK = 1
  17          #define ClrSCLK()     AdcSCLK = 0
  18          #define EnableDOUT()  AdcDOUT = 1    // priprava pro cteni
  19          
  20          #define GetDOUT()     AdcDOUT
  21          #define GetDRDY()     AdcDRDY
  22          
  23          // Adresy registru :
  24          
  25          #define ADC_SETUP      0x00    // zesileni, burnout
  26          #define ADC_MUX        0x01    // multiplexor
  27          #define ADC_ACR        0x02    // parametry prevodu
  28          #define ADC_ODAC       0x03    // ofset
  29          #define ADC_DIO        0x04    // digitalni vstupy/vystupy
  30          #define ADC_DIR        0x05    // smer DIO
  31          #define ADC_IOCON      0x06    // povoleni DIO
  32          #define ADC_OCR0       0x07    // kalibrace ofsetu
  33          #define ADC_OCR1       0x08
  34          #define ADC_OCR2       0x09
  35          #define ADC_FSR0       0x0A    // kalibrace plneho rozsahu
  36          #define ADC_FSR1       0x0B
  37          #define ADC_FSR2       0x0C
  38          #define ADC_DOR2       0x0D    // vystup dat MSB
  39          #define ADC_DOR1       0x0E    // vystup dat MIDSB
  40          #define ADC_DOR0       0x0F    // vystup dat LSB
  41          
  42          // SETUP :
  43          #define ADC_GAIN_1     0x00
  44          #define ADC_GAIN_2     0x01
  45          #define ADC_GAIN_4     0x02
  46          #define ADC_GAIN_8     0x03
  47          #define ADC_GAIN_16    0x04
  48          #define ADC_GAIN_32    0x05
  49          #define ADC_GAIN_64    0x06
  50          #define ADC_GAIN_128   0x07
  51          #define ADC_BOCS_ON    0x08      // burnout current source ON
  52          
  53          // MUX :
  54          #define ADC_NSEL0      0x01      // negative channel
  55          #define ADC_NSEL1      0x02
  56          #define ADC_NSEL2      0x04
  57          #define ADC_NSEL3      0x08
  58          #define ADC_PSEL0      0x10      // positive channel
  59          #define ADC_PSEL1      0x20
C51 COMPILER V5.50,  ADS1241F                                                              14/09/07  10:19:46  PAGE 2   

  60          #define ADC_PSEL2      0x40
  61          #define ADC_PSEL3      0x80
  62          
  63          // ACR :
  64          #define ADC_DR0        0x01      // data rate
  65          #define ADC_DR1        0x02
  66          #define ADC_FULL_RANGE 0x00      // full scale range VRef
  67          #define ADC_HALF_RANGE 0x04      // full scale range VRef/2
  68          #define ADC_BIT_ORDER  0x08      // 1-LSB first
  69          #define ADC_BUFEN      0x10      // buffer enable
  70          #define ADC_SPEED      0x20      // modulator clock speed 0-2.45MHz, 1-4.91MHz
  71          #define ADC_BIPOLAR    0x00      // 0-bipolar
  72          #define ADC_UNIPOLAR   0x40      // 1-unipolar
  73          #define ADC_DRDY       0x80      // 0-data ready
  74          
  75          #define ADC_15HZ       0x00      // perioda vzorkovani 15Hz
  76          #define ADC_7_5HZ      ADC_DR0   // perioda vzorkovani 7.5Hz
  77          #define ADC_3_75HZ     ADC_DR1   // perioda vzorkovani 3.75Hz
  78          
  79          // Prikazy :
  80          #define ADC_RDATA      0x01      // read data
  81          #define ADC_RDATAC     0x03      // read data continuously
  82          #define ADC_STOPC      0x0F      // stop read data continuously
  83          #define ADC_RREG       0x10      // read register | register address, 2nd byte number of regs-1
  84          #define ADC_WREG       0x50      // write to register | register address, 2nd byte number of regs-1
  85          #define ADC_SELFCAL    0xF0      // offset and gain self calibration
  86          #define ADC_SELFOCAL   0xF1      // self offset calibration
  87          #define ADC_SELFGCAL   0xF2      // self gain calibration
  88          #define ADC_SYSOCAL    0xF3      // system offset calibration
  89          #define ADC_SYSGCAL    0xF4      // system gain calibration
  90          #define ADC_WAKEUP     0xFB      // wakeup from SLEEP mode
  91          #define ADC_DSYNC      0xFC      // sync DRDY
  92          #define ADC_SLEEP      0xFD      // put in SLEEP mode
  93          #define ADC_RESET      0xFE      // reset to power up values
  94          
  95          // Makra :
  96          #define AdcEnable()   SetSCLK();AdcClrCS()        // nastaveni vychozich hodin + CS
  97          
  98          // Prepocet cisla kanalu MUX, diferencialni vstupy : sudy +, lichy - :
  99          #define mk_input( in)     ( ((2 * (in)) << 4) | ((2 * (in)) + 1) )
 100          
 101          
 102          #if ADC_INTERRUPT == INT_EXTERNAL0
                 // vstup INT0
                 #define AdcEnableInt()    EX0 = 1
                 #define AdcDisableInt()   EX0 = 0
                 // hodnoty pro TCON :
                 #define IEx               IE0          // flag preruseni
                 #define ITx               IT0          // hrana preruseni
              #else
 110             // vstup INT1
 111             #define AdcEnableInt()    EX1 = 1
 112             #define AdcDisableInt()   EX1 = 0
 113             // hodnoty pro TCON :
 114             #define IEx               IE1          // flag preruseni
 115             #define ITx               IT1          // hrana preruseni
 116          #endif
 117          
 118          
 119          #ifdef ADC_PREFILTER
 120             static TRawWeight Fifo[ ADC_PREFILTER];
 121             static byte       FifoPointer;
 122          #endif
 123          
 124          // Lokalni funkce :
 125          
C51 COMPILER V5.50,  ADS1241F                                                              14/09/07  10:19:46  PAGE 3   

 126          static byte ReadData( void);
 127          // Precte byte z prevodniku
 128          
 129          static void WriteData( byte value);
 130          // Zapis byte do prevodniku
 131          
 132          //-----------------------------------------------------------------------------
 133          // Inicializace
 134          //-----------------------------------------------------------------------------
 135          
 136          void AdcInit( void)
 137          // Inicializace prevodniku
 138          {
 139   1         byte i;
 140   1      
 141   1         //!!! HW reset prevodniku
 142   1         AdcEnable();
 143   1         // Pockam na reset SPI komunikace - po dobu 3 cyklu DRDY necham SCLK v klidu.
 144   1         // Bez tohoto se ADC casto nezinicializoval, zrejme to naclockovalo nejake sumy na sbernici (i kdyz je 
             -prevodnik nesdileny).
 145   1         for (i = 0; i < 3; i++) {
 146   2           WatchDog();
 147   2           while (!GetDRDY());   // wait for /DRDY = 1
 148   2           while (GetDRDY());    // wait for /DRDY = 0
 149   2         }//for
 150   1         WriteData( ADC_RESET);
 151   1         for (i = 0; i < 16; i++);        // wait 16 Tosc po prikazu RESET (cas t11)
 152   1         AdcSetup();      // provede deselect
 153   1         FilterStop();    // vychozi stav filtru
 154   1      } // AdcInit
 155          
 156          //-----------------------------------------------------------------------------
 157          // Kalibrace
 158          //-----------------------------------------------------------------------------
 159          
 160          void AdcSetup( void)
 161          // Nastaveni prevodu, autokalibrace
 162          {
 163   1         byte i;
 164   1      
 165   1         AdcEnable();
 166   1         // Od registru SETUP:
 167   1         // Pred kalibraci je treba nastavit zesileni 1 a RANGE 1
 168   1         WriteData( ADC_WREG | ADC_SETUP);
 169   1         WriteData( 6);                                 // pocet registru - 1
 170   1         WriteData( ADC_GAIN_1);                        // SETUP
 171   1         WriteData( mk_input( 0));                      // MUX kanal 0
 172   1         WriteData( ADC_POLARITY   | ADC_SPEED |
 173   1                    ADC_FULL_RANGE | ADC_RATE);         // ACR
 174   1         WriteData( 0);                                 // ODAC
 175   1         WriteData( 0);                                 // DIO
 176   1         WriteData( 0);                                 // DIR
 177   1         WriteData( 0);                                 // IOCON
 178   1      
 179   1         // Autokalibrace zesileni :
 180   1         WriteData( ADC_SELFGCAL);
 181   1         // Pockam 2 pulsy DRDY, nez muzu clockovat dalsi prikaz (cas t11)
 182   1         for (i = 0; i < 2; i++) {
 183   2           WatchDog();
 184   2           while (!GetDRDY());   // wait for /DRDY = 1
 185   2           while (GetDRDY());    // wait for /DRDY = 0
 186   2         }//for
 187   1      
 188   1         // Autokalibrace ofsetu pri danem zesileni :
 189   1         WriteData( ADC_WREG | ADC_SETUP);
 190   1         WriteData( 0);                                 // pocet registru - 1
C51 COMPILER V5.50,  ADS1241F                                                              14/09/07  10:19:46  PAGE 4   

 191   1         WriteData( ADC_GAIN);                          // SETUP
 192   1         WriteData( ADC_SELFOCAL);
 193   1         // Pockam 2 pulsy DRDY, nez muzu clockovat dalsi prikaz (cas t11)
 194   1         for (i = 0; i < 2; i++) {
 195   2           WatchDog();
 196   2           while (!GetDRDY());   // wait for /DRDY = 1
 197   2           while (GetDRDY());    // wait for /DRDY = 0
 198   2         }//for
 199   1      
 200   1         // Po kalibraci nastavim zadany RANGE
 201   1         WriteData( ADC_WREG | ADC_ACR);
 202   1         WriteData( 0);                                 // pocet registru - 1
 203   1         WriteData( ADC_POLARITY | ADC_SPEED |
 204   1                    ADC_RANGE    | ADC_RATE);           // ACR
 205   1      
 206   1         AdcSetCS();
 207   1      } // AdcSetup
 208          
 209          //-----------------------------------------------------------------------------
 210          // Multiplexor
 211          //-----------------------------------------------------------------------------
 212          
 213          void AdcSelectInput( byte Channel)
 214          // Prepnuti multiplexoru
 215          {
 216   1      byte Mux;
 217   1      
 218   1         Mux = mk_input( Channel);
 219   1         AdcEnable();
 220   1         WriteData( ADC_WREG | ADC_MUX);
 221   1         WriteData( 0);                            // pocet registru - 1
 222   1         WriteData( Mux);                          // MUX
 223   1         AdcSetCS();
 224   1      } // AdcSelectInput
 225          
 226          //-----------------------------------------------------------------------------
 227          // Cteni dat
 228          //-----------------------------------------------------------------------------
 229          
 230          dword AdcReadValue( void)
 231          // Precteni namerene hodnoty
 232          {
 233   1      union {
 234   1         dword dw;           // array[ 0] = MSB ... array[ 3] = LSB
 235   1         byte  array[ 4];
 236   1      } Data;
 237   1      byte i;
 238   1      
 239   1         AdcEnable();
 240   1         WriteData( ADC_RDATA);
 241   1         EnableDOUT();   // povoleni cteni
 242   1         for( i = 0; i < 20; i++);                            // wait >10us for DOUT (10.11.2004: radeji zvetsen
             -o na 20)
 243   1         Data.array[ 1] = ReadData();
 244   1         Data.array[ 2] = ReadData();
 245   1         Data.array[ 3] = ReadData();
 246   1         Data.array[ 0] = (Data.array[ 1] & 0x80) ? 0xFF : 0; // znamenko
 247   1         AdcSetCS();
 248   1         return( Data.dw);
 249   1      } // AdcReadValue
 250          
 251          //-----------------------------------------------------------------------------
 252          // SPI Cteni dat
 253          //-----------------------------------------------------------------------------
 254          
 255          static byte ReadData( void)
C51 COMPILER V5.50,  ADS1241F                                                              14/09/07  10:19:46  PAGE 5   

 256          // Precte byte z prevodniku
 257          {
 258   1      byte value;
 259   1      byte i;
 260   1      
 261   1         value  = 0;
 262   1         i = 8;
 263   1         do {
 264   2            ClrSCLK();
 265   2            value <<= 1;
 266   2            if( GetDOUT()){
 267   3               value |= 1;
 268   3            }
 269   2            SetSCLK();
 270   2         } while( --i);
 271   1         return( value);
 272   1      } // ReadData
 273          
 274          //-----------------------------------------------------------------------------
 275          // SPI Zapis dat
 276          //-----------------------------------------------------------------------------
 277          
 278          static void WriteData( byte value)
 279          // Zapis byte do prevodniku
 280          {
 281   1      byte i;
 282   1      
 283   1         i = 8;
 284   1         do {
 285   2            ClrSCLK();
 286   2            if( value & 0x80){
 287   3               SetDIN();
 288   3            } else {
 289   3               ClrDIN();
 290   3            }
 291   2            SetSCLK();
 292   2            value <<= 1;
 293   2         } while( --i);
 294   1      } // WriteData
 295          
 296          //-----------------------------------------------------------------------------
 297          // Start
 298          //-----------------------------------------------------------------------------
 299          
 300          void AdcStart( byte Channel)
 301          // Zahajeni periodickeho mereni
 302          {
 303   1      #ifdef ADC_PREFILTER
 304   1      byte i;
 305   1      
 306   1         for( i = 0; i < ADC_PREFILTER; i++){
 307   2            Fifo[ i] = 0;
 308   2         }
 309   1         FifoPointer = 0;
 310   1      #endif
 311   1         AdcDisableInt();
 312   1         AdcSelectInput( Channel);  // MUX na pozadovany kanal
 313   1         AdcSetup();                // inicializace
 314   1         FilterStart();             // start filtru
 315   1         ITx        = 1;            // sestupna hrana
 316   1         IEx        = 0;            // zrus priznak
 317   1         AdcEnableInt();
 318   1      } // AdcStart
 319          
 320          //-----------------------------------------------------------------------------
 321          // Stop
C51 COMPILER V5.50,  ADS1241F                                                              14/09/07  10:19:46  PAGE 6   

 322          //-----------------------------------------------------------------------------
 323          
 324          void AdcStop( void)
 325          // Zastaveni periodickeho mereni
 326          {
 327   1         AdcDisableInt();
 328   1         FilterStop();
 329   1      } // AdcStop
 330          
 331          //-----------------------------------------------------------------------------
 332          // Cteni
 333          //-----------------------------------------------------------------------------
 334          
 335          TRawWeight AdcRawRead( void)
 336          // Cteni okamzite hodnoty prevodu
 337          {
 338   1      TRawWeight Value;
 339   1      
 340   1         AdcDisableInt();
 341   1         Value = FilterRecord.RawWeight;    // okamzita hmotnost
 342   1         AdcEnableInt();
 343   1         return( Value);
 344   1      } // AdcRawRead
 345          
 346          //-----------------------------------------------------------------------------
 347          // Cteni
 348          //-----------------------------------------------------------------------------
 349          
 350          TRawWeight AdcRead( void)
 351          // Cteni ustalene hodnoty (volat jen po AdcDataReady = true)
 352          // Vrati rozdil ustalenych hodnot
 353          {
 354   1         ClrFilterReady();                 // handshake
 355   1         return( FilterRecord.Weight - FilterRecord.LastStableWeight);
 356   1      } // AdcRead
 357          
 358          //-----------------------------------------------------------------------------
 359          // Prerusovaci rutina externiho vstupu
 360          //-----------------------------------------------------------------------------
 361          
 362          static void IntHandler( void) interrupt ADC_INTERRUPT
 363          // Preruseni od externiho vstupu
 364          {
 365   1      TRawWeight  AdcValue;
 366   1      #ifdef ADC_PREFILTER
 367   1      TLongWeight FifoSum;
 368   1      byte        i;
 369   1      #endif
 370   1      
 371   1         AdcValue  = AdcReadValue();     // precti prevod
 372   1      #ifdef ADC_PREFILTER
 373   1         Fifo[ FifoPointer++] = AdcValue;
 374   1         if( FifoPointer >= ADC_PREFILTER){
 375   2            FifoPointer = 0;
 376   2         }
 377   1         FifoSum = 0;
 378   1         for( i = 0; i < ADC_PREFILTER; i++){
 379   2            FifoSum += Fifo[ i];
 380   2         }
 381   1         AdcValue = FifoSum / ADC_PREFILTER;
 382   1      #endif
 383   1         FilterNextSample( AdcValue);    // aktualizuj filtraci
 384   1      } // IntHandler
 385          
C51 COMPILER V5.50,  ADS1241F                                                              14/09/07  10:19:46  PAGE 7   

ASSEMBLY LISTING OF GENERATED OBJECT CODE


             ; FUNCTION AdcInit (BEGIN)
                                           ; SOURCE LINE # 136
                                           ; SOURCE LINE # 138
                                           ; SOURCE LINE # 142
0000 D2B4          SETB    BatCLKAD
                                           ; SOURCE LINE # 145
0002 E4            CLR     A
0003 F500    R     MOV     i,A
0005         ?C0001:
                                           ; SOURCE LINE # 146
0005 75A61E        MOV     WDTRST,#01EH
0008 75A6E1        MOV     WDTRST,#0E1H
000B         ?C0004:
                                           ; SOURCE LINE # 147
000B 30B3FD        JNB     BatDRAD,?C0004
000E         ?C0006:
                                           ; SOURCE LINE # 148
000E 20B3FD        JB      BatDRAD,?C0006
                                           ; SOURCE LINE # 149
0011         ?C0003:
0011 0500    R     INC     i
0013 E500    R     MOV     A,i
0015 B403ED        CJNE    A,#03H,?C0001
0018         ?C0002:
                                           ; SOURCE LINE # 150
0018 7FFE          MOV     R7,#0FEH
001A 120000  R     LCALL   _WriteData
                                           ; SOURCE LINE # 151
001D E4            CLR     A
001E F500    R     MOV     i,A
0020         ?C0008:
0020 0500    R     INC     i
0022 E500    R     MOV     A,i
0024 B410F9        CJNE    A,#010H,?C0008
0027         ?C0009:
                                           ; SOURCE LINE # 152
0027 120000  R     LCALL   AdcSetup
                                           ; SOURCE LINE # 153
002A 120000  E     LCALL   FilterStop
                                           ; SOURCE LINE # 154
002D 22            RET     
             ; FUNCTION AdcInit (END)

             ; FUNCTION AdcSetup (BEGIN)
                                           ; SOURCE LINE # 160
                                           ; SOURCE LINE # 162
                                           ; SOURCE LINE # 165
0000 D2B4          SETB    BatCLKAD
                                           ; SOURCE LINE # 168
0002 7F50          MOV     R7,#050H
0004 120000  R     LCALL   _WriteData
                                           ; SOURCE LINE # 169
0007 7F06          MOV     R7,#06H
0009 120000  R     LCALL   _WriteData
                                           ; SOURCE LINE # 170
000C E4            CLR     A
000D FF            MOV     R7,A
000E 120000  R     LCALL   _WriteData
                                           ; SOURCE LINE # 171
0011 7F01          MOV     R7,#01H
0013 120000  R     LCALL   _WriteData
                                           ; SOURCE LINE # 172
0016 7F21          MOV     R7,#021H
C51 COMPILER V5.50,  ADS1241F                                                              14/09/07  10:19:46  PAGE 8   

0018 120000  R     LCALL   _WriteData
                                           ; SOURCE LINE # 174
001B E4            CLR     A
001C FF            MOV     R7,A
001D 120000  R     LCALL   _WriteData
                                           ; SOURCE LINE # 175
0020 E4            CLR     A
0021 FF            MOV     R7,A
0022 120000  R     LCALL   _WriteData
                                           ; SOURCE LINE # 176
0025 E4            CLR     A
0026 FF            MOV     R7,A
0027 120000  R     LCALL   _WriteData
                                           ; SOURCE LINE # 177
002A E4            CLR     A
002B FF            MOV     R7,A
002C 120000  R     LCALL   _WriteData
                                           ; SOURCE LINE # 180
002F 7FF2          MOV     R7,#0F2H
0031 120000  R     LCALL   _WriteData
                                           ; SOURCE LINE # 182
0034 E4            CLR     A
0035 F500    R     MOV     i,A
0037         ?C0012:
                                           ; SOURCE LINE # 183
0037 75A61E        MOV     WDTRST,#01EH
003A 75A6E1        MOV     WDTRST,#0E1H
003D         ?C0015:
                                           ; SOURCE LINE # 184
003D 30B3FD        JNB     BatDRAD,?C0015
0040         ?C0017:
                                           ; SOURCE LINE # 185
0040 20B3FD        JB      BatDRAD,?C0017
                                           ; SOURCE LINE # 186
0043         ?C0014:
0043 0500    R     INC     i
0045 E500    R     MOV     A,i
0047 B402ED        CJNE    A,#02H,?C0012
004A         ?C0013:
                                           ; SOURCE LINE # 189
004A 7F50          MOV     R7,#050H
004C 120000  R     LCALL   _WriteData
                                           ; SOURCE LINE # 190
004F E4            CLR     A
0050 FF            MOV     R7,A
0051 120000  R     LCALL   _WriteData
                                           ; SOURCE LINE # 191
0054 7F01          MOV     R7,#01H
0056 120000  R     LCALL   _WriteData
                                           ; SOURCE LINE # 192
0059 7FF1          MOV     R7,#0F1H
005B 120000  R     LCALL   _WriteData
                                           ; SOURCE LINE # 194
005E E4            CLR     A
005F F500    R     MOV     i,A
0061         ?C0019:
                                           ; SOURCE LINE # 195
0061 75A61E        MOV     WDTRST,#01EH
0064 75A6E1        MOV     WDTRST,#0E1H
0067         ?C0022:
                                           ; SOURCE LINE # 196
0067 30B3FD        JNB     BatDRAD,?C0022
006A         ?C0024:
                                           ; SOURCE LINE # 197
006A 20B3FD        JB      BatDRAD,?C0024
                                           ; SOURCE LINE # 198
C51 COMPILER V5.50,  ADS1241F                                                              14/09/07  10:19:46  PAGE 9   

006D         ?C0021:
006D 0500    R     INC     i
006F E500    R     MOV     A,i
0071 B402ED        CJNE    A,#02H,?C0019
0074         ?C0020:
                                           ; SOURCE LINE # 201
0074 7F52          MOV     R7,#052H
0076 120000  R     LCALL   _WriteData
                                           ; SOURCE LINE # 202
0079 E4            CLR     A
007A FF            MOV     R7,A
007B 120000  R     LCALL   _WriteData
                                           ; SOURCE LINE # 203
007E 7F25          MOV     R7,#025H
0080 120000  R     LCALL   _WriteData
                                           ; SOURCE LINE # 207
0083 22            RET     
             ; FUNCTION AdcSetup (END)

             ; FUNCTION _AdcSelectInput (BEGIN)
;---- Variable 'Channel' assigned to Register 'R7' ----
                                           ; SOURCE LINE # 213
                                           ; SOURCE LINE # 215
                                           ; SOURCE LINE # 218
0000 EF            MOV     A,R7
0001 25E0          ADD     A,ACC
0003 FE            MOV     R6,A
0004 C4            SWAP    A
0005 54F0          ANL     A,#0F0H
0007 FD            MOV     R5,A
0008 EE            MOV     A,R6
0009 04            INC     A
000A 4D            ORL     A,R5
000B F500    R     MOV     Mux,A
                                           ; SOURCE LINE # 219
000D D2B4          SETB    BatCLKAD
                                           ; SOURCE LINE # 220
000F 7F51          MOV     R7,#051H
0011 120000  R     LCALL   _WriteData
                                           ; SOURCE LINE # 221
0014 E4            CLR     A
0015 FF            MOV     R7,A
0016 120000  R     LCALL   _WriteData
                                           ; SOURCE LINE # 222
0019 AF00    R     MOV     R7,Mux
001B 120000  R     LCALL   _WriteData
                                           ; SOURCE LINE # 224
001E 22            RET     
             ; FUNCTION _AdcSelectInput (END)

             ; FUNCTION AdcReadValue (BEGIN)
                                           ; SOURCE LINE # 230
                                           ; SOURCE LINE # 232
                                           ; SOURCE LINE # 239
0000 D2B4          SETB    BatCLKAD
                                           ; SOURCE LINE # 240
0002 7F01          MOV     R7,#01H
0004 120000  R     LCALL   _WriteData
                                           ; SOURCE LINE # 241
0007 D2B7          SETB    BatDATAAD
                                           ; SOURCE LINE # 242
;---- Variable 'i' assigned to Register 'R7' ----
0009 E4            CLR     A
000A FF            MOV     R7,A
000B         ?C0028:
000B 0F            INC     R7
C51 COMPILER V5.50,  ADS1241F                                                              14/09/07  10:19:46  PAGE 10  

000C BF14FC        CJNE    R7,#014H,?C0028
000F         ?C0029:
                                           ; SOURCE LINE # 243
000F 120000  R     LCALL   ReadData
0012 8F00    R     MOV     Data+01H,R7
                                           ; SOURCE LINE # 244
0014 120000  R     LCALL   ReadData
0017 8F00    R     MOV     Data+02H,R7
                                           ; SOURCE LINE # 245
0019 120000  R     LCALL   ReadData
001C 8F00    R     MOV     Data+03H,R7
                                           ; SOURCE LINE # 246
001E E500    R     MOV     A,Data+01H
0020 30E704        JNB     ACC.7,?C0031
0023 7FFF          MOV     R7,#0FFH
0025 8002          SJMP    ?C0032
0027         ?C0031:
0027 7F00          MOV     R7,#00H
0029         ?C0032:
0029 8F00    R     MOV     Data,R7
                                           ; SOURCE LINE # 248
002B AF00    R     MOV     R7,Data+03H
002D AE00    R     MOV     R6,Data+02H
002F AD00    R     MOV     R5,Data+01H
0031 AC00    R     MOV     R4,Data
                                           ; SOURCE LINE # 249
0033         ?C0033:
0033 22            RET     
             ; FUNCTION AdcReadValue (END)

             ; FUNCTION ReadData (BEGIN)
                                           ; SOURCE LINE # 255
                                           ; SOURCE LINE # 257
                                           ; SOURCE LINE # 261
;---- Variable 'value' assigned to Register 'R7' ----
0000 E4            CLR     A
0001 FF            MOV     R7,A
                                           ; SOURCE LINE # 262
;---- Variable 'i' assigned to Register 'R6' ----
0002 7E08          MOV     R6,#08H
0004         ?C0036:
                                           ; SOURCE LINE # 263
                                           ; SOURCE LINE # 264
0004 C2B4          CLR     BatCLKAD
                                           ; SOURCE LINE # 265
0006 EF            MOV     A,R7
0007 25E0          ADD     A,ACC
0009 FF            MOV     R7,A
                                           ; SOURCE LINE # 266
000A 30B703        JNB     BatDATAAD,?C0037
                                           ; SOURCE LINE # 267
000D 430701        ORL     AR7,#01H
                                           ; SOURCE LINE # 268
0010         ?C0037:
                                           ; SOURCE LINE # 269
0010 D2B4          SETB    BatCLKAD
                                           ; SOURCE LINE # 270
0012 DEF0          DJNZ    R6,?C0036
                                           ; SOURCE LINE # 271
                                           ; SOURCE LINE # 272
0014         ?C0038:
0014 22            RET     
             ; FUNCTION ReadData (END)

             ; FUNCTION _WriteData (BEGIN)
;---- Variable 'value' assigned to Register 'R7' ----
C51 COMPILER V5.50,  ADS1241F                                                              14/09/07  10:19:46  PAGE 11  

                                           ; SOURCE LINE # 278
                                           ; SOURCE LINE # 280
                                           ; SOURCE LINE # 283
;---- Variable 'i' assigned to Register 'R6' ----
0000 7E08          MOV     R6,#08H
0002         ?C0041:
                                           ; SOURCE LINE # 284
                                           ; SOURCE LINE # 285
0002 C2B4          CLR     BatCLKAD
                                           ; SOURCE LINE # 286
0004 EF            MOV     A,R7
0005 30E704        JNB     ACC.7,?C0042
                                           ; SOURCE LINE # 287
0008 D2B7          SETB    BatDATAAD
                                           ; SOURCE LINE # 288
000A 8002          SJMP    ?C0043
000C         ?C0042:
                                           ; SOURCE LINE # 289
000C C2B7          CLR     BatDATAAD
                                           ; SOURCE LINE # 290
000E         ?C0043:
                                           ; SOURCE LINE # 291
000E D2B4          SETB    BatCLKAD
                                           ; SOURCE LINE # 292
0010 EF            MOV     A,R7
0011 25E0          ADD     A,ACC
0013 FF            MOV     R7,A
                                           ; SOURCE LINE # 293
0014 DEEC          DJNZ    R6,?C0041
                                           ; SOURCE LINE # 294
0016 22            RET     
             ; FUNCTION _WriteData (END)

             ; FUNCTION _AdcStart (BEGIN)
;---- Variable 'Channel' assigned to Register 'R7' ----
                                           ; SOURCE LINE # 300
                                           ; SOURCE LINE # 302
                                           ; SOURCE LINE # 306
;---- Variable 'i' assigned to Register 'R6' ----
0000 E4            CLR     A
0001 FE            MOV     R6,A
0002         ?C0045:
                                           ; SOURCE LINE # 307
0002 7E0C          MOV     R6,#0CH
0004 7800    R     MOV     R0,#Fifo
0006 E4            CLR     A
0007         ?C0057:
0007 F6            MOV     @R0,A
0008 08            INC     R0
0009 DEFC          DJNZ    R6,?C0057
                                           ; SOURCE LINE # 308
000B         ?C0046:
                                           ; SOURCE LINE # 309
000B E4            CLR     A
000C F500    R     MOV     FifoPointer,A
                                           ; SOURCE LINE # 311
000E C2AA          CLR     EX1
                                           ; SOURCE LINE # 312
0010 120000  R     LCALL   _AdcSelectInput
                                           ; SOURCE LINE # 313
0013 120000  R     LCALL   AdcSetup
                                           ; SOURCE LINE # 314
0016 120000  E     LCALL   FilterStart
                                           ; SOURCE LINE # 315
0019 D28A          SETB    IT1
                                           ; SOURCE LINE # 316
C51 COMPILER V5.50,  ADS1241F                                                              14/09/07  10:19:46  PAGE 12  

001B C28B          CLR     IE1
                                           ; SOURCE LINE # 317
001D D2AA          SETB    EX1
                                           ; SOURCE LINE # 318
001F 22            RET     
             ; FUNCTION _AdcStart (END)

             ; FUNCTION AdcStop (BEGIN)
                                           ; SOURCE LINE # 324
                                           ; SOURCE LINE # 326
                                           ; SOURCE LINE # 327
0000 C2AA          CLR     EX1
                                           ; SOURCE LINE # 328
0002 120000  E     LCALL   FilterStop
                                           ; SOURCE LINE # 329
0005 22            RET     
             ; FUNCTION AdcStop (END)

             ; FUNCTION AdcRawRead (BEGIN)
                                           ; SOURCE LINE # 335
                                           ; SOURCE LINE # 337
                                           ; SOURCE LINE # 340
0000 C2AA          CLR     EX1
                                           ; SOURCE LINE # 341
0002 900000  E     MOV     DPTR,#FilterRecord+03H
0005 E0            MOVX    A,@DPTR
0006 FC            MOV     R4,A
0007 A3            INC     DPTR
0008 E0            MOVX    A,@DPTR
0009 FD            MOV     R5,A
000A A3            INC     DPTR
000B E0            MOVX    A,@DPTR
000C FE            MOV     R6,A
000D A3            INC     DPTR
000E E0            MOVX    A,@DPTR
000F FF            MOV     R7,A
;---- Variable 'Value' assigned to Register 'R4/R5/R6/R7' ----
                                           ; SOURCE LINE # 342
0010 D2AA          SETB    EX1
                                           ; SOURCE LINE # 343
                                           ; SOURCE LINE # 344
0012         ?C0050:
0012 22            RET     
             ; FUNCTION AdcRawRead (END)

             ; FUNCTION AdcRead (BEGIN)
                                           ; SOURCE LINE # 350
                                           ; SOURCE LINE # 353
                                           ; SOURCE LINE # 354
0000 900000  E     MOV     DPTR,#FilterRecord
0003 E0            MOVX    A,@DPTR
0004 547F          ANL     A,#07FH
0006 F0            MOVX    @DPTR,A
                                           ; SOURCE LINE # 355
0007 900000  E     MOV     DPTR,#FilterRecord+0FH
000A E0            MOVX    A,@DPTR
000B F8            MOV     R0,A
000C A3            INC     DPTR
000D E0            MOVX    A,@DPTR
000E F9            MOV     R1,A
000F A3            INC     DPTR
0010 E0            MOVX    A,@DPTR
0011 FA            MOV     R2,A
0012 A3            INC     DPTR
0013 E0            MOVX    A,@DPTR
0014 FB            MOV     R3,A
C51 COMPILER V5.50,  ADS1241F                                                              14/09/07  10:19:46  PAGE 13  

0015 A3            INC     DPTR
0016 E0            MOVX    A,@DPTR
0017 FC            MOV     R4,A
0018 A3            INC     DPTR
0019 E0            MOVX    A,@DPTR
001A FD            MOV     R5,A
001B A3            INC     DPTR
001C E0            MOVX    A,@DPTR
001D FE            MOV     R6,A
001E A3            INC     DPTR
001F E0            MOVX    A,@DPTR
0020 C3            CLR     C
0021 9B            SUBB    A,R3
0022 FF            MOV     R7,A
0023 EE            MOV     A,R6
0024 9A            SUBB    A,R2
0025 FE            MOV     R6,A
0026 ED            MOV     A,R5
0027 99            SUBB    A,R1
0028 FD            MOV     R5,A
0029 EC            MOV     A,R4
002A 98            SUBB    A,R0
002B FC            MOV     R4,A
                                           ; SOURCE LINE # 356
002C         ?C0051:
002C 22            RET     
             ; FUNCTION AdcRead (END)

             ; FUNCTION IntHandler (BEGIN)
0000 C0E0          PUSH    ACC
0002 C0F0          PUSH    B
0004 C083          PUSH    DPH
0006 C082          PUSH    DPL
0008 C0D0          PUSH    PSW
000A 75D000        MOV     PSW,#00H
000D C000          PUSH    AR0
000F C001          PUSH    AR1
0011 C002          PUSH    AR2
0013 C003          PUSH    AR3
0015 C004          PUSH    AR4
0017 C005          PUSH    AR5
0019 C006          PUSH    AR6
001B C007          PUSH    AR7
                                           ; SOURCE LINE # 362
                                           ; SOURCE LINE # 371
001D 120000  R     LCALL   AdcReadValue
0020 8F00    R     MOV     AdcValue+03H,R7
0022 8E00    R     MOV     AdcValue+02H,R6
0024 8D00    R     MOV     AdcValue+01H,R5
0026 8C00    R     MOV     AdcValue,R4
                                           ; SOURCE LINE # 373
0028 AB00    R     MOV     R3,FifoPointer
002A 0500    R     INC     FifoPointer
002C EB            MOV     A,R3
002D 25E0          ADD     A,ACC
002F 25E0          ADD     A,ACC
0031 2400    R     ADD     A,#Fifo
0033 F8            MOV     R0,A
0034 120000  E     LCALL   ?C?LSTIDATA
                                           ; SOURCE LINE # 374
0037 E500    R     MOV     A,FifoPointer
0039 C3            CLR     C
003A 9403          SUBB    A,#03H
003C 4003          JC      ?C0052
                                           ; SOURCE LINE # 375
003E 750000  R     MOV     FifoPointer,#00H
C51 COMPILER V5.50,  ADS1241F                                                              14/09/07  10:19:46  PAGE 14  

                                           ; SOURCE LINE # 376
0041         ?C0052:
                                           ; SOURCE LINE # 377
0041 750000  R     MOV     FifoSum+03H,#00H
0044 750000  R     MOV     FifoSum+02H,#00H
0047 750000  R     MOV     FifoSum+01H,#00H
004A 750000  R     MOV     FifoSum,#00H
                                           ; SOURCE LINE # 378
;---- Variable 'i' assigned to Register 'R3' ----
004D E4            CLR     A
004E FB            MOV     R3,A
004F         ?C0053:
                                           ; SOURCE LINE # 379
004F EB            MOV     A,R3
0050 25E0          ADD     A,ACC
0052 25E0          ADD     A,ACC
0054 2400    R     ADD     A,#Fifo
0056 F8            MOV     R0,A
0057 120000  E     LCALL   ?C?LLDIDATA
005A E500    R     MOV     A,FifoSum+03H
005C 2F            ADD     A,R7
005D F500    R     MOV     FifoSum+03H,A
005F E500    R     MOV     A,FifoSum+02H
0061 3E            ADDC    A,R6
0062 F500    R     MOV     FifoSum+02H,A
0064 E500    R     MOV     A,FifoSum+01H
0066 3D            ADDC    A,R5
0067 F500    R     MOV     FifoSum+01H,A
0069 E500    R     MOV     A,FifoSum
006B 3C            ADDC    A,R4
006C F500    R     MOV     FifoSum,A
                                           ; SOURCE LINE # 380
006E 0B            INC     R3
006F BB03DD        CJNE    R3,#03H,?C0053
0072         ?C0054:
                                           ; SOURCE LINE # 381
0072 7B03          MOV     R3,#03H
0074 7A00          MOV     R2,#00H
0076 7900          MOV     R1,#00H
0078 7800          MOV     R0,#00H
007A AF00    R     MOV     R7,FifoSum+03H
007C AE00    R     MOV     R6,FifoSum+02H
007E AD00    R     MOV     R5,FifoSum+01H
0080 AC00    R     MOV     R4,FifoSum
0082 120000  E     LCALL   ?C?SLDIV
0085 8F00    R     MOV     AdcValue+03H,R7
0087 8E00    R     MOV     AdcValue+02H,R6
0089 8D00    R     MOV     AdcValue+01H,R5
008B 8C00    R     MOV     AdcValue,R4
                                           ; SOURCE LINE # 383
008D 120000  E     LCALL   _FilterNextSample
                                           ; SOURCE LINE # 384
0090 D007          POP     AR7
0092 D006          POP     AR6
0094 D005          POP     AR5
0096 D004          POP     AR4
0098 D003          POP     AR3
009A D002          POP     AR2
009C D001          POP     AR1
009E D000          POP     AR0
00A0 D0D0          POP     PSW
00A2 D082          POP     DPL
00A4 D083          POP     DPH
00A6 D0F0          POP     B
00A8 D0E0          POP     ACC
00AA 32            RETI    
C51 COMPILER V5.50,  ADS1241F                                                              14/09/07  10:19:46  PAGE 15  

             ; FUNCTION IntHandler (END)



MODULE INFORMATION:   STATIC OVERLAYABLE
   CODE SIZE        =    581    ----
   CONSTANT SIZE    =   ----    ----
   XDATA SIZE       =   ----    ----
   PDATA SIZE       =   ----    ----
   DATA SIZE        =     13      15
   IDATA SIZE       =   ----    ----
   BIT SIZE         =   ----    ----
END OF MODULE INFORMATION.


C51 COMPILATION COMPLETE.  0 WARNING(S),  0 ERROR(S)
